:020000040000FA
:10000000F80E0020D5000000DD000000DF00000039
:1000100000000000000000000000000000000000E0
:10002000000000000000000000000000E1000000EF
:100030000000000000000000E3000000E5000000F8
:1000400085A100003FC60000F9A500000BA6000036
:10005000B5A50000D7A50000A9AE000091AF000033
:1000600043C000009BC00000F5C000004FC100006D
:1000700069C7000089C70000E7000000E700000032
:10008000E7000000E7000000E7000000E7000000D4
:10009000E70000000000000000000000E700000092
:1000A000E7000000E7000000E7000000E7000000B4
:1000B00005A30000DFAD000000000000FDB8000057
:1000C000034885460CF08AFE00480047251C0000C6
:1000D000F80E00200448804704480047FEE7FEE78A
:1000E000FEE7FEE7FEE7FEE75D010000C10000005D
:1000F00070B51B4D28694007400F052800D9042022
:10010000022803D017498000085817E0286A000425
:10011000840F012C00D9641E286A000301D51248FF
:1001200000E01248296AC905C90D891C4843296A9B
:100130008904C90E891C0CF003FEE040A969090777
:10014000090F491C0CF0FCFD064C083C20600849D6
:100150004A1080180CF0F4FD606070BD704700001C
:10016000000200500800002000805101001BB70071
:1001700040420F00FFB581B005460E461746164CAB
:100180000120A840C0B20AF004FE01200AF014FECB
:1001900000200AF005FE0AF04EFE01E0641E15D3B1
:1001A0000AF055FE0028F9D0E8B20AF058FE04998A
:1001B00088420ED90A99002906D031683A68891A0E
:1001C000081830600009386005B0F0BD0020C04359
:1001D000FAE70020C043F7E7F401000038B56B4CA4
:1001E00059202060162020608820206017200AF007
:1001F00001FB18200AF0FEFA19200AF0FBFA1B2076
:100200000AF0F8FA1C200AF0F5FA1D200AF0F2FABA
:100210001020002200900223012110460AF056FD12
:100220000020206038BD38B50120594A00900023D5
:10023000111F0520FFF79EFF411C08D0554C206080
:10024000554948437D21C9000CF07AFD606038BDF6
:1002500038B54F4A0120083200900023111F0620B4
:10026000FFF788FF411C09D04A4CA0604A492C3155
:1002700048437D21C9000CF063FDE06038BD38B50E
:10028000434A0120103200900023111F0420FFF781
:1002900071FF411C09D03F4C20613F492C3148433C
:1002A0007D21C9000CF04CFD606138BD38B5384A7D
:1002B0000120183200900023111F0220FFF75AFF7F
:1002C000411C09D0334CA06133492C3148437D2176
:1002D000C9000CF035FDE06138BD38B52C4A01206D
:1002E000002320320090111F1846FFF743FF411CE6
:1002F00008D0284C2062294948437D21C9000CF0D0
:100300001FFD606238BD38B5214A01202832002324
:10031000111F0090FFF72EFF411C08D01D4CA0625A
:100320001E4948437D21C9000CF00AFDE06238BD3A
:1003300070B5174C083C2078411C2170002806D06D
:10034000012807D00025022807D0257070BDFFF7CF
:100350006AFF70BDFFF793FF70BDFFF7D4FF2570F4
:1003600070BD70B50A4C083C6078411C6170002873
:1003700004D00025012804D0657070BDFFF768FF28
:1003800070BDFFF7AAFF657070BD0000000100504E
:1003900028000020280300204C090000250300004D
:1003A000FB48C0687047FA4880687047F848406862
:1003B0007047F749C8607047F54988607047F4494D
:1003C0004860704770B50446F14D226800212869E5
:1003D00013000CF040FD08F205333D95F1F0EF32CB
:1003E000242001F0D7FC002827D12420616801F0E7
:1003F000CDFC0CF0BBFCFC210CF0A2FC0846032158
:100400000CF09EFC29788142F3D02870E04A143227
:1004100041004318D05C64214843000AFFF7CFFF36
:100420009A18507864214843000AFFF7C5FF907876
:1004300064214843000AFFF7BCFFF1E16069FFF760
:10044000BEFFA069FFF7B8FFE069FFF7B2FFE7E181
:1004500000280AD001281DD0022836D0E0680128E3
:10046000EBD9401EE0602961DAE10020FFF7A7FF29
:100470000020FFF7A1FF0020FFF79BFF2420616809
:1004800001F084FC2520A16801F080FC2869401C53
:100490002861C5E1242001F07DFC002809D06069B5
:1004A000FFF78DFFA069FFF787FFE069FFF781FF86
:1004B000B6E12420616801F069FC2520A16801F003
:1004C00065FC2869401C2861AAE1252001F062FC36
:1004D000002809D00020FFF772FF0020FFF76CFF13
:1004E0000020FFF766FF9BE12420616801F04EFCCD
:1004F0002520A16801F04AFC2869401C28618FE191
:1005000003000CF0A8FC0504112B456370000020CB
:10051000FFF755FF0020FFF74FFF0020FFF749FFCF
:100520002869401C28617BE1242001F033FC00286D
:100530000CD00020FFF743FF0020FFF73DFF002015
:10054000FFF737FF6320FFF73AFF69E12420616876
:1005500001F01CFC2869401C286161E1242001F0A5
:1005600019FC00280CD00020FFF729FF0020FFF71E
:1005700023FF0020FFF71DFF6320FFF71DFF4FE162
:100580002420616801F002FC2869401C286147E1D1
:10059000242001F0FFFB002810D00020FFF70FFF00
:1005A0000020FFF709FF0020FFF703FF6320FFF79C
:1005B00000FF35E150E01DE080E026E12420616885
:1005C00001F0E4FB2869401C286129E10020FFF7C5
:1005D000F6FE0020FFF7F0FE0020FFF7EAFE286994
:1005E000401C28611CE1E068012888D9401EE060B9
:1005F000296115E1002806D0E068012893D9401E42
:10060000E06029610CE1242001F0C4FB00288AD1BC
:10061000206963281CD22420616801F0B7FB25699A
:100620006D1C25616069642168430CF089FBFFF74C
:10063000C6FEA069642168430CF082FBFFF7BCFE94
:10064000E069642168430CF07BFBFFF7B2FEE7E052
:100650002869401C2861E3E0002806D0E0680128F2
:100660008DD9401EE0602961DAE0242001F092FB80
:10067000002884D1206900281CD02420616801F062
:1006800085FB25696D1E25616069642168430CF056
:1006900057FBFFF794FEA069642168430CF050FB00
:1006A000FFF78AFEE069642168430CF049FBFFF71D
:1006B00080FEB5E02869401C2861B1E06322030098
:1006C0000CF0C9FB06042038516B849C2069632818
:1006D00014D2242001F05EFB00280ED12420616892
:1006E00001F054FB2069401C2061FFF768FE0020E8
:1006F000FFF762FE6320FFF75CFE91E022610120BC
:1007000028618DE02069002811D0242001F042FBEF
:1007100000280BD12420616801F038FB6320FFF72B
:100720004EFE2069401E2061FFF743FE78E0022064
:10073000286175E02069632811D2242001F02AFB8A
:1007400000286DD12420616801F020FB6320FFF7B1
:1007500036FE2069401C2061FFF72EFE60E022611A
:10076000032028615CE02069002813D0242001F0D8
:1007700011FB002854D12420616801F007FB206997
:10078000401E2061FFF71BFE6320FFF715FE47E0C8
:10079000540000200420286142E02069632811D21F
:1007A000242001F0F7FA00283AD12420616801F0F2
:1007B000EDFA6320FFF700FE2069401C2061FFF77F
:1007C000F8FD2DE022610520286129E0206900283C
:1007D00011D0242001F0DEFA002821D12420616804
:1007E00001F0D4FA2069401E2061FFF7E5FD632087
:1007F000FFF7DFFD14E00620286111E0E068012822
:100800000ED9401EE06029610AE0216129610020C3
:10081000FFF7D5FD0020FFF7CFFD0020FFF7C9FD52
:1008200002F00AF9012809D0002001F0F0FB0020B5
:1008300001F026FC002001F05BFC70BDFFF7B6FD67
:1008400001F0E5FBFFF7AFFD01F01AFCFFF7A8FD93
:1008500001F04EFC70BD0149086170475400002052
:1008600010B5002001F0D3FB002001F009FC0020AE
:1008700001F03EFC10BD10B5874C0422226061607F
:10088000A160E06063206061A061E061242001F06C
:100890007DFA2520A16801F079FA0020FFF7DBFF3F
:1008A0002046FFF78FFD10BD10B57B4905220A6079
:1008B000486088607948C8600021242001F066FA09
:1008C0000021252001F062FA0020FFF7C4FF7248E2
:1008D000FFF778FD10BD10B56F4901220A6048602E
:1008E00088606E48C8600021242001F04FFA002182
:1008F000252001F04BFA0020FFF7ADFF6648FFF717
:1009000061FD10BD70B5644C062525606360A36071
:100910000125E56064256843000A60616420414365
:10092000080AA06164204243100AE06119462420AD
:1009300001F02CFA2520A16801F028FA0020FFF729
:100940008AFF2046FFF73EFD70BD002806D05449BF
:10095000012810D0022813D1C868A5E750484038B4
:10096000C16B4A008B18816B5B1CCAB2416B006B78
:10097000C9B2C0B2C6E788687821401C4843AAE7DC
:10098000704710B5444C002020606061A061E061B8
:100990002420616801F0FAF92520A16801F0F6F938
:1009A0000020FFF758FF2046FFF70CFD10BD70B583
:1009B0000D46394C0721216059086160A16001236F
:1009C000E36064235843000A606164204543280AB9
:1009D000A06164204243100AE061242001F0D6F9AE
:1009E0002520A16801F0D2F90020FFF734FF20464E
:1009F000FFF7E8FC70BD002804D0012801D00228D0
:100A00000BD1BEE726484038816BC36BCAB2416B3D
:100A1000006BDB1CC9B2C0B2C9E7704710B51E4CF1
:100A2000022323600123E36064235843000A6061CA
:100A300064204143080AA06164204243100AE06137
:100A40002420616801F0A2F92520A16801F09EF937
:100A50000020FFF700FF2046FFF7B4FC10BD10B5E3
:100A60000D4C03202060FA216160A1600F20E0603E
:100A7000632060610020A061E061242001F086F91C
:100A80002520A16801F082F90020FFF7E4FE20464E
:100A9000FFF798FC10BD000058030020102700004D
:100AA000FC0B002070B5054600240821002009F049
:100AB000FAFD280604D50B21002009F0D9FD03E03A
:100AC0000B21002009F0EFFD0A21002009F0D0FDE4
:100AD000012001F085FB0A21002009F0E4FD01203E
:100AE00001F07EFB6806050E641C082CE1D308218A
:100AF000002009F0BDFD70BD10B5044604210120A1
:100B000009F0D1FDE0B2FFF7CDFF10BD10B50446EE
:100B10000421012009F0ACFDE0B2FFF7C3FF10BDD6
:100B200010B50C46B030FFF7E7FF20091230FFF791
:100B3000E3FF2007000FFFF7DFFF10BDF7B50E46FC
:100B4000002500F0D4F9002801D0771C10E0022025
:100B5000FEBD30460099FFF7E3FF002428460299C6
:100B60006D1C085CFFF7D2FF641C052CF6D3761CC5
:100B7000BE42EED30020FEBDF7B50E46002500F0C4
:100B8000B6F9002801D0B71C10E00220FEBD3046A7
:100B90000099FFF7C5FF0024284602996D1C085CE8
:100BA000FFF7B4FF641C052CF6D3761CBE42EED3CF
:100BB0000020FEBDF7B50E46002500F098F900288C
:100BC00001D0B71C10E00220FEBD30460099FFF7AF
:100BD000A7FF0024284602996D1C085CFFF796FFCA
:100BE000641C0A2CF6D3761CBE42EED30020FEBD58
:100BF000F7B50E46002500F07AF9002801D0F71C61
:100C000010E00220FEBD30460099FFF789FF002466
:100C1000284602996D1C085CFFF778FF641C0E2CB7
:100C2000F6D3761CBE42EED30020FEBDFFB581B0E8
:100C30000F461646002500F05AF9002812D102206E
:100C400005B0F0BD30460199FFF76AFF019C06E050
:100C500028460A996D1C085CFFF758FF641CBC42CB
:100C6000F6D3761C04988642ECD30020E8E7FFB563
:100C700081B00646174600240091002500F037F9A0
:100C8000002807D00498002813D0012822D0052876
:100C900034D130E00220D3E7385D2038810041189C
:100CA00017480A1830460099FFF748FFF61D6D1CDB
:100CB000641C785D0A28EFD120E0385D0A212038D5
:100CC00048431049421830460099FFF755FFF61D7A
:100CD0006D1C641C785D0A28EFD10FE0385D14218B
:100CE000203848430849421830460099FFF762FF10
:100CF0000A366D1C641C785D0A28EFD100209FE73E
:100D000052E7000079E80000C7EA000010B50028AB
:100D10000ED001280BD1A120FFF7EEFEA820FFF78F
:100D2000EBFE2F20FFF7E8FEC820FFF7E5FE10BD21
:100D3000A020FFF7E1FEA820FFF7DEFE2F20FFF73F
:100D4000DBFEC020FFF7D8FE10BD10B5AE20FFF7C8
:100D5000D3FE0020FFF7D0FE1020FFF7CDFE40208D
:100D6000FFF7CAFEB020FFF7C7FE8120FFF7C4FEE1
:100D70008020FFF7C1FEA020FFF7BEFEA620FFF7F0
:100D8000BBFEA820FFF7B8FE2F20FFF7B5FEC0205E
:100D9000FFF7B2FED320FFF7AFFE0020FFF7ACFE57
:100DA000D520FFF7A9FE8020FFF7A6FED920FFF788
:100DB000A3FE2220FFF7A0FEDA20FFF79DFE1220FF
:100DC000FFF79AFEDB20FFF797FE3020FFF794FE37
:100DD0008D20FFF791FE9520FFF78EFEAF20FFF7E5
:100DE0008BFE10BD10B503242402204601F0F8F953
:100DF0000521012009F057FC204601F0F1F90521F9
:100E0000012009F035FC204601F0EAF910BD10B5CB
:100E100001220521104609F001FC01220A210020CF
:100E200009F0FCFB01220B21002009F0F7FB012255
:100E30000821002009F0F2FB01220421104609F0EC
:100E4000EDFBFFF7CFFFFFF780FF2A488069C0B2B4
:100E5000FFF75CFF10BD70B500252846B030FFF7E6
:100E60004BFE1220FFF748FE0020FFF745FE00244E
:100E70000020FFF74BFE641C402CF9D36D1C062D9F
:100E8000EBD370BDFFB581B007460E4615460CE0AA
:100E900039462846FFF744FE3C4603E00020FFF7B2
:100EA00035FE641CB442F9D36D1C04988542EFD31F
:100EB00005B0F0BD10B5044608F0D5F960436421D3
:100EC0000BF03EFFC4B2642C00D964241E2C00D267
:100ED0001E248120FFF710FE2046FFF70DFE10BDF7
:100EE00010B5FFF709FE10BD0349087070470248AE
:100EF000007870473C0B0020640100203EB5134C85
:100F00005920206016202060882020602A2009F0C7
:100F100071FC0F48009003206946087100254D714F
:100F20008D71CD7100200BF095FC0A4A0121002043
:100F30000BF098FD03220021022009F06FFB002135
:100F4000022009F095FB25603EBD00000001005025
:100F500000C20100590F000010B51422FB49002007
:100F60000BF0EBFD10BDFA4908707047F8490871A5
:100F70007047F7480078704710B5FFF7FAFF002870
:100F800005D001280ED00020FFF7EDFF10BD002195
:100F9000022009F06DFB0020FFF7E8FFED4900207B
:100FA000486010BD0021022009F07DFB10BDE8491A
:100FB00088707047F8B50024E74EE54F3546FF3599
:100FC000F1354D206102800209188022E24801F0CB
:100FD0003CF9FE60F868C17B962907D0A84207D388
:100FE000FE60641C5A2CECD30020F8BD0120F8BD33
:100FF0001030F860EEE7F0B58FB000200222D74B3A
:10100000D24919600E91097800297ED00B020E9901
:10101000CE4C4978E5780B43A1780D952D020D4310
:101020000C957D25ED004D430B95257B0A95257983
:10103000C84CCB4F80340994DE1B4034BB427ED079
:1010400027DCC84FC14DDE1B2D7ABB4278D014DCA3
:10105000C54A981A934274D008DCC448181871D055
:10106000C34A801825D001282AD12AE005286AD051
:10107000062869D00728F7D14AE1B44BB61F9C7BFC
:1010800033000BF0E8FE09F61D1D1DF5F4F3F2F137
:101090001D00F61F33000BF0DEFE16FAF9F8F7F626
:1010A000F5F4F3F2F1131313131313F0EF1313EE1C
:1010B000ED13FF29D8D10322AE4900200BF073FDB8
:1010C0004CE2FF2DFCD1A24800254571857101201D
:1010D000FFF74CFFA1489E4E036830369878307079
:1010E000D97871708C461979B1708E465979F17042
:1010F0009A793271DB79737101266F463E707D708B
:10110000019302920391049500E02BE27146059150
:101110006146069198494018079008AF3D706946AE
:1011200000200AF0FDFD002804D00322934900208E
:101130000BF039FD9248E1690170216A05E07BE11D
:10114000E8E069E005E26FE0DBE04170616A817030
:101150008C4FAB213868017013214170FF218173DE
:101160000C22874988480BF013FE87490F22891EFD
:1011700000200BF018FD032001F03AF809986421D3
:10118000406A0BF0DDFD7E4E0C3E30707F48002142
:10119000406A08F04FFF70702068B0700998006BCB
:1011A000F0700998406B30710998806B70710998E4
:1011B0007749C06A0BF0C4FDB0717D21C900A06AF7
:1011C0000BF0BEFDF0717D21C900A0690BF0B8FDE8
:1011D0003072A0207072C820B072F5723968AB20EE
:1011E0000870FFF7E7FE002803D039680C2048702C
:1011F00002E038680B2141703968FF20887360492C
:101200000C220C3960480BF0C3FD5F490F22891E88
:1012100000200BF0C8FCA1E1FF29FCD10998C16AAC
:10122000192000F0B3FD99E14848C079FF28F2D1B8
:10123000484901204860C860484D0C9808F01AF8E9
:10124000286842790179120211430A225143099A0E
:101250008079106000283FD0012819D04D4A02281B
:1012600024D0032838D12CE0E4E0DDE0D3E0C0E076
:101270009CE060E066E15EE156E14EE145E13DE182
:1012800035E12DE11CE113E10CE105E102E1EAE0C9
:1012900061637D2292014048914200D960637D22C2
:1012A000616B5201914217D2606315E0A1633B4B21
:1012B0003B48994200D9A063A16B91420CD2A06334
:1012C0000AE0E1632C48814200D9E263FF21E06B30
:1012D000F531884200D2E26303F069FFFFF7BBFDFE
:1012E0000021112000F052FD0021122000F04EFDDF
:1012F0000021132000F04AFD0021142000F046FDDB
:101300002CE10D98FF2886D1216003F050FF25E1E4
:10131000FF2923E10D98FF2885D10B98A061214A70
:101320002149904200D9A161A069884200D2A161FF
:1013300003F03DFF12E10D98FF28E1D1144841432D
:101340000998C16203F033FF08E100007803002030
:10135000700100203C0B0020A00300206801002049
:1013600019AA00000AAA000002AA0000FF77FFFFE6
:1013700001DEFFFF0BF10000D007000008F10000C4
:10138000BC0700206C0100208E03002028030020F1
:1013900060EA0000DC050000701700007C1500000A
:1013A000AC0D0000400D030000710200FF2C1FD1A6
:1013B000FD4901234B600023CB60FC4B11460E9C82
:1013C000521C615C1954401C0C28F7D3FFF743FDF5
:1013D0000021112000F0DAFC0021122000F0D6FCE0
:1013E0000021132000F0D2FC0021142000F0CEFCDC
:1013F000B4E0FF2C0ED1EC4901234B600023CB60FD
:10140000EA4B0C3311460E9C521C615C1954401C73
:101410000C28F7D3A2E0FF2D05D1E5490120487142
:101420008871FFF7C4FD99E0FF2D02D1E04901204A
:10143000887193E0FF2D91E00A9AFF2A12D1DA4BCE
:1014400001229A60D94A0A3A11700D99517005210A
:1014500095700B460E9C491CE35C1418E370401C0D
:101460000728F6D37AE00A9AFF2A77D1CE4B0122D9
:101470009A60CE4A143A11700D99517005219570F9
:101480000B460E9C491CE35C1418E370401C0728B3
:10149000F6D363E0FF2961E0FF2D5FD10C9805F0E2
:1014A0005EF85BE0FF2959D10020FFF75FFD55E0B2
:1014B0000D98FF2852D10B98A06203F078FE4DE002
:1014C000BC484079FF2849D10998016309990D98D2
:1014D0004863099885630020606003F068FE3DE082
:1014E0000D98FF283AD1616003F061FE36E0FF29D4
:1014F00034D10120E06103F05AFE2FE0FF292DD105
:101500000020E06103F053FE28E00D98FF2825D16C
:10151000A548016103F04BFE20E0FF291ED1012008
:10152000206203F044FE19E0FF2917D10020206259
:1015300003F03DFE12E0FF2910D10120606203F0AC
:1015400036FE0BE0FF2909D10020606203F02FFE78
:1015500004E0FF2902D10020FFF708FD142195487F
:101560000BF02FFC00200FB0F0BD91488078704741
:10157000F8B501F08FF905284DD0FFF7F6FF4D259E
:10158000AD028D4E8A4C002810D00020FFF70FFDD1
:1015900086480121490218300BF013FCA069802213
:1015A00040024119304600F050FE26616079002863
:1015B00061D0A0790027002853D0A7717F491A2055
:1015C00000F0E4FB00F0F6FD2169C87B962825D0E9
:1015D00076484C38814241D32661606900280CD09E
:1015E000A06904214002401900F050FEA069802249
:1015F00040024119704800F007FEA069401CA0613C
:101600005A2822D3A761677103226D4900200BF08D
:10161000CAFA0020F8BD0020C043F8BD2069C77396
:10162000012060616748AB220068027008224270A6
:10163000FF2242740F2264480BF0AAFB6249122277
:10164000891E00200BF0AFFA15E0400241198022FC
:10165000594800F0FAFD26616761B3E71031216156
:10166000B0E71A2000F096FB002804D1677103222E
:1016700056490BF098FA0020F8BD4D484079704764
:101680004B4800797047F0B589B0074601F0D0F9B2
:101690000024E443012806D003F0FEF8002804D01B
:1016A000204609B0F0BD2046FBE7FFF7E9FF002820
:1016B00003D0FFF7E2FF002845D03B4E3C4C3046BC
:1016C000F1688030012940D081690A0AA16A0A7054
:1016D00082694A70F16AA56A090AA970F16AE9701B
:1016E000406A64210BF02CFB28710E2000F052FBA5
:1016F00037497D25081AED0029460BF021FBA16A28
:10170000487134480021406A08F094FCA16A88714D
:10171000694600200AF00FFA0798D021411AA06A02
:10172000C1710699017205994172039981720299FA
:10173000C172019901739621C173F06F00280BD01B
:10174000012821D029E02046ABE7C1690A0AA16A35
:101750000A70C2694A70BDE701F067F9E121C9006A
:10176000484329460BF0ECFAA16A2030487301F097
:101770005CF9E121C900484329460BF0E1FA203029
:10178000A16A000A887308E001F04FF9A16A487362
:1017900001F04BF9A16A000A88734D25AD02002FB4
:1017A0001AD0012F4DD13FE03C0B0020DC07002078
:1017B0007001002078030020A0050020983A000066
:1017C000FCF000006C0100208E030020FFF0000000
:1017D000A82F0000280300201022A16AA0680BF0A7
:1017E000D7FAEF49A06888421BD3EE48A060E06AB0
:1017F00004214002401900F049FDE06A80224002C5
:101800004119E84800F000FD01214902E5480BF0CC
:10181000D8FAE06A401CE0625A2812D30020E06245
:101820000FE01030A0600CE0E06A04214002401993
:1018300000F02CFDE06A802240024119D94800F0F6
:10184000E3FC00202DE7F0B589B001F0F1F80024A9
:10185000E443012805D003F01FF8002803D02046F8
:101860001FE720461DE701F015F8CF4C052803D0EF
:10187000CE482062002014E70E2000F08BFACC4FF7
:101880007D21381AC9000BF05BFA6062216A81423F
:10189000F0D02062C74D2846E968803001291CD06D
:1018A00081690A0AE1690A7082694A70E96AE6692F
:1018B000090AB170E96AF170406A64210BF040FADC
:1018C00030710E2000F066FA7D26381AF600B0421C
:1018D0000AD2E169002048710FE0C1690A0AE16992
:1018E0000A70C2694A70E1E70E2000F053FA381A14
:1018F00031460BF025FAE1694871AF480021406A92
:1019000008F098FBE1698871694600200AF013F934
:101910000798D021411AE069C171069901720599B1
:101920004172039981720299C17201990173002178
:10193000C173E86F002802D0012818D020E001F020
:1019400074F8E121C900484331460BF0F9F9E16927
:101950002030487301F069F8E121C900484331465D
:101960000BF0EEF92030E169000A887308E001F01D
:101970005CF8E169487301F058F8E169000A88737E
:101980008E48AB210068017001214170FF21417434
:1019900084490F2254398A480BF0FAF988491222F7
:1019A000891E00200BF0FFF8606A002800D161E773
:1019B0000020FFF768FE5DE77B494870704770B50F
:1019C000062804D90120FFF7F7FF002070BD7549F4
:1019D000744A2C390D18E978223A09021418E07873
:1019E00001430BD000F059FFE978E2780902114376
:1019F000884208D30120FFF7DFFF07E00020FFF750
:101A0000DBFF002070BD0020FFF7D6FF002070BD77
:101A10006849C031086370476648C030006BC0B287
:101A20007047F0B589B0694600200AF084F806983E
:101A3000C6B20598C4B2FFF7EFFF00275D4DA04284
:101A400006D02046FFF7E4FF2F62002004F087FD58
:101A5000A868002804D0012816D0AF60002020E636
:101A6000E86900280CD000F018FFE969884203D328
:101A70000120FFF7A1FFF1E70020FFF79DFFEDE751
:101A80000020FFF799FFE9E7464D2C3D6978B14208
:101A900005D1A878201AC0B2FFF791FFDEE71F201A
:101AA0001E220B000BF0D7F90D08091030373E4508
:101AB0004C535A61686F0800D0E7A978401A0019A2
:101AC000C0B2FFF77CFFC9E72E78B00705D16421CB
:101AD00030460BF035F900290ED1FF219131304607
:101AE0000BF02EF9002907D0A8781C21081A00193C
:101AF000C0B2FFF764FFB1E7A8781D21081A0019EA
:101B0000C0B2FFF75CFFA9E7A978401A0019C0B27C
:101B1000FFF755FFA2E7A878101A0019C0B2FFF727
:101B20004EFF9BE7A978401A0019C0B2FFF747FFA4
:101B300094E7A878101A0019C0B2FFF740FF8DE7AC
:101B4000A978401A0019C0B2FFF739FF86E7A978D3
:101B5000401A0019C0B2FFF732FF7FE7A878101AC9
:101B60000019C0B2FFF72BFF78E7A978401A0019D7
:101B7000C0B2FFF724FF71E7A878101A0019C0B2AD
:101B8000FFF71DFF6AE7A978401A0019C0B2FFF7F6
:101B900016FF63E700207047034840787047000055
:101BA000E4090020F407002070010020FF0F00006E
:101BB000A82F00003C0B0020280300206C0100200F
:101BC0008E03002010B556490878C043C0B2087093
:101BD000002804D00821012008F04AFD10BD08218A
:101BE000012008F060FD10BD10B500F0F1F8FEF71F
:101BF00037FE00F09DF8FFF70AF907F056FB00F0FA
:101C000045F900F071F9FFF779F9FFF7C3FF00F02C
:101C100093F900F0D3F900F00AFA00F041FAFEF768
:101C2000DDFA10BDFFF7E0FF00F04DFB00F062FBB6
:101C300006F053FF00F070FA06F091FF08F03CFA4E
:101C400000F097FA0020FFF78EF93649102000F0D7
:101C50009DF8FF212D310120FEF70DFE022000F03E
:101C600099F8002805D10121022000F08FF8FEF735
:101C700078FB012000F08EF800280AD11421012001
:101C800000F084F807F065FD00F094FA2648012181
:101C9000C161002000F07EF8002804D1022100F08C
:101CA00075F806F0FCFF1B2000F074F8002805D141
:101CB00032211B2000F06AF8FFF79DF91D2000F08B
:101CC00069F8002805D132211D2000F05FF8FFF7E8
:101CD000BAFD1C2000F05EF8002805D132211C203E
:101CE00000F054F8FFF744FC042000F053F80028FB
:101CF00006D17D21C900042000F048F8FFF791FECD
:101D0000232000F047F8002806D10521232000F009
:101D10003DF80648FEF756FBFFF754FF9EE700002C
:101D2000A6010020DC050000FC0B00205803002069
:101D300010B50A4C592020601620206088202060B1
:101D40000121002008F0B2FA054808F0E2FB05483E
:101D500008F0A1FB0020206010BD00000001005031
:101D60008813000080F0FA0210B517490878C043C4
:101D7000C0B20870002804D00921002008F078FCC7
:101D800010BD0921002008F08EFC10BD0F4A800014
:101D9000115070470D4980000858704700210A4AC9
:101DA0005078401CC0B250700A280CD300205070EC
:101DB00006480268002A01D0521E0260001D491C1C
:101DC0004529F6D3D0E77047A7010020040A002078
:101DD00010B5284C592020601620206088202060F3
:101DE00001220421022008F019FC234881681022F6
:101DF0009143816001221146022008F00FFC01216D
:101E0000022008F050FC01220321022008F006FC09
:101E10000321022008F047FC01220221104608F0AD
:101E2000FDFB0221012008F03EFC012207210220D7
:101E300008F0F4FB0721022008F035FC0221012202
:101E4000084608F0EBFB0221084608F02CFC0322B0
:101E50000921002008F0E2FB03220821012008F0FC
:101E6000DDFB03220821012008F0D8FB00202060C0
:101E700010BD0000000100508040005010B5FFF779
:101E80008DFF13480168491C016010BD10B5114C4D
:101E90005920206016202060882020600AF084F9F4
:101EA0000721022008F08EF901220B4900200AF0D8
:101EB00082F90123094A022100200AF0F2FA0020E7
:101EC0000AF081FB00200AF0A3FB0020206010BD77
:101ED0001C00002000010050204E00007D1E00006C
:101EE00010B5FEF725FA10BD10B5104C5920206032
:101EF00016202060882020600AF056F9072104206F
:101F000008F060F901220A4902200AF054F902217E
:101F10000123084A08460AF0C4FA02200AF053FBDB
:101F200002200AF075FB0020206010BD0001005067
:101F3000204E0000E11E00007FB51E4C592020609D
:101F4000162020608820206009F096F8342008F0E0
:101F500051FC0221002009F09EFC01206A4610700D
:101F60006421517000259570D57013490191029537
:101F700003906946002009F054F90121002009F07E
:101F800044FC0121002009F0A5F825607FBD1FB5A4
:101F90005E2800D95E2001216A4611706422101A61
:101FA0006A4650700448019003916946002009F088
:101FB00038F91FBD00010050400D03007FB5544C9F
:101FC000592020601620206088202060362008F0EC
:101FD00011FC0221084609F05EFC01206A461070DF
:101FE0006421517000259570D5704A490191029580
:101FF00003906946022009F014F90121022009F03A
:1020000004FC0121022009F065F825607FBD1FB5A1
:1020100001216A4611706422101A6A4650703D48C8
:10202000019003916946022009F0FBF81FBD7FB5BE
:10203000374C5920206016202060882020603720EF
:1020400008F0D8FB0221032009F025FC01206A4694
:1020500010706421517000259570D5702D49019143
:10206000029503906946032009F0DBF80121032063
:1020700009F0CBFB0121032009F02CF825607FBD7E
:102080001FB501216A4611706422101A6A46507009
:102090002048019003916946032009F0C2F81FBD52
:1020A0007FB51B4C592020601620206088202060BE
:1020B000352008F09FFB0221012009F0ECFB0120F4
:1020C0006A4610706421517000259570D5701149D1
:1020D000019102950390694609F0A3F80121084691
:1020E00009F093FB0121084608F0F4FF25607FBD4D
:1020F0001FB501216A4611706422101A6A46507099
:102100000448019003916946012009F08AF81FBD37
:1021100000010050D007000010B58AB00B4C5920C8
:102120002060162020608820206009F01EFC01A895
:1021300009F042FC002009F000FF0548016B08226D
:1021400091430163002020600AB010BD00010050DF
:10215000008000401F48592101601621016088213C
:1021600001601D490A6808231A430A6000210160C2
:10217000704710B5174C5920206016202060882029
:1021800020600221002008F01DF807200AF0B0FAB4
:1021900012480AF0CAFA002108460AF05EFA002145
:1021A00002200AF05AFA002107200AF056FA00200D
:1021B000206010BD10B5074C59202060162020600B
:1021C00088202060002106200AF047FA00202060C5
:1021D00010BD0000000100500040004055210000EB
:1021E00003E00221491E0029FCD1401EF9D27047AC
:1021F000044A03E01146491E0029FCD1401EF9D2D1
:10220000704700009D170000F8B505460F461646BA
:10221000002472B6592135480160162101608821D9
:1022200001600AF065FD07E020468000641CC019CB
:1022300029680AF0DFFC2D1D761EF5D20AF06EFD2E
:102240002A480021016062B6F8BDF8B506460F467F
:102250001546002472B659212448016016210160F8
:10226000882101600AF044FD07E020468000641CDC
:10227000C01931460AF0E8FC361D6D1EF5D20AF091
:102280004DFD1A480021016062B6F8BDF8B506465A
:102290000D46002472B65920144F3860162038605D
:1022A000882038600AF024FD05E020468000641C88
:1022B00080190AF0F5FC6D1EF7D20AF02FFD002000
:1022C000386062B6F8BD10B5084C59202060162061
:1022D0002060882020600AF027FD13214122090395
:1022E0000348FFF7B2FF0020206010BD000100503E
:1022F0003C0B0020F8B5DE4B7D26986A7601B04293
:1023000000D29E62DB49986A884200D99E62DA4A0E
:10231000186B904200D21A63D848196B814200D9D9
:102320001A63D86F0125012800D9DD67D048C8217C
:1023300080304468C82C00D241604B274468FF00BD
:10234000BC4200D941608168642901D26421816066
:10235000FF2481683C34A14201D964218160016875
:10236000002900D105600168032900D90560C4680F
:102370000021012C00D9C1605C68002C00D059609C
:10238000DC68022C00D9D960BD4C1F69A74201D975
:1023900003241C61BB4CC76AA74200D3C462BA4C79
:1023A000C76AA74201D8B74CC4629C69012C00D906
:1023B0009961B34CDF69A74200D9D961AC4B1B6A64
:1023C0005B1C01D1AA4B1962A94CB04FC034A36A5F
:1023D000BB4201D2AE4BA362AE4FA36ABB4201D94E
:1023E000AB4BA362E36A012B00D9E162AA4B1F68E1
:1023F000012F00D91960076BFF23FF2F00D903635A
:10240000476BFF2F00D94363876BFF2F00D983638E
:10241000C36B0F2B00D9C1632368012B00D9256042
:102420006368032B00D96160A3680F2B00D9A160FA
:10243000E3680F2B00D9E1608D4B9B6B102B01D310
:102440008B4B9963836A642B01D9642383628E4B1F
:1024500007695B1E9F4200D3016187699F4200D3D9
:102460008161C7699F4200D3C161E069012800D939
:10247000E161206A012800D92162606A012800D93F
:1024800061627E48A3698549834200D9A161A06940
:10249000884200D2A1617D23606B9B01984200D9E4
:1024A0006263606BB04200D262637D4EA06B7D4B75
:1024B000B04200D9A3637C48A66B864200D2A363D6
:1024C0007D26E36B3601B34200D9E063FF26E36B60
:1024D000F536B34200D2E063654EF06B904202D312
:1024E000A369984201D96848F063306C904202D3E6
:1024F000A369984201D96D483064706C904202D350
:10250000A369984201D96A487064B06C904202D3C2
:10251000A369984201D96748B064F06C904202D335
:10252000A369984201D96448F064306D904202D3A7
:10253000A369984201D956483065706D904202D324
:10254000A369984201D95D487065B06D904202D38D
:10255000A369984201D95A48B065F06D904202D300
:10256000A369984201D95748F065306E904202D372
:10257000A369984201D954483066706E904202D3E4
:10258000A369984201D951487066B06E904202D357
:10259000A369984201D94E48B066F06E904202D3CA
:1025A000A369984201D94B48F066306F904202D33C
:1025B000A369984201D948483067706F904202D3AE
:1025C000A369984201D945487067B06F904202D321
:1025D000A269904200D9B167FF21153140480AF045
:1025E000F0FB14213F480AF0ECFB14213E480AF0AE
:1025F000E8FB002002F0D1FD0020FFF7C8FC3B48BB
:1026000081681022914381600121022008F04BF87B
:102610000321022008F047F80721022008F028F8DB
:102620000221084608F03FF8002002F009F90120D5
:1026300001F02DFE082000F05BF8002001F0ACFE58
:10264000756206F093FE002811D006F05DFE0028AA
:102650000DD106F072FE002809D11620A16AFFF7FD
:1026600095FB012000F044F80020FEF74FFBF8BD79
:102670003C0B0020E02E000070170000400D03000E
:10268000FF0F0000C027090010270000983A000043
:1026900060EA000080A903003C0C002000710200E9
:1026A0007C150000AC0D0000DC050000204E000091
:1026B00030750000409C000050C300007011010004
:1026C00080380100905F0100A0860100B0AD0100DC
:1026D000C0D40100D0FB0100E0220200F04902005A
:1026E000040A0020780300208C0300208040005062
:1026F000FF4948707047FE480078704770B5002168
:10270000084607F0DEFF0021012007F0DAFF002174
:10271000022007F0D6FF0621022007F0A9FF0F21B3
:10272000012007F0A5FF0321002007F0A1FFF149D8
:10273000012048620020FFF76AFC0020FFF7A0FCA0
:102740000020FFF7D5FCFEF74DFBFEF784FB0020D1
:10275000FFF71DFC0121022007F0A5FF0321022045
:1027600007F0A1FF0221012007F09DFF07210220B1
:1027700007F099FFE04CA0681026B043A06002214A
:10278000084607F090FF0021022007F071FF0020AB
:10279000FEF7ECFBD94D59202860162028608820D0
:1027A000286008F0D6FA08F078FC00200AF025F935
:1027B00028030AF022F9012009F03DFE032009F068
:1027C0003AFE002008F016F800221146012007F01A
:1027D00025FF01210022084607F020FF002007F016
:1027E0009CFD00202860FFF7FFF90020FFF7CFFBDA
:1027F0000121022007F057FF0321022007F053FFB9
:102800000221012007F04FFF0721022007F030FFCF
:10281000A068B043A0600221084607F044FFB54815
:10282000C030816A1620FFF7B1FAFF21F531282068
:10283000FFF7ACFAFF2191310F20FFF7A7FAFFF75E
:102840005AFF012802D10720FFF752FF70BDA849A7
:1028500048727047A64988717047A549487170470A
:1028600000B5A74AA749D068884203D90120FFF7DD
:10287000F4FF02E00020FFF7F0FF1921D068090201
:10288000884203D20120FFF7E5FF00BD0020FFF7DB
:10289000E1FF00BD9648407870479648C030006917
:1028A000704708B5934919228031496A0020120205
:1028B00091420BD97D20944BC000994206D2881AD0
:1028C0007D21C900484391490AF03AFA0A210AF0E9
:1028D00037FA06210AF034FA03000AF0BCFA1009AC
:1028E000121B242D363F48515A636C757E87909990
:1028F000874800900323002240213820FEF796F9F4
:1029000008BD844800900323002240213820FEF7B0
:102910008DF908BD80480090032300224021382013
:10292000FEF784F908BD7D48009003230022402172
:102930003820FEF77BF908BD794800900323002278
:1029400040213820FEF772F908BD76480090032335
:10295000002240213820FEF769F908BD7248009036
:102960000323002240213820FEF760F908BD6F489C
:1029700000900323002240213820FEF757F908BDBC
:102980006B4800900323002240213820FEF74EF9C7
:1029900008BD684800900323002240213820FEF73C
:1029A00045F908BD644800900323002240213820E7
:1029B000FEF73CF908BD6148009003230022402146
:1029C0003820FEF733F908BD5D480090032300224C
:1029D00040213820FEF72AF908BD5A480090032309
:1029E000002240213820FEF721F908BD564800900A
:1029F0000323002240213820FEF718F908BD534870
:102A000000900323002240213820FEF70FF908BD73
:102A10004F4800900323002240213820FEF706F99A
:102A200008BD3448C030406970473148C06A7047BB
:102A300030484069C0B270472E48C0300068C0B20C
:102A40007047F0B585B0002001903D20FFF7A2F956
:102A5000274D284E7D2400272035C036E40000286D
:102A600045D02878002802D02F70FEF7F4F94320D3
:102A7000FFF790F900287BD1FF21F5314320FFF7C4
:102A800085F90120FEF730FA3D20FFF783F931493F
:102A90000AF056F9304D084629460AF051F92A2124
:102AA00048432E4F0121C2190E20FEF7A1F83D2008
:102AB000FFF770F929460AF043F9084621460AF063
:102AC0003FF92A214843C21901211C20FEF790F842
:102AD000234800900423032232212A20FEF7A6F87F
:102AE000012320A204210A20FEF7C1F841E05CE0A6
:102AF000AC0100203C0B0020804000500001005041
:102B000028030020282300003A2000003A07000094
:102B10009EDC000086DC00006EDC000056DC00005D
:102B20003EDC000026DC00000EDC0000F6DB0000CE
:102B3000DEDB0000C6DB0000AEDB000096DB000041
:102B40007EDB000066DB00004EDB000036DB0000B1
:102B50001EDB0000A0860100102700004FEF0000E0
:102B6000BEDC00004C4F41442E2E2E0A0000000017
:102B700015E000211120FFF709F900211220FFF7CD
:102B800005F900211320FFF701F900211420FFF7B8
:102B9000FDF8AF20FEF7A4F90020FEF7A5F91620F6
:102BA000B16AFFF7F3F805B0F0BD2878002803D12B
:102BB00001202870FEF74FF93B20FFF7EBF8FF49A3
:102BC00000285FD0C87D002802D0CF75FEF743F9FA
:102BD0000120FEF789F9FA49C86800280BD00128BE
:102BE00026D0022841D0CF60AF20FEF779F900202F
:102BF000FEF77AF9D7E70523F2A201210D20FEF7AF
:102C000036F80523F1A203210D20FEF730F8F14834
:102C100000900323012206210020FEF707F8EE486A
:102C200000900323012240213A20FDF7FFFFDBE75C
:102C30000523EAA201210D20FEF719F80523E3A2DE
:102C400003210D20FEF713F8E24800900323012230
:102C500006210020FDF7EAFFDF4800900323012250
:102C600040213A20FDF7E2FFBEE70523DDA2012166
:102C70000320FDF7FCFF03210523DCA20846FDF736
:102C8000F6FFB1E7CD48C07D002804D1CB49012033
:102C9000C875FEF7E0F83C20FFF77CF8002854D018
:102CA000C648017E002902D00776FEF7D4F801203D
:102CB000FEF71AF90123CFA219460520FDF7D7FF29
:102CC000BF49086903000AF0C6F80627040B121969
:102CD00020270523CAA203210720FDF7C8FF1DE016
:102CE0000523C9A203210D20FDF7C1FF16E005232E
:102CF000C7A203210D20FDF7BAFF0FE00523C6A2EE
:102D000003210D20FDF7B3FF08E00523C4A2032132
:102D10000720FDF7ACFF01E003200861AD480090FB
:102D20000523032206210020FDF780FFAA4800901A
:102D30000523032240213A20FDF778FFAF20FEF75C
:102D4000CFF80020FEF7D0F82DE79C48007E002841
:102D500004D19A4901200876FEF77DF81E20FFF77E
:102D600019F8002841D09548417E002902D04776C5
:102D7000FEF771F80120FEF7B7F8FEF7FAF8AA4C53
:102D8000012804D0FEF7F5F8002814D026E004232B
:102D90000022302110200094FDF748FF0023A3A259
:102DA00004210120FDF763FF0023A3A205210420D5
:102DB000FDF75DFF12E00423002230211020009473
:102DC000FDF734FF002399A204210120FDF74FFFF6
:102DD00000239CA205210120FDF749FFAF20FEF74B
:102DE0007FF80020FEF780F8DDE67448407E00287A
:102DF00004D1724901204876FEF72DF82720FEF70E
:102E0000C9FF002842D06D48817E002902D0877614
:102E1000FEF721F80120FEF767F8FFF70DFE012805
:102E200004D0FFF709FE002815D028E0884800905C
:102E30000423002230211020FDF7F8FE002385A294
:102E400004210120FDF713FF052100237AA2084683
:102E5000FDF70DFF13E0824800900423002230218B
:102E60001020FDF7E3FE00237AA204210120FDF7E4
:102E7000FEFE002373A205210120FDF7F8FEAF201E
:102E8000FEF72EF80020FEF72FF88CE64B48807EE8
:102E9000002804D1494901208876FDF7DCFF3E2057
:102EA000FEF778FF002830D04448C17E002902D0C8
:102EB000C776FDF7D0FF0120FEF716F8F06A00286C
:102EC00009D0012814D0F762AF20FEF709F80020DE
:102ED000FEF70AF867E6002362A201210820FDF749
:102EE000C6FE052362A203210720FDF7C0FEEBE723
:102EF00000235CA201210820FDF7B9FE05235EA294
:102F000003210220FDF7B3FEDEE72C48C07E002837
:102F100004D12A490120C876FDF79DFF3F20FEF726
:102F200039FF002848D02548017F002902D00777C3
:102F3000FDF791FF0120FDF7D7FF002350A21946AE
:102F40000220FDF794FE1E4F5049386A504E514DF5
:102F5000884232D3214609F0F3FE4F4909F0F0FED2
:102F600008464E4909F0ECFE10301421484342193E
:102F700001210720FDF71EFE2146386A09F0E0FE18
:102F8000464909F0DDFE0846214609F0D9FE103019
:102F900014214843421901211120FDF70BFE21465F
:102FA000386A09F0CDFE214609F0CAFE08466421C0
:102FB00009F0C6FE103073E082E2A2E0AC0100200E
:102FC0003C0B0020574154540A0000004D4F44452B
:102FD0000A000000C0E00000CCE0000054454D5065
:102FE0000A0000004D454D4F52590A00204D4F44F4
:102FF00045200A00535452454E4754480A000000E9
:10300000204D494E200A0000534F46540A0000004C
:103010004E4F524D0A000000484152440A00000041
:10302000204D4158200A00001ED40000424C554556
:10303000544F4F54480A00002020204F4E2020209B
:10304000200A00002020204F46462020200A0000B1
:103050001ED500002020204C45442020200A0000DE
:103060009ED50000535445414C54480A00000000CE
:10307000204F464620200A0020204F4E20200A00E4
:103080002020544F44415920200A00008096980087
:103090003AE70000C7EA0000A08601001027000000
:1030A00014214843421901211B20FDF783FD2146CD
:1030B000386A09F045FE642109F042FE08460A21FB
:1030C00009F03EFE10301421484342190121252009
:1030D000FDF770FD2146386A09F032FE0A2109F039
:1030E0002FFE1031142041434A1901212F20FDF7F2
:1030F00061FD03230122432139200096FDF796FD4F
:10310000D1E0FF4988424ED3214609F019FEFD491E
:1031100009F016FE0846214609F012FE103014216F
:103120004843421901210C20FDF744FD2146386A2D
:1031300009F006FE214609F003FE0846642109F065
:10314000FFFD103014214843421901211620FDF7DC
:1031500031FD2146386A09F0F3FD642109F0F0FDE4
:1031600008460A2109F0ECFD1030142148434219A9
:1031700001212020FDF71EFD2146386A09F0E0FDFF
:103180000A2109F0DDFD1031142041434A190121C3
:103190002A20FDF70FFD032301223E213420009653
:1031A000FDF744FD7FE0D84988423BD3214609F032
:1031B000C7FD214609F0C4FD0846642109F0C0FDA1
:1031C000103014214843421901211120FDF7F2FC6F
:1031D0002146386A09F0B4FD642109F0B1FD0846C2
:1031E0000A2109F0ADFD1030142148434219012194
:1031F0001B20FDF7DFFC2146386A09F0A1FD0A21FA
:1032000009F09EFD1031142041434A190121252067
:10321000FDF7D0FC0323012239212F200096FDF772
:1032200005FD40E0B749884228D3214609F088FDD2
:10323000642109F085FD08460A2109F081FD10305E
:1032400014214843421901211620FDF7B3FC214601
:10325000386A09F075FD0A2109F072FD1031142059
:1032600041434A1901212020FDF7A4FC0323012238
:1032700034212A200096FDF7D9FC14E0214609F0FC
:103280005FFD0A2109F05CFD1031142041434A1909
:1032900001211B20FDF78EFC032301222F21252075
:1032A0000096FDF7C3FC002398A203210220FDF73E
:1032B000DEFCFFF7F2FA934EB04251D3FFF7EDFA7E
:1032C000914909F03DFD0846314609F039FD1030BD
:1032D00014214843421904210720FDF76BFCFFF736
:1032E000DCFA314609F02CFD0846214609F028FD9C
:1032F000103014214843421904211120FDF75AFCD3
:10330000FFF7CBFA214609F01BFD0846642109F0BE
:1033100017FD103014214843421904211B20FDF7EA
:1033200049FCFFF7BAFA642109F00AFD08460A21B0
:1033300009F006FD103014214843421904212520CC
:10334000FDF738FCFFF7A9FA0A2109F0F9FC103162
:10335000142041434A1904212F20FDF72BFCA8E03B
:10336000FFF79BFAA04240D3FFF797FA314609F0E6
:10337000E7FC0846214609F0E3FC103014214843DD
:10338000421904210C20FDF715FCFFF786FA2146AF
:1033900009F0D6FC0846642109F0D2FC1030142153
:1033A0004843421904211620FDF704FCFFF775FA83
:1033B000642109F0C5FC08460A2109F0C1FC10305F
:1033C00014214843421904212020FDF7F3FBFFF7A5
:1033D00064FA0A2109F0B4FC1031142041434A195F
:1033E00004212A20FDF7E6FB63E0FFF756FA642884
:1033F0002FD3FFF752FA214609F0A2FC08466421B8
:1034000009F09EFC10301421484342190421112078
:10341000FDF7D0FBFFF741FA642109F091FC084663
:103420000A2109F08DFC103014214843421904216F
:103430001B20FDF7BFFBFFF730FA0A2109F080FCE3
:103440001031142041434A1904212520FDF7B2FB15
:103450002FE0FFF722FA0A281ED3FFF71EFA642195
:1034600009F06EFC08460A2109F06AFC10301421AC
:103470004843421904211620FDF79CFBFFF70DFA83
:103480000A2109F05DFC1031142041434A1904213E
:103490002020FDF78FFB0CE0FFF7FFF90A2109F070
:1034A0004FFC1031142041434A1904211B20FDF721
:1034B00081FBAF20FDF714FD0020FDF715FD43E46F
:1034C0001548007F002804D1134901200877FDF733
:1034D000C2FC3A20FEF75EFC00287ED00E48417FF9
:1034E000002902D04777FDF7B6FC0120FDF7FCFC70
:1034F0000A49002008F01FFB0423094D022211E0B5
:1035000040420F0010270000A086010020205055E7
:1035100046465320200A0000AC010020180B002072
:10352000A3E0000020211E200095FDF77FFB04236F
:10353000022231212F200095FDF778FBFE4DFF4937
:10354000E86909F0FDFB08462646314609F0F8FB1C
:10355000FB4C0001001900900423022209210120E4
:10356000FDF764FB3146E86909F0EAFB084664218F
:1035700009F0E6FB0001001900900423022210214B
:103580000820FDF753FB6421E86909F0D9FB0846E0
:103590000A2109F0D5FB0001001900900423022242
:1035A00017210F20FDF742FB0A21E86909F0C8FB4B
:1035B000080100190090042302221E211620FDF7A5
:1035C00035FB6421A86909F0BBFB08460A2109F014
:1035D000B7FB00010019042300E037E0009002224D
:1035E00028212020FDF722FB0A21A86909F0A8FB69
:1035F000080100190090042302222F212720FDF743
:1036000015FB6421686909F09BFB08460A2109F053
:1036100097FB000100190090042302223921312078
:10362000FDF704FB0A21686909F08AFB080100190B
:1036300000900423022240213820FDF7F7FAAF2042
:10364000FDF74EFC0020FDF74FFC1EE4BD48407F17
:10365000002804D1BB4901204877FDF7FCFB392045
:10366000FEF798FB00285ED0B648817F002902D083
:103670008777FDF7F0FB0120FDF736FCAE4900200F
:1036800008F059FAAC4C6421E06809F059FB08468F
:103690000A2109F055FB38214843AB4D0523401959
:1036A000009001220E210020FDF7C0FA0A21E068F7
:1036B00009F046FB382041434819009005230122B8
:1036C0001C210E20FDF7B2FAA0480090052301222C
:1036D00023211D20FDF7AAFA6421A06809F030FB20
:1036E00008460A2109F02CFB382148434019009074
:1036F0000523012232212420FDF798FA0A21A0682F
:1037000009F01EFB3820414348190090052301228F
:1037100040213220FDF78AFAAF20FDF7E1FB0020BF
:10372000FDF7E2FBCBE68748807F002804D185497E
:1037300001208877FDF78FFB0F20FEF72BFB002879
:103740002CD08048C17F002902D0C777FDF783FBCA
:103750000120FDF7C9FB0423022209210020FDF707
:1037600091FB0423022240213620FDF78BFB784891
:1037700000220090042340211046FDF757FA7548B7
:1037800000900623042240210020FDF74FFAAF20CD
:10379000FDF7A6FB0020FDF7A7FB90E66948C07F78
:1037A000002804D167490120C877FDF754FB2D207C
:1037B000FEF7F0FA002838D02D20FEF7EBFAA042F1
:1037C00033D26878002812D06F70FDF744FB0021D7
:1037D0001120FEF7DBFA00211220FEF7D7FA0021B4
:1037E0001320FEF7D3FA00211420FEF7CFFA0120B0
:1037F000FDF77AFB58480090042300223821082066
:10380000FDF714FA002355A204210520FDF72FFA35
:10381000002355A205210220FDF729FAAF20FDF76C
:103820005FFB0020FDF760FB49E66878002803D1C4
:1038300001206870FDF70FFB1720FEF7ABFA002898
:1038400033D04048417D002905D04775AE20FDF7B3
:1038500047FBFDF700FBFFF7EBF8002810D1012034
:10386000FDF742FB43480090062300223821082040
:10387000FDF7DCF9AF20FDF733FB0020FDF734FB4B
:10388000FFF7D6F8012888D1FDF72EFB3A480090C3
:103890000623002230211020FDF7C8F9AF20FDF7E4
:1038A0001FFB0020FDF720FB09E62648407D00288D
:1038B00004D1244901204875FDF7CDFA1820FEF700
:1038C00069FA002818D01F48817D002902D0877529
:1038D000FDF7C1FA0120FDF707FB274800900623FA
:1038E000002230211020FDF7A1F9AF20FDF7F8FAF2
:1038F0000020FDF7F9FAE2E51248807D002804D1A6
:10390000104901208875FDF7A6FA1220FEF742FA49
:103910000949A431039100283BD1FF215F311220D6
:10392000FEF734FAF06A012830D00120FDF7DCFA06
:1039300001482430C06821E0180B00201027000047
:1039400033DD0000AC01002073DE0000EEDC00007F
:103950000ED000000ED10000F0E000002020544501
:103960004D502020200A000050524F5445435445EA
:10397000440A00000ED200002ED30000002809D017
:10398000FE49012852D002283DD04FE0AE20FDF77D
:10399000A7FACBE1F9494868002802D0012804D0F1
:1039A00044E0F748096B416340E0FEF773FF0528E8
:1039B0000AD0F448F24A00780102F348007808433C
:1039C00064214843506331E00E20FEF7E3F9EF49EC
:1039D000081A214609F0B4F9EA49085C0102E848EE
:1039E00041630E20FEF7D6F9E849081A214609F08E
:1039F000A7F9E549085CE249496B0843642148435B
:103A0000DF49486312E04868002802D0012807D047
:103A10000CE0886B80004018C16BD948416305E019
:103A2000886B80004018C16BD5484163D349C86892
:103A3000002803D001287ED002284BD1D048416B0A
:103A4000D348814247D3022300222F212A20FDF7A9
:103A500019FA0323022238213220FDF713FAC8484D
:103A6000CC49406B09F06CF90846C94909F068F97E
:103A70002A214843C849421800210846FDF7B8F8F2
:103A8000BF48C349406B09F05BF90846C34909F0D8
:103A900057F92A214843C049421800210E20FDF75A
:103AA000A7F8B748BD49406B09F04AF908462146D6
:103AB00009F046F92A214843B749421800211C2041
:103AC000FDF796F8B64800900323022232212A20FF
:103AD000FDF7ACF824E1032300221C211A20FDF796
:103AE000D1F90323002221211F20FDF7CBF9AD4896
:103AF0000090032300221F211C20FDF797F8A04807
:103B0000A649406B884206D2002203230E211046AC
:103B1000FDF7B8F90EE09E4909F012F908469F49F1
:103B200009F00EF92A2148439B4942180021084612
:103B3000FDF75EF800E02AE091489849406B09F0F3
:103B4000FFF80846214609F0FBF82A21484392492C
:103B5000421800210E20FDF74BF889482146406BA2
:103B600009F0EEF80846642109F0EAF82A214843F2
:103B70008949421800212120FDF73AF88848009031
:103B80000323022237212F20FDF750F8C8E04868B0
:103B9000002802D001287ED0C2E0C86F002802D0E1
:103BA000012840D0BCE0FEF775FE052837D0039809
:103BB000806802902146029809F0C2F80846642104
:103BC00009F0BEF82A2148437349421800210846EB
:103BD000FDF70EF86421029809F0B2F808460A21B0
:103BE00009F0AEF82A2148436B49421800210E2003
:103BF000FCF7FEFF0A21029809F0A2F82A204143AF
:103C000065480A1800211C20FCF7F2FF6648009066
:103C10000323022236212A20FDF708F880E0FEF770
:103C200004FF0290C6E7FEF735FE052839D0039859
:103C3000406802902146029809F082F80846642103
:103C400009F07EF82A2148435349421800210846CA
:103C5000FCF7CEFF6421029809F072F808460A21A9
:103C600009F06EF82A2148434B49421800210E20E2
:103C7000FCF7BEFF0A21029809F062F82A204143AE
:103C800045480A1800211C20FCF7B2FF032302223A
:103C90004648362100E008E000902A20FCF7C6FFE5
:103CA0003EE0FEF7C2FE0290C4E7FEF7F3FD0528F2
:103CB00042D0FEF7B6FE02902146029809F040F885
:103CC0000846642109F03CF82A2148433249421849
:103CD00000210846FCF78CFF6421029809F030F8B7
:103CE00008460A2109F02CF82A2148432A4942189B
:103CF00000210E20FCF77CFF0A21029809F020F831
:103D00002A20414324480A1800211C20FCF770FF98
:103D1000264800900323022236212A20FCF786FF42
:103D2000AF20FDF7DDF80020FDF7DEF81120FEF7EB
:103D300031F8002804D0C6E0FEF777FE0290BBE71A
:103D400064211120FEF722F8F06A012830D001200A
:103D5000FDF7CAF84220FEF71DF8002873D0A878B6
:103D6000002806D0AF70052303221D210020FDF797
:103D700089F8FEF78FFD05281ED024E03C0B0020BB
:103D8000AC010020E8070020DC070020442F0000E1
:103D9000A086010040420F004FEF000010270000F6
:103DA000B6DC0000A7E00000D2DC0000C6DC0000AA
:103DB000AE20FDF795F886E00E20FDF7EBFFFF49FA
:103DC000091AFF4881630123FEA203210B20FCF79F
:103DD0004EFFFB4DFC49A86B08F0B2FF0846FB49BB
:103DE00008F0AEFF10300A214843F94F0321C219F1
:103DF0000020FCF7C1FEF549A86B08F0A1FF0846BA
:103E0000214608F09DFF10300A214843C2190321C2
:103E10000720FCF7B1FE2146A86B08F091FF084689
:103E2000642108F08DFF10300A214843C219032194
:103E30000F20FCF7A1FE0123E6A203211720FCF7C7
:103E400016FF3AE0FFE7E44801690B0009F003F8C8
:103E50000631040D161F2831E04800900523032287
:103E60001D210020FCF7E2FE25E0DD48009005233F
:103E700003221D210020FCF7D9FE1CE0D948009048
:103E8000052303221D210020FCF7D0FE13E0D648B5
:103E90000090052303221D210020FCF7C7FE0AE045
:103EA000D2480090052303221D210020FCF7BEFE0E
:103EB00001E0032101610120A870AF20FDF710F897
:103EC0000020FDF711F81320FDF764FF002822D130
:103ED000FF212D311320FDF759FFF06A012817D07B
:103EE0000120FDF701F8FDF744F8012814D0022362
:103EF000002236212E20FCF7C5FFFEF7D2FCB64D7E
:103F0000E868002811D0012854D0022843D143E0AA
:103F1000AE20FCF7E5FFDEE0B5480090022300226A
:103F200036212E20FCF782FEE7E7FEF7B6FC21469D
:103F300008F006FF0846642108F002FF10300A214D
:103F40004843A34D032142192620FCF715FEFEF736
:103F5000A4FC642108F0F4FE08460A2108F0F0FEF3
:103F600010300A214843421903212D20FCF704FE9A
:103F7000FEF793FC0A2108F0E3FE10310A204143CA
:103F80004A1903213420FCF7F7FD012399A20321EC
:103F90003B20FCF76CFE98E0A86B2C21401C4843AA
:103FA0009549052340180090032240212A20FCF760
:103FB0003DFE8AE0854F686BB84243D301238FA250
:103FC00003212920FCF753FE01237EA20321302088
:103FD000FCF74DFE7C49686B08F0B2FE0846394696
:103FE00008F0AEFE10300A214843794F0321C21970
:103FF0002520FCF7C1FD7549686B08F0A1FE084655
:10400000214608F09DFE10300A214843C2190321C1
:104010002C20FCF7B1FD2146686B08F091FE0846A4
:10402000642108F08DFE10300A214843C219032193
:104030003420FCF7A1FD012371A203213B20FCF7F2
:1040400016FE42E001235FA203212920FCF70FFEA8
:1040500001236AA203213020FCF709FE3946686B70
:1040600008F06EFE0846214608F06AFE10300A216C
:104070004843574F0321C2192520FCF77DFD2146F7
:10408000686B08F05DFE0846642108F059FE1030A8
:104090000A214843C21903212D20FCF76DFD64213C
:1040A000686B08F04DFE08460A2108F049FE103002
:1040B0000A214843C21903213420FCF75DFD012386
:1040C0004FA203213B20FCF7D2FDAF20FCF708FFF5
:1040D0000020FCF709FF1420FDF75CFE002800D04B
:1040E00009E4FA211420FDF751FEF06A01280BD0F3
:1040F0000120FCF7F9FE384DE868002809D00128B6
:104100000BD0022810D104E0AE20FCF7E9FE05B088
:10411000F0BD03988069019006E0FEF7BBFB05281F
:1041200074D0039880690190002326A20521042001
:10413000FCF79DFD254E0198314608F001FE08462A
:104140002746394608F0FCFD1030810040182D4C00
:10415000052102190020FCF7F1FC3946019808F00E
:10416000EFFD0846642108F0EBFD10308100401897
:10417000021905210820FCF7E1FC6421019808F0F0
:10418000DFFD08460A2108F0DBFD103081004018F1
:10419000021905210F20FCF7D1FC1B4800900623D3
:1041A00005221D211620FCF741FDED6A002305A222
:1041B00005212920FCF75BFD314628E0442F000053
:1041C000AC0100202E0A0000A0860100102700008C
:1041D00079E80000530A00003C0B00209CE400003A
:1041E000D6E4000010E500004AE5000084E5000088
:1041F000DEDC0000500A0000B0E10000200A0000F0
:10420000570A000052E7000018DD00003BE0284696
:1042100008F096FD0846394608F092FD10308100FE
:104220004018021905212520FCF788FC394628464C
:1042300008F086FD0846642108F082FD10308100F8
:104240004018021905212D20FCF778FC642128462E
:1042500008F076FD08460A2108F072FD1030810052
:104260004018021905213420FCF768FC0023FFA246
:1042700005213B20FCF7FBFCAF20FCF731FE0020C2
:10428000FCF732FE43E70398C06901904CE7F84918
:10429000C8727047F648407A704770B50024FFF73F
:1042A000F9FF00285FD00221084606F0E1F9FBF78C
:1042B000E6FFFBF7FBFF641C822CF8D3ED480A21D4
:1042C000C569406906462C1A204608F039FD0146AA
:1042D000E948704308F034FD2D2801D92D3800E05D
:1042E0000020E34AD16E0B460F33984202D80F39B3
:1042F000884200D2D066E148D16E0161002E01D122
:1043000000210161C82C02D3711BC82901D2DC49EC
:1043100001610020FEF79BFA0221084606F0C3F96E
:104320000920FDF75DFF1E211120FDF72FFD1E2145
:104330001220FDF72BFD1E211320FDF727FD1E2166
:104340001420FDF723FD1E211F20FDF71FFD1E2158
:104350002020FDF71BFD96212120FDF717FDC64902
:104360002220FDF713FD70BD10B52F20FDF712FDC3
:10437000002810D1C0492F20FDF708FDFFF78DFF61
:10438000BE4AC04910693738884204D30120FFF77C
:104390007EFF0020906110BDB849803948617047A8
:1043A000B34908707047B24988627047B049C86223
:1043B0007047AF48806A7047F0B589B0AE4C2A208C
:1043C0002146FDF7E3FC21464220FDF7DFFCAB4D23
:1043D000A86968612E464036AB4AB169AB48914244
:1043E00000D9B061B169814200D2B061A34FA04C45
:1043F000803FF868002807D001287ED002287DD0B1
:104400000020F86009B0F0BD0121022006F030F96B
:104410007868002810D0012811D00020786034205E
:10442000FDF7B8FC002854D03869030008F013FDEC
:10443000064F232E5139444F386B6065EFE70E204D
:10444000FDF7A8FC9249081A8B4908F079FC9149BC
:10445000085C000260650E20FDF79CFC8C49081A80
:10446000854908F06DFC8C49085C616D0843642146
:1044700048436065D3E7616D08910801401A6421E3
:1044800008F05EFC0899081A606522E0626D0A2057
:1044900050436421079208F053FC079A101A606594
:1044A00017E0626D0A2050436421069208F048FC30
:1044B000069A801860650CE0616D05910801401A4C
:1044C000642108F03DFC05994018606501E0032077
:1044D0003861B069616D884200D2606565484068A6
:1044E000F8624043696908F02BFC7863616D0A4605
:1044F000FF3A2D3A904207D201E015E026E1226B07
:104500005E2A01D2521C2263FF312D31884204D928
:10451000206B002801D0401E20632020FFF746FFBB
:10452000206BFDF734FD6DE70121022006F0A0F8B5
:104530007868002816D0012829D0002078604D48DE
:104540004E4F4068803FF862E9694043049108F0AB
:10455000F7FB786339690B0008F07DFC062E1F22FB
:1045600025282B2EF86F002809D00128E7D168688C
:10457000A0654B21C9008842E1D9A165DFE7A868A1
:10458000A065FF213C318842D9D9A165D7E7FEF764
:1045900048FAA0650120F867D1E7404921660FE09D
:1045A0003F4921660CE03F49216609E03E4921660A
:1045B00006E03E49216603E0304A0321803A11615A
:1045C000E968012906D12D49803940004863206EF1
:1045D000400020660498AF69B84201D2E76501E067
:1045E0000498E065286801281CD002281DD0032803
:1045F00020D001202860E06D1F49C01B4843216D79
:1046000008F09EFB1C494843394608F099FB1930D5
:10461000FFF7C9FE194D803DE86F00280DD0012835
:104620000FD018E0706B2065E5E7B06BFF30F53018
:104630002065E0E7F06B2065DDE7FFF7BAFE606616
:1046400009E0FFF7B6FEE121C90048430A4908F036
:1046500077FB20306066A26D616E91422FD2686B4D
:10466000236E98422BD2206B5E2821E0560A000070
:10467000AC01002028030020E8030000BC0B002050
:104680000F270000810B0000400D030000710200A5
:10469000442F0000E8070020DC07002030750000F0
:1046A000409C000050C3000060EA0000701101004F
:1046B00001D2401C2063206B062800D9E06491429F
:1046C00025D92C20FDF766FB002813D1A16D606E63
:1046D000401A322804D900212C20FDF757FB04E0B2
:1046E0003221091A2C20FDF751FBE06C062801D974
:1046F000401EE064E16CA06C884201D2401CA064C2
:10470000A06C884201D9401EA064A06C2063616E39
:10471000A06D814211D9A16E491CA166052911D94C
:10472000FFF744FE2D20FDF735FB00280AD17D213F
:1047300009012D20FDF72AFB04E00846FFF736FEAD
:104740000020A066206BFDF722FC5BE60121022021
:1047500005F08EFF7868002810D0012814D00020C2
:1047600078603420FDF716FB002841D0386903003B
:1047700008F071FB063C101B3E26313CB86B8000F4
:10478000C019C06B6065ECE7B86B8000C019C06BE6
:104790006065E6E7616D03910801401A642108F045
:1047A000CFFA0399081A606522E0626D0A2050432F
:1047B0006421029208F0C4FA029A101A606517E0A8
:1047C000626D0A2050436421019208F0B9FA019AFF
:1047D000801860650CE0616D00910801401A642149
:1047E00008F0AEFA00994018606501E003203861D6
:1047F000B069616D884200D26065FF484068F86228
:104800004043696908F09CFA7863616D0A46FF3A93
:104810002D3A904204D2226B5E2A01D2521C2263AE
:10482000FF312D31884204D9206B002801D0401E71
:1048300020632020FFF7BAFD206BFDF7A8FBE1E520
:10484000EE49C870704770B5EB4D0A21E86A4843DD
:104850006A2108F075FA7D210446C90048430A21FF
:1048600008F06EFA6A680146101B8722D200504396
:1048700008F066FA0028E14A116F0B460F339842A0
:1048800002D80F39884200D21067DD48116FC1612C
:1048900070BDDA4880797047D848C0787047FEB557
:1048A0000027D748D64C4030C069803C002804D14E
:1048B000E068012801D10020E060FEF7B9F8D14D91
:1048C000102601280ED0FFF7E7FF002817D00020A0
:1048D000FDF75DFBA868B043A8600121022005F048
:1048E000E2FEFEBD0020FDF752FBA868B043A860C1
:1048F0000121022005F0D7FEFEF7A3F8FEBDFFF769
:10490000C8FF00282CD0A868B043A8600120FCF79D
:10491000EBFAFCF7A4F8FCF79EFABB4800900323DF
:10492000012230211020FCF781F90023B7A20321D6
:104930000220FCF79CF90023B7A204210220FCF717
:1049400096F90322B749002008F02DF9AF20FCF7B3
:10495000C7FA0120FFF774FF0020FCF704FBFEBD3F
:10496000A548C168B048814231D2A449C86B401CF7
:10497000C863FF21F53188422CD9A868B043A860EC
:104980000120FCF7B1FAFCF76AF8FCF764FA9E48DC
:1049900000900323012230211020FCF747F9002367
:1049A0009AA203210220FCF762F900239AA20421B3
:1049B0000220FCF75CF903229C49002008F0F3F880
:1049C000AF20FCF78DFA0120FFF73AFFFEBD8B49BF
:1049D0000020C86388480021406A05F02BFB552859
:1049E0002DD9A868B043A8600120FCF77DFAFCF738
:1049F00036F8FCF730FA8E480090042302223A2160
:104A00002220FCF713F900238AA202210820FCF7D8
:104A10002EF9002389A203210820FCF728F903229C
:104A20008849002008F0BFF8AF20FCF759FA0120B0
:104A3000FFF706FF84493D20FDF7A8F9FEBDFDF70D
:104A4000ABF8002829D0A868B043A8600120FCF783
:104A50004BFAFCF704F8FCF7FEF97C4800900523BC
:104A6000022214210020FCF7E1F80023784A0221F9
:104A70001C20FCF7FCF8002376A203211C20FCF785
:104A8000F6F803227549002008F08DF8AF20FCF7F6
:104A900027FA0120FFF7D4FEFEBDE068584C00283D
:104AA00001D0022835D12169642932D2A868B043E7
:104AB000A8600120FCF718FAFBF7D1FF0120FFF7EF
:104AC000E6FB0020A0612062FCF7C5F96448009075
:104AD0000223002230211020FCF7A8F85B48009048
:104AE0000623032214210020FCF7A0F800235DA276
:104AF00003211820FCF7BBF800235DA20421182035
:104B0000FCF7B5F8AF20FCF7EBF90120FFF798FEB2
:104B1000FEBD012835D12069372832D2A868B043BC
:104B2000A8600120FCF7E0F9FBF799FF0120FFF7EF
:104B3000AEFB0020A0612062FCF78DF94848009090
:104B40000223002230211020FCF770F83F4800902B
:104B50000623032214210020FCF768F8002341A259
:104B600003211820FCF783F8002341A20421182018
:104B7000FCF77DF8AF20FCF7B3F90120FFF760FEEA
:104B8000FEBD3D49206988427ED23C4A90427BD995
:104B9000A868B043A8600120FCF7A6F9FBF75FFF07
:104BA0000120FFF774FB0020A0612062FCF753F99D
:104BB0002B4800900223002230211020FCF736F809
:104BC000224800900623032214210020FCF72EF82F
:104BD000002324A203211820FCF749F8002328A26F
:104BE00004211820FCF743F8AF20FCF779F90120E5
:104BF000FFF726FEFEBD47E028030020AC010020A1
:104C0000BC0B002080400050BAE600002020204C61
:104C10004F572020200A0000204241545445525949
:104C2000200A0000F3F0000088130000F9F00000F3
:104C3000EED30000544F4F0A00000000484F540AC2
:104C40000000000005F1000030750000FEE50000E6
:104C50002030000050554646530A000002F1000083
:104C60003AE600004F484D20544F4F0A0000000024
:104C70004C4F570A000000000F270000B80B00003F
:104C8000484947480A00000088422ED3A868B0432C
:104C9000A8600120FCF728F9FBF7E1FE0120FFF7EF
:104CA000F6FA0020A0612062FCF7D5F80023F8A2F4
:104CB00003210820FBF7DBFF0023F8A204210520D5
:104CC000FBF7D5FFF8480090022300223021102086
:104CD000FBF7ACFFAF20FCF703F90120FFF7B0FDB5
:104CE000FF209130FDF784FAFEBD17213838C90145
:104CF00088420BD2A069372808D2A868B043A860C0
:104D00000120FFF7C4FA0020A061FEBDFFF7C1FD3E
:104D1000002835D1E5487D21C068490188422CD260
:104D2000E349086C401C0864FF21F531884227D90B
:104D3000A868B043A8600120FCF7D6F8FBF78FFE07
:104D4000FCF789F8DB480090032301223021102072
:104D5000FBF76CFF0023D8A204210220FBF787FF9A
:104D60000023D84A05210220FBF781FFAF20FCF782
:104D7000B7F80120FFF764FDFEBDCD4900200864AF
:104D80002220FDF707F8002832D0C94900204864E6
:104D90003320FCF7FFFF002871D0A868B043A8605B
:104DA0000120FCF7A1F8FBF75AFEFCF754F8C648BF
:104DB00000900423012240212C20FBF737FF002321
:104DC000C2A202211846FBF752FF0023C1A2032111
:104DD0001846FBF74CFF0023C0A204211846FBF73E
:104DE00046FFAF20FCF77CF80120FFF729FDFEBD50
:104DF000E069029032283DD9A1690191052101980D
:104E000007F09EFF01994118029881422ED9B648B9
:104E1000C0680128BCD1A649486C401C4864FF21E9
:104E2000F5318842B4D9A868B043A8600120FCF7E6
:104E30005BF8FBF714FEFCF70EF80523ABA201218B
:104E40000320FBF714FF03210523AA4A0846FBF7BA
:104E50000EFFAF20FCF744F80120FFF7F1FC07201C
:104E6000FDF746FCA0490020C860FEBD9049002027
:104E700048648DE78E490020486489E7FFE72020D9
:104E8000FCF788FF002840D19748C16801293CD031
:104E9000406B9949884238D9FBF7F1F97F1C052FFF
:104EA000FAD38248E1214069C90088422DD2A8681E
:104EB000B043A8600120FCF717F8FBF7D0FDFBF723
:104EC000CAFF8E4800900223002230211020FBF7F9
:104ED000ADFE00238AA203210920FBF7C8FE0023B0
:104EE0006EA204210520FBF7C2FE032287490020A1
:104EF00007F059FEAF20FBF7F3FF0120FFF7A0FCFE
:104F000083493320FCF742FFFEBD2120FCF742FF1E
:104F1000002832D1FFF797FCE06932282DD2A8682B
:104F2000B043A8600120FBF7DFFFFBF798FDFBF71C
:104F300092FF724800900223002230211020FBF7DC
:104F400075FE002373A203210920FBF790FE0023C6
:104F500052A204210520FBF78AFE03226B490020A0
:104F600007F021FEAF20FBF7BBFF0120FFF768FC35
:104F700067493320FCF70AFFFEBDFFF71DFAFDF776
:104F800060FDFEBD4A48C07A704710B5564A644974
:104F9000803210693738884210D2FFF7F3FF0028BB
:104FA0000CD00020FFF773F9116A10690B465033DB
:104FB000984204D8A03B984201D3916110BD9169F9
:104FC0000A461E32904202D81E398842F6D2042088
:104FD000FDF78EFBFBF73FFF35490120087310BD3D
:104FE00033488078704738B531480024017B002968
:104FF00002D00473FBF72FFF0120FBF775FF0021A0
:10500000052348A20846FBF732FE052347A20221EA
:105010000020FBF72CFE052346A204210A20FBF703
:1050200026FE052344A204212C20FBF720FE434842
:1050300006230090042219460020FBF7F7FD4048A4
:1050400000900623042240213A20FBF7EFFDFFF7F2
:10505000C7FF3C4D002802D0012817D176E004F0AC
:10506000E4FF002812D0002004F090F936480090A8
:105070000623042240213A20FBF7D8FD2846FDF7FD
:10508000B7F8FBF7E8FE0720FDF732FB7EE00000F3
:1050900020434845434B20200A00000041544F4D17
:1050A000495A45520A0000003AE600002803002051
:1050B000AC010020BEE500002020434845434B20C2
:1050C000200A0000184C0000FEE50000444F4E2767
:1050D000540A000041425553450A000050524F54B3
:1050E00045435453210A00003C0B002020574154F3
:1050F00054200A00EC2F000060EA00007AE600006D
:105100002D53484F52542D200A000000F6F00000A5
:10511000881300002053484F525420200A000000FA
:10512000810B00004953204E45570A00434F494C1C
:105130003F200A00590A00004E0A0000C0E00000AB
:10514000CCE00000DC050000E4E0000004F06DFFAE
:1051500000281BD0002004F019F9FA490869886179
:10516000F94A904200D38C6188690862F7480623A7
:105170000090042219460020FBF758FD2846FDF751
:1051800037F8FBF768FE0720FDF7B2FAAF20FBF710
:10519000A7FE0020FBF7A8FE38BDEA498039086069
:1051A0007047EB4988727047E948807A704710B5BC
:1051B0001324240304212046FDF768F8E148412226
:1051C00021468038FDF720F810BDE149887070470E
:1051D00010B58AB0DE48002444738473C473047429
:1051E00044740120FBF780FEFBF735FED5484030C4
:1051F000816A1620FCF7CAFDD6490D20FCF7C6FDD2
:10520000002004F09AFA002004F09AFA0020FFF738
:10521000C4FF0020FFF7D9FFFBF7B3FBFFF7C7FF81
:10522000AE20FBF75DFE0720FDF762FAFFF7BCFF3B
:10523000002820D00020FFF7B4FF01206946087144
:105240004C71C5484169029101690391C16804919B
:10525000059481680691416807910068089008A943
:105260000C7101A9002006F05BFD002803D001A904
:10527000002006F055FD0AB010BDF8B504460D46F5
:1052800016461F463520FCF785FD64280BD9012002
:10529000FBF72AFEB14800903B463246294620469D
:1052A000FBF7C4FCF8BD0120FBF71EFEAC480090E4
:1052B0003B46324629462046FBF7B8FCF8BDF8B518
:1052C00004460D4616461F463620FCF763FD64284B
:1052D0000BD90120FBF708FE9C4800903B46324664
:1052E00029462046FBF7A2FCF8BD0120FBF7FCFD98
:1052F0009C4800903B46324629462046FBF796FCE8
:10530000F8BD38B504F045F8002809D004F041F89C
:1053100001282CD0FFF75CFFAF20FBF7E1FD38BD83
:1053200004F07AFE0028F7D0002004F02CF80120C9
:10533000FBF7DAFDFBF78FFD8B480090042300227A
:1053400030211020FBF772FC002388A205210A20DF
:10535000FBF78DFC002386A205210F20FBF787FCBD
:10536000002384A205211420FBF781FCD4E704F07C
:1053700056FE002833D0002004F00EF80120FBF781
:10538000B3FD1924640121460720FCF7FFFC2146E8
:105390000820FCF7FBFCFF242D34204603F0F0FF2F
:1053A000204603F0EAFF04F03DFE664C0025803CF9
:1053B000002803D104F039FE00280AD0002004F0B0
:1053C000C5F9002003F0E2FF606A012814D0012033
:1053D0006062606A002811D0012822D0656205232E
:1053E000032206210020FFF76AFF05230322402144
:1053F0003A20FFF742FF8FE76562EAE706230322C0
:105400003A211846FBF73EFD05235AA20121072049
:10541000FBF72DFC052359A203210720FBF727FCEE
:10542000DDE7062303223A211846FBF72BFD05236F
:1054300050A201210720FBF71AFC052351A20321EA
:105440000220FBF714FCCAE770B50C4611461A4659
:10545000049B092814D00A2812D0632810D064288D
:105460000ED04A4DA8420BD06D1CA84208D0364D34
:10547000A84205D06D1CA84202D0454DA84202D1D9
:105480002046FBF7FFFC70BDF8B504F0CBFD00260D
:105490002F4D002809D0002004F058F9687C401CEA
:1054A000C0B26874042800D96E7404F0BEFD2A4CA2
:1054B00000281AD0002003F069FFFFF791FD0028B3
:1054C00002D001287FD129E00120FFF76AFE687C25
:1054D000030007F0C0FC05040B11171D78002D49CF
:1054E000206888426FD2401C20606CE060680C2805
:1054F00069D2401C606066E0A0681F2863D2401C2F
:10550000A06060E0E06817285DD2401CE0605AE0CF
:1055100020693B2857D2401C206154E00120FFF74E
:1055200040FE687C030007F096FC0504373D4349C4
:105530004E007D2120680901884244D9401E206028
:1055400041E00000BC0B00200F270000D8E0000065
:10555000AC010020442F0000400C0020E4E00000DB
:10556000CCE00000C0E000009EDA0000360A000037
:105570002E0A0000504F5745520A0000204F464661
:10558000200A000020204F4E200A0000E703000000
:105590009F860100330800006068012813D9401E6F
:1055A000606010E0A06801280DD9401EA0600AE0EC
:1055B000E068002807D0401EE06004E02069012870
:1055C00001D9401E206104F02AFD00287ED0002071
:1055D00003F0E2FE6661F74E0323012220211E2024
:1055E0000096FBF723FB0323012231212F20009695
:1055F000FBF71CFBF049206807F0A2FB7D2708465B
:10560000FF00394607F09CFBEC4E00018019012297
:105610000090032309211046FBF708FB3946206858
:1056200007F08EFB0846642107F08AFB0001801911
:1056300000900323012210210820FBF7F7FA6421D0
:10564000206807F07DFB08460A2107F079FB00017E
:10565000801900900323012217210F20FBF7E6FA9F
:105660000A21206807F06CFB0801801900900323D1
:1056700001221E211620FBF7D9FA6421606807F089
:105680005FFB08460A2107F05BFB000180190090D0
:105690000323012228212020FBF7C8FA0A21606891
:1056A00007F04EFB080180190090032301222F21EF
:1056B0002720FBF7BBFA6421A06807F041FB0846EE
:1056C0000A2107F03DFB0001801900E07EE0009018
:1056D0000323012239213120FBF7A8FA0A21A0680F
:1056E00007F02EFB080180190090032301224021BE
:1056F0003820FBF79BFA6421E06807F021FB08469D
:105700000A2107F01DFB00018019009005230322E8
:1057100015210D20FBF78AFA0A21E06807F010FB3B
:10572000080180190090052303221D211520FBF795
:105730007DFAA34800900523032225211D20FBF7B5
:1057400075FA6421206907F0FBFA08460A2107F080
:10575000F7FA000180190090052303222D2125204E
:10576000FBF764FA0A21206907F0EAFA08018019B8
:1057700000900523032235212D20FBF757FA687C82
:10578000904D030007F067FB05042342618022006F
:105790006421206807F0D4FA08460A2107F0D0FAFD
:1057A0000001401900900323012217210F20FBF76D
:1057B0003DFA0A21206807F0C3FA08014019009059
:1057C000032301221E211620FBF730FAF8BD6421C5
:1057D000606807F0B5FA08460A2107F0B1FA00013F
:1057E000401900900323012228212020FBF71EFAF4
:1057F0000A21606807F0A4FA080140190090032309
:1058000001222F212720FBF711FAF8BD6421A0689F
:1058100007F096FA08460A2107F092FA00014019AB
:1058200000900323012239213120FBF7FFF90A21DF
:10583000A06807F085FA08014019009003230122AF
:1058400040213820FBF7F2F9F8BD6421E06807F049
:1058500077FA08460A2107F073FA00014019009010
:105860000523032215210D20FBF7E0F90A21E0684A
:1058700007F066FA080140190090052303221D2154
:105880001520FBF7D3F9F8BD6421206907F058FA19
:1058900008460A2107F054FA000140190090052338
:1058A00003222D212520FBF7C1F90A21206907F0E9
:1058B00047FA0801401900900523032235212D20C5
:1058C000FBF7B4F9F8BDF0B58BB003F062FD00262C
:1058D0003D4C002814D003F05CFD012838D003F0C3
:1058E00058FD3A4F3A4D022863D003F052FD032889
:1058F0007CD0FFF76DFCAF20FBF7F2FA0BB0F0BDE8
:1059000004F08AFB002821D0002003F03CFD012098
:10591000FBF7EAFAFBF79FFA2E48009004230022D7
:1059200030211020FBF782F900232BA20521032050
:10593000FBF79DF9002329A205210820FBF797F921
:10594000002327A205210D20FBF791F9A673D2E7CA
:10595000FFF746FB002802D001284AD115E004F0E9
:1059600061FB002803D104F060FB002841D0002037
:1059700003F0ECFE002003F009FDA07B062802D214
:10598000401CA07335E0A67333E004F04BFB002805
:1059900003D104F04AFB00282BD0002003F0D6FEF0
:1059A000002003F0F3FCA07B002820D0401EA07351
:1059B0001FE014E1A3E000001027000033DD000029
:1059C000B0E00000D3DD0000AC010020C7EA000019
:1059D000FC0B00201ED70000350A00002E0A000034
:1059E00053455454494E470A00000000FEE3062088
:1059F000A07304F014FB0028A9D0002003F0CCFC15
:105A00000120FBF771FAFBF726FA19256D012946EB
:105A10000720FCF7BBF929460820FCF7B7F9FF255A
:105A20002D35284603F0ACFC284603F0A6FCA07BED
:105A3000030007F010FA0706213C57729EB90500D3
:105A400059E7FF4800900423002230211020FBF783
:105A5000EDF80023FBA205211846FBF708F9052104
:105A60000023F9A20846FBF702F90023F7A205215B
:105A70000A20FBF7FCF83EE7F748009004230022D9
:105A800030211020FBF7D2F80023F4A2052118469C
:105A9000FBF7EDF805210023EBA20846FBF7E7F83A
:105AA0000023EFA205210A20FBF7E1F823E7EF48E6
:105AB00000900423002230211020FBF7B7F80023C8
:105AC000EBA205211846FBF7D2F805210023DEA240
:105AD0000846FBF7CCF80023E6A205210A20FBF7D5
