:020000040000FA
:10000000100F0020D5000000DD000000DF00000020
:1000100000000000000000000000000000000000E0
:10002000000000000000000000000000E1000000EF
:100030000000000000000000E3000000E5000000F8
:10004000C5A300007FC8000039A800004BA800002D
:10005000F5A7000017A80000E9B00000D1B100002A
:1000600083C20000DBC2000035C300008FC3000064
:10007000A9C90000C9C90000E7000000E7000000AE
:10008000E7000000E7000000E7000000E7000000D4
:10009000E70000000000000000000000E700000092
:1000A000E7000000E7000000E7000000E7000000B4
:1000B00045A500001FB00000000000003DBB00008F
:1000C000034885460CF0AAFF00480047A11C000029
:1000D000100F00200448804704480047FEE7FEE771
:1000E000FEE7FEE7FEE7FEE75D010000C10000005D
:1000F00070B51B4D28694007400F052800D9042022
:10010000022803D017498000085817E0286A000425
:10011000840F012C00D9641E286A000301D51248FF
:1001200000E01248296AC905C90D891C4843296A9B
:100130008904C90E891C0CF023FFE040A969090756
:10014000090F491C0CF01CFF064C083C20600849B4
:100150004A1080180CF014FF606070BD70470000FA
:10016000000200500800002000805101001BB70071
:1001700040420F00FFB581B005460E461746164CAB
:100180000120A840C0B20AF024FF01200AF034FF89
:1001900000200AF025FF0AF06EFF01E0641E15D36F
:1001A0000AF075FF0028F9D0E8B20AF078FF049948
:1001B00088420ED90A99002906D031683A68891A0E
:1001C000081830600009386005B0F0BD0020C04359
:1001D000FAE70020C043F7E7F401000038B56B4CA4
:1001E00059202060162020608820206017200AF007
:1001F00021FC18200AF01EFC19200AF01BFC1B2011
:100200000AF018FC1C200AF015FC1D200AF012FC54
:100210001020002200900223012110460AF076FEF1
:100220000020206038BD38B50120594A00900023D5
:10023000111F0520FFF79EFF411C08D0554C206080
:10024000554948437D21C9000CF09AFE606038BDD5
:1002500038B54F4A0120083200900023111F0620B4
:10026000FFF788FF411C09D04A4CA0604A492C3155
:1002700048437D21C9000CF083FEE06038BD38B5ED
:10028000434A0120103200900023111F0420FFF781
:1002900071FF411C09D03F4C20613F492C3148433C
:1002A0007D21C9000CF06CFE606138BD38B5384A5C
:1002B0000120183200900023111F0220FFF75AFF7F
:1002C000411C09D0334CA06133492C3148437D2176
:1002D000C9000CF055FEE06138BD38B52C4A01204C
:1002E000002320320090111F1846FFF743FF411CE6
:1002F00008D0284C2062294948437D21C9000CF0D0
:100300003FFE606238BD38B5214A01202832002303
:10031000111F0090FFF72EFF411C08D01D4CA0625A
:100320001E4948437D21C9000CF02AFEE06238BD19
:1003300070B5174C083C2078411C2170002806D06D
:10034000012807D00025022807D0257070BDFFF7CF
:100350006AFF70BDFFF793FF70BDFFF7D4FF2570F4
:1003600070BD70B50A4C083C6078411C6170002873
:1003700004D00025012804D0657070BDFFF768FF28
:1003800070BDFFF7AAFF657070BD0000000100504E
:10039000280000202C0300204C0900002503000049
:1003A000FB48C0687047FA4880687047F848406862
:1003B0007047F749C8607047F54988607047F4494D
:1003C0004860704770B50446F14D226800212869E5
:1003D00013000CF060FE08F205333D95F1F0EF32AA
:1003E000242001F015FD002827D12420616801F0A8
:1003F0000BFD0CF0DBFDFC210CF0C2FD08460321D7
:100400000CF0BEFD29788142F3D02870E04A143206
:1004100041004318D05C64214843000AFFF7CFFF36
:100420009A18507864214843000AFFF7C5FF907876
:1004300064214843000AFFF7BCFFF1E16069FFF760
:10044000BEFFA069FFF7B8FFE069FFF7B2FFE7E181
:1004500000280AD001281DD0022836D0E0680128E3
:10046000EBD9401EE0602961DAE10020FFF7A7FF29
:100470000020FFF7A1FF0020FFF79BFF2420616809
:1004800001F0C2FC2520A16801F0BEFC2869401CD7
:100490002861C5E1242001F0BBFC002809D0606977
:1004A000FFF78DFFA069FFF787FFE069FFF781FF86
:1004B000B6E12420616801F0A7FC2520A16801F0C5
:1004C000A3FC2869401C2861AAE1252001F0A0FCBA
:1004D000002809D00020FFF772FF0020FFF76CFF13
:1004E0000020FFF766FF9BE12420616801F08CFC8F
:1004F0002520A16801F088FC2869401C28618FE153
:1005000003000CF0C8FD0504112B456370000020AA
:10051000FFF755FF0020FFF74FFF0020FFF749FFCF
:100520002869401C28617BE1242001F071FC00282F
:100530000CD00020FFF743FF0020FFF73DFF002015
:10054000FFF737FF6320FFF73AFF69E12420616876
:1005500001F05AFC2869401C286161E1242001F067
:1005600057FC00280CD00020FFF729FF0020FFF7E0
:1005700023FF0020FFF71DFF6320FFF71DFF4FE162
:100580002420616801F040FC2869401C286147E193
:10059000242001F03DFC002810D00020FFF70FFFC1
:1005A0000020FFF709FF0020FFF703FF6320FFF79C
:1005B00000FF35E150E01DE080E026E12420616885
:1005C00001F022FC2869401C286129E10020FFF786
:1005D000F6FE0020FFF7F0FE0020FFF7EAFE286994
:1005E000401C28611CE1E068012888D9401EE060B9
:1005F000296115E1002806D0E068012893D9401E42
:10060000E06029610CE1242001F002FC00288AD17D
:10061000206963281CD22420616801F0F5FB25695C
:100620006D1C25616069642168430CF0A9FCFFF72B
:10063000C6FEA069642168430CF0A2FCFFF7BCFE73
:10064000E069642168430CF09BFCFFF7B2FEE7E031
:100650002869401C2861E3E0002806D0E0680128F2
:100660008DD9401EE0602961DAE0242001F0D0FB42
:10067000002884D1206900281CD02420616801F062
:10068000C3FB25696D1E25616069642168430CF018
:1006900077FCFFF794FEA069642168430CF070FCBE
:1006A000FFF78AFEE069642168430CF069FCFFF7FC
:1006B00080FEB5E02869401C2861B1E06322030098
:1006C0000CF0E9FC06042038516B849C20696328F7
:1006D00014D2242001F09CFB00280ED12420616854
:1006E00001F092FB2069401C2061FFF768FE0020AA
:1006F000FFF762FE6320FFF75CFE91E022610120BC
:1007000028618DE02069002811D0242001F080FBB1
:1007100000280BD12420616801F076FB6320FFF7ED
:100720004EFE2069401E2061FFF743FE78E0022064
:10073000286175E02069632811D2242001F068FB4C
:1007400000286DD12420616801F05EFB6320FFF773
:1007500036FE2069401C2061FFF72EFE60E022611A
:10076000032028615CE02069002813D0242001F0D8
:100770004FFB002854D12420616801F045FB20691B
:10078000401E2061FFF71BFE6320FFF715FE47E0C8
:10079000540000200420286142E02069632811D21F
:1007A000242001F035FB00283AD12420616801F0B3
:1007B0002BFB6320FFF700FE2069401C2061FFF740
:1007C000F8FD2DE022610520286129E0206900283C
:1007D00011D0242001F01CFB002821D124206168C5
:1007E00001F012FB2069401E2061FFF7E5FD632048
:1007F000FFF7DFFD14E00620286111E0E068012822
:100800000ED9401EE06029610AE0216129610020C3
:10081000FFF7D5FD0020FFF7CFFD0020FFF7C9FD52
:1008200002F055F9012809D0002001F02EFC00202B
:1008300001F064FC002001F099FC70BDFFF7B6FDEB
:1008400001F023FCFFF7AFFD01F058FCFFF7A8FD16
:1008500001F08CFC70BD0149086170475400002014
:1008600010B5002001F011FC002001F047FC002031
:1008700001F07CFC10BD10B5874C04222260616041
:10088000A160E06063206061A061E061242001F06C
:10089000BBFA2520A16801F0B7FA0020FFF7DBFFC3
:1008A0002046FFF78FFD10BD10B57B4905220A6079
:1008B000486088607948C8600021242001F0A4FACB
:1008C0000021252001F0A0FA0020FFF7C4FF7248A4
:1008D000FFF778FD10BD10B56F4901220A6048602E
:1008E00088606E48C8600021242001F08DFA002144
:1008F000252001F089FA0020FFF7ADFF6648FFF7D9
:1009000061FD10BD70B5644C062525606360A36071
:100910000125E56064256843000A60616420414365
:10092000080AA06164204243100AE06119462420AD
:1009300001F06AFA2520A16801F066FA0020FFF7AD
:100940008AFF2046FFF73EFD70BD002806D05449BF
:10095000012810D0022813D1C868A5E750484038B4
:10096000C16B4A008B18816B5B1CCAB2416B006B78
:10097000C9B2C0B2C6E788687821401C4843AAE7DC
:10098000704710B5444C002020606061A061E061B8
:100990002420616801F038FA2520A16801F034FABA
:1009A0000020FFF758FF2046FFF70CFD10BD70B583
:1009B0000D46394C0721216059086160A16001236F
:1009C000E36064235843000A606164204543280AB9
:1009D000A06164204243100AE061242001F014FA6F
:1009E0002520A16801F010FA0020FFF734FF20460F
:1009F000FFF7E8FC70BD002804D0012801D00228D0
:100A00000BD1BEE726484038816BC36BCAB2416B3D
:100A1000006BDB1CC9B2C0B2C9E7704710B51E4CF1
:100A2000022323600123E36064235843000A6061CA
:100A300064204143080AA06164204243100AE06137
:100A40002420616801F0E0F92520A16801F0DCF9BB
:100A50000020FFF700FF2046FFF7B4FC10BD10B5E3
:100A60000D4C03202060FA216160A1600F20E0603E
:100A7000632060610020A061E061242001F0C4F9DE
:100A80002520A16801F0C0F90020FFF7E4FE204610
:100A9000FFF798FC10BD00005C0300201027000049
:100AA000000C002070B5054600240821002009F044
:100AB0001AFF280604D50B21002009F0F9FE03E0F7
:100AC0000B21002009F00FFF0A21002009F0F0FEA1
:100AD000012001F0C3FB0A21002009F004FF0120DE
:100AE00001F0BCFB6806050E641C082CE1D308214C
:100AF000002009F0DDFE70BD10B504460421012080
:100B000009F0F1FEE0B2FFF7CDFF10BD10B50446CD
:100B10000421012009F0CCFEE0B2FFF7C3FF10BDB5
:100B200010B50C46B030FFF7E7FF20091230FFF791
:100B3000E3FF2007000FFFF7DFFF10BDF7B50E46FC
:100B4000002500F0D9F9002801D0771C10E0022020
:100B5000FEBD30460099FFF7E3FF002428460299C6
:100B60006D1C085CFFF7D2FF641C052CF6D3761CC5
:100B7000BE42EED30020FEBDF7B50E46002500F0C4
:100B8000BBF9002801D0B71C10E00220FEBD3046A2
:100B90000099FFF7C5FF0024284602996D1C085CE8
:100BA000FFF7B4FF641C052CF6D3761CBE42EED3CF
:100BB0000020FEBDF7B50E46002500F09DF9002887
:100BC00001D0B71C10E00220FEBD30460099FFF7AF
:100BD000A7FF0024284602996D1C085CFFF796FFCA
:100BE000641C0A2CF6D3761CBE42EED30020FEBD58
:100BF000F7B50E46002500F07FF9002801D0F71C5C
:100C000010E00220FEBD30460099FFF789FF002466
:100C1000284602996D1C085CFFF778FF641C0E2CB7
:100C2000F6D3761CBE42EED30020FEBDFFB581B0E8
:100C30000F461646002500F05FF9002812D1022069
:100C400005B0F0BD30460199FFF76AFF019C06E050
:100C500028460A996D1C085CFFF758FF641CBC42CB
:100C6000F6D3761C04988642ECD30020E8E7FFB563
:100C700081B00646174600240091002500F03CF99B
:100C8000002807D00498002813D0012822D0052876
:100C900034D130E00220D3E7385D2038810041189C
:100CA00017480A1830460099FFF748FFF61D6D1CDB
:100CB000641C785D0A28EFD120E0385D0A212038D5
:100CC00048431049421830460099FFF755FFF61D7A
:100CD0006D1C641C785D0A28EFD10FE0385D14218B
:100CE000203848430849421830460099FFF762FF10
:100CF0000A366D1C641C785D0A28EFD100209FE73E
:100D000092E90000B9EA000007ED000010B50028E4
:100D10000ED001280BD1A120FFF7EEFEA820FFF78F
:100D2000EBFE2F20FFF7E8FEC820FFF7E5FE10BD21
:100D3000A020FFF7E1FEA820FFF7DEFE2F20FFF73F
:100D4000DBFEC020FFF7D8FE10BD10B5AE20FFF7C8
:100D5000D3FE0020FFF7D0FE1020FFF7CDFE40208D
:100D6000FFF7CAFEB020FFF7C7FE8120FFF7C4FEE1
:100D70008020FFF7C1FEA020FFF7BEFEA620FFF7F0
:100D8000BBFEA820FFF7B8FE2F20FFF7B5FEC0205E
:100D9000FFF7B2FED320FFF7AFFE0020FFF7ACFE57
:100DA000D520FFF7A9FE8020FFF7A6FED920FFF788
:100DB000A3FE2220FFF7A0FEDA20FFF79DFE1220FF
:100DC000FFF79AFEDB20FFF797FE3020FFF794FE37
:100DD0008D20FFF791FE9520FFF78EFEAF20FFF7E5
:100DE0008BFE10BD10B503242402204601F036FA14
:100DF0000521012009F077FD204601F02FFA052199
:100E0000012009F055FD204601F028FA10BD10B56B
:100E100001220521104609F021FD01220A210020AE
:100E200009F01CFD01220B21002009F017FD012211
:100E30000821002009F012FD01220421104609F0CA
:100E40000DFDFFF7CFFFFFF780FF2D4881690129D6
:100E500001D9002181618069C0B2FFF757FF10BD41
:100E600070B500252846B030FFF746FE1220FFF788
:100E700043FE0020FFF740FE00240020FFF746FE5F
:100E8000641C402CF9D36D1C062DEBD370BDFFB54F
:100E900081B007460E4615460CE039462846FFF756
:100EA0003FFE3C4603E00020FFF730FE641CB442E6
:100EB000F9D36D1C04988542EFD305B0F0BD10B591
:100EC000044608F0F0FA604364210CF059F8C4B20B
:100ED000642C00D964241E2C00D21E248120FFF72C
:100EE0000BFE2046FFF708FE10BD10B5FFF704FE0D
:100EF00010BD044908707047024800787047000030
:100F0000400B0020640100203EB5134C59202060A6
:100F100016202060882020602A2009F08BFD0F48D1
:100F2000009003206946087100254D718D71CD71C7
:100F300000200BF0AFFD0A4A012100200BF0B2FEA9
:100F400003220021022009F089FC0021022009F07F
:100F5000AFFC25603EBD00000001005000C2010052
:100F6000650F000010B51422FB4900200BF005FFAF
:100F700010BDFA4908707047F84908717047F74882
:100F80000078704710B5FFF7FAFF002805D0012858
:100F90000BD00020FFF7EDFF10BD0021022009F06B
:100FA00087FC0020FFF7E8FF10BD0021022009F0B8
:100FB0009AFC10BDE94988707047F8B50024E84EE6
:100FC000E64F3546FF35F1354D20610280020918A4
:100FD0008022E34801F077F9FE60F868C17B96292A
:100FE00007D0A84207D3FE60641C5A2CECD3002023
:100FF000F8BD0120F8BD1030F860EEE7F0B591B013
:1010000000200222D74BD449196010910978002999
:101010007ED00B021099D04C4978E7780B43A17829
:101020000F973F020F430E977D27FF004F430D9709
:10103000277B0C9724790B94CB4DCC4C0A945E1BE8
:101040004034AB427ED027DCC94FC34DDE1B2D7A26
:10105000BB4278D014DCC74A981A934274D008DC9B
:10106000C548181871D0C54A801825D001282AD142
:101070002AE005286AD0062869D00728F7D14DE173
:10108000B54BB61F9C7B33000CF005F80AF71D1D0D
:101090001DF6F5F4F3F2F11D33000BF0FCFF17140D
:1010A000FCFBFAF9F8F7F6F5F4141414141414F31D
:1010B000F21414F1F0EF1400FF29D8D10322B04943
:1010C00000200BF090FE85E2FF2DFCD1A348002507
:1010D000457185710120FFF74FFFA2489F4E0368BD
:1010E000303698783070D97871708E461979B17031
:1010F0008C465979F1709A793271DB7973710126D6
:101100006F463E717D71029303920491059500E054
:1011100064E261460691714607919A494018089029
:1011200008AF3D7101A900200AF01AFF002804D081
:101130000322954900200BF056FE9448E1690170A6
:10114000216A05E0BEE1EBE069E03EE26FE0DEE04F
:101150004170616A81708E4FAB2138680170132134
:101160004170FF2181730C2288498A480BF030FFBF
:1011700088490F22891E00200BF035FE032001F064
:1011800075F80A986421406A0BF0FAFE7F4E0C3E17
:10119000307081480021406A09F06CF87070206856
:1011A000B0700A98006BF0700A98406B30710A9822
:1011B000806B70710A987949C06A0BF0E1FEB071DA
:1011C0007D21C900A06A0BF0DBFEF0717D21C90012
:1011D000A0690BF0D5FE3072B4207072C820B072D6
:1011E000F5723968AB200870FFF7E7FE002803D0DE
:1011F00039680C20487002E039680B204870396863
:10120000FF20887361490C220C3962480BF0E0FE24
:1012100060490F22891E00200BF0E5FDDAE1FF296D
:10122000FCD10A98C16A192000F0EEFDD2E14A48CB
:10123000C079FF28F2D14D49012080394860C8604B
:10124000484D0E9808F036F9286842790179120263
:1012500011430A2251430A9A80791060002841D034
:10126000012819D0022825D003283BD12EE011E116
:101270000EE107E1FDE0C9E0A0E062E09DE195E15B
:101280008DE185E17DE174E16CE164E15CE14AE1DD
:1012900041E13AE130E12DE161637D229201404874
:1012A000914200D960637D22616B5201914219D253
:1012B000606317E0A1633B4A3B48914200D9A063B9
:1012C0003A4AA16B91420DD2A0630BE0E1632D4A33
:1012D0003748914200D9E063FF22E16BF532914239
:1012E00000D2E06304F04BF8FFF7BAFD00211120B3
:1012F00000F08AFD0021122000F086FD002113205D
:1013000000F082FD0021142000F07EFD62E10F98C4
:10131000FF288BD1216004F032F85BE1FF2959E10D
:101320000F98FF28F2D10D98A061224A22499042DD
:1013300000D9A161A069884200D2A16104F01FF820
:1013400048E10F98FF28E1D1144841430A98C1624F
:1013500004F015F83EE100007C030020700100203D
:10136000A40300206801002020AA0000C00B002078
:101370000AAA000002AA0000FF77FFFF01DEFFFFBC
:101380004BF30000D007000048F30000C007002026
:101390006C010020920300202C03002060EA000072
:1013A000701700007C150000AC0D0000DC0500008B
:1013B0001A040000400D030020BF0200FF2CA5D13D
:1013C000FF4B012159600021D960FE4B1446109D4E
:1013D000521C2C5D1C54401C0C28F7D3FA48416069
:1013E0008160C1600161416181610021112000F0D3
:1013F0000BFD0021122000F007FD0021132000F05A
:1014000003FD0021142000F0FFFCE3E0FF2C84D159
:10141000EB4B012159600021D960EA4B0C33114696
:10142000109C521C615C1954401C0C28F7D3E648F0
:101430000C22E449001D0BF0CBFDE249E2480C22EE
:101440000C3110300BF0C4FD03F099FFFFF708FDDD
:101450000021112000F0D8FC0021122000F0D4FC63
:101460000021132000F0D0FC0021142000F0CCFC5F
:10147000B0E0FF2D05D1D549012048718871FFF7F3
:1014800099FDA7E0FF2D02D1D04901208871A1E08C
:10149000FF2D9FE00C9AFF2A13D1C94B01229A60BD
:1014A000C84A0A3A11700F9951700B9B052193702D
:1014B0000B46109C491CE35C1418E370401C072881
:1014C000F6D387E00C9AFF2A13D1BD4B01229A6014
:1014D000BC4A143A11700F9951700B9B05219370FF
:1014E0000B46109C491CE35C1418E370401C072851
:1014F000F6D36FE0FF296DE00B98FF286AD10E98B4
:1015000005F055F903F03BFF64E0FF2962D10020AC
:10151000FFF732FD5EE00F98FF285BD10D98A062C7
:1015200003F02DFF56E0AA484079FF2852D10A98CF
:1015300001630A990F9848630A990B988863002001
:10154000606003F01CFF45E00F98FF2842D1616006
:1015500003F015FF3EE0FF293CD10120E06103F0DC
:101560000EFF37E0FF2935D10020E06103F007FFCF
:1015700030E00F98FF282DD19148016103F0FFFE64
:1015800028E0FF2926D10120206203F0F8FE21E0A7
:10159000FF291FD10020206203F0F1FE1AE0FF298D
:1015A00018D10120606203F0EAFE13E0FF2911D197
:1015B0000020606203F0E3FE0CE00F98FF2809D1E1
:1015C0007F48C16703F0DBFE04E0FF2902D1002061
:1015D000FFF7D2FC14217E480BF013FD002011B060
:1015E000F0BD7A4880787047F8B501F097F9052882
:1015F0004DD0FFF7F6FF4D25AD02764E734C002817
:1016000010D00020FFF7D6FC6E48012149021830A7
:101610000BF0F7FCA069802240024119304600F02F
:1016200052FE26616079002861D0A0790027002849
:1016300053D0A77168491A2000F0E6FB00F0F8FDCE
:101640002169C87B962825D05E484C38814241D319
:101650002661606900280CD0A0690421400240196D
:1016600000F052FEA069802240024119594800F062
:1016700009FEA069401CA0615A2822D3A7616771A6
:101680000322564900200BF0AEFB0020F8BD0020DD
:10169000C043F8BD2069C773012060615048AB2288
:1016A0000068027008224270FF2242740F224D48E7
:1016B0000BF08EFC4B491222891E00200BF093FB8D
:1016C00015E0400241198022424800F0FCFD2661ED
:1016D0006761B3E710312161B0E71A2000F098FB91
:1016E000002804D1677103223F490BF07CFB0020E6
:1016F000F8BD364840797047344800797047F0B5F6
:1017000089B0074601F0DFF90024E443012806D040
:1017100003F01EF9002804D0204609B0F0BD204691
:10172000FBE7FFF7E9FF002803D0FFF7E2FF0028FF
:1017300060D0234E254C3046F168803001295BD0C3
:1017400081690A0AA16A0A7082694A70F16AA56A07
:10175000090AA970F16AE970406A64210BF010FC73
:1017600028710E2000F054FB20497D25081AED0059
:1017700029460BF005FCA16A48711D480021406A0A
:1017800008F078FDA16A8871694600200AF0F3FA32
:101790000798D021411AA06AC17106990172059972
:1017A0004172039981720299C17201990173962164
:1017B000C173F06F012826D000283CD044E019E026
:1017C000400B0020E0070020400C002070010020AA
:1017D0007C030020A4050020983A00003CF30000A0
:1017E0006C010020920300203FF30000A82F0000AE
:1017F0002C030020204690E7C1690A0AA16A0A70FA
:10180000C2694A70A2E701F05BF9E121C9004843CF
:1018100029460BF0B5FBA16A2030487301F050F95E
:10182000E121C900484329460BF0AAFB2030A16AF8
:10183000000A887308E001F043F9A16A487301F0D7
:101840003FF9A16A000A88734D25AD02002F02D02E
:10185000012F35D127E01022A16AA0680BF0B8FB58
:10186000EE49A06888421BD3ED48A060E06A0421DD
:101870004002401900F048FDE06A80224002411910
:10188000E74800F0FFFC01214902E5480BF0B9FBF5
:10189000E06A401CE0625A2812D30020E0620FE0A8
:1018A0001030A0600CE0E06A04214002401900F012
:1018B0002BFDE06A802240024119D94800F0E2FC89
:1018C00000202AE7F0B589B001F0FDF80024E443D8
:1018D000012805D003F03CF8002803D020461CE77F
:1018E00020461AE701F01AF8CE4C052803D0CE485E
:1018F0002062002011E70E2000F08AFACB4F7D21F4
:10190000381AC9000BF03CFB6062216A8142F0D0BA
:101910002062C74D2846E968803001291CD08169C2
:101920000A0AE1690A7082694A70E96AE669090A85
:10193000B170E96AF170406A64210BF021FB3071EB
:101940000E2000F065FA7D26381AF600B0420AD261
:10195000E169002048710FE0C1690A0AE1690A7073
:10196000C2694A70E1E70E2000F052FA381A314697
:101970000BF006FBE1694871AE480021406A08F0AF
:1019800079FCE1698871694600200AF0F4F907984A
:10199000D021411AE069C17106990172059941721D
:1019A000039981720299C172019901730021C17377
:1019B000E86F012802D0002818D020E001F080F85C
:1019C000E121C900484331460BF0DAFAE1692030E1
:1019D000487301F075F8E121C900484331460BF026
:1019E000CFFA2030E169000A887308E001F068F856
:1019F000E169487301F064F8E169000A88738E4870
:101A0000AB210068017001214170FF2141748449BC
:101A10000F22543989480BF0DBFA88491222891EBB
:101A200000200BF0E0F9606A002800D161E7002097
:101A3000FFF765FE5DE77B494870704770B5062883
:101A400004D90120FFF7F7FF002070BD7449744AE4
:101A50002C390D18E978223A09021418E07801436C
:101A60000BD000F05EFFE978E2780902114388426A
:101A700008D30120FFF7DFFF07E00020FFF7DBFFBF
:101A8000002070BD0020FFF7D6FF002070BD684920
:101A9000C031086370476648C030006BC0B2704701
:101AA000F0B589B0694600200AF065F90698C6B21B
:101AB0000598C4B2FFF7EFFF00275D4DA04206D0A6
:101AC0002046FFF7E4FF2F62002004F070FEA868B4
:101AD000002804D0012816D0AF6000201DE6E86978
:101AE00000280CD000F01DFFE969884203D30120D3
:101AF000FFF7A1FFF1E70020FFF79DFFEDE70020D2
:101B0000FFF799FFE9E7464D2C3D6978B14205D1D1
:101B1000A878201AC0B2FFF791FFDEE71F201E222F
:101B20000B000BF0B8FA0D08091030373E454C5346
:101B30005A61686F0800D0E7A978401A0019C0B24E
:101B4000FFF77CFFC9E72E78B00705D16421304646
:101B50000BF016FA00290ED1FF21913130460BF01F
:101B60000FFA002907D0A8781C21081A0019C0B262
:101B7000FFF764FFB1E7A8781D21081A0019C0B269
:101B8000FFF75CFFA9E7A978401A0019C0B2FFF778
:101B900055FFA2E7A878101A0019C0B2FFF74EFF50
:101BA0009BE7A978401A0019C0B2FFF747FF94E7F6
:101BB000A878101A0019C0B2FFF740FF8DE7A97886
:101BC000401A0019C0B2FFF739FF86E7A978401A1A
:101BD0000019C0B2FFF732FF7FE7A878101A00198A
:101BE000C0B2FFF72BFF78E7A978401A0019C0B2FE
:101BF000FFF724FF71E7A878101A0019C0B2FFF7A9
:101C00001DFF6AE7A978401A0019C0B2FFF716FF56
:101C100063E700207047034840787047E8090020D8
:101C2000F807002070010020FF0F0000A82F00001F
:101C3000400B00202C0300206C01002092030020A8
:101C400010B556490878C043C0B20870002804D0C7
:101C50000821012008F02CFE10BD0821012008F009
:101C600042FE10BD10B500F0F1F8FEF7F9FD00F0EE
:101C70009DF8FFF7CCF807F038FC00F045F900F0CC
:101C800071F9FFF741F9FFF7C4FF00F093F900F095
:101C9000D3F900F00AFA00F041FAFEF79FFA10BDFE
:101CA000FFF7E0FF00F04DFB00F062FB07F033F8B8
:101CB00000F070FA07F071F808F01EFB00F097FAD8
:101CC0000020FFF756F93649102000F09DF8FF215B
:101CD0002D310120FEF7CFFD022000F099F80028F9
:101CE00005D10121022000F08FF8FEF73AFB012018
:101CF00000F08EF800280AD11421012000F084F8A9
:101D000007F047FE00F094FA26480121C161002047
:101D100000F07EF8002804D1022100F075F807F0E9
:101D2000DCF81B2000F074F8002805D132211B20BC
:101D300000F06AF8FFF762F91D2000F069F800284A
:101D400005D132211D2000F05FF8FFF7BBFD1C20FC
:101D500000F05EF8002805D132211C2000F054F874
:101D6000FFF742FC042000F053F8002806D17D2143
:101D7000C900042000F048F8FFF792FE232000F08D
:101D800047F8002806D10521232000F03DF8064839
:101D9000FEF718FBFFF754FF9EE70000A6010020A6
:101DA000DC050000000C00205C03002010B50A4C8C
:101DB000592020601620206088202060012100200A
:101DC00008F094FB054808F0C4FC054808F083FCC3
:101DD0000020206010BD00000001005088130000AA
:101DE00080F0FA0210B517490878C043C0B20870F5
:101DF000002804D00921002008F05AFD10BD092157
:101E0000002008F070FD10BD0F4A8000115070478F
:101E10000D4980000858704700210A4A5078401C3C
:101E2000C0B250700A280CD30020507006480268D7
:101E3000002A01D0521E0260001D491C4529F6D31C
:101E4000D0E77047A7010020080A002010B5284CF1
:101E50005920206016202060882020600122042163
:101E6000022008F0FBFC2348816810229143816026
:101E700001221146022008F0F1FC0121022008F0A5
:101E800032FD01220321022008F0E8FC0321022098
:101E900008F029FD01220221104608F0DFFC022192
:101EA000012008F020FD01220721022008F0D6FCC5
:101EB0000721022008F017FD02210122084608F040
:101EC000CDFC0221084608F00EFD03220921002066
:101ED00008F0C4FC03220821012008F0BFFC032203
:101EE0000821012008F0BAFC0020206010BD00008D
:101EF000000100508040005010B5FFF78DFF1348DF
:101F00000168491C016010BD10B5114C59202060BA
:101F100016202060882020600AF066FA072102203F
:101F200008F070FA01220B4900200AF064FA01233C
:101F3000094A022100200AF0D4FB00200AF063FCC9
:101F400000200AF085FC0020206010BD1C0000204D
:101F500000010050204E0000F91E000010B5FEF7F1
:101F6000E7F910BD10B5104C5920206016202060F4
:101F7000882020600AF038FA0721042008F042FA8D
:101F800001220A4902200AF036FA02210123084AF6
:101F900008460AF0A6FB02200AF035FC02200AF0EF
:101FA00057FC0020206010BD00010050204E0000B2
:101FB0005D1F00007FB51E4C592020601620206058
:101FC0008820206009F078F9342008F033FD0221E0
:101FD000002009F080FD01206A46107064215170D4
:101FE00000259570D57013490191029503906946BB
:101FF000002009F036FA0121002009F026FD012118
:10200000002009F087F925607FBD1FB55C2800D945
:102010005C2001216A4611706422101A6A465070D1
:102020000448019003916946002009F01AFA1FBD87
:1020300000010050400D03007FB5544C5920206032
:102040001620206088202060362008F0F3FC022152
:10205000084609F040FD01206A4610706421517065
:1020600000259570D5704A49019102950390694603
:10207000022009F0F6F90121022009F0E6FC012115
:10208000022009F047F925607FBD1FB501216A468E
:1020900011706422101A6A4650703D4801900391F5
:1020A0006946022009F0DDF91FBD7FB5374C592084
:1020B00020601620206088202060372008F0BAFCBD
:1020C0000221032009F007FD01206A4610706421F7
:1020D000517000259570D5702D490191029503909E
:1020E0006946032009F0BDF90121032009F0ADFC88
:1020F0000121032009F00EF925607FBD1FB50121E4
:102100006A4611706422101A6A4650702048019085
:1021100003916946032009F0A4F91FBD7FB51B4C4C
:10212000592020601620206088202060352008F08B
:1021300081FC0221012009F0CEFC01206A461070CA
:102140006421517000259570D57011490191029557
:102150000390694609F085F90121084609F075FCEC
:102160000121084609F0D6F825607FBD1FB5012181
:102170006A4611706422101A6A4650700448019031
:1021800003916946012009F06CF91FBD0001005060
:10219000D007000010B58AB00B4C592020601620E3
:1021A00020608820206009F000FD01A809F024FDCE
:1021B000002009F0E2FF0548016B0822914301630A
:1021C000002020600AB010BD0001005000800040D7
:1021D0001F485921016016210160882101601D49B5
:1021E0000A6808231A430A6000210160704710B58D
:1021F000174C592020601620206088202060022182
:10220000002008F0FFF807200AF092FB12480AF0BD
:10221000ACFB002108460AF040FB002102200AF036
:102220003CFB002107200AF038FB0020206010BD95
:1022300010B5074C592020601620206088202060AF
:10224000002106200AF029FB0020206010BD0000BC
:102250000001005000400040D121000003E00221B5
:10226000491E0029FCD1401EF9D27047044A03E000
:102270001146491E0029FCD1401EF9D270470000CA
:102280009D170000F8B505460F461646002472B6A5
:1022900059213548016016210160882101600AF04A
:1022A00047FE07E020468000641CC01929680AF038
:1022B000C1FD2D1D761EF5D20AF050FE2A480021E0
:1022C000016062B6F8BDF8B506460F461546002413
:1022D00072B65921244801601621016088210160ED
:1022E0000AF026FE07E020468000641CC019314633
:1022F0000AF0CAFD361D6D1EF5D20AF02FFE1A48EF
:102300000021016062B6F8BDF8B506460D4600240E
:1023100072B65920144F3860162038608820386013
:102320000AF006FE05E020468000641C80190AF0D1
:10233000D7FD6D1EF7D20AF011FE0020386062B69C
:10234000F8BD10B5084C5920206016202060882068
:1023500020600AF009FE1321472209030348FFF712
:10236000B2FF0020206010BD00010050400B002093
:10237000F8B5DF4B7D26986A7601B04200D29E62A6
:10238000DC49986A884200D99E62DB4A186B904209
:1023900000D21A63D948196B814200D91A63D86FE9
:1023A0000021002800D0D967D148C8248030456872
:1023B000C82D00D244604B274568FF00BD4200D9BC
:1023C00044608468642C01D264248460FF2584689E
:1023D0003C35AC4201D96424846004680125002C9A
:1023E00000D105600468032C00D90560C468012C85
:1023F00000D9C1605C68012C00D95960DC68022CEE
:1024000000D9D960BE4C1F69A74201D903241C61C1
:10241000BC4CC76AA74200D3C462BB4CC76AA74280
:1024200001D8B84CC4629C69012C00D99961B44CA4
:10243000DF69A74200D9D961AD4B1B6A5B1C01D192
:10244000AB4B1962AA4CB14FC034A36ABB4201D254
:10245000AF4BA362AF4FA36ABB4201D9AC4BA3629F
:10246000E36A012B00D9E162AB4B1F68012F00D951
:102470001960076BFF23FF2F00D90363476BFF2F02
:1024800000D94363876BFF2F00D98363C36B0F2B86
:1024900000D9C1632368012B00D925606368032B31
:1024A00000D96160A3680F2B00D9A160E3680F2BEE
:1024B00000D9E1608E4B9B6B102B01D38C4B996341
:1024C000836A642B01D9642383628F4B07695B1E87
:1024D0009F4200D3016187699F4200D38161C76930
:1024E0009F4200D3C161E069012800D9E161206AFF
:1024F000012800D92162606A012800D961627F4900
:10250000A36986488B4200D9A061A169814200D2AB
:10251000A0617D21606B8901884200D96263606B94
:10252000B04200D262637E4BA16B7E48994200D9D3
:10253000A0637D4BA16B994200D2A0637D23E16B28
:102540001B017A48994200D9E063FF23E16BF53320
:10255000994200D2E063664EF06B904202D3A169CB
:10256000884201D96848F063306C904202D3A16977
:10257000884201D96E483064706C904202D3A169E0
:10258000884201D96B487064B06C904202D3A16953
:10259000884201D96848B064F06C904202D3A169C6
:1025A000884201D96548F064306D904202D3A16938
:1025B000884201D956483065706D904202D3A169B6
:1025C000884201D95E487065B06D904202D3A1691E
:1025D000884201D95B48B065F06D904202D3A16991
:1025E000884201D95848F065306E904202D3A16903
:1025F000884201D955483066706E904202D3A16975
:10260000884201D952487066B06E904202D3A169E7
:10261000884201D94F48B066F06E904202D3A1695A
:10262000884201D94C48F066306F904202D3A169CC
:10263000884201D949483067706F904202D3A1693E
:10264000884201D946487067B06F904202D3A169B1
:10265000884201D94348B067FF21153142480AF04A
:10266000D0FC142141480AF0CCFC142140480AF067
:10267000C8FC002002F079FE0020FFF7C6FC3D48B0
:1026800081681022914381600121022008F02BF91A
:102690000321022008F027F90721022008F008F999
:1026A0000221084608F01FF9002002F021F901205C
:1026B00001F02AFE082000F05FF8002001F0A9FEDA
:1026C000756206F073FF002811D006F03DFF002868
:1026D0000DD106F052FF002809D11620A16AFFF79C
:1026E00093FB012000F048F80020FEF70FFBF8BD37
:1026F000400B0020E02E000070170000400D03008A
:10270000FF0F0000C027090010270000983A0000C2
:1027100060EA000080A90300400C002020BF0200F6
:102720007C150000AC0D0000DC0500001A04000060
:10273000204E000030750000409C000050C3000097
:102740007011010080380100905F0100A086010037
:10275000B0AD0100C0D40100D0FB0100E0220200B6
:10276000F049020000710200080A00207C030020EA
:102770009003002080400050FF4948707047FE4899
:102780000078704770B50021084608F0BAF80021BB
:10279000012008F0B6F80021022008F0B2F8062166
:1027A000022008F085F80F21012008F081F80321AC
:1027B000002008F07DF8F149012048620020FFF771
:1027C00064FC0020FFF79AFC0020FFF7CFFCFEF727
:1027D00009FBFEF745FB0020FFF717FC0121022053
:1027E00008F081F80321022008F07DF80221012081
:1027F00008F079F80721022008F075F8E04CA0688D
:102800001026B043A0600221084608F06CF80021B1
:10281000022008F04DF80020FEF7AEFBD94D5920FC
:102820002860162028608820286008F0B2FB08F095
:1028300054FD00200AF001FA28030AF0FEF90120F5
:1028400009F019FF032009F016FF002008F0F2F844
:1028500000221146012008F001F80121002208465B
:1028600007F0FCFF002007F078FE00202860FFF74B
:10287000F9F90020FFF7C9FB0121022008F033F825
:102880000321022008F02FF80221012008F02BF884
:102890000721022008F00CF8A068B043A0600221D4
:1028A000084608F020F8B548C030816A1620FFF7C6
:1028B000ABFAFF21F5312820FFF7A6FAFF2191316D
:1028C0000F20FFF7A1FAFFF75AFF012802D10720D6
:1028D000FFF752FF70BDA84948727047A64988713A
:1028E0007047A5494871704700B5A74AA749D06805
:1028F000884203D90120FFF7F4FF02E00020FFF730
:10290000F0FF1921D0680902884203D20120FFF7A5
:10291000E5FF00BD0020FFF7E1FF00BD96484078CD
:1029200070479648C0300069704708B5934919222E
:102930008031496A0020120291420BD97D20944BCC
:10294000C000994206D2881A7D21C90048439149A6
:102950000AF016FB0A210AF013FB874A203291790C
:10296000814200D99071062190790AF009FB030099
:102970000AF091FB1009121B242D363F48515A636F
:102980006C757E8790998448009003230022402133
:102990003820FEF74BF908BD804800900323002241
:1029A00040213820FEF742F908BD7D4800900323FE
:1029B000002240213820FEF739F908BD79480090FF
:1029C0000323002240213820FEF730F908BD764865
:1029D00000900323002240213820FEF727F908BD8C
:1029E000724800900323002240213820FEF71EF990
:1029F00008BD6F4800900323002240213820FEF7D5
:102A000015F908BD6B4800900323002240213820AF
:102A1000FEF70CF908BD684800900323002240210E
:102A20003820FEF703F908BD644800900323002214
:102A300040213820FEF7FAF808BD614800900323D2
:102A4000002240213820FEF7F1F808BD5D480090D3
:102A50000323002240213820FEF7E8F808BD5A4839
:102A600000900323002240213820FEF7DFF808BD44
:102A7000564800900323002240213820FEF7D6F864
:102A800008BD534800900323002240213820FEF760
:102A9000CDF808BD4F480090032300224021382084
:102AA000FEF7C4F808BD4C480090032300224021E3
:102AB0003820FEF7BBF808BD3048C0304069704789
:102AC0002D48006B70472D484069C0B270472B48B5
:102AD000C0300068C0B27047F0B585B000200290E9
:102AE00001903D20FFF794F9234D244E7D240027CB
:102AF0002035C036E40000283DD02878002802D0D8
:102B00002F70FEF7ADF94320FFF782F900286DD151
:102B1000FF21F5314320FFF777F90120FEF7E9F9AE
:102B20003D20FFF775F92D490AF02AFA2C4D084689
:102B300029460AF025FA2A2148432A4F0121C219C1
:102B40000E20FEF755F83D20FFF762F929460AF0FE
:102B500017FA084621460AF013FA2A214843C219F7
:102B600001211C20FEF744F81F48042303223221D0
:102B700000902A203BE05EE0AC010020400B0020EA
:102B800080400050000100502C030020282300004A
:102B90003A2000003A070000DEDE0000C6DE00003A
:102BA000AEDE000096DE00007EDE000066DE000085
:102BB0004EDE000036DE00001EDE000006DE0000F5
:102BC000EEDD0000D6DD0000BEDD0000A6DD000069
:102BD0008EDD000076DD00005EDD0000A0860100D5
:102BE000102700008FF10000FEDE00001DE0FEF760
:102BF0001DF80123FFA204210A20FEF738F8002166
:102C00001120FFF701F900211220FFF7FDF8002144
:102C10001320FFF7F9F800211420FFF7F5F8AF2093
:102C2000FEF763F90020FEF764F91620B16AFFF79A
:102C3000EBF805B0F0BD2878002803D101202870FA
:102C4000FEF70EF93B20FFF7E3F8ED4900285FD0CF
:102C5000C87D002802D0CF75FEF702F90120FEF7EB
:102C600048F9E849C86800280BD0012826D0022876
:102C700041D0CF60AF20FEF738F90020FEF739F9D8
:102C8000D7E70523E0A201210D20FDF7F0FF052382
:102C9000DFA203210D20FDF7EAFFDF4800900323A8
:102CA000012206210020FDF7C1FFDC48009003232C
:102CB000012240213A20FDF7B9FFDBE70523D8A226
:102CC00001210D20FDF7D3FF0523D1A203210D2003
:102CD000FDF7CDFFD04800900323012206210020FC
:102CE000FDF7A4FFCD4800900323012240213A20A4
:102CF000FDF79CFFBEE70523CBA201210320FDF7D2
:102D0000B6FF03210523CAA20846FDF7B0FFB1E7CD
:102D1000BB48C07D002804D1B9490120C875FEF721
:102D20009FF83C20FFF774F8002854D0B448017E87
:102D3000002902D00776FEF793F80120FEF7D9F8B4
:102D40000123BDA219460520FDF791FFAD48016999
:102D50000B000AF0A0F90627040B121920270523FF
:102D6000B8A203210720FDF782FF1DE00523B7A2CB
:102D700003210D20FDF77BFF16E00523B5A20321FB
:102D80000D20FDF774FF0FE00523B4A203210D20F1
:102D9000FDF76DFF08E00523B2A203210720FDF730
:102DA00066FF01E0032101619B4800900523032297
:102DB00006210020FDF73AFF9848009005230322E2
:102DC00040213A20FDF732FFAF20FEF78EF80020B9
:102DD000FEF78FF82DE78A48007E002804D1884945
:102DE00001200876FEF73CF81E20FFF711F80028B6
:102DF00041D08348417E002902D04776FEF730F863
:102E00000120FEF776F8FEF7BAF8984C012804D0B6
:102E1000FEF7B5F8002814D026E004230022302164
:102E200010200094FDF702FF002391A2042101204D
:102E3000FDF71DFF002391A205210420FDF717FFD8
:102E400012E004230022302110200094FDF7EEFE52
:102E5000002387A204210120FDF709FF00238AA295
:102E600005210120FDF703FFAF20FEF73EF800200B
:102E7000FEF73FF8DDE66248407E002804D1604955
:102E800001204876FDF7ECFF2720FEF7C1FF002860
:102E900042D05B48817E002902D08776FDF7E0FFB3
:102EA0000120FEF726F8FFF712FE012804D0FFF7F5
:102EB0000EFE002815D028E076480090042300225A
:102EC00030211020FDF7B2FE002373A2042101205F
:102ED000FDF7CDFE0521002368A20846FDF7C7FED9
:102EE00013E0704800900423002230211020FDF7E9
:102EF0009DFE002368A204210120FDF7B8FE0023F7
:102F000061A205210120FDF7B2FEAF20FDF7EDFF24
:102F10000020FDF7EEFF8CE63948807E002804D1C2
:102F2000374901208876FDF79BFF3E20FEF770FFB2
:102F3000002830D03248C17E002902D0C776FDF784
:102F40008FFF0120FDF7D5FFF06A002809D0012886
:102F500014D0F762AF20FDF7C8FF0020FDF7C9FFCE
:102F600067E6002350A201210820FDF780FE05231B
:102F700050A203210720FDF77AFEEBE700234AA2C7
:102F800001210820FDF773FE05234CA20321022036
:102F9000FDF76DFEDEE71A48C07E002804D118490F
:102FA0000120C876FDF75CFF3F20FEF731FF0028C7
:102FB0001ED01348017F002902D00777FDF750FF8C
:102FC0000120FDF796FF00233EA219460220FDF7DF
:102FD0004EFE0C4F3E49386A3E4E3F4D884208D364
:102FE000214609F0CDFF3D4909F0CAFF084677E0C8
:102FF000BDE2D0E04C4F41442E2E2E0A00000000CE
:10300000AC010020400B0020574154540A0000003E
:103010004D4F44450A00000000E300000CE30000AF
:1030200054454D500A0000004D454D4F52590A007D
:10303000204D4F4445200A00535452454E475448B2
:103040000A000000204D494E200A0000534F46540C
:103050000A0000004E4F524D0A0000004841524401
:103060000A000000204D4158200A00005ED60000F2
:10307000424C5545544F4F54480A00002020204FE1
:103080004E202020200A00002020204F46462020ED
:10309000200A00005ED700002020204C454420205C
:1030A000200A0000DED70000535445414C54480A22
:1030B00000000000204F464620200A0020204F4EEE
:1030C00020200A002020544F44415920200A0000AB
:1030D000809698007AE9000007ED0000A0860100C4
:1030E000FF4909F04DFF10301421484342190121D6
:1030F0000720FDF75FFD2146386A09F041FFF849D6
:1031000009F03EFF0846214609F03AFF103014212D
:103110004843421901211120FDF74CFD2146386A30
:1031200009F02EFF214609F02BFF0846642109F023
:1031300027FF103014214843421901211B20FDF7BD
:1031400039FD2146386A09F01BFF642109F018FF98
:1031500008460A2109F014FF10301421484342198F
:1031600001212520FDF726FD2146386A09F008FFD8
:103170000A2109F005FF1031142041434A190121A9
:103180002F20FDF717FD032301224321392000964C
:10319000FDF74CFDD1E0D34988424ED3214609F0DA
:1031A000EFFECF4909F0ECFE0846214609F0E8FEA3
:1031B000103014214843421901210C20FDF7FAFC7C
:1031C0002146386A09F0DCFE214609F0D9FE08469E
:1031D000642109F0D5FE1030142148434219012121
:1031E0001620FDF7E7FC2146386A09F0C9FE642184
:1031F00009F0C6FE08460A2109F0C2FE103014216B
:103200004843421901212020FDF7D4FC2146386AA9
:1032100009F0B6FE0A2109F0B3FE10311420414333
:103220004A1901212A20FDF7C5FC032301223E2172
:1032300034200096FDF7FAFC7FE0AB4988423BD38F
:10324000214609F09DFE214609F09AFE08466421B8
:1032500009F096FE10301421484342190121112033
:10326000FDF7A8FC2146386A09F08AFE642109F0BE
:1032700087FE08460A2109F083FE103014214843D6
:10328000421901211B20FDF795FC2146386A09F0FF
:1032900077FE0A2109F074FE1031142041434A19C7
:1032A00001212520FDF786FC0323012239212F204F
:1032B0000096FDF7BBFC40E08949884228D32146AF
:1032C00009F05EFE642109F05BFE08460A2109F060
:1032D00057FE103014214843421901211620FDF7F2
:1032E00069FC2146386A09F04BFE0A2109F048FEC4
:1032F0001031142041434A1901212020FDF75AFCC6
:103300000323012234212A200096FDF78FFC14E0CC
:10331000214609F035FE0A2109F032FE1031142051
:1033200041434A1901211B20FDF744FC03230122DC
:103330002F2125200096FDF779FC00236BA20321A5
:103340000220FDF794FCFFF7ECFA654EB04251D332
:10335000FFF7E7FA644909F013FE0846314609F021
:103360000FFE103014214843421904210720FDF7B5
:1033700021FCFFF7D6FA314609F002FE0846214645
:1033800009F0FEFD10301421484342190421112098
:10339000FDF710FCFFF7C5FA214609F0F1FD0846DC
:1033A000642109F0EDFD1030142148434219042135
:1033B0001B20FDF7FFFBFFF7B4FA642109F0E0FDE5
:1033C00008460A2109F0DCFD103014214843421957
:1033D00004212520FDF7EEFBFFF7A3FA0A2109F0EF
:1033E000CFFD1031142041434A1904212F20FDF74D
:1033F000E1FBB5E0FFF795FAA04240D3FFF791FA61
:10340000314609F0BDFD0846214609F0B9FD1030EE
:1034100014214843421904210C20FDF7CBFBFFF790
:1034200080FA214609F0ACFD0846642109F0A8FDA8
:10343000103014214843421904211620FDF7BAFB2D
:10344000FFF76FFA642109F09BFD08460A2109F095
:1034500097FD103014214843421904212020FDF724
:10346000A9FBFFF75EFA0A2109F08AFD103114204A
:1034700041434A1904212A20FDF79CFB70E0FFF725
:1034800050FA64283CD3FFF74CFA214609F078FD46
:103490000846642109F074FD103014214843421994
:1034A00004211120FDF786FBFFF73BFA642109F0A8
:1034B00067FD08460A2109F063FD103014214843D6
:1034C000421904211B20FDF775FBFFF72AFA0A2198
:1034D00009F056FD1031142041434A1904210BE034
:1034E0001027000040420F00A08601002020505508
:1034F00046465320200A00002520FDF75BFB2FE005
:10350000FFF70FFA0A281ED3FFF70BFA642109F020
:1035100037FD08460A2109F033FD103014214843D5
:10352000421904211620FDF745FBFFF7FAF90A219D
:1035300009F026FD1031142041434A1904212020AE
:10354000FDF738FB0CE0FFF7ECF90A2109F018FD54
:103550001031142041434A1904211B20FDF72AFB96
:10356000AF20FDF7C2FC0020FDF7C3FC32E4FF48AA
:10357000007F002804D1FD4901200877FDF770FC89
:103580003A20FEF745FC00287ED0F848417F00290C
:1035900002D04777FDF764FC0120FDF7AAFCF4494F
:1035A000002008F0E8FBF34D0423022220211E2016
:1035B0000095FDF73BFB0423022231212F200095CB
:1035C000FDF734FBEA4DEC49E86909F0D9FC0846FF
:1035D0002646314609F0D4FCE84C00010019009061
:1035E0000423022209210120FDF720FB3146E8696E
:1035F00009F0C6FC0846642109F0C2FC000100196C
:1036000000900423022210210820FDF70FFB642103
:10361000E86909F0B5FC08460A2109F0B1FC00018F
:10362000001900900423022217210F20FDF7FEFA53
:103630000A21E86909F0A4FC08010019009004239C
:1036400002221E211620FDF7F1FA6421A86909F073
:1036500097FC08460A2109F093FC0001001900902C
:103660000423022228212020FDF7E0FA0A21A8697C
:1036700009F086FC080100190090042302222F2182
:103680002720FDF7D3FA00E024E06421686909F0FF
:1036900077FC08460A2109F073FC0001001900902C
:1036A0000423022239213120FDF7C0FA0A2168697A
:1036B00009F066FC08010019009004230222402151
:1036C0003820FDF7B3FAAF20FDF70FFC0020FDF71F
:1036D00010FC20E4A548407F002804D1A349012024
:1036E0004877FDF7BDFB3920FEF792FB00285ED03E
:1036F0009E48817F002902D08777FDF7B1FB01202A
:10370000FDF7F7FB9A49002008F035FB984C64213F
:10371000E06809F035FC08460A2109F031FC38213F
:103720004843974D05234019009001220E210020A7
:10373000FDF77CFA0A21E06809F022FC38204143B9
:1037400048190090052301221C210E20FDF76EFA76
:103750008C4800900523012223211D20FDF766FAE5
:103760006421A06809F00CFC08460A2109F008FC55
:10377000382148434019009005230122322124209A
:10378000FDF754FA0A21A06809F0FAFB38204143FA
:10379000481900900523012240213220FDF746FA06
:1037A000AF20FDF7A2FB0020FDF7A3FBDEE66F488C
:1037B000807F002804D16D4901208877FDF750FBF8
:1037C0000F20FEF725FB00282CD06848C17F002978
:1037D00002D0C777FDF744FB0120FDF78AFB0423E5
:1037E000022209210020FDF752FB0423022240217E
:1037F0003620FDF74CFB6448002200900423402152
:103800001046FDF713FA6148009006230422402178
:103810000020FDF70BFAAF20FDF767FB0020FDF756
:1038200068FBA3E65148C07F002804D14F4901201E
:10383000C877FDF715FB2D20FEF7EAFA002838D0EF
:103840002D20FEF7E5FAA04233D26878002812D086
:103850006F70FDF705FB00211120FEF7D5FA00215E
:103860001220FEF7D1FA00211320FEF7CDFA002135
:103870001420FEF7C9FA0120FDF73BFB44480090F5
:103880000423002238210820FDF7D0F9002341A2AB
:1038900004210520FDF7EBF9002341A205210220B8
:1038A000FDF7E5F9AF20FDF720FB0020FDF721FB38
:1038B0005CE66878002803D101206870FDF7D0FA33
:1038C0001720FEF7A5FA002833D02848417D0029AB
:1038D00005D04775AE20FDF708FBFDF7C1FAFFF7ED
:1038E000F2F8002810D10120FDF703FB2F480090CB
:1038F0000623002238210820FDF798F9AF20FDF7B4
:10390000F4FA0020FDF7F5FAFFF7DDF8012888D179
:10391000FDF7EFFA26480090062300223021102000
:10392000FDF784F9AF20FDF7E0FA0020FDF7E1FA9A
:103930001CE60E48407D002804D10C490120487542
:10394000FDF78EFA1820FEF763FA00283DD00748ED
:10395000817D002902D08775FDF782FA0120FDF7ED
:10396000C8FA062300221248302123E0AC010020CF
:103970001C0B0020E3E200001027000073DF0000B2
:10398000B3E000002EDF00004ED200004ED3000056
:1039900030E30000202054454D502020200A000034
:1039A00050524F5445435445440A00004ED4000041
:1039B0006ED5000000901020FDF738F9AF20FDF71C
:1039C00094FA0020FDF795FAD0E5FF48807D0028A5
:1039D00004D1FD4901208875FDF742FA1220FEF757
:1039E00017FAFA490391002819D1FF215F311220FB
:1039F000FEF70AFAF06A01280ED00120FDF779FAE5
:103A0000F2488038C06800280AD0F049803901287F
:103A10005BD0022846D058E0AE20FDF766FACCE134
:103A2000EA4980394868002802D0012804D04CE0D7
:103A3000E548096B816348E0FEF770FF05280AD06E
:103A4000E248E14A8030017C0902007908436421A0
:103A50004843906339E00E20FEF7DAF9DC49081A92
:103A6000214609F08DFAD94980394018FF300130DC
:103A7000007C0102D44881630E20FEF7C9F9D449C5
:103A8000081A214609F07CFAD04980394018FF30E5
:103A9000CD4901300079896B084364214843CA4904
:103AA000886312E04868002802D0012807D00CE0A3
:103AB000886B80004018C16BC348816305E0886B48
:103AC00080004018C16BC0488163C0498039C86814
:103AD000002803D001287ED002284BD1BA48816B40
:103AE000BC48814247D3022300222F212A20FDF720
:103AF000CEF90323022238213220FDF7C8F9B2485B
:103B0000B549806B09F03CFA0846B24909F038FA29
:103B10002A214843B149421800210846FDF768F8B8
:103B2000A948AC49806B09F02BFA0846AC4909F06A
:103B300027FA2A214843A949421800210E20FDF7FF
:103B400057F8A148A649806B09F01AFA08462146A1
:103B500009F016FA2A214843A049421800211C20E6
:103B6000FDF746F89F4800900323022232212A20C5
:103B7000FDF75CF81BE1032300221C211A20FDF74E
:103B800086F90323002221211F20FDF780F99648A2
:103B90000090032300221F211C20FDF747F88A48CC
:103BA0008F49806B884206D2002203230E211046E3
:103BB000FDF76DF90EE0874909F0E2F908468849FA
:103BC00009F0DEF92A2148438449421800210846B9
:103BD000FDF70EF800E02AE07B488149806B09F090
:103BE000CFF90846214609F0CBF92A2148437B4901
:103BF000421800210E20FCF7FBFF73482146806B22
:103C000009F0BEF90846642109F0BAF92A214843AF
:103C10007249421800212120FCF7EAFF7148009008
:103C20000323022237212F20FDF700F8BFE0674869
:103C300080384068002804D064498039012820D0A9
:103C400040E062488038C06F012802D000280CD0C4
:103C500038E0FEF763FE052803D0039880680290E1
:103C600030E0FEF72DFF02902CE0FEF757FE05280E
:103C700003D003984068029024E0FEF721FF0290F1
:103C800020E0C86F012802D0002814D01AE0FEF707
:103C900045FE05280BD0FEF70FFF7D212038C90017
:103CA0004843E121C90009F06BF902900AE0FEF7F0
:103CB00007FF029006E0FEF731FE05280AD0FEF766
:103CC000FBFE029041488038C06F012806D00028D2
:103CD00039D06CE0FEF7F4FE0290F3E7214602983B
:103CE00009F04EF90846642109F04AF92A214843AF
:103CF0003A49421800210846FCF77AFF64210298ED
:103D000009F03EF908460A2109F03AF92A21484308
:103D10003249421800210E20FCF76AFF0A2102985E
:103D200009F02EF92A2041432C480A1800211C20B2
:103D3000FCF75EFF2D4800900323022236212A2043
:103D4000FCF774FF33E02146029809F019F90846A0
:103D5000642109F015F92A2148432049421800211D
:103D60000846FCF745FF6421029809F009F9084666
:103D70000A2109F005F92A2148431849421800216F
:103D80000E20FCF735FF0A21029809F0F9F82A20E5
:103D9000414312480A1800211C20FCF729FF14484F
:103DA00000900323022236212A20FCF73FFFAF2098
:103DB000FDF79BF80020FDF79CF81120FEF728F88E
:103DC000002837D1642115E0AC010020C00B002091
:103DD000442F0000A086010040420F008FF1000038
:103DE00010270000F6DE0000E7E2000012DF00000E
:103DF00006DF00001120FEF707F8F06A012816D050
:103E00000120FDF776F84220FEF702F8002858D08E
:103E1000A878002806D0AF70052303221D210020BA
:103E2000FDF735F8FEF77AFD052804D00AE0AE204C
:103E3000FDF75BF885E00E20FDF7EAFFFF49091A60
:103E4000FF48C1630123FFA203210B20FCF70FFFF2
:103E5000FB4DFD49E86B09F093F80846FB4909F072
:103E60008FF810300A214843F94F0321C21900206E
:103E7000FCF782FEF549E86B09F082F80846214616
:103E800009F07EF810300A214843C21903210720A7
:103E9000FCF772FE2146E86B09F072F808466421CF
:103EA00009F06EF810300A214843C21903210F208F
:103EB000FCF762FE0123E7A203211720FCF7D7FEDF
:103EC00039E0E54801690B0009F0E5F80631040D19
:103ED000161F2831E1480090052303221D210020F0
:103EE000FCF7A4FE25E0DE480090052303221D21F7
:103EF0000020FCF79BFE1CE0DA480090052303221B
:103F00001D210020FCF792FE13E0D7480090052306
:103F100003221D210020FCF789FE0AE0D34800900F
:103F2000052303221D210020FCF780FE01E0032170
:103F300001610120A870AF20FCF7D7FF0020FCF73B
:103F4000D8FF1320FDF764FF002822D1FF212D3177
:103F50001320FDF759FFF06A012817D00120FCF764
:103F6000C8FFFDF70CF8012814D0022300223621E7
:103F70002E20FCF78CFFFEF7D8FCB74DE868002830
:103F800011D0012854D0022843D143E0AE20FCF7E1
:103F9000ACFFDEE0B64800900223002236212E203E
:103FA000FCF744FEE7E7FEF7BCFC214608F0E8FF1B
:103FB0000846642108F0E4FF10300A214843A44D6C
:103FC000032142192620FCF7D7FDFEF7AAFC642145
:103FD00008F0D6FF08460A2108F0D2FF10300A2167
:103FE0004843421903212D20FCF7C6FDFEF799FC3A
:103FF0000A2108F0C5FF10310A2041434A19032164
:104000003420FCF7B9FD01239AA203213B20FCF7E1
:104010002EFE98E0A86B2C21401C484396490523AE
:1040200040180090032240212A20FCF7FFFD8AE07F
:10403000864F686BB84243D3012390A20321292005
:10404000FCF715FE01237FA203213020FCF70FFEB1
:104050007D49686B08F094FF0846394608F090FFE8
:1040600010300A2148437A4F0321C2192520FCF75A
:1040700083FD7649686B08F083FF0846214608F007
:104080007FFF10300A214843C21903212C20FCF77E
:1040900073FD2146686B08F073FF0846642108F041
:1040A0006FFF10300A214843C21903213420FCF766
:1040B00063FD012372A203213B20FCF7D8FD42E0FF
:1040C000012360A203212920FCF7D1FD01236BA26B
:1040D00003213020FCF7CBFD3946686B08F050FF18
:1040E0000846214608F04CFF10300A214843584F3B
:1040F0000321C2192520FCF73FFD2146686B08F01B
:104100003FFF0846642108F03BFF10300A21484376
:10411000C21903212D20FCF72FFD6421686B08F0E4
:104120002FFF08460A2108F02BFF10300A214843D0
:10413000C21903213420FCF71FFD012350A20321E3
:104140003B20FCF794FDAF20FCF7CFFE0020FCF7EE
:10415000D0FE1420FDF75CFE002800D034E4FA21E4
:104160001420FDF751FEF06A01280BD00120FCF766
:10417000C0FE394DE868002808D001280AD002287E
:104180000FD103E0AE20FCF7B0FE1DE40398806978
:10419000019006E0FEF7C2FB052877D003988069FE
:1041A0000190002327A205210420FCF760FD274E83
:1041B0000198314608F0E4FE08462746394608F0E3
:1041C000DFFE1030810040182E4C0521021900201E
:1041D000FCF7B4FC3946019808F0D2FE0846642189
:1041E00008F0CEFE10308100401802190521082089
:1041F000FCF7A4FC6421019808F0C2FE08460A21DD
:1042000008F0BEFE103081004018021905210F2071
:10421000FCF794FC1C480090062305221D21162063
:10422000FCF704FDED6A002306A205212920FCF716
:104230001EFD3146284608F0A3FE28E0442F00006A
:10424000AC0100202E0A0000A0860100102700000B
:10425000B9EA0000530A0000400B0020DCE6000031
:1042600016E7000050E700008AE70000C4E70000FE
:104270001EDF0000500A0000F0E30000200A0000EA
:10428000570A000092E9000058DF000038E00846B5
:10429000394608F075FE10308100401802190521DA
:1042A0002520FCF74BFC3946284608F069FE0846F5
:1042B000642108F065FE10308100401802190521C4
:1042C0002D20FCF73BFC6421284608F059FE0846E7
:1042D0000A2108F055FE103081004018021905210E
:1042E0003420FCF72BFC0023FAA205213B20FCF72D
:1042F000BEFCAF20FCF7F9FD0020FCF7FAFD44E717
:104300000398C06901904CE7F349C8727047F248BE
:10431000407A704770B50024FFF7F9FF00285FD09E
:104320000221084606F0C4FAFBF7A9FFFBF7BEFF1F
:10433000641C822CF8D3E9480A21C5694069064605
:104340002C1A204608F01CFE0146E548704308F090
:1043500017FE2D2801D92D3800E00020DE4A116F0C
:104360000B460F33984202D80F39884200D21067AB
:10437000DC48116F0161002E01D100210161C82CC0
:1043800002D3711BC82901D2D74901610020FEF771
:10439000A2FA0221084606F0A6FA0920FDF75EFF00
:1043A0001E211120FDF730FD1E211220FDF72CFDEE
:1043B0001E211320FDF728FD1E211420FDF724FDEA
:1043C0001E211F20FDF720FD1E212020FDF71CFDD2
:1043D00096212120FDF718FDC1492220FDF714FD8B
:1043E00070BD10B52F20FDF713FD002810D1BC497A
:1043F0002F20FDF709FDFFF78DFFBA4ABB49106971
:104400003738884204D30120FFF77EFF00209061F7
:1044100010BDB449803948617047AF490870704792
:10442000AD49C8627047AC4908637047AA48C06A82
:104430007047F0B589B0AA4C2A202146FDF7E4FC6C
:1044400021464220FDF7E0FCA64DA86968612E4692
:104450004036A74AB169A748914200D9B061B16915
:10446000814200D2B0619F4F9B4C803FF86800288A
:1044700007D001287ED002287DD00020F86009B046
:10448000F0BD0121022006F013FA7868002810D050
:10449000012811D0002078603420FDF7B9FC0028F5
:1044A00058D03869030008F0F6FD06532732553D11
:1044B0004853386BA065EFE70E20FDF7A9FC8E4945
:1044C000081A874908F05CFDC019FF300130007CF4
:1044D0000002A0650E20FDF79BFC8749081A804961
:1044E00008F04EFDC019FF3001300079A16D08437E
:1044F00064214843A065CFE7A16D08910801401AE7
:10450000642108F03DFD0899081AA06522E0A26D1B
:104510000A2050436421079208F032FD079A101ACE
:10452000A06517E0A26D0A2050436421069208F0AE
:1045300027FD069A8018A0650CE0A16D0591080181
:10454000401A642108F01CFD05994018A06501E09F
:1045500003203861B069A16D884200D2A0655F4830
:104560004068F8624043696908F00AFD7863A16D0C
:104570000A4601E019E041E1FF3A2D3A904204D2A7
:10458000626B5C2A01D2521C6263FF312D3188427A
:1045900004D9606B002801D0401E60632020FFF723
:1045A00042FF606BFDF731FD69E70121022006F053
:1045B0007FF94B217868C900002816D0012827D040
:1045C000002078604548474F4068803FF862E969BD
:1045D0004043049108F0D4FC786339690B0008F07B
:1045E0005AFD06423336393C3F42F86F012807D066
:1045F0000028E7D16868E0658842E3D9E165E1E732
:10460000A868E065FF213C318842DBD9E165D9E744
:10461000F86F012808D00028D4D1FEF74DFAE065E4
:104620008842CFD9E165CDE7FEF746FA2C4920381C
:104630004843E121C90008F0A3FCE065FF213C31BB
:104640008842BFD9E165BDE72C4961660FE02C497E
:1046500061660CE02B49616609E02B49616606E062
:104660002A49616603E01F4A0321803A1161E96823
:10467000012906D11B49803940004863606E400023
:1046800060660498AF69B84201D2276601E00498D9
:104690002066286801283BD002283ED0032841D05C
:1046A00001202860206E0E49C01B4843616D08F050
:1046B00067FC0B494843394608F062FC1930FFF7A4
:1046C000AFFE084D803DE86F012830D0002832D081
:1046D0003CE00000560A0000AC0100202C03002042
:1046E000E8030000C00B00200F270000810B000032
:1046F000400D030020BF0200442F00003075000071
:10470000409C000050C3000060EA000070110100EE
:10471000706BFF30F5306065C4E7B06BFF30F5308B
:104720006065BFE7FF48F16B08186065BAE7FFF7FF
:104730007DFEA0660AE0FFF779FEE121C90048434B
:104740007D21C90008F01CFC2030A066E26DA16E3E
:1047500091420CD2686B636E984208D2606B5C2801
:1047600001D2401C6063606B082800D9206591422B
:1047700025D92C20FDF74CFB002813D1E16DA06E4C
:10478000401A322804D900212C20FDF73DFB04E01B
:104790003221091A2C20FDF737FB206D082801D99A
:1047A000401E2065216DE06C884201D2401CE0640F
:1047B000E06C884201D9401EE064E06C6063A16E49
:1047C000E06D814211D9E16E491CE166052911D9DC
:1047D000FFF729FE2D20FDF71BFB00280AD17D21C4
:1047E00009012D20FDF710FB04E00846FFF71BFE32
:1047F0000020E066606BFDF708FC40E60121022026
:1048000006F056F87868002810D0012814D000204F
:1048100078603420FDF7FCFA002841D038690300A5
:1048200008F039FC063C101B3E26313CB86B80007A
:10483000C019C06BA065ECE7B86B8000C019C06BF5
:10484000A065E6E7A16D03910801401A642108F014
:1048500097FB0399081AA06522E0A26D0A20504335
:104860006421029208F08CFB029A101AA06517E0EE
:10487000A26D0A2050436421019208F081FB019A45
:104880008018A0650CE0A16D00910801401A642118
:1048900008F076FB00994018A06501E0032038611C
:1048A000B069A16D884200D2A0659F484068F86257
:1048B0004043696908F064FB7863A16D0A46FF3ADA
:1048C0002D3A904204D2626B5C2A01D2521C626380
:1048D000FF312D31884204D9606B002801D0401E81
:1048E00060632020FFF79FFD606BFDF78EFBC6E540
:1048F0008E49C870704770B58B4D0A21E86A4843ED
:104900006A2108F03DFB7D210446C90048430A2185
:1049100008F036FB6A680146101B8722D20050431C
:1049200008F02EFB0A2801D90A3800E000207F4A4F
:10493000516F0B460F33984202D80F39884200D28C
:1049400050677B48516FC16170BD7848807970476E
:104950007648C0787047FEB500277548744C4030E3
:10496000C069803C002804D1E068012801D1002002
:10497000E060FEF7A8F86F4D102601280ED0FFF773
:10498000E7FF002817D00020FDF73FFBA868B043E1
:10499000A8600121022005F0A6FFFEBD0020FDF762
:1049A00034FBA868B043A8600121022005F09BFFFA
:1049B000FEF792F8FEBDFFF7C8FF00282CD0A868CC
:1049C000B043A8600120FCF794FAFCF748F8FCF724
:1049D00047FA594800900323012230211020FCF7A8
:1049E00025F9002355A203210220FCF740F90023FA
:1049F00055A204210220FCF73AF903225549002070
:104A000008F0F1F9AF20FCF770FA0120FFF770FF12
:104A10000020FCF7AEFAFEBD4348C1684E48814213
:104A200031D24249086C401C0864FF21F5318842AC
:104A30002CD9A868B043A8600120FCF75AFAFCF70B
:104A40000EF8FCF70DFA3C480090032301223021B8
:104A50001020FCF7EBF8002338A203210220FCF71A
:104A600006F9002338A204210220FCF700F90322F2
:104A70003A49002008F0B7F9AF20FCF736FA0120D8
:104A8000FFF736FFFEBD29490020086426480021B3
:104A9000406A05F0EFFB55282DD9A868B043A860FF
:104AA0000120FCF726FAFBF7DAFFFCF7D9F92C48CE
:104AB0000090042302223A212220FCF7B7F80023B9
:104AC00028A202210820FCF7D2F8002327A2032104
:104AD0000820FCF7CCF803222649002008F083F9CF
:104AE000AF20FCF702FA0120FFF702FF22493D2028
:104AF000FDF78AF9FEBDFDF78EF8002858D0A868AA
:104B0000B043A8600120FCF7F4F9FBF7A8FFFCF71D
:104B1000A7F91A4800900523022214210020FCF76F
:104B200085F82DE0B60300002C030020AC01002026
:104B3000C00B002080400050FAE800002020204CEC
:104B40004F572020200A000020424154544552591A
:104B5000200A000033F300008813000039F300003E
:104B60002ED60000544F4F0A00000000484F540A50
:104B70000000000045F30000307500003EE8000032
:104B80000023FF4A02211C20FCF771F80023FDA23C
:104B900003211C20FCF76BF80322FC49002008F0DD
:104BA00022F9AF20FCF7A1F90120FFF7A1FEFEBD1D
:104BB000E068F74C002801D0022835D1216964292A
:104BC00032D2A868B043A8600120FCF792F9FBF745
:104BD00046FF0120FFF798FB0020A0612062FCF750
:104BE0003FF9EC4800900223002230211020FCF70E
:104BF0001DF8E94800900623032214210020FCF749
:104C000015F80023E5A203211820FCF730F8002353
:104C1000E5A204211820FCF72AF8AF20FCF765F97B
:104C20000120FFF765FEFEBD012835D12069372838
:104C300032D2A868B043A8600120FCF75AF9FBF70C
:104C40000EFF0120FFF760FB0020A0612062FCF74F
:104C500007F9D04800900223002230211020FBF7F2
:104C6000E5FFCD4800900623032214210020FBF726
:104C7000DDFF0023C9A203211820FBF7F8FF002362
:104C8000C9A204211820FBF7F2FFAF20FCF72DF991
:104C90000120FFF72DFEFEBDC5492069884235D2AF
:104CA000C44A904232D9A868B043A8600120FCF7FA
:104CB00020F9FBF7D4FE0120FFF726FB0020A061BE
:104CC0002062FCF7CDF8B348009002230022302187
:104CD0001020FBF7ABFFB0480090062303221421FD
:104CE0000020FBF7A3FF0023ACA203211820FBF751
:104CF000BEFF0023B0A204211820FBF7B8FFAF20AD
:104D0000FCF7F3F80120FFF7F3FDFEBD88422ED338
:104D1000A868B043A8600120FCF7EBF8FBF79FFE02
:104D20000120FFF7F1FA0020A0612062FCF798F85B
:104D30000023A3A203210820FBF799FF0023A3A2CD
:104D400004210520FBF793FF9248009002230022E4
:104D500030211020FBF76AFFAF20FCF7C6F80120D6
:104D6000FFF7C6FDFF209130FDF780FAFEBD172149
:104D70003838C90188420BD2A069372808D2A86800
:104D8000B043A8600120FFF7BFFA0020A061FEBD7C
:104D9000FFF7DBFD002835D18F487D21C068490130
:104DA00088422CD28D49486C401C4864FF21F53163
:104DB000884227D9A868B043A8600120FCF799F879
:104DC000FBF74DFEFCF74CF88548009003230122C9
:104DD00030211020FBF72AFF002382A204210220A9
:104DE000FBF745FF0023824A05210220FBF73FFF26
:104DF000AF20FCF77AF80120FFF77AFDFEBD774976
:104E0000002048642220FDF703F8002832D07349BF
:104E1000002088643320FCF7FBFF002874D0A868CA
:104E2000B043A8600120FCF764F8FBF718FEFCF71C
:104E300017F8594800900423012240212C20FBF749
:104E4000F5FE00236BA202211846FBF710FF00239A
:104E50006AA203211846FBF70AFF002369A2042176
:104E60001846FBF704FFAF20FCF73FF80120FFF7DF
:104E70003FFDFEBDE0690290322841D9A169019150
:104E80000521019808F07CF80199411802988142A7
:104E900031D93F488038C0680128BBD14F49886C60
:104EA000401C8864FF21F5318842B3D9A868B0431B
:104EB000A8600120FCF71DF8FBF7D1FDFBF7D0FF40
:104EC000052353A201210320FBF7D1FE2C4A032125
:104ED0000523343A0846FBF7CAFEAF20FCF705F875
:104EE0000120FFF705FD0720FDF746FC28490020BB
:104EF0008039C860FEBD3949002088648AE703E034
:104F000036490020886485E72020FCF781FF0028CF
:104F100035D11F488038C168012930D0406B3E49E7
:104F200088422CD9FBF7ABF97F1C052FFAD32A480E
:104F3000E1214069C900884221D2A868B043A86035
:104F40000120FBF7D6FFFBF78AFDFBF789FF33480B
:104F500000900223002230211020FBF767FE00237F
:104F60002FA203210920FBF782FE002317A20421B0
:104F70000520FBF77CFE03222C49002058E064E06A
:104F80006430000050554646530A000042F30000CA
:104F9000C00B00207AE800003EE800004F484D209A
:104FA000544F4F0A000000004C4F570A0000000009
:104FB0000F270000B80B0000484947480A000000CE
:104FC00020434845434B20200A00000041544F4DE8
:104FD000495A45520A0000002C030020AC01002071
:104FE000FEE700002020434845434B20200A0000F4
:104FF000484B0000444F4E27540A0000414255538D
:10500000450A000050524F5445435453210A0000B2
:105010002057415454200A0060EA0000BAE800001A
:105020002D53484F52542D200A00000036F3000043
:1050300007F0D9FEAF20FBF758FF0120FFF758FC1F
:10504000FF493320FCF7E0FEFEBD2120FCF7E0FE27
:10505000002832D1FFF74FFCE06932282DD2A86832
:10506000B043A8600120FBF744FFFBF7F8FCFBF717
:10507000F7FEF44800900223002230211020FBF7B5
:10508000D5FD0023F0A203210920FBF7F0FD00234A
:10509000F04A04210520FBF7EAFD0322EE49002037
:1050A00007F0A1FEAF20FBF720FF0120FFF720FC57
:1050B000E3493320FCF7A8FEFEBDFFF7BAF9FDF780
:1050C0000BFDFEBDE548C07A704710B5E44AE549DE
:1050D00010693738884210D2FFF7F4FF00280CD04F
:1050E0000020FFF711F9116A10690B4650339842FE
:1050F00004D8A03B984201D3916110BD91690A4642
:105100001E32904202D81E398842F6D20420FDF7A2
:1051100033FBFBF7A5FED1490120087310BDCF4832
:1051200080787047F8B5CE48CD4C8038C168CE4AFB
:105130001023CE4DCE4E2069002901D0022931D155
:1051400064282FD29068984390600120FBF7D1FE2D
:10515000FBF785FCFBF784FE0223002230211020A0
:105160000095FBF763FD062303221421002000961F
:10517000FBF75CFDB74A0023303A03211820FBF708
:1051800076FDB44A0023243A04211820FBF76FFD72
:10519000FF209130FDF76AF8FBF762FE0720FDF76C
:1051A000EBFAF8BD012931D137282FD29068984306
:1051B00090600120FBF79DFEFBF751FCFBF750FED2
:1051C00002230022302110200095FBF72FFD06233B
:1051D0000322142100200096FBF728FD9D4A00239E
:1051E000303A03211820FBF742FD9A4A0023243A63
:1051F00004211820FBF73BFDFF209130FDF736F826
:10520000FBF72EFE0720FDF7B7FAF8BD994FB8421D
:1052100033D29449373188422FD9906898439060AF
:105220000120FBF766FEFBF71AFCFBF719FE0223D1
:105230000022302110200095FBF7F8FC0623032202
:10524000142100200096FBF7F1FC824A0023303A3B
:1052500003211820FBF70BFD7E4A0023143A04219A
:105260001820FBF704FDFF209130FCF7FFFFFBF750
:10527000F7FD0720FDF780FAF8BD78480025017B8F
:10528000002902D00573FBF7EBFD0120FBF731FE8F
:105290000021052378A20846FBF7E9FC052378A244
:1052A00002210020FBF7E3FC052377A204210A205A
:1052B000FBF7DDFC052375A204212C20FBF7D7FCAE
:1052C000734806230090042219460020FBF7AEFC29
:1052D000704800900623042240213A20FBF7A6FCE8
:1052E000FFF71DFF6C4E002802D0012836D117E0D1
:1052F00004F0BBFF002831D0002004F067F96748B4
:1053000000900623042240213A20FBF78FFC304610
:10531000FCF7ACFFFBF7A4FD0720FDF72DFA1DE01D
:1053200004F0A3FF002819D0002004F04FF92069F1
:10533000A061B84200D3A561A06920625848062345
:105340000090042219460020FBF770FC3046FCF761
:105350008DFFFBF785FD0720FDF70EFAAF20FBF769
:10536000C4FD0020FBF7C5FDF8BD3D49803908604C
:1053700070473A49887270473848807A704710B54C
:105380001324240304212046FCF7BEFF344847229F
:1053900021468038FCF776FF10BD30498870704791
:1053A00010B58AB02D48002444738473C473047408
:1053B00044740120FBF79DFDFBF752FD2848403067
:1053C000816A1620FCF720FD36490D20FCF71CFDF4
:1053D000002004F0D2FA002004F0D2FA0020FFF7F7
:1053E000C4FF0020FFF7D9FFFBF7CBFAFFF7C7FF99
:1053F000AE20FBF77AFD0720FDF7BEF9FFF7BCFFF3
:10540000002857D00020FFF7B4FF0120694608713B
:105410004C7125484169029101690391C168049169
:10542000059481680691416807910068089008A971
:105430000C7101A9002006F093FD00283AD035E058
:1054400088130000BAE800002053484F525420202F
:105450000A000000CC4F000036F30000AC01002031
:10546000C00B0020810B0000804000507AE8000053
:105470003EE800000F2700004953204E45570A0020
:10548000434F494C3F200A00590A00004E0A0000D1
:1054900000E300000CE30000DC05000024E3000052
:1054A00018E30000442F00005C0C002001A900203C
:1054B00006F056FD0AB010BDF8B504460D46164676
:1054C0001F463520FCF7A4FC64280BD90120FBF70C
:1054D00010FDFF4800903B46324629462046FBF728
:1054E000A5FBF8BD0120FBF704FDFA4800903B4600
:1054F000324629462046FBF799FBF8BDF8B504462D
:105500000D4616461F463620FCF782FC64280BD950
:105510000120FBF7EEFCF04800903B46324629465E
:105520002046FBF783FBF8BD0120FBF7E2FCEB48CC
:1055300000903B46324629462046FBF777FBF8BDF4
:1055400038B504F046F8002809D004F042F80128E4
:105550002CD0FFF725FFAF20FBF7C7FC38BD04F0C8
:105560007BFE0028F7D0002004F02DF80120FBF787
:10557000C0FCFBF775FCDA480090042300223021C0
:105580001020FBF753FB0023D6A205210A20FBF7CE
:105590006EFB0023D4A205210F20FBF768FB00233C
:1055A000D2A205211420FBF762FBD4E704F057FEDA
:1055B000002832D0002004F00FF80120FBF799FCFE
:1055C0001924640121460720FCF71EFC214608200F
:1055D000FCF71AFCFF242D34204603F0F1FF20468F
:1055E00003F0EBFF04F03EFE0025C24C002803D17F
:1055F00004F03BFE00280AD0002004F0C7F9002088
:1056000003F0E4FF606A012814D001206062606A40
:10561000002811D0012822D065620523032206212B
:105620000020FFF76BFF0523032240213A20FFF7FC
:1056300043FF90E76562EAE7062303223A21184612
:10564000FBF725FC0523A9A201210720FBF70FFB8F
:105650000523A9A203210720FBF709FBDDE70623A9
:1056600003223A211846FBF712FC05239FA20121D1
:105670000720FBF7FCFA0523A1A203210220FBF778
:10568000F6FACAE770B50C4611461A46049B09287B
:1056900014D00A2812D0632810D064280ED09A4D56
:1056A000A8420BD06D1CA84208D0984DA84205D046
:1056B0006D1CA84202D0964DA84202D12046FBF7AD
:1056C000E6FB70BDF8B504F0CDFD0026914D002835
:1056D00009D0002004F05AF9687C401CC0B26874FC
:1056E000042800D96E7404F0C0FD8B4C00285DD0F6
:1056F000002003F06BFFFFF712FD002802D0012805
:1057000054D129E00120FFF734FE687C030007F044
:10571000C2FC05040B11171D4D008049206888420A
:1057200044D2401C206041E060680C283ED2401CFE
:1057300060603BE0A0681F2838D2401CA06035E0C4
:10574000E068172832D2401CE0602FE020693B2837
:105750002CD2401C206129E00120FFF70AFE687C62
:10576000030007F098FC05040C12181E23007D218D
:1057700020680901884219D9401E206016E060683F
:10578000012813D9401E606010E0A06801280DD9DF
:10579000401EA0600AE0E068002807D0401EE060DC
:1057A00004E02069012801D9401E206104F057FD62
:1057B00000287ED0002003F00FFF6661584E0323BF
:1057C000012220211E200096FBF730FA032301223C
:1057D00031212F200096FBF729FA4C492068491CFB
:1057E00007F0CEFB7D270846FF00394607F0C8FBCF
:1057F0004C4E00018019012200900323092110461C
:10580000FBF714FA3946206807F0BAFB0846642112
:1058100007F0B6FB0001801900900323012210213C
:105820000820FBF703FA6421206807F0A9FB08466B
:105830000A2107F0A5FB0001801900900323012233
:1058400017210F20FBF7F2F90A21206807F098FBD7
:10585000080180190090032301221E211620FBF766
:10586000E5F96421606807F08BFB08460A2107F020
:1058700087FB0001801900900323012228212020AA
:10588000FBF7D4F90A21606807F07AFB0801801958
:105890000090032301222F212720FBF7C7F9642161
:1058A000A06807F06DFB08460A2107F069FB0001BC
:1058B00000E0ACE08019009003230122392131205F
:1058C000FBF7B4F90A21A06807F05AFB08012BE0A6
:1058D00024E300000CE3000018E3000000E30000F4
:1058E000DEDC0000360A00002E0A0000504F57454B
:1058F000520A0000400B0020204F4646200A0000BC
:1059000020204F4E200A0000E70300000F27000070
:105910009F860100AC0100205C0C002033080000D1
:10592000E3E2000073DF00008019009003230122EE
:1059300040213820FBF77AF96421E06807F020FB6A
:1059400008460A2107F01CFB00018019009005237E
:10595000032215210D20FBF769F90A21E06807F001
:105960000FFB080180190090052303221D2115203B
:10597000FBF75CF9FF4800900523032225211D2039
:10598000FBF754F96421206907F0FAFA08460A2166
:1059900007F0F6FA000180190090052303222D215B
:1059A0002520FBF743F90A21206907F0E9FA0801ED
:1059B000801900900523032235212D20FBF736F9AD
:1059C000687CED4D030007F066FB0504234261800F
:1059D00022006421206807F0D3FA08460A2107F064
:1059E000CFFA0001401900900323012217210F2054
:1059F000FBF71CF90A21206807F0C2FA08014019D8
:105A00000090032301221E211620FBF70FF9F8BD99
:105A10006421606807F0B4FA08460A2107F0B0FA7A
:105A20000001401900900323012228212020FBF7C8
:105A3000FDF80A21606807F0A3FA080140190090F8
:105A4000032301222F212720FBF7F0F8F8BD642162
:105A5000A06807F095FA08460A2107F091FA0001BC
:105A6000401900900323012239213120FBF7DEF891
:105A70000A21A06807F084FA080140190090032366
:105A8000012240213820FBF7D1F8F8BD6421E068FD
:105A900007F076FA08460A2107F072FA0001401969
:105AA00000900523032215210D20FBF7BFF80A21E2
:105AB000E06807F065FA0801401900900523032209
:105AC0001D211520FBF7B2F8F8BD6421206907F00D
:105AD00057FA08460A2107F053FA000140190090CE
