:020000040000FA
:10000000E80E0020D5000000DD000000DF00000049
:1000100000000000000000000000000000000000E0
:10002000000000000000000000000000E1000000EF
:100030000000000000000000E3000000E5000000F8
:10004000D19D00008BC2000045A2000057A2000015
:1000500001A2000023A20000F5AA0000DDAB000011
:100060008FBC0000E7BC000041BD00009BBD00004C
:10007000B5C30000D5C30000E7000000E7000000A2
:10008000E7000000E7000000E7000000E7000000D4
:10009000E70000000000000000000000E700000092
:1000A000E7000000E7000000E7000000E7000000B4
:1000B000519F00002BAA00000000000049B500007D
:1000C000034885460CF0B0FC00480047E91B0000DF
:1000D000E80E00200448804704480047FEE7FEE79A
:1000E000FEE7FEE7FEE7FEE75D010000C10000005D
:1000F00070B51B4D28694007400F052800D9042022
:10010000022803D017498000085817E0286A000425
:10011000840F012C00D9641E286A000301D51248FF
:1001200000E01248296AC905C90D891C4843296A9B
:100130008904C90E891C0CF029FCE040A969090753
:10014000090F491C0CF022FC064C083C20600849B1
:100150004A1080180CF01AFC606070BD70470000F7
:10016000000200500800002000805101001BB70071
:1001700040420F00FFB581B005460E461746164CAB
:100180000120A840C0B20AF02AFC01200AF03AFC83
:1001900000200AF02BFC0AF074FC01E0641E15D369
:1001A0000AF07BFC0028F9D0E8B20AF07EFC049942
:1001B00088420ED90A99002906D031683A68891A0E
:1001C000081830600009386005B0F0BD0020C04359
:1001D000FAE70020C043F7E7F401000038B56B4CA4
:1001E00059202060162020608820206017200AF007
:1001F00027F918200AF024F919200AF021F91B2008
:100200000AF01EF91C200AF01BF91D200AF018F94B
:100210001020002200900223012110460AF07CFBEE
:100220000020206038BD38B50120594A00900023D5
:10023000111F0520FFF79EFF411C08D0554C206080
:10024000554948437D21C9000CF0A0FB606038BDD2
:1002500038B54F4A0120083200900023111F0620B4
:10026000FFF788FF411C09D04A4CA0604A492C3155
:1002700048437D21C9000CF089FBE06038BD38B5EA
:10028000434A0120103200900023111F0420FFF781
:1002900071FF411C09D03F4C20613F492C3148433C
:1002A0007D21C9000CF072FB606138BD38B5384A59
:1002B0000120183200900023111F0220FFF75AFF7F
:1002C000411C09D0334CA06133492C3148437D2176
:1002D000C9000CF05BFBE06138BD38B52C4A012049
:1002E000002320320090111F1846FFF743FF411CE6
:1002F00008D0284C2062294948437D21C9000CF0D0
:1003000045FB606238BD38B5214A01202832002300
:10031000111F0090FFF72EFF411C08D01D4CA0625A
:100320001E4948437D21C9000CF030FBE06238BD16
:1003300070B5174C083C2078411C2170002806D06D
:10034000012807D00025022807D0257070BDFFF7CF
:100350006AFF70BDFFF793FF70BDFFF7D4FF2570F4
:1003600070BD70B50A4C083C6078411C6170002873
:1003700004D00025012804D0657070BDFFF768FF28
:1003800070BDFFF7AAFF657070BD0000000100504E
:1003900028000020280300204C090000250300004D
:1003A000FB48C0687047FA4880687047F848406862
:1003B0007047F749C8607047F54988607047F4494D
:1003C0004860704770B50446F14D226800212869E5
:1003D00013000CF066FB08F205333D95F1F0EF32A7
:1003E000242001F0B9FC002827D12420616801F005
:1003F000AFFC0CF0E1FAFC210CF0C8FA084603212E
:100400000CF0C4FA29788142F3D02870E04A143203
:1004100041004318D05C64214843000AFFF7CFFF36
:100420009A18507864214843000AFFF7C5FF907876
:1004300064214843000AFFF7BCFFF1E16069FFF760
:10044000BEFFA069FFF7B8FFE069FFF7B2FFE7E181
:1004500000280AD001281DD0022836D0E0680128E3
:10046000EBD9401EE0602961DAE10020FFF7A7FF29
:100470000020FFF7A1FF0020FFF79BFF2420616809
:1004800001F066FC2520A16801F062FC2869401C8F
:100490002861C5E1242001F05FFC002809D06069D3
:1004A000FFF78DFFA069FFF787FFE069FFF781FF86
:1004B000B6E12420616801F04BFC2520A16801F021
:1004C00047FC2869401C2861AAE1252001F044FC72
:1004D000002809D00020FFF772FF0020FFF76CFF13
:1004E0000020FFF766FF9BE12420616801F030FCEB
:1004F0002520A16801F02CFC2869401C28618FE1AF
:1005000003000CF0CEFA0504112B456370000020A7
:10051000FFF755FF0020FFF74FFF0020FFF749FFCF
:100520002869401C28617BE1242001F015FC00288B
:100530000CD00020FFF743FF0020FFF73DFF002015
:10054000FFF737FF6320FFF73AFF69E12420616876
:1005500001F0FEFB2869401C286161E1242001F0C4
:10056000FBFB00280CD00020FFF729FF0020FFF73D
:1005700023FF0020FFF71DFF6320FFF71DFF4FE162
:100580002420616801F0E4FB2869401C286147E1F0
:10059000242001F0E1FB002810D00020FFF70FFF1E
:1005A0000020FFF709FF0020FFF703FF6320FFF79C
:1005B00000FF35E150E01DE080E026E12420616885
:1005C00001F0C6FB2869401C286129E10020FFF7E3
:1005D000F6FE0020FFF7F0FE0020FFF7EAFE286994
:1005E000401C28611CE1E068012888D9401EE060B9
:1005F000296115E1002806D0E068012893D9401E42
:10060000E06029610CE1242001F0A6FB00288AD1DA
:10061000206963281CD22420616801F099FB2569B8
:100620006D1C25616069642168430CF0AFF9FFF728
:10063000C6FEA069642168430CF0A8F9FFF7BCFE70
:10064000E069642168430CF0A1F9FFF7B2FEE7E02E
:100650002869401C2861E3E0002806D0E0680128F2
:100660008DD9401EE0602961DAE0242001F074FB9E
:10067000002884D1206900281CD02420616801F062
:1006800067FB25696D1E25616069642168430CF074
:100690007DF9FFF794FEA069642168430CF076F9B8
:1006A000FFF78AFEE069642168430CF06FF9FFF7F9
:1006B00080FEB5E02869401C2861B1E06322030098
:1006C0000CF0EFF906042038516B849C20696328F4
:1006D00014D2242001F040FB00280ED124206168B0
:1006E00001F036FB2069401C2061FFF768FE002006
:1006F000FFF762FE6320FFF75CFE91E022610120BC
:1007000028618DE02069002811D0242001F024FB0D
:1007100000280BD12420616801F01AFB6320FFF749
:100720004EFE2069401E2061FFF743FE78E0022064
:10073000286175E02069632811D2242001F00CFBA8
:1007400000286DD12420616801F002FB6320FFF7CF
:1007500036FE2069401C2061FFF72EFE60E022611A
:10076000032028615CE02069002813D0242001F0D8
:10077000F3FA002854D12420616801F0E9FA2069D5
:10078000401E2061FFF71BFE6320FFF715FE47E0C8
:10079000540000200420286142E02069632811D21F
:1007A000242001F0D9FA00283AD12420616801F010
:1007B000CFFA6320FFF700FE2069401C2061FFF79D
:1007C000F8FD2DE022610520286129E0206900283C
:1007D00011D0242001F0C0FA002821D12420616822
:1007E00001F0B6FA2069401E2061FFF7E5FD6320A5
:1007F000FFF7DFFD14E00620286111E0E068012822
:100800000ED9401EE06029610AE0216129610020C3
:10081000FFF7D5FD0020FFF7CFFD0020FFF7C9FD52
:1008200002F09FF8012809D0002001F0D2FB00203F
:1008300001F008FC002001F03DFC70BDFFF7B6FDA3
:1008400001F0C7FBFFF7AFFD01F0FCFBFFF7A8FDD0
:1008500001F030FC70BD0149086170475400002070
:1008600010B5002001F0B5FB002001F0EBFB0020EB
:1008700001F020FC10BD10B5874C0422226061609D
:10088000A160E06063206061A061E061242001F06C
:100890005FFA2520A16801F05BFA0020FFF7DBFF7B
:1008A0002046FFF78FFD10BD10B57B4905220A6079
:1008B000486088607948C8600021242001F048FA27
:1008C0000021252001F044FA0020FFF7C4FF724800
:1008D000FFF778FD10BD10B56F4901220A6048602E
:1008E00088606E48C8600021242001F031FA0021A0
:1008F000252001F02DFA0020FFF7ADFF6648FFF735
:1009000061FD10BD70B5644C062525606360A36071
:100910000125E56064256843000A60616420414365
:10092000080AA06164204243100AE06119462420AD
:1009300001F00EFA2520A16801F00AFA0020FFF765
:100940008AFF2046FFF73EFD70BD002806D05449BF
:10095000012810D0022813D1C868A5E750484038B4
:10096000C16B4A008B18816B5B1CCAB2416B006B78
:10097000C9B2C0B2C6E788687821401C4843AAE7DC
:10098000704710B5444C002020606061A061E061B8
:100990002420616801F0DCF92520A16801F0D8F974
:1009A0000020FFF758FF2046FFF70CFD10BD70B583
:1009B0000D46394C0721216059086160A16001236F
:1009C000E36064235843000A606164204543280AB9
:1009D000A06164204243100AE061242001F0B8F9CC
:1009E0002520A16801F0B4F90020FFF734FF20466C
:1009F000FFF7E8FC70BD002804D0012801D00228D0
:100A00000BD1BEE726484038816BC36BCAB2416B3D
:100A1000006BDB1CC9B2C0B2C9E7704710B51E4CF1
:100A2000022323600123E36064235843000A6061CA
:100A300064204143080AA06164204243100AE06137
:100A40002420616801F084F92520A16801F080F973
:100A50000020FFF700FF2046FFF7B4FC10BD10B5E3
:100A60000D4C03202060FA216160A1600F20E0603E
:100A7000632060610020A061E061242001F068F93A
:100A80002520A16801F064F90020FFF7E4FE20466C
:100A9000FFF798FC10BD000058030020102700004D
:100AA000FC0B002070B5054600240821002009F049
:100AB00020FC280604D50B21002009F0FFFB03E0F1
:100AC0000B21002009F015FC0A21002009F0F6FB9B
:100AD000012001F067FB0A21002009F00AFC012037
:100AE00001F060FB6806050E641C082CE1D30821A8
:100AF000002009F0E3FB70BD10B50446042101207D
:100B000009F0F7FBE0B2FFF7CDFF10BD10B50446CA
:100B10000421012009F0D2FBE0B2FFF7C3FF10BDB2
:100B200010B50C46B030FFF7E7FF20091230FFF791
:100B3000E3FF2007000FFFF7DFFF10BDF7B50E46FC
:100B4000002500F0D4F9002801D0771C10E0022025
:100B5000FEBD30460099FFF7E3FF002428460299C6
:100B60006D1C085CFFF7D2FF641C052CF6D3761CC5
:100B7000BE42EED30020FEBDF7B50E46002500F0C4
:100B8000B6F9002801D0B71C10E00220FEBD3046A7
:100B90000099FFF7C5FF0024284602996D1C085CE8
:100BA000FFF7B4FF641C052CF6D3761CBE42EED3CF
:100BB0000020FEBDF7B50E46002500F098F900288C
:100BC00001D0B71C10E00220FEBD30460099FFF7AF
:100BD000A7FF0024284602996D1C085CFFF796FFCA
:100BE000641C0A2CF6D3761CBE42EED30020FEBD58
:100BF000F7B50E46002500F07AF9002801D0F71C61
:100C000010E00220FEBD30460099FFF789FF002466
:100C1000284602996D1C085CFFF778FF641C0E2CB7
:100C2000F6D3761CBE42EED30020FEBDFFB581B0E8
:100C30000F461646002500F05AF9002812D102206E
:100C400005B0F0BD30460199FFF76AFF019C06E050
:100C500028460A996D1C085CFFF758FF641CBC42CB
:100C6000F6D3761C04988642ECD30020E8E7FFB563
:100C700081B00646174600240091002500F037F9A0
:100C8000002807D00498002813D0012822D0052876
:100C900034D130E00220D3E7385D2038810041189C
:100CA00017480A1830460099FFF748FFF61D6D1CDB
:100CB000641C785D0A28EFD120E0385D0A212038D5
:100CC00048431049421830460099FFF755FFF61D7A
:100CD0006D1C641C785D0A28EFD10FE0385D14218B
:100CE000203848430849421830460099FFF762FF10
:100CF0000A366D1C641C785D0A28EFD100209FE73E
:100D00008EE20000B5E3000003E6000010B5002805
:100D10000ED001280BD1A120FFF7EEFEA820FFF78F
:100D2000EBFE2F20FFF7E8FEC820FFF7E5FE10BD21
:100D3000A020FFF7E1FEA820FFF7DEFE2F20FFF73F
:100D4000DBFEC020FFF7D8FE10BD10B5AE20FFF7C8
:100D5000D3FE0020FFF7D0FE1020FFF7CDFE40208D
:100D6000FFF7CAFEB020FFF7C7FE8120FFF7C4FEE1
:100D70008020FFF7C1FEA020FFF7BEFEA620FFF7F0
:100D8000BBFEA820FFF7B8FE2F20FFF7B5FEC0205E
:100D9000FFF7B2FED320FFF7AFFE0020FFF7ACFE57
:100DA000D520FFF7A9FE8020FFF7A6FED920FFF788
:100DB000A3FE2220FFF7A0FEDA20FFF79DFE1220FF
:100DC000FFF79AFEDB20FFF797FE3020FFF794FE37
:100DD0008D20FFF791FE9520FFF78EFEAF20FFF7E5
:100DE0008BFE10BD10B503242402204601F0DAF971
:100DF0000521012009F07DFA204601F0D3F90521F3
:100E0000012009F05BFA204601F0CCF910BD10B5C5
:100E100001220521104609F027FA01220A210020AB
:100E200009F022FA01220B21002009F01DFA01220B
:100E30000821002009F018FA01220421104609F0C7
:100E400013FAFFF7CFFFFFF780FF2A488069C0B28F
:100E5000FFF75CFF10BD70B500252846B030FFF7E6
:100E60004BFE1220FFF748FE0020FFF745FE00244E
:100E70000020FFF74BFE641C402CF9D36D1C062D9F
:100E8000EBD370BDFFB581B007460E4615460CE0AA
:100E900039462846FFF744FE3C4603E00020FFF7B2
:100EA00035FE641CB442F9D36D1C04988542EFD31F
:100EB00005B0F0BD10B5044607F0FFFF60436421A4
:100EC0000BF064FDC4B2642C00D964241E2C00D243
:100ED0001E248120FFF710FE2046FFF70DFE10BDF7
:100EE00010B5FFF709FE10BD0349087070470248AE
:100EF000007870473C0B0020640100203EB5134C85
:100F00005920206016202060882020602A2009F0C7
:100F100097FA0F48009003206946087100254D712B
:100F20008D71CD7100200BF0BBFA0A4A012100201F
:100F30000BF0BEFB03220021022009F095F90021ED
:100F4000022009F0BBF925603EBD00000001005001
:100F500000C20100590F000010B51422FF49002003
:100F60000BF011FC10BDFE4908707047FC49087178
:100F70007047FB480078704710B5FFF7FAFF00286C
:100F800005D001280ED00020FFF7EDFF10BD002195
:100F9000022009F093F90020FFF7E8FFF149002053
:100FA000486010BD0021022009F0A3F910BDEC49F2
:100FB00088707047F8B50024EB4EE94F3546FF3591
:100FC000F1354D206102800209188022E64801F0C7
:100FD0001EF9FE60F868C17B962907D0A84207D3A6
:100FE000FE60641C5A2CECD30020F8BD0120F8BD33
:100FF0001030F860EEE7F0B58FB000200222DB4B36
:10100000D64919600E91097800297ED00B020E99FD
:10101000D24C4978257A0B43A178E4780D942402C8
:101020000C430C94AC467D24E400CE4D4C43D04F91
:1010300080350B942C46DE1B4034BB4266D028DC46
:10104000CC4FDE1BBB427ED012DCCB4A981A9342B7
:101050007AD008DCC948181877D0C94A80182CD033
:10106000012831D131E0052870D00628F9D136E1C8
:10107000BA4B0C2E9B7B6AD006DC012E68D0072E63
:1010800067D00B2EEDD14DE10D2E7DD00E2EE8D187
:10109000B8E1B24A3300177B12790BF002FD1A1542
:1010A000F1151515151515F0EFEEEDECEBEAE9E885
:1010B000E7151515151515E6E515FF29D1D10322FC
:1010C000B04900200BF095FB28E26046FF28FBD1D9
:1010D000A3480022427182710120FFF747FFA34815
:1010E0009F4E0368303698783070D97871700A91C5
:1010F0001979B1708E465979F1708C4699793171B0
:10110000DB79737101266F4601E00BE281E13E71EC
:101110007A7102930391614604910592714606919A
:101120000A99079198494018089008AF3A7101A9A7
:1011300000200AF01BFC002804D003229349002061
:101140000BF057FB06E0D1E06BE0E2E170E03EE13E
:10115000CEE0DEE08E49E0690870206A48708D4F6D
:10116000AB213868017013214170FF2181730C227B
:10117000874989480BF032FC87490F22891E0020DD
:101180000BF037FB032000E032E101F013F864219B
:10119000686A0BF0FBFB7E4E0C3E30707F480021EE
:1011A000406A08F06DFD70702068B070286BF070B8
:1011B000686B3071A86B70717949E86A0BF0E6FBD7
:1011C000B0717D25ED002946606A0BF0DFFBF07100
:1011D0002946A0690BF0DAFB3072A0207072C8209B
:1011E000B0720020F0723968AB200870FFF7E2FEA1
:1011F000002803D039680C20487002E038680B21C1
:1012000041703968FF20887361490C220C396248AB
:101210000BF0E4FB60490F22891E00200BF0E9FA75
:101220007CE1FF29FCD11920E96A00F091FD75E10C
:101230004A48C079FF28F3D14A4901204860C86074
:101240004A4E0C9807F043FE306842790179120249
:1012500011430A2251438079286000282AD00128AE
:101260000FD0022826D11AE04CE144E13BE133E102
:101270002BE123E115E10CE102E1FBE0F8E0E1E024
:10128000CAE021637D2292014648914200D9206341
:101290007D22216B520191420CD220630AE06163EE
:1012A000414A4248914200D960634149626B8A4297
:1012B00000D2606303F0FBFEFFF7CDFD002111209B
:1012C00000F046FD0021122000F042FD0021132015
:1012D00000F03EFD0021142000F03AFD1EE10D98C3
:1012E000FF289DD1216003F0E2FE17E1FF2915E1FF
:1012F0000D98FF2894D10B98A0612E4A2E49904258
:1013000000D9A161A069884200D2A16103F0CFFE9B
:1013100004E10D98FF2804D121484143E96203F01C
:10132000C6FEFBE0FF2B51D10E4B0121596000217D
:10133000D960174B203311460E9C521C615C195426
:10134000401C0C28F7D3FFF786FD0021112000F088
:10135000FFFC0021122000F0FBFC2FE078030020AE
:10136000700100203C0B0020A00300206801002039
:1013700018AA000009AA000002AA0000FF77FFFFD8
:1013800001DEFFFF47EC0000D007000044EC000046
:10139000BC0700206C0100208E03002028030020E1
:1013A00060EA0000701700007C150000AC0D000022
:1013B000DC050000400D0300007102000021132035
:1013C00000F0C6FC0021142000F0C2FCA6E0FF2BB8
:1013D0000DD1F94901234B600023CB60F74B114637
:1013E0000E9C521C615C1954401C0C28F7D395E0EC
:1013F0006046FF2805D1F249012048718871FFF746
:10140000D6FD8BE06046FF2802D1ED4901208871AE
:1014100084E06046FF2881E0FF2F7FD1E64C012366
:10142000A360E64B163B19700D99597005219A700F
:101430000A460E9C491CA25C1C18E270401C07283E
:10144000F6D36BE0FF2F69D1DB4C0123A360DB4BAC
:10145000203B19700D99597005219A700A460E9C0F
:10146000491CA25C1C18E270401C0728F6D355E00A
:10147000FF2953E0FF2A51D10C9804F050FF4DE0B2
:10148000FF294BD10020FFF771FDCB4900204860B8
:1014900044E00D98FF2841D10B98606203F007FEED
:1014A0003CE0C8484079FF2838D129630D9868632B
:1014B000AA630020606003F0FAFD2FE00D98FF287A
:1014C0002CD1616003F0F3FD28E0FF2926D1012033
:1014D000E06103F0ECFD21E0FF291FD10020E06175
:1014E00003F0E5FD1AE00D98FF2817D1B24801611D
:1014F00003F0DDFD12E0FF2910D10120206203F08E
:10150000D6FD0BE0FF2909D10020206203F0CFFDBA
:1015100004E0FF2902D10020FFF728FD1421A9488B
:101520000BF075FA00200FB0F0BDA5488078704729
:10153000F8B501F07DF905284DD0FFF7F6FF4D25F0
:10154000AD02A14E9E4C002810D00020FFF72FFDC9
:101550009A48012149020C300BF059FAA069802207
:1015600040024119304600F052FE266160790028A1
:1015700061D0A0790027002853D0A77193491A2081
:1015800000F0E6FB00F0F8FD2169C87B962825D025
:101590008A485838814241D32661606900280CD0BE
:1015A000A06904214002401900F052FEA069802287
:1015B00040024119844800F009FEA069401CA06166
:1015C0005A2822D3A76167710322814900200BF0BA
:1015D00010F90020F8BD0020C043F8BD2069C77392
:1015E000012060617B48AB220068027008224270D3
:1015F000FF2242740F2278480BF0F0F9764912224C
:10160000891E00200BF0F5F815E0400241198022F8
:101610006D4800F0FCFD26616761B3E71031216180
:10162000B0E71A2000F098FB002804D1677103226C
:101630006A490BF0DEF80020F8BD61484079704738
:101640005F4800797047F0B589B0074601F085F929
:101650000024E443012806D003F09FF8002804D0BA
:10166000204609B0F0BD2046FBE7FFF7E9FF002860
:1016700003D0FFF7E2FF002845D04F4E504C3046D4
:10168000F1688030012940D081690A0AA16A0A7094
:1016900082694A70F16AA56A090AA970F16AE9705B
:1016A000406A64210BF072F928710E2000F054FB9F
:1016B0004B497D25081AED0029460BF067F9A16A10
:1016C000487148480021406A08F0DAFAA16A887136
:1016D000694600200AF055F80798D021411AA06AFF
:1016E000C17106990172059941720399817202993B
:1016F000C172019901739621C173F06F00280BD05C
:10170000012821D029E02046ABE7C1690A0AA16A75
:101710000A70C2694A70BDE701F01CF9E121C900F5
:10172000484329460BF032F9A16A2030487301F092
:1017300011F9E121C900484329460BF027F920306F
:10174000A16A000A887308E001F004F9A16A4873ED
:1017500001F000F9A16A000A88734D25AD02002F3F
:1017600002D0012F52D144E01022A16AA0680BF0F0
:1017700035F91D49A068884238D310480C30A06064
:10178000E06A04214002401900F062FDE06A802214
:101790004002411909480C3000F018FD07480121AA
:1017A00049020C300BF033F9E06A401CE0625A2821
:1017B0002CD30020E06229E03C0B0020E807002049
:1017C0007001002078030020A0050020983A000056
:1017D00038EC00006C0100208E0300203BEC000080
:1017E000A82F000028030020E40900201030A0608A
:1017F0000CE0E06A04214002401900F029FDE06A93
:10180000802240024119D84800F0E0FC002028E77F
:10181000F0B589B001F0A1F80024E443012805D017
:1018200002F0BBFF002803D020461AE7204618E745
:1018300000F0FEFFCD4C052803D0CD4820620020EB
:101840000FE70E2000F088FACA4F7D21381AC90030
:101850000BF09CF86062216A8142F0D02062C64D94
:101860002846E968803001291CD081690A0AE169AB
:101870000A7082694A70E96AE669090AB170E96A20
:10188000F170406A64210BF081F830710E2000F095
:1018900063FA7D26381AF600B0420AD2E1690020C8
:1018A00048710FE0C1690A0AE1690A70C2694A70A9
:1018B000E1E70E2000F050FA381A31460BF066F8D6
:1018C000E1694871AD480021406A08F0D9F9E16941
:1018D00088716946002009F054FF0798D021411A09
:1018E000E069C1710699017205994172039981728B
:1018F0000299C172019901730021C173E86F002838
:1019000002D0012818D020E001F024F8E121C9001C
:10191000484331460BF03AF8E1692030487301F052
:1019200019F8E121C900484331460BF02FF8203067
:10193000E169000A887308E001F00CF8E169487376
:1019400001F008F8E169000A88738D48AB2100684E
:10195000017001214170FF21417483490F225439E4
:1019600088480BF03BF887491222891E00200AF0B4
:1019700040FF606A002800D161E70020FFF763FEA6
:101980005DE77A494870704770B5062804D9012090
:10199000FFF7F7FF002070BD7349734A2C390D180B
:1019A000E978223A09021418E07801430BD000F0DC
:1019B00042FFE978E27809021143884208D3012006
:1019C000FFF7DFFF07E00020FFF7DBFF002070BD1F
:1019D0000020FFF7D6FF002070BD6749C031C86204
:1019E00070476548C030C06AC0B27047F0B589B072
:1019F0006946002009F0C5FE0698C6B20598C4B233
:101A0000FFF7EFFF00275C4DA04206D02046FFF70E
:101A1000E4FF2F62002004F082FCA868002804D0B4
:101A2000012816D0AF6000201BE6E86900280CD022
:101A300000F001FFE969884203D30120FFF7A1FF0D
:101A4000F1E70020FFF79DFFEDE70020FFF799FF8A
:101A5000E9E7454D2C3D6978B14205D1A878201AB7
:101A6000C0B2FFF791FFDEE71F201E220B000BF034
:101A700018F80D08091030373E454C535A61686F0D
:101A80000800D0E7A978401A0019C0B2FFF77CFF20
:101A9000C9E72E78B00705D1642130460AF076FFF9
:101AA00000290ED1FF21913130460AF06FFF002945
:101AB00007D0A8781C21081A0019C0B2FFF764FFEC
:101AC000B1E7A8781D21081A0019C0B2FFF75CFF22
:101AD000A9E7A978401A0019C0B2FFF755FFA2E79D
:101AE000A878101A0019C0B2FFF74EFF9BE7A9783B
:101AF000401A0019C0B2FFF747FF94E7A878101A00
:101B00000019C0B2FFF740FF8DE7A978401A00190D
:101B1000C0B2FFF739FF86E7A978401A0019C0B2B2
:101B2000FFF732FF7FE7A878101A0019C0B2FFF75D
:101B30002BFF78E7A978401A0019C0B2FFF724FFFD
:101B400071E7A878101A0019C0B2FFF71DFF6AE705
:101B5000A978401A0019C0B2FFF716FF63E700200A
:101B60007047024840787047F40700207001002059
:101B7000FF0F0000A82F00003C0B002028030020CE
:101B80006C0100208E03002010B556490878C04330
:101B9000C0B20870002804D00821012008F08EFB94
:101BA00010BD0821012008F0A4FB10BD10B500F005
:101BB000F1F8FEF755FE00F09DF8FFF728F907F061
:101BC0009AF900F045F900F071F9FFF797F9FFF77E
:101BD000C6FF00F093F900F0D3F900F00AFA00F024
:101BE00041FAFEF7FBFA10BDFFF7E0FF00F04DFBF6
:101BF00000F062FB06F047FD00F070FA06F085FD8C
:101C000008F080F800F097FA0020FFF7ACF93649A9
:101C1000102000F09DF8FF212D310120FEF72BFE52
:101C2000022000F099F8002805D10121022000F0DF
:101C30008FF8FEF796FB012000F08EF800280AD1FD
:101C40001421012000F084F807F0A9FB00F094FAB9
:101C500026480121C161002000F07EF8002804D14F
:101C6000022100F075F806F05BFE1B2000F074F80E
:101C7000002805D132211B2000F06AF8FFF7BBF9DC
:101C80001D2000F069F8002805D132211D2000F048
:101C90005FF8FFF7BDFD1C2000F05EF8002805D1BD
:101CA00032211C2000F054F8FFF742FC042000F021
:101CB00053F8002806D17D21C900042000F048F81F
:101CC000FFF794FE232000F047F8002806D10521F5
:101CD000232000F03DF80648FEF774FBFFF754FFA1
:101CE0009EE70000A6010020DC050000FC0B0020A0
:101CF0005803002010B50A4C59202060162020609F
:101D0000882020600121002008F0F6F8054808F03E
:101D100026FA054808F0E5F90020206010BD000013
:101D2000000100508813000080F0FA0210B5174936
:101D30000878C043C0B20870002804D009210020F0
:101D400008F0BCFA10BD0921002008F0D2FA10BD3D
:101D50000F4A8000115070470D49800008587047A5
:101D600000210A4A5078401CC0B250700A280CD397
:101D70000020507006480268002A01D0521E0260FE
:101D8000001D491C4529F6D3D0E77047A701002064
:101D9000040A002010B5284C59202060162020602D
:101DA0008820206001220421022008F05DFA2348E7
:101DB000816810229143816001221146022008F0BF
:101DC00053FA0121022008F094FA01220321022093
:101DD00008F04AFA0321022008F08BFA01220221BE
:101DE000104608F041FA0221012008F082FA01228F
:101DF0000721022008F038FA0721022008F079FABA
:101E000002210122084608F02FFA0221084608F0B4
:101E100070FA03220921002008F026FA0322082183
:101E2000012008F021FA03220821012008F01CFA01
:101E30000020206010BD00000001005080400050D4
:101E400010B5FFF78DFF13480168491C016010BDF4
:101E500010B5114C59202060162020608820206089
:101E600009F0C8FF0721022007F0D2FF01220B4929
:101E7000002009F0C6FF0123094A022100200AF0D0
:101E800036F900200AF0C5F900200AF0E7F9002031
:101E9000206010BD1C00002000010050204E0000FA
:101EA000411E000010B5FEF743FA10BD10B5104CEE
:101EB00059202060162020608820206009F09AFFB9
:101EC0000721042007F0A4FF01220A49022009F09B
:101ED00098FF02210123084A08460AF008F9022067
:101EE0000AF097F902200AF0B9F90020206010BD2D
:101EF00000010050204E0000A51E00007FB51E4CC2
:101F000059202060162020608820206008F0DAFE2A
:101F1000342008F095FA0221002009F0E2FA0120AD
:101F20006A4610706421517000259570D570134970
:101F30000191029503906946002008F098FF012165
:101F4000002009F088FA0121002008F0E9FE256050
:101F50007FBD1FB55E2800D95E2001216A46117041
:101F60006422101A6A465070044801900391694631
:101F7000002008F07CFF1FBD00010050400D030051
:101F80007FB5544C592020601620206088202060A6
:101F9000362008F055FA0221084609F0A2FA01207D
:101FA0006A4610706421517000259570D5704A49B9
:101FB0000191029503906946022008F058FF012123
:101FC000022009F048FA0121022008F0A9FE25604C
:101FD0007FBD1FB501216A4611706422101A6A463E
:101FE00050703D48019003916946022008F03FFF80
:101FF0001FBD7FB5374C59202060162020608820F7
:102000002060372008F01CFA0221032009F069FA49
:1020100001206A4610706421517000259570D570BA
:102020002D490191029503906946032008F01FFF96
:102030000121032009F00FFA0121032008F070FEAE
:1020400025607FBD1FB501216A4611706422101AF8
:102050006A4650702048019003916946032008F0B9
:1020600006FF1FBD7FB51B4C592020601620206045
:1020700088202060352008F0E3F90221012009F0D2
:1020800030FA01206A461070642151700025957065
:10209000D5701149019102950390694608F0E7FE59
:1020A0000121084609F0D7F90121084608F038FE59
:1020B00025607FBD1FB501216A4611706422101A88
:1020C0006A4650700448019003916946012008F067
:1020D000CEFE1FBD00010050D007000010B58AB031
:1020E0000B4C59202060162020608820206009F0C9
:1020F00062FA01A809F086FA002009F044FD0548BB
:10210000016B082291430163002020600AB010BDDA
:1021100000010050008000401F4859210160162135
:102120000160882101601D490A6808231A430A607A
:1021300000210160704710B5174C5920206016200F
:102140002060882020600221002007F061FE072027
:102150000AF0F4F812480AF00EF9002108460AF0D5
:10216000A2F8002102200AF09EF8002107200AF0C0
:102170009AF80020206010BD10B5074C592020604F
:102180001620206088202060002106200AF08BF8AD
:102190000020206010BD0000000100500040004001
:1021A0001921000003E00221491E0029FCD1401E34
:1021B000F9D27047044A03E01146491E0029FCD1B8
:1021C000401EF9D2704700009D170000F8B5054683
:1021D0000F461646002472B6592135480160162173
:1021E0000160882101600AF0A9FB07E02046800019
:1021F000641CC01929680AF023FB2D1D761EF5D238
:102200000AF0B2FB2A480021016062B6F8BDF8B5B9
:1022100006460F461546002472B65921244801602F
:1022200016210160882101600AF088FB07E0204642
:102230008000641CC01931460AF02CFB361D6D1E4F
:10224000F5D20AF091FB1A480021016062B6F8BD90
:10225000F8B506460D46002472B65920144F386072
:1022600016203860882038600AF068FB05E02046B8
:102270008000641C80190AF039FB6D1EF7D20AF049
:1022800073FB0020386062B6F8BD10B5084C5920C9
:10229000206016202060882020600AF06BFB13214C
:1022A0003E2209030348FFF7B2FF0020206010BD63
:1022B000000100503C0B0020F8B5D54B7D22986AF8
:1022C0005201904200D29A62D249986A884200D95B
:1022D0009A62D149186B884200D21963CF481C6BAF
:1022E000844200D91963D86F0126012800D9DE671E
:1022F000C748C82480304568C82D00D244604B27A9
:102300004568FF00BD4200D944608468642C01D256
:1023100064248460FF2584683C35AC4201D9642480
:1023200084600468022C00D206600468022C00D984
:102330000660C4680025012C00D9C5605C68002CCB
:1023400000D05D60DC68022C00D9DD60B44C1F69F0
:10235000A74201D903241C61B24CC76AA74200D32B
:10236000C462B14CC76AA74201D8AE4CC4629C6932
:10237000012C00D99D61AA4CDF69A74200D9DD611B
:10238000A34B1B6A5B1C01D1A14B1D62A04CA74F44
:10239000C034636ABB4201D2A54B6362A54F636A36
:1023A000BB4201D9A24B6362A36A012B00D9A5628B
:1023B000076BFF23FF2F00D90363476BFF2F00D963
:1023C0004363876BFF2F00D98363C36B0F2B00D947
:1023D000C5632368012B00D926606368032B00D9ED
:1023E0006560A3680F2B00D9A560E3680F2B00D9A7
:1023F000E560874B9B6B102B01D3854B9D63836AF4
:10240000642B01D964238362874B07695B1E9F425B
:1024100000D3056187699F4200D38561C7699F42E8
:1024200000D3C561E069012800D9E561206A01286F
:1024300000D92562794BA7697F489F4200D9A061E6
:102440007D48A369834200D2A0617D23206B9B015C
:10245000984200D92163206B904200D22163774BD0
:10246000626B77489A4200D96063764B626B9A42FE
:1024700000D26063664FF86B884202D3A269904233
:1024800001D96948F863386C884202D3A269904246
:1024900001D96D483864786C884202D3A2699042B1
:1024A00001D96A487864B86C884202D3A269904224
:1024B00001D96748B864F86C884202D3A269904297
:1024C00001D96448F864386D884202D3A269904209
:1024D00001D957483865786D884202D3A269904285
:1024E00001D95D487865B86D884202D3A2699042EF
:1024F00001D95A48B865F86D884202D3A269904262
:1025000001D95748F865386E884202D3A2699042D3
:1025100001D954483866786E884202D3A269904245
:1025200001D951487866B86E884202D3A2699042B8
:1025300001D94E48B866F86E884202D3A26990422B
:1025400001D94B48F866386F884202D3A26990429D
:1025500001D948483867786F884202D3A26990420F
:1025600001D945487867B86F884202D3A16988428B
:1025700001D93148B867FF21153140480AF047FAC0
:1025800014213F480AF043FA14213E480AF03FFA6A
:10259000002002F082FD0020FFF7DBFC3A48816852
:1025A0001022914381600121022007F0A2FE032145
:1025B000022007F09EFE0721022007F07FFE022185
:1025C000084607F096FE002002F0BBF8012001F05B
:1025D000E8FD082000F05AF8002006F075FC7D6048
:1025E0007E6206F0E9FC002811D006F0B3FC00285A
:1025F0000DD106F0C8FC002809D11620616AFFF74A
:10260000A7FB012000F042F80020FEF77FFBF8BD99
:102610003C0B0020E02E000070170000400D03006E
:10262000FF0F0000C027090010270000983A0000A3
:1026300060EA000080A90300007102007C15000020
:10264000AC0D0000DC050000204E000030750000DD
:10265000409C000050C30000701101008038010050
:10266000905F0100A0860100B0AD0100C0D4010060
:10267000D0FB0100E0220200F0490200040A002021
:10268000780300208C03002080400050FF494870F0
:102690007047FE480078704770B50021084607F083
:1026A00036FE0021012007F032FE0021022007F053
:1026B0002EFE0621022007F001FE0F21012007F067
:1026C000FDFD0321002007F0F9FDF14901204862DA
:1026D0000020FFF77EFC0020FFF7B4FC0020FFF78E
:1026E000E9FCFEF77FFBFEF7B6FB0020FFF731FCAD
:1026F0000121022007F0FDFD0321022007F0F9FD72
:102700000221012007F0F5FD0721022007F0F1FD6D
:10271000E04CA0681026B043A0600221084607F0F4
:10272000E8FD0021022007F0C9FD0020FEF71EFC95
:10273000D94D59202860162028608820286008F08C
:102740002EF908F0D0FA002009F07DFF280309F0E7
:102750007AFF012009F095FC032009F092FC00208B
:1027600007F06EFE00221146012007F07DFD0121D9
:102770000022084607F078FD002007F0F4FB002057
:102780002860FFF713FA0020FFF7E3FB0121022086
:1027900007F0AFFD0321022007F0ABFD022101206D
:1027A00007F0A7FD0721022007F088FDA068B043CD
:1027B000A0600221084607F09CFDB548C030416A80
:1027C0001620FFF7C5FAFF21F5312820FFF7C0FAE0
:1027D000FF2191310F20FFF7BBFAFFF75AFF0128C5
:1027E00002D10720FFF752FF70BDA8494872704719
:1027F000A64988717047A5494871704700B5A74A36
:10280000A749D068884203D90120FFF7F4FF02E00E
:102810000020FFF7F0FF1921D0680902884203D297
:102820000120FFF7E5FF00BD0020FFF7E1FF00BD3D
:102830009648407870479648C0300069704708B5A0
:10284000934919228031496A0020120291420BD922
:102850007D20944BC000994206D2881A7D21C90080
:10286000484391490AF092F80A210AF08FF80A21A8
:102870000AF08CF803000AF014F90A060F18212A4E
:10288000333C454E57608948009003230022402185
:102890003820FEF7CBF908BD8548009003230022BD
:1028A00040213820FEF7C2F908BD8248009003237A
:1028B000002240213820FEF7B9F908BD7E4800907B
:1028C0000323002240213820FEF7B0F908BD7B48E1
:1028D00000900323002240213820FEF7A7F908BD0D
:1028E000774800900323002240213820FEF79EF90C
:1028F00008BD744800900323002240213820FEF7D1
:1029000095F908BD7048009003230022402138202B
:10291000FEF78CF908BD6D4800900323002240218A
:102920003820FEF783F908BD694800900323002290
:1029300040213820FEF77AF908BD6648009003234D
:10294000002240213820FEF771F908BD5048C03000
:10295000406970474D48C06A70474D484069C0B2F1
:1029600070474B48C0300068C0B27047F0B585B0C2
:10297000002001903D20FFF7EFF9444D444E7D24A7
:1029800000272035C036E400002860D028780028D1
:1029900002D02F70FEF75FFA4320FFF7DDF9002821
:1029A0004FD1FF21F5314320FFF7D2F90120FEF787
:1029B0009BFA3D20FFF7D0F9474909F0E7FF474D63
:1029C0000846294609F0E2FF2A214843444F0121E5
:1029D000C2190E20FEF70CF93D20FFF7BDF929467C
:1029E00009F0D4FF0846214609F0D0FF2A214843C8
:1029F000C21901211C20FEF7FBF83A48009004237D
:102A0000032232212A20FEF711F9012336A20421E4
:102A10000A20FEF72CF900211120FFF799F9002177
:102A20001220FFF795F900211320FFF791F90021FB
:102A30001420FFF78DF9AF20FEF752FA0020FEF7C1
:102A400053FA1620716AFFF783F905B0F0BD2878B4
:102A5000002803D101202870FEF7FDF93B20FFF785
:102A60007BF90A4900287DD0C87D002802D0CF75A7
:102A7000FEF7F1F90120FEF737FA0549C86800288A
:102A800040D001285BD0022879D033E0AC0100208F
:102A90003C0B002080400050000100502803002023
:102AA000282300006C2000006C070000DAD700002B
:102AB000C2D70000AAD7000092D700007AD7000042
:102AC00062D700004AD7000032D700001AD70000B2
:102AD00002D70000EAD60000A086010010270000FF
:102AE0008BEA0000FAD700004C4F41442E2E2E0AEC
:102AF00000000000CF60AF20FEF7F2F90020FEF7E3
:102B0000F3F9A2E70523FFA201210D20FEF7AFF89C
:102B10000523FEA203210D20FEF7A9F8FD48009031
:102B20000323012206210020FEF780F8FA480090D6
:102B30000323012240213A20FEF778F8DBE7052342
:102B4000F6A201210D20FEF792F80523EFA2032142
:102B50000D20FEF78CF8EF48032301220621009098
:102B6000002001E018E00AE0FEF760F8EA48009073
:102B70000323012240213A20FEF758F8BBE7052342
:102B8000E8A201210320FEF772F803210523E7A242
:102B90000846FEF76CF8AEE7E648C07D002804D191
:102BA000E4490120C875FEF756F93C20FFF7D4F838
:102BB000002854D0DF48017E002902D00776FEF7B6
:102BC0004AF90120FEF790F90123DBA219460520FE
:102BD000FEF74DF8DB490869030009F062FF06279C
:102BE000040B121920270523D7A203210720FEF783
:102BF0003EF81DE00523D6A203210D20FEF737F88D
:102C000016E00523D4A203210D20FEF730F80FE0D3
:102C10000523D3A203210D20FEF729F808E00523A0
:102C2000D1A203210720FEF722F801E0032008616A
:102C3000B84800900523032206210020FDF7F6FF87
:102C4000B54800900523032240213A20FDF7EEFF0E
:102C5000AF20FEF745F90020FEF746F9F5E6B54846
:102C6000007E002804D1B34901200876FEF7F3F86E
:102C70001E20FFF771F8002841D0AE48417E0029A0
:102C800002D04776FEF7E7F80120FEF72DF9FEF7B0
:102C900070F9B74C012804D0FEF76BF9002814D066
:102CA00026E004230022302110200094FDF7BEFF0F
:102CB0000023B0A204210120FDF7D9FF0023B0A218
:102CC00005210420FDF7D3FF12E004230022302168
:102CD00010200094FDF7AAFF0023A6A204210120E2
:102CE000FDF7C5FF0023A9A205210120FDF7BFFFC5
:102CF000AF20FEF7F5F80020FEF7F6F8A5E68D48C0
:102D0000407E002804D18B4901204876FEF7A3F8C5
:102D10002720FFF721F8002842D08648817E00292D
:102D200002D08776FEF797F80120FEF7DDF8FFF76F
:102D300018FE012804D0FFF714FE002815D028E063
:102D4000954800900423002230211020FDF76EFFEB
:102D5000002392A204210120FDF789FF0521002311
:102D600087A20846FDF783FF13E08F4800900423F5
:102D7000002230211020FDF759FF002387A20421F3
:102D80000120FDF774FF002380A205210120FDF73B
:102D90006EFFAF20FEF7A4F80020FEF7A5F854E67A
:102DA0006448807E002804D1624901208876FEF7BD
:102DB00052F83E20FEF7D0FF002830D05D48C17E9B
:102DC000002902D0C776FEF746F80120FEF78CF8FE
:102DD000B06A002809D0012814D0B762AF20FEF7EE
:102DE0007FF80020FEF780F82FE600236FA2012174
:102DF0000820FDF73CFF05236FA203210720FDF704
:102E000036FFEBE7002369A201210820FDF72FFF21
:102E100005236BA203210220FDF729FFDEE74548C9
:102E2000C07E002804D143490120C876FEF713F87C
:102E30003F20FEF791FF002862D03E48017F002925
:102E400002D00777FEF707F80120FEF74DF80023C0
:102E50005DA219460220FDF70AFF3A4F5D49386A24
:102E60005D4E5E4D88424CD3214609F08FFD5C4992
:102E700009F08CFD08465B4909F088FD10301421EB
:102E80004843421901210720FDF794FE2146386A84
:102E900009F07CFD534909F079FD0846214609F007
:102EA00075FD103014214843421901211120FDF70E
:102EB00081FE2146386A09F069FD214609F066FD68
:102EC0000846642109F062FD10301421484342197C
:102ED00001211B20FDF76EFE2146386A09F056FDE0
:102EE000642109F053FD08460A2109F04FFD103016
:102EF00014214843421901212520FDF75BFE73E0B0
:102F000068E288E0574154540A0000004D4F4445A0
:102F10000A000000FCDB000008DC000054454D50B6
:102F20000A0000004D454D4F52590A00204D4F44B4
:102F300045200A00AC010020535452454E475448E6
:102F40000A0000003C0B0020204D494E200A0000E2
:102F5000534F46540A0000004E4F524D0A000000E5
:102F6000484152440A000000204D4158200A000008
:102F70006AD00000424C5545544F4F54480A000057
:102F80002020204F4E202020200A00002020204F0B
:102F900046462020200A00006AD100002020204C54
:102FA00045442020200A0000EAD100005354454146
:102FB0004C54480A00000000204F464620200A00DA
:102FC00020204F4E20200A002020544F44415920F9
:102FD000200A00008096980076E2000003E60000D8
:102FE000A0860100102700002146386A09F0CEFCB7
:102FF0000A2109F0CBFC1031142041434A19012168
:103000002F20FDF7D7FD032301224321392000960D
:10301000FDF70CFED1E0FF4988424ED3214609F06E
:10302000B5FCFD4909F0B2FC0846214609F0AEFCAA
:10303000103014214843421901210C20FDF7BAFD3C
:103040002146386A09F0A2FC214609F09FFC084697
:10305000642109F09BFC10301421484342190121DE
:103060001620FDF7A7FD2146386A09F08FFC642180
:1030700009F08CFC08460A2109F088FC1030142164
:103080004843421901212020FDF794FD2146386A6A
:1030900009F07CFC0A2109F079FC1031142041432D
:1030A0004A1901212A20FDF785FD032301223E2133
:1030B00034200096FDF7BAFD7FE0D84988423BD323
:1030C000214609F063FC214609F060FC08466421B2
:1030D00009F05CFC103014214843421901211120F1
:1030E000FDF768FD2146386A09F050FC642109F0BB
:1030F0004DFC08460A2109F049FC103014214843D0
:10310000421901211B20FDF755FD2146386A09F0BF
:103110003DFC0A2109F03AFC1031142041434A19C0
:1031200001212520FDF746FD0323012239212F200F
:103130000096FDF77BFD40E0B749884228D3214641
:1031400009F024FC642109F021FC08460A2109F059
:103150001DFC103014214843421901211620FDF7AF
:1031600029FD2146386A09F011FC0A2109F00EFCFC
:103170001031142041434A1901212020FDF71AFD86
:103180000323012234212A200096FDF74FFD14E08D
:10319000214609F0FBFB0A2109F0F8FB103114204D
:1031A00041434A1901211B20FDF704FD032301229D
:1031B0002F2125200096FDF739FD002398A2032139
:1031C0000220FDF754FDFFF736FB934EB04251D37A
:1031D000FFF731FB914909F0D9FB0846314609F068
:1031E000D5FB103014214843421904210720FDF774
:1031F000E1FCFFF720FB314609F0C8FB08462146F9
:1032000009F0C4FB10301421484342190421112055
:10321000FDF7D0FCFFF70FFB214609F0B7FB08468E
:10322000642109F0B3FB10301421484342190421F2
:103230001B20FDF7BFFCFFF7FEFA642109F0A6FB97
:1032400008460A2109F0A2FB103014214843421914
:1032500004212520FDF7AEFCFFF7EDFA0A2109F065
:1032600095FB1031142041434A1904212F20FDF70A
:10327000A1FCA8E0FFF7DFFAA04240D3FFF7DBFA9A
:10328000314609F083FB0846214609F07FFB1030E8
:1032900014214843421904210C20FDF78BFCFFF751
:1032A000CAFA214609F072FB0846642109F06EFB58
:1032B000103014214843421904211620FDF77AFCEE
:1032C000FFF7B9FA642109F061FB08460A2109F009
:1032D0005DFB103014214843421904212020FDF7E2
:1032E00069FCFFF7A8FA0A2109F050FB10311420FD
:1032F00041434A1904212A20FDF75CFC63E0FFF7F3
:103300009AFA64282FD3FFF796FA214609F03EFB7C
:103310000846642109F03AFB103014214843421951
:1033200004211120FDF746FCFFF785FA642109F01E
:103330002DFB08460A2109F029FB103014214843CF
:10334000421904211B20FDF735FCFFF774FA0A210E
:1033500009F01CFB1031142041434A190421252097
:10336000FDF728FC2FE0FFF766FA0A281ED3FFF7C7
:1033700062FA642109F00AFB08460A2109F006FBFB
:10338000103014214843421904211620FDF712FC85
:10339000FFF751FA0A2109F0F9FA103114204143DC
:1033A0004A1904212020FDF705FC0CE0FFF743FA41
:1033B0000A2109F0EBFA1031142041434A19042183
:1033C0001B20FDF7F7FBAF20FDF78AFD0020FDF77E
:1033D0008BFD43E41548007F002804D113490120E8
:1033E0000877FDF738FD3A20FEF7B6FC00287ED0BE
:1033F0000E48417F002902D04777FDF72CFD0120C0
:10340000FDF772FD0A49002008F0BBF90423094DBD
:10341000022211E040420F0010270000A0860100A8
:103420002020505546465320200A0000AC010020C1
:10343000180B0020DFDB000020211E200095FDF787
:10344000F5FB0423022231212F200095FDF7EEFB2E
:10345000FE4DFF49E86909F099FA084626463146CB
:1034600009F094FAFB4C0001001900900423022299
:1034700009210120FDF7DAFB3146E86909F086FAF7
:103480000846642109F082FA000100190090042323
:10349000022210210820FDF7C9FB6421E86909F028
:1034A00075FA08460A2109F071FA00010019009026
:1034B0000423022217210F20FDF7B8FB0A21E86937
:1034C00009F064FA080100190090042302221E2169
:1034D0001620FDF7ABFB6421A86909F057FA0846EE
:1034E0000A2109F053FA00010019042300E037E033
:1034F0000090022228212020FDF798FB0A21A869CC
:1035000009F044FA080100190090042302222F2137
:103510002720FDF78BFB6421686909F037FA08461C
:103520000A2109F033FA0001001900900423022255
:1035300039213120FDF77AFB0A21686909F026FA62
:103540000801001900900423022240213820FDF7D1
:103550006DFBAF20FDF7C4FC0020FDF7C5FC1EE4A9
:10356000BD48407F002804D1BB4901204877FDF7C2
:1035700072FC3920FEF7F0FB00285ED0B648817F50
:10358000002902D08777FDF766FC0120FDF7ACFC2F
:10359000AE49002008F0F5F8AC4C6421E06809F071
:1035A000F5F908460A2109F0F1F938214843AB4DF5
:1035B00005234019009001220E210020FDF736FB63
:1035C0000A21E06809F0E2F93820414348190090E7
:1035D000052301221C210E20FDF728FBA0480090A6
:1035E0000523012223211D20FDF720FB6421A06873
:1035F00009F0CCF908460A2109F0C8F938214843F6
:10360000401900900523012232212420FDF70EFBF2
:103610000A21A06809F0BAF93820414348190090FE
:103620000523012240213220FDF700FBAF20FDF7EA
:1036300057FC0020FDF758FCCBE68748807F002828
:1036400004D1854901208877FDF705FC0F20FEF79E
:1036500083FB00282CD08048C17F002902D0C77787
:10366000FDF7F9FB0120FDF73FFC042302220921AD
:103670000020FDF707FC0423022240213620FDF73D
:1036800001FC784800220090042340211046FDF7F9
:10369000CDFA754800900623042240210020FDF752
:1036A000C5FAAF20FDF71CFC0020FDF71DFC90E6DD
:1036B0006948C07F002804D167490120C877FDF719
:1036C000CAFB2D20FEF748FB002838D02D20FEF73E
:1036D00043FBA04233D26878002812D06F70FDF708
:1036E000BAFB00211120FEF733FB00211220FEF768
:1036F0002FFB00211320FEF72BFB00211420FEF7E7
:1037000027FB0120FDF7F0FB58480090042300221E
:1037100038210820FDF78AFA002355A2042105204C
:10372000FDF7A5FA002355A205210220FDF79FFA17
:10373000AF20FDF7D5FB0020FDF7D6FB49E6687802
:10374000002803D101206870FDF785FB1720FEF7E4
:1037500003FB002833D04048417D002905D0477540
:10376000AE20FDF7BDFBFDF776FBFFF7F6F800286E
:1037700010D10120FDF7B8FB43480090062300223A
:1037800038210820FDF752FAAF20FDF7A9FB0020F1
:10379000FDF7AAFBFFF7E1F8012888D1FDF7A4FBAC
:1037A0003A4800900623002230211020FDF73EFA0F
:1037B000AF20FDF795FB0020FDF796FB09E62648B4
:1037C000407D002804D1244901204875FDF743FBC2
:1037D0001820FEF7C1FA002818D01F48817D002963
:1037E00002D08775FDF737FB0120FDF77DFB2748E9
:1037F00000900623002230211020FDF717FAAF2099
:10380000FDF76EFB0020FDF76FFBE2E51248807DBF
:10381000002804D1104901208875FDF71CFB1220F7
:10382000FEF79AFA0949A431039100283BD1FF2100
:103830005F311220FEF78CFAB06A012830D00120E7
:10384000FDF752FB01482430C06821E0180B00202E
:10385000102700006FD80000AC010020AFD9000095
:103860002AD800005ACC00005ACD00002CDC000001
:10387000202054454D502020200A000050524F5423
:1038800045435445440A00005ACE00007ACF000058
:10389000002809D0FE49012852D002283DD04FE02F
:1038A000AE20FDF71DFBCBE1F9494868002802D0A6
:1038B000012804D044E0F748096B416340E0FEF77B
:1038C000B7FF05280AD0F448F24A00780102F3480D
:1038D0000078084364214843506331E00E20FEF72E
:1038E0003BFAEF49081A214609F050F8EA49085C0A
:1038F0000102E84841630E20FEF72EFAE849081A53
:10390000214609F043F8E549085CE249496B084360
:1039100064214843DF49486312E04868002802D028
:10392000012807D00CE0886B80004018C16BD94893
:10393000416305E0886B80004018C16BD548416346
:10394000D349C868002803D001287ED002284BD173
:10395000D048416BD348814247D3022300222F2114
:103960002A20FDF78FFA0323022238213220FDF7A7
:1039700089FAC848CC49406B09F008F80846C9499B
:1039800009F004F82A214843C84942180021084692
:10399000FDF72EF9BF48C349406B08F0F7FF084612
:1039A000C34908F0F3FF2A214843C04942180021C7
:1039B0000E20FDF71DF9B748BD49406B08F0E6FF42
:1039C0000846214608F0E2FF2A214843B749421839
:1039D00000211C20FDF70CF9B648009003230222B9
:1039E00032212A20FDF722F924E1032300221C21A1
:1039F0001A20FDF747FA0323002221211F20FDF79B
:103A000041FAAD480090032300221F211C20FDF73E
:103A10000DF9A048A649406B884206D20022032334
:103A20000E211046FDF72EFA0EE09E4908F0AEFF7B
:103A300008469F4908F0AAFF2A2148439B4942189B
:103A400000210846FDF7D4F800E02AE091489849A3
:103A5000406B08F09BFF0846214608F097FF2A219B
:103A600048439249421800210E20FDF7C1F88948C9
:103A70002146406B08F08AFF0846642108F086FF63
:103A80002A2148438949421800212120FDF7B0F836
:103A9000884800900323022237212F20FDF7C6F823
:103AA000C8E04868002802D001287ED0C2E0C86F74
:103AB000002802D0012840D0BCE0FEF7B9FE05285E
:103AC00037D00398806802902146029808F05EFF84
:103AD0000846642108F05AFF2A21484373494218D6
:103AE00000210846FDF784F86421029808F04EFF93
:103AF00008460A2108F04AFF2A2148436B49421828
:103B000000210E20FDF774F80A21029808F03EFF0C
:103B10002A20414365480A1800211C20FDF768F857
:103B2000664800900323022236212A20FDF77EF802
:103B300080E0FEF70FFF0290C6E7FEF779FE05284A
:103B400039D00398406802902146029808F01EFF81
:103B50000846642108F01AFF2A21484353494218B5
:103B600000210846FDF744F86421029808F00EFF92
:103B700008460A2108F00AFF2A2148434B49421807
:103B800000210E20FDF734F80A21029808F0FEFE0D
:103B90002A20414345480A1800211C20FDF728F837
:103BA000032302224648362100E008E000902A2044
:103BB000FDF73CF83EE0FEF7CDFE0290C4E7FEF7CD
:103BC00037FE052842D0FEF7C1FE0290214602983A
:103BD00008F0DCFE0846642108F0D8FE2A2148439C
:103BE0003249421800210846FDF702F86421029884
:103BF00008F0CCFE08460A2108F0C8FE2A214843F6
:103C00002A49421800210E20FCF7F2FF0A210298EF
:103C100008F0BCFE2A20414324480A1800211C2039
:103C2000FCF7E6FF264800900323022236212A20D3
:103C3000FCF7FCFFAF20FDF753F90020FDF754F926
:103C40001120FEF789F8002804D0C6E0FEF782FEB6
:103C50000290BBE764211120FEF77AF8B06A0128D0
:103C600030D00120FDF740F94220FEF775F800281A
:103C700073D0A878002806D0AF70052303221D2139
:103C80000020FDF7FFF8FEF7D3FD05281ED024E045
:103C90003C0B0020AC010020E8070020DC070020DE
:103CA000442F0000A086010040420F008BEA000074
:103CB00010270000F2D70000E3DB00000ED8000060
:103CC00002D80000AE20FDF70BF986E00E20FEF7CB
:103CD00043F8FF49091AFF4881630123FEA203212B
:103CE0000B20FCF7C4FFFB4DFC49A86B08F04EFE0F
:103CF0000846FB4908F04AFE10300A214843F94FB4
:103D00000321C2190020FCF737FFF549A86B08F022
:103D10003DFE0846214608F039FE10300A2148438E
:103D2000C21903210720FCF727FF2146A86B08F0E2
:103D30002DFE0846642108F029FE10300A21484370
:103D4000C21903210F20FCF717FF0123E6A203216C
:103D50001720FCF78CFF3AE0FFE7E44801690B000D
:103D600008F09FFE0631040D161F2831E048009030
:103D7000052303221D210020FCF758FF25E0DD4824
:103D80000090052303221D210020FCF74FFF1CE0BB
:103D9000D9480090052303221D210020FCF746FF8F
:103DA00013E0D6480090052303221D210020FCF7D4
:103DB0003DFF0AE0D2480090052303221D21002088
:103DC000FCF734FF01E0032101610120A870AF205E
:103DD000FDF786F80020FDF787F81320FDF7BCFFFC
:103DE000002822D1FF212D311320FDF7B1FFB06A49
:103DF000012817D00120FDF777F8FDF7BAF8012860
:103E000014D00223002236212E20FDF73BF8FEF7C6
:103E100016FDB64DE868002811D0012854D00228BC
:103E200043D143E0AE20FDF75BF8DEE0B5480090FB
:103E30000223002236212E20FCF7F8FEE7E7FEF7EA
:103E4000FAFC214608F0A2FD0846642108F09EFD18
:103E500010300A214843A34D032142192620FCF7C4
:103E60008BFEFEF7E8FC642108F090FD08460A216D
:103E700008F08CFD10300A214843421903212D20FF
:103E8000FCF77AFEFEF7D7FC0A2108F07FFD10311F
:103E90000A2041434A1903213420FCF76DFE012317
:103EA00099A203213B20FCF7E2FE98E0A86B2C21AD
:103EB000401C4843954905234018009003224021A7
:103EC0002A20FCF7B3FE8AE0854F686BB84243D3E3
:103ED00001238FA203212920FCF7C9FE01237EA222
:103EE00003213020FCF7C3FE7C49686B08F04EFDCF
:103EF0000846394608F04AFD10300A214843794FF8
:103F00000321C2192520FCF737FE7549686B08F0BC
:103F10003DFD0846214608F039FD10300A2148438E
:103F2000C21903212C20FCF727FE2146686B08F0FC
:103F30002DFD0846642108F029FD10300A21484370
:103F4000C21903213420FCF717FE012371A20321BB
:103F50003B20FCF78CFE42E001235FA203212920D5
:103F6000FCF785FE01236AA203213020FCF77FFEC7
:103F70003946686B08F00AFD0846214608F006FD40
:103F800010300A214843574F0321C2192520FCF75E
:103F9000F3FD2146686B08F0F9FC0846642108F03F
:103FA000F5FC10300A214843C21903212D20FCF7EB
:103FB000E3FD6421686B08F0E9FC08460A2108F07B
:103FC000E5FC10300A214843C21903213420FCF7D4
:103FD000D3FD01234FA203213B20FCF748FEAF2075
:103FE000FCF77EFF0020FCF77FFF1420FDF7B4FEF6
:103FF000002800D009E4FA211420FDF7A9FEB06AD8
:1040000001280BD00120FCF76FFF384DE86800282D
:1040100009D001280BD0022810D104E0AE20FCF713
:104020005FFF05B0F0BD03988069019006E0FEF7E0
:10403000FFFB052874D0039880690190002326A215
:1040400005210420FCF713FE254E0198314608F0A7
:104050009DFC08462746394608F098FC1030810040
:1040600040182D4C052102190020FCF767FD394648
:10407000019808F08BFC0846642108F087FC10309A
:1040800081004018021905210820FCF757FD642122
:10409000019808F07BFC08460A2108F077FC1030F4
:1040A00081004018021905210F20FCF747FD1B482D
:1040B0000090062305221D211620FCF7B7FDED6AAE
:1040C000002305A205212920FCF7D1FD314628E077
:1040D000442F0000AC0100202E0A0000A086010041
:1040E00010270000B5E30000530A00003C0B00203D
:1040F000D8DF000012E000004CE0000086E0000085
:10410000C0E000001AD80000500A0000ECDC0000FB
:10411000200A0000570A00008EE2000054D8000078
:104120003BE0284608F032FC0846394608F02EFCF1
:10413000103081004018021905212520FCF7FEFCF3
:104140003946284608F022FC0846642108F01EFC87
:10415000103081004018021905212D20FCF7EEFCDB
:104160006421284608F012FC08460A2108F00EFCDB
:10417000103081004018021905213420FCF7DEFCC4
:104180000023FFA205213B20FCF771FDAF20FCF7C7
:10419000A7FE0020FCF7A8FE43E70398C069019042
:1041A0004CE7F849C8727047F648407A704770B5D6
:1041B0000024FFF7F9FF00285FD00221084606F02F
:1041C0007DF8FCF75CF8FCF771F8641C822CF8D3DE
:1041D000ED480A21C569406906462C1A204608F0B8
:1041E000D5FB0146E948704308F0D0FB2D2801D9E2
:1041F0002D3800E00020E34AD16E0B460F33984281
:1042000002D80F39884200D2D066E148D16E0161F0
:10421000002E01D100210161C82C02D3711BC829D5
:1042200001D2DC4901610020FEF7DFFA02210846D5
:1042300006F05FF80920FDF7B5FF1E211120FDF7FC
:1042400087FD1E211220FDF783FD1E211320FDF79F
:104250007FFD1E211420FDF77BFD1E211F20FDF791
:1042600077FD1E212020FDF773FD96212120FDF70B
:104270006FFDC6492220FDF76BFD70BD10B52F20E4
:10428000FDF76AFD002810D1C0492F20FDF760FD21
:10429000FFF78DFFBE4AC04910693738884204D302
:1042A0000120FFF77EFF0020906110BDB549087026
:1042B0007047B44988627047B249C8627047B148D4
:1042C000806A7047F0B589B0B04C2A202146FDF7CE
:1042D0003FFD21464220FDF73BFDAD4DA8696861D9
:1042E0002E464036AD4AB169AD48914200D9B06121
:1042F000B169814200D2B061A54FA24C803FF868FD
:10430000002807D001287ED002287DD00020F86048
:1043100009B0F0BD0121022005F0D0FF7868002827
:1043200010D0012811D0002078603420FDF714FD52
:10433000002854D03869030008F0B3FB064F232E41
:104340005139444F386B6065EFE70E20FDF704FDEF
:104350009449081A8D4908F019FB9349085C00023A
:1043600060650E20FDF7F8FC8E49081A874908F0B1
:104370000DFB8E49085C616D08436421484360650C
:10438000D3E7616D08910801401A642108F0FEFA34
:104390000899081A606522E0626D0A205043642182
:1043A000079208F0F3FA079A101A606517E0626D39
:1043B0000A2050436421069208F0E8FA069A801811
:1043C00060650CE0616D05910801401A642108F0F8
:1043D000DDFA05994018606501E003203861B06995
:1043E000616D884200D2606567484068F86240436A
:1043F000696908F0CBFA7863616D0A46FF3A2D3A95
:10440000904207D201E015E021E1226B5E2A01D241
:10441000521C2263FF312D31884204D9206B0028C1
:1044200001D0401E20632020FFF746FF206BFDF7E0
:1044300090FD6DE70121022005F040FF786800281B
:1044400016D0012829D0002078604F48504F40688E
:10445000803FF862E9694043049108F097FA786375
:1044600039690B0008F01DFB062E1F2225282B2E74
:10447000F86F002809D00128E7D16868A0654B21B2
:10448000C9008842E1D9A165DFE7A868A065FF21DE
:104490003C318842D9D9A165D7E7FEF757FAA06524
:1044A0000120F867D1E7424921660FE041492166C2
:1044B0000CE04149216609E04049216606E0404997
:1044C000216603E0324A0321803A1161E96801293B
:1044D00006D12F49803940004863206E4000206695
:1044E0000498AF69B84201D2E76501E00498E0653D
:1044F000286801281AD002281BD001202860E06D0E
:104500002249C01B4843216D08F040FA1F49484327
:10451000394608F03BFA1930FFF7CBFE1C4D803DC1
:10452000E86F00280AD001280CD015E0306B206518
:10453000E5E7706BFF30F5302065E0E7FFF7BFFE81
:10454000606609E0FFF7BBFEE121C90048430F495F
:1045500008F01CFA20306066A26D616E91420CD2A8
:10456000686B236E984208D2206B5E2801D2401CF3
:104570002063206B062800D9E064914248D921E0ED
:10458000560A0000AC01002028030020E8030000C8
:10459000BC0B00200F270000810B0000400D030022
:1045A00000710200442F0000E8070020DC07002013
:1045B00030750000409C000050C3000060EA00001D
:1045C000701101002C20FDF7C7FB002813D1A16D4D
:1045D000606E401A322804D900212C20FDF7B8FB68
:1045E00004E03221091A2C20FDF7B2FBE06C06280A
:1045F00001D9401EE064E16CA06C884201D2401CED
:10460000A064A06C884201D9401EA064A06C206305
:10461000A16D606E884212D9A06E401CA06605286C
:1046200011D90846FFF748FE2D20FDF795FB00281D
:1046300009D17D2109012D20FDF78AFB03E0FFF759
:104640003BFE0020A066206BFDF783FC60E60121A5
:10465000022005F033FE7868002810D0012814D01D
:10466000002078603420FDF777FB002841D03869BE
:10467000030008F016FA063C101B3E26313CB86BCE
:104680008000C019C06B6065ECE7B86B8000C01992
:10469000C06B6065E6E7616D03910801401A642113
:1046A00008F074F90399081A606522E0626D0A2027
:1046B00050436421029208F069F9029A101A606569
:1046C00017E0626D0A2050436421019208F05EF900
:1046D000019A801860650CE0616D00910801401A34
:1046E000642108F053F900994018606501E0032047
:1046F0003861B069616D884200D26065FE484068EB
:10470000F8624043696908F041F97863616D0A46CF
:10471000FF3A2D3A904204D2226B5E2A01D2521CFB
:104720002263FF312D31884204D9206B002801D04B
:10473000401E20632020FFF7BFFD206BFDF709FC22
:10474000E6E5EE49C870704770B5EB4D0A21E86A9E
:1047500048436A2108F01AF97D210446C9004843FC
:104760000A2108F013F96A680146101B8722D2005B
:10477000504308F00BF90028E04A116F0B460F3345
:10478000984202D80F39884200D21067DC48116F76
:10479000C16170BDD94880797047D848C0787047EA
:1047A000FEB50027D648D64C4030C069803C002872
:1047B00004D1E068012801D10020E060FEF7CDF8C7
:1047C000D04D102601280ED0FFF7E7FF002817D0A4
:1047D0000020FDF7BEFBA868B043A86001210220BD
:1047E00005F087FDFEBD0020FDF7B3FBA868B043D0
:1047F000A8600121022005F07CFDFEF7B7F8FEBDA0
:10480000FFF7C8FF00282CD0A868B043A86001209B
:10481000FCF76AFBFCF723F9FCF71DFBBA48009094
:104820000323012230211020FCF700FA0023B7A255
:1048300003210220FCF71BFA0023B7A20421022067
:10484000FCF715FA0322B749002007F0D2FFAF208A
:10485000FCF746FB0120FFF774FF0020FCF783FB09
:10486000FEBDA548C168B048814231D2A349C86B9A
:10487000401CC863FF21F53188422CD9A868B04399
:10488000A8600120FCF730FBFCF7E9F8FCF7E3FA3D
:104890009D4800900323012230211020FCF7C6F927
:1048A00000239AA203210220FCF7E1F900239AA237
:1048B00004210220FCF7DBF903229C49002007F0C9
:1048C00098FFAF20FCF70CFB0120FFF73AFFFEBD7D
:1048D0008A490020C86388480021406A05F0D0F961
:1048E00055282DD9A868B043A8600120FCF7FCFA30
:1048F000FCF7B5F8FCF7AFFA8D48009004230222CC
:104900003A212220FCF792F900238AA202210820F2
:10491000FCF7ADF9002389A203210820FCF7A7F9D1
:1049200003228849002007F064FFAF20FCF7D8FA83
:104930000120FFF706FF84493D20FDF709FAFEBD7F
:10494000FDF70FF9002829D0A868B043A86001201E
:10495000FCF7CAFAFCF783F8FCF77DFA7B48009075
:104960000523022214210020FCF760F90023784A75
:1049700002211C20FCF77BF9002376A203211C20D6
:10498000FCF775F903227549002007F032FFAF20CC
:10499000FCF7A6FA0120FFF7D4FEFEBDE068584CF4
:1049A000002801D0022835D12169642932D2A868B3
:1049B000B043A8600120FCF797FAFCF750F80120FB
:1049C000FFF7EFFB0020A0612062FCF744FA644887
:1049D00000900223002230211020FCF727F95B48C9
:1049E00000900623032214210020FCF71FF9002366
:1049F0005CA203211820FCF73AF900235CA20421F1
:104A00001820FCF734F9AF20FCF76AFA0120FFF711
:104A100098FEFEBD012835D12069372832D2A8681A
:104A2000B043A8600120FCF75FFAFCF718F80120FA
:104A3000FFF7B7FB0020A0612062FCF70CFA4848A2
:104A400000900223002230211020FCF7EFF83F48AD
:104A500000900623032214210020FCF7E7F800232E
:104A600040A203211820FCF702F9002340A20421F0
:104A70001820FCF7FCF8AF20FCF732FA0120FFF712
:104A800060FEFEBD3C49206988427ED23B4A90428E
:104A90007BD9A868B043A8600120FCF725FAFBF792
:104AA000DEFF0120FFF77DFB0020A0612062FCF704
:104AB000D2F92B4800900223002230211020FCF76D
:104AC000B5F8224800900623032214210020FCF7A9
:104AD000ADF8002323A203211820FCF7C8F8002317
:104AE00027A204211820FCF7C2F8AF20FCF7F8F940
:104AF0000120FFF726FEFEBD28030020AC010020A8
:104B0000BC0B002080400050F6E100002020204C2B
:104B10004F572020200A000020424154544552594A
:104B2000200A00002FEC00008813000035EC000084
:104B30003AD00000544F4F0A00000000484F540A7A
:104B40000000000041EC0000307500003AE1000078
:104B5000682F000050554646530A00003EEC000006
:104B600076E100004F484D20544F4F0A00000000EE
:104B70004C4F570A000000000F270000B80B000040
:104B8000484947480A000000FFE788422ED3A8683A
:104B9000B043A8600120FCF7A7F9FBF760FF0120F4
:104BA000FFF7FFFA0020A0612062FCF754F9002310
:104BB000F7A203210820FCF75AF80023F7A20421EA
:104BC0000520FCF754F8F848009002230022302119
:104BD0001020FCF72BF8AF20FCF782F90120FFF73B
:104BE000B0FDFF209130FDF7E5FAFEBD1721383802
:104BF000C90188420BD2A069372808D2A868B043FF
:104C0000A8600120FFF7CDFA0020A061FEBDFFF7EC
:104C1000C1FD002835D1E5487D21C06849018842A1
:104C20002CD2E349086C401C0864FF21F53188420E
:104C300027D9A868B043A8600120FCF755F9FBF715
:104C40000EFFFCF708F9DB48009003230122302116
:104C50001020FBF7EBFF0023D7A204210220FCF772
:104C600006F80023D74A05210220FCF700F8AF2000
:104C7000FCF736F90120FFF764FDFEBDCC490020AA
:104C800008642220FDF768F8002832D0C8490020C7
:104C900048643320FDF760F8002871D0A868B0435D
:104CA000A8600120FCF720F9FBF7D9FEFCF7D3F848
:104CB000C54800900423012240212C20FBF7B6FFB9
:104CC0000023C2A202211846FBF7D1FF0023C1A294
:104CD00003211846FBF7CBFF0023C0A2042118468E
:104CE000FBF7C5FFAF20FCF7FBF80120FFF729FD1C
:104CF000FEBDE069029032283DD9A16901910521EC
:104D0000019807F043FE01994118029881422ED97B
:104D1000B548C0680128BCD1A549486C401C48640E
:104D2000FF21F5318842B4D9A868B043A8600120BA
:104D3000FCF7DAF8FBF793FEFCF78DF80523ABA23E
:104D400001210320FBF793FF03210523A94A08460D
:104D5000FBF78DFFAF20FCF7C3F80120FFF7F1FC54
:104D60000720FDF793FCA0490020C860FEBD9049D4
:104D7000002048648DE78E490020486489E7FFE7FA
:104D80002020FCF7E9FF002840D19748C16801299D
:104D90003CD0406B9849884238D9FBF770FA7F1CA9
:104DA000052FFAD38148E1214069C90088422DD2FC
:104DB000A868B043A8600120FCF796F8FBF74FFE07
:104DC000FCF749F88D480090022300223021102082
:104DD000FBF72CFF00238AA203210920FBF747FFE2
:104DE00000236EA204210520FBF741FF032287491F
:104DF000002007F0FEFCAF20FCF772F80120FFF75F
:104E0000A0FC83493320FCF7A3FFFEBD2120FCF763
:104E1000A3FF002832D1FFF797FCE06932282DD29A
:104E2000A868B043A8600120FCF75EF8FBF717FE06
:104E3000FCF711F871480090022300223021102065
:104E4000FBF7F4FE002373A203210920FBF70FFFF9
:104E5000002352A204210520FBF709FF03226B491E
:104E6000002007F0C6FCAF20FCF73AF80120FFF75E
:104E700068FC67493320FCF76BFFFEBDFFF722FAA1
:104E8000FDF774FDFEBD4A48C07A704710B5564A1A
:104E90006349803210693738884210D2FFF7F3FF38
:104EA00000280CD00020FFF77CF9116A10690B462E
:104EB0005033984204D8A03B984201D3916110BD71
:104EC00091690A461E32904202D81E398842F6D2B3
:104ED0000420FDF7DBFBFBF7BEFF3549012008731B
:104EE00010BD33488078704738B531480024017BC5
:104EF000002902D00473FBF7AEFF0120FBF7F4FF9B
:104F00000021052347A20846FBF7B1FE052347A26F
:104F100002210020FBF7ABFE052346A204210A2054
:104F2000FBF7A5FE052344A204212C20FBF79FFEDE
:104F3000424806230090042219460020FBF776FE23
:104F40003F4800900623042240213A20FBF76EFEE2
:104F5000FFF7C7FF3B4D002802D0012817D175E0AD
:104F600004F089FE002812D0002004F035F83648FD
:104F700000900623042240213A20FBF757FE2846E2
:104F8000FDF718F9FBF767FF0720FDF77FFB7DE0D2
:104F900020434845434B20200A00000041544F4D18
:104FA000495A45520A00000076E10000280300201B
:104FB000AC010020FAE000002020434845434B208C
:104FC000200A0000184B00003AE10000444F4E2731
:104FD000540A000041425553450A000050524F54B4
:104FE00045435453210A00003C0B002020574154F4
:104FF00054200A002C2F000060EA0000B6E10000F7
:105000002D53484F52542D200A00000032EC00006E
:10501000881300002053484F525420200A000000FB
:10502000810B00004953204E45570A00434F494C1D
:105030003F200A00590A00004E0A0000FCDB000075
:1050400008DC0000DC05000020DC000004F013FE9A
:1050500000281BD0002003F0BFFFFA4908698861CF
:10506000F94A904200D38C6188690862F7480623A8
:105070000090042219460020FBF7D8FD2846FDF7D2
:1050800099F8FBF7E8FE0720FDF700FBAF20FBF7E0
:1050900027FF0020FBF728FF38BDEA498039086068
:1050A0007047EB4988727047E948807A704710B5BD
:1050B0001324240304212046FDF7CAF8E1483E22C8
:1050C00021468038FDF782F810BDE14988707047AD
:1050D00010B58AB0DE48002444738473C47304742A
:1050E00044740120FBF700FFFBF7B5FED5484030C4
:1050F000416A1620FCF72CFED6490D20FCF728FE4D
:10510000002004F040F9002004F040F90020FFF7EF
:10511000C4FF0020FFF7D9FFFBF733FCFFF7C7FF01
:10512000AE20FBF7DDFE0720FDF7B0FAFFF7BCFF6E
:10513000002820D00020FFF7B4FF01206946087145
:105140004C71C5484169029101690391C16804919C
:10515000059481680691416807910068089008A944
:105160000C7101A9002006F001FC002803D001A960
:10517000002006F0FBFB0AB010BDF8B504460D4652
:1051800016461F463520FCF7E7FD64280BD90120A1
:10519000FBF7AAFEB14800903B463246294620461E
:1051A000FBF744FDF8BD0120FBF79EFEAC480090E4
:1051B0003B46324629462046FBF738FDF8BDF8B598
:1051C00004460D4616461F463620FCF7C5FD6428EA
:1051D0000BD90120FBF788FE9C4800903B463246E5
:1051E00029462046FBF722FDF8BD0120FBF77CFE97
:1051F0009C4800903B46324629462046FBF716FD68
:10520000F8BD38B503F0EBFE002809D003F0E7FE47
:1052100001282CD0FFF75CFFAF20FBF761FE38BD03
:1052200004F020FD0028F7D0002003F0D2FE01207A
:10523000FBF75AFEFBF70FFE8B4800900423002279
:1052400030211020FBF7F2FC002388A205210A2060
:10525000FBF70DFD002386A205210F20FBF707FDBC
:10526000002384A205211420FBF701FDD4E704F0FC
:10527000FCFC002833D0002003F0B4FE0120FBF733
:1052800033FE1924640121460720FCF761FD214605
:105290000820FCF75DFDFF242D34204603F096FE28
:1052A000204603F090FE04F0E3FC664C0025803CB1
:1052B000002803D104F0DFFC00280AD0002004F00D
:1052C0006BF8002003F088FE606A012814D00120EA
:1052D0006062606A002811D0012822D0656205232F
:1052E000032206210020FFF76AFF05230322402145
:1052F0003A20FFF742FF8FE76562EAE706230322C1
:105300003A211846FBF7BEFD05235AA201210720CA
:10531000FBF7ADFC052359A203210720FBF7A7FCEF
:10532000DDE7062303223A211846FBF7ABFD0523F0
:1053300050A201210720FBF79AFC052351A203216B
:105340000220FBF794FCCAE770B50C4611461A46DA
:10535000049B092814D00A2812D0632810D064288E
:105360000ED04A4DA8420BD06D1CA84208D0364D35
:10537000A84205D06D1CA84202D0454DA84202D1DA
:105380002046FBF77FFD70BDF8B504F071FC0026E8
:105390002F4D002809D0002003F0FEFF687C401C40
:1053A000C0B26874042800D96E7404F064FC2A4CFE
:1053B00000281AD0002003F00FFEFFF792FD00280E
:1053C00002D001287FD129E00120FFF76AFE687C26
:1053D000030007F066FB05040B11171D78002D492B
:1053E000206888426FD2401C20606CE060680C2806
:1053F00069D2401C606066E0A0681F2863D2401C30
:10540000A06060E0E06817285DD2401CE0605AE0D0
:1054100020693B2857D2401C206154E00120FFF74F
:1054200040FE687C030007F03CFB0504373D434920
:105430004E007D2120680901884244D9401E206029
:1054400041E00000BC0B00200F27000014DC00002E
:10545000AC010020442F0000340C002020DC0000B0
:1054600008DC0000FCDB00006AD60000360A000001
:105470002E0A0000504F5745520A0000204F464662
:10548000200A000020204F4E200A0000E703000001
:105490009F860100330800006068012813D9401E70
:1054A000606010E0A06801280DD9401EA0600AE0ED
:1054B000E068002807D0401EE06004E02069012871
:1054C00001D9401E206104F0D0FB00287ED00020CE
:1054D00003F088FD6661F74E0323012220211E2080
:1054E0000096FBF7A3FB0323012231212F20009616
:1054F000FBF79CFBF049206807F048FA7D27084637
:10550000FF00394607F042FAEC4E000180190122F3
:105510000090032309211046FBF788FB39462068D9
:1055200007F034FA0846642107F030FA00018019C8
:1055300000900323012210210820FBF777FB642150
:10554000206807F023FA08460A2107F01FFA000135
:10555000801900900323012217210F20FBF766FB1F
:105560000A21206807F012FA08018019009003232D
:1055700001221E211620FBF759FB6421606807F009
:1055800005FA08460A2107F001FA00018019009087
:105590000323012228212020FBF748FB0A21606811
:1055A00007F0F4F9080180190090032301222F214C
:1055B0002720FBF73BFB6421A06807F0E7F90846CA
:1055C0000A2107F0E3F90001801900E07EE0009075
:1055D0000323012239213120FBF728FB0A21A0688F
:1055E00007F0D4F90801801900900323012240211B
:1055F0003820FBF71BFB6421E06807F0C7F9084679
:105600000A2107F0C3F90001801900900523032245
:1056100015210D20FBF70AFB0A21E06807F0B6F917
:10562000080180190090052303221D211520FBF796
:10563000FDFAA34800900523032225211D20FBF736
:10564000F5FA6421206907F0A1F908460A2107F05C
:105650009DF9000180190090052303222D212520AA
:10566000FBF7E4FA0A21206907F090F90801801994
:1056700000900523032235212D20FBF7D7FA687C03
:10568000904D030007F00DFA0504234261802200CB
:105690006421206807F07AF908460A2107F076F9B4
:1056A0000001401900900323012217210F20FBF76E
:1056B000BDFA0A21206807F069F908014019009035
:1056C000032301221E211620FBF7B0FAF8BD642146
:1056D000606807F05BF908460A2107F057F90001F6
:1056E000401900900323012228212020FBF79EFA75
:1056F0000A21606807F04AF9080140190090032365
:1057000001222F212720FBF791FAF8BD6421A06820
:1057100007F03CF908460A2107F038F90001401962
:1057200000900323012239213120FBF77FFA0A215F
:10573000A06807F02BF9080140190090032301220B
:1057400040213820FBF772FAF8BD6421E06807F0C9
:105750001DF908460A2107F019F9000140190090C7
:105760000523032215210D20FBF760FA0A21E068CA
:1057700007F00CF9080140190090052303221D21B0
:105780001520FBF753FAF8BD6421206907F0FEF8F5
:1057900008460A2107F0FAF8000140190090052395
:1057A00003222D212520FBF741FA0A21206907F069
:1057B000EDF80801401900900523032235212D2022
:1057C000FBF734FAF8BDF0B58BB003F008FC002607
:1057D0003D4C002814D003F002FC012838D003F01F
:1057E000FEFB3A4F3A4D022863D003F0F8FB032842
:1057F0007CD0FFF76DFCAF20FBF772FB0BB0F0BD68
:1058000004F030FA002821D0002003F0E2FB012050
:10581000FBF76AFBFBF71FFB2E48009004230022D6
:1058200030211020FBF702FA00232BA205210320D0
:10583000FBF71DFA002329A205210820FBF717FA20
:10584000002327A205210D20FBF711FAA673D2E74A
:10585000FFF747FB002802D001284AD115E004F0E9
:1058600007FA002803D104F006FA002841D00020EE
:1058700003F092FD002003F0AFFBA07B052802D2CD
:10588000401CA07335E0A67333E004F0F1F9002862
:1058900003D104F0F0F900282BD0002003F07CFDA8
:1058A000002003F099FBA07B002820D0401EA073AD
:1058B0001FE0F8E0DFDB0000102700006FD80000D9
:1058C000ECDB00000FD90000AC01002003E6000073
:1058D000FC0B00206AD30000350A00002E0A0000ED
:1058E00053455454494E470A00000000E4E30520A4
:1058F000A07304F0BAF90028A9D0002003F072FBCD
:105900000120FBF7F1FAFBF7A6FA19256D012946EC
:105910000720FCF71DFA29460820FCF719FAFF2595
:105920002D35284603F052FB284603F04CFBA07BA4
:10593000030007F0B6F80605203B56829D045AE79F
:10594000FC4800900423002230211020FBF76EF960
:105950000023F9A205211846FBF789F90521002348
:10596000F6A20846FBF783F90023F5A205210A20D9
:10597000FBF77DF93FE7F548009004230022302132
:105980001020FBF753F90023F1A205211846FBF77D
:105990006EF905210023E9A20846FBF768F9002308
:1059A000ECA205210A20FBF762F924E7EC480090FD
:1059B0000423002230211020FBF738F90023E9A24C
:1059C00005210420FBF753F90023DCA2052109205F
:1059D000FBF74DF90023E4A205210E20FBF747F960
:1059E00009E7E44800900423002230211020FBF74F
:1059F0001DF90023E0A205210E20FBF738F9002352
:105A0000CEA205211320FBF732F90023CDA20521F8
:105A10001820FBF72CF902A9002005F0B2FED748A8
:105A20000999016008994160079981600599C160F1
:105A30000499016103994161DDE6D1480090042396
:105A4000002230211020FBF7F1F80023CDA2052120
:105A50000420FBF70CF90023B8A205210920FBF76D
:105A600006F90023C8A205210E20FBF700F9C2E6C3
:105A7000C84800900423002230211020FBF7D6F8FC
:105A80000023C5A205211846FBF7F1F805210023E4
:105A9000AAA20846FBF7EBF80023C0A205210A20C2
:105AA000FBF7E5F8A7E6C048B44C807B783C0300E0
:105AB00006F0F7FF060565FDFCFBFA049BE604F023
:105AC000D7F8002803D104F0D6F8002809D0002028
:105AD00003F062FC002003F07FFAA86A00282FD0B0
