:020000040000FA
:10000000F80E0020D5000000DD000000DF00000039
:1000100000000000000000000000000000000000E0
:10002000000000000000000000000000E1000000EF
:100030000000000000000000E3000000E5000000F8
:10004000A9A1000063C600001DA600002FA60000A5
:10005000D9A50000FBA50000CDAE0000B5AF0000A3
:1000600067C00000BFC0000019C1000073C10000DC
:100070008DC70000ADC70000E7000000E7000000EA
:10008000E7000000E7000000E7000000E7000000D4
:10009000E70000000000000000000000E700000092
:1000A000E7000000E7000000E7000000E7000000B4
:1000B00029A3000003AE00000000000021B90000E9
:1000C000034885460CF09CFE00480047311C0000A8
:1000D000F80E00200448804704480047FEE7FEE78A
:1000E000FEE7FEE7FEE7FEE75D010000C10000005D
:1000F00070B51B4D28694007400F052800D9042022
:10010000022803D017498000085817E0286A000425
:10011000840F012C00D9641E286A000301D51248FF
:1001200000E01248296AC905C90D891C4843296A9B
:100130008904C90E891C0CF015FEE040A969090765
:10014000090F491C0CF00EFE064C083C20600849C3
:100150004A1080180CF006FE606070BD7047000009
:10016000000200500800002000805101001BB70071
:1001700040420F00FFB581B005460E461746164CAB
:100180000120A840C0B20AF016FE01200AF026FEA7
:1001900000200AF017FE0AF060FE01E0641E15D38D
:1001A0000AF067FE0028F9D0E8B20AF06AFE049966
:1001B00088420ED90A99002906D031683A68891A0E
:1001C000081830600009386005B0F0BD0020C04359
:1001D000FAE70020C043F7E7F401000038B56B4CA4
:1001E00059202060162020608820206017200AF007
:1001F00013FB18200AF010FB19200AF00DFB1B203E
:100200000AF00AFB1C200AF007FB1D200AF004FB81
:100210001020002200900223012110460AF068FD00
:100220000020206038BD38B50120594A00900023D5
:10023000111F0520FFF79EFF411C08D0554C206080
:10024000554948437D21C9000CF08CFD606038BDE4
:1002500038B54F4A0120083200900023111F0620B4
:10026000FFF788FF411C09D04A4CA0604A492C3155
:1002700048437D21C9000CF075FDE06038BD38B5FC
:10028000434A0120103200900023111F0420FFF781
:1002900071FF411C09D03F4C20613F492C3148433C
:1002A0007D21C9000CF05EFD606138BD38B5384A6B
:1002B0000120183200900023111F0220FFF75AFF7F
:1002C000411C09D0334CA06133492C3148437D2176
:1002D000C9000CF047FDE06138BD38B52C4A01205B
:1002E000002320320090111F1846FFF743FF411CE6
:1002F00008D0284C2062294948437D21C9000CF0D0
:1003000031FD606238BD38B5214A01202832002312
:10031000111F0090FFF72EFF411C08D01D4CA0625A
:100320001E4948437D21C9000CF01CFDE06238BD28
:1003300070B5174C083C2078411C2170002806D06D
:10034000012807D00025022807D0257070BDFFF7CF
:100350006AFF70BDFFF793FF70BDFFF7D4FF2570F4
:1003600070BD70B50A4C083C6078411C6170002873
:1003700004D00025012804D0657070BDFFF768FF28
:1003800070BDFFF7AAFF657070BD0000000100504E
:10039000280000202C0300204C0900002503000049
:1003A000FB48C0687047FA4880687047F848406862
:1003B0007047F749C8607047F54988607047F4494D
:1003C0004860704770B50446F14D226800212869E5
:1003D00013000CF052FD08F205333D95F1F0EF32B9
:1003E000242001F0DDFC002827D12420616801F0E1
:1003F000D3FC0CF0CDFCFC210CF0B4FC084603212E
:100400000CF0B0FC29788142F3D02870E04A143215
:1004100041004318D05C64214843000AFFF7CFFF36
:100420009A18507864214843000AFFF7C5FF907876
:1004300064214843000AFFF7BCFFF1E16069FFF760
:10044000BEFFA069FFF7B8FFE069FFF7B2FFE7E181
:1004500000280AD001281DD0022836D0E0680128E3
:10046000EBD9401EE0602961DAE10020FFF7A7FF29
:100470000020FFF7A1FF0020FFF79BFF2420616809
:1004800001F08AFC2520A16801F086FC2869401C47
:100490002861C5E1242001F083FC002809D06069AF
:1004A000FFF78DFFA069FFF787FFE069FFF781FF86
:1004B000B6E12420616801F06FFC2520A16801F0FD
:1004C0006BFC2869401C2861AAE1252001F068FC2A
:1004D000002809D00020FFF772FF0020FFF76CFF13
:1004E0000020FFF766FF9BE12420616801F054FCC7
:1004F0002520A16801F050FC2869401C28618FE18B
:1005000003000CF0BAFC0504112B456370000020B9
:10051000FFF755FF0020FFF74FFF0020FFF749FFCF
:100520002869401C28617BE1242001F039FC002867
:100530000CD00020FFF743FF0020FFF73DFF002015
:10054000FFF737FF6320FFF73AFF69E12420616876
:1005500001F022FC2869401C286161E1242001F09F
:100560001FFC00280CD00020FFF729FF0020FFF718
:1005700023FF0020FFF71DFF6320FFF71DFF4FE162
:100580002420616801F008FC2869401C286147E1CB
:10059000242001F005FC002810D00020FFF70FFFF9
:1005A0000020FFF709FF0020FFF703FF6320FFF79C
:1005B00000FF35E150E01DE080E026E12420616885
:1005C00001F0EAFB2869401C286129E10020FFF7BF
:1005D000F6FE0020FFF7F0FE0020FFF7EAFE286994
:1005E000401C28611CE1E068012888D9401EE060B9
:1005F000296115E1002806D0E068012893D9401E42
:10060000E06029610CE1242001F0CAFB00288AD1B6
:10061000206963281CD22420616801F0BDFB256994
:100620006D1C25616069642168430CF09BFBFFF73A
:10063000C6FEA069642168430CF094FBFFF7BCFE82
:10064000E069642168430CF08DFBFFF7B2FEE7E040
:100650002869401C2861E3E0002806D0E0680128F2
:100660008DD9401EE0602961DAE0242001F098FB7A
:10067000002884D1206900281CD02420616801F062
:100680008BFB25696D1E25616069642168430CF050
:1006900069FBFFF794FEA069642168430CF062FBDC
:1006A000FFF78AFEE069642168430CF05BFBFFF70B
:1006B00080FEB5E02869401C2861B1E06322030098
:1006C0000CF0DBFB06042038516B849C2069632806
:1006D00014D2242001F064FB00280ED1242061688C
:1006E00001F05AFB2069401C2061FFF768FE0020E2
:1006F000FFF762FE6320FFF75CFE91E022610120BC
:1007000028618DE02069002811D0242001F048FBE9
:1007100000280BD12420616801F03EFB6320FFF725
:100720004EFE2069401E2061FFF743FE78E0022064
:10073000286175E02069632811D2242001F030FB84
:1007400000286DD12420616801F026FB6320FFF7AB
:1007500036FE2069401C2061FFF72EFE60E022611A
:10076000032028615CE02069002813D0242001F0D8
:1007700017FB002854D12420616801F00DFB20698B
:10078000401E2061FFF71BFE6320FFF715FE47E0C8
:10079000540000200420286142E02069632811D21F
:1007A000242001F0FDFA00283AD12420616801F0EC
:1007B000F3FA6320FFF700FE2069401C2061FFF779
:1007C000F8FD2DE022610520286129E0206900283C
:1007D00011D0242001F0E4FA002821D124206168FE
:1007E00001F0DAFA2069401E2061FFF7E5FD632081
:1007F000FFF7DFFD14E00620286111E0E068012822
:100800000ED9401EE06029610AE0216129610020C3
:10081000FFF7D5FD0020FFF7CFFD0020FFF7C9FD52
:1008200002F017F9012809D0002001F0F6FB0020A2
:1008300001F02CFC002001F061FC70BDFFF7B6FD5B
:1008400001F0EBFBFFF7AFFD01F020FCFFF7A8FD87
:1008500001F054FC70BD014908617047540000204C
:1008600010B5002001F0D9FB002001F00FFC0020A2
:1008700001F044FC10BD10B5874C04222260616079
:10088000A160E06063206061A061E061242001F06C
:1008900083FA2520A16801F07FFA0020FFF7DBFF33
:1008A0002046FFF78FFD10BD10B57B4905220A6079
:1008B000486088607948C8600021242001F06CFA03
:1008C0000021252001F068FA0020FFF7C4FF7248DC
:1008D000FFF778FD10BD10B56F4901220A6048602E
:1008E00088606E48C8600021242001F055FA00217C
:1008F000252001F051FA0020FFF7ADFF6648FFF711
:1009000061FD10BD70B5644C062525606360A36071
:100910000125E56064256843000A60616420414365
:10092000080AA06164204243100AE06119462420AD
:1009300001F032FA2520A16801F02EFA0020FFF71D
:100940008AFF2046FFF73EFD70BD002806D05449BF
:10095000012810D0022813D1C868A5E750484038B4
:10096000C16B4A008B18816B5B1CCAB2416B006B78
:10097000C9B2C0B2C6E788687821401C4843AAE7DC
:10098000704710B5444C002020606061A061E061B8
:100990002420616801F000FA2520A16801F0FCF92B
:1009A0000020FFF758FF2046FFF70CFD10BD70B583
:1009B0000D46394C0721216059086160A16001236F
:1009C000E36064235843000A606164204543280AB9
:1009D000A06164204243100AE061242001F0DCF9A8
:1009E0002520A16801F0D8F90020FFF734FF204648
:1009F000FFF7E8FC70BD002804D0012801D00228D0
:100A00000BD1BEE726484038816BC36BCAB2416B3D
:100A1000006BDB1CC9B2C0B2C9E7704710B51E4CF1
:100A2000022323600123E36064235843000A6061CA
:100A300064204143080AA06164204243100AE06137
:100A40002420616801F0A8F92520A16801F0A4F92B
:100A50000020FFF700FF2046FFF7B4FC10BD10B5E3
:100A60000D4C03202060FA216160A1600F20E0603E
:100A7000632060610020A061E061242001F08CF916
:100A80002520A16801F088F90020FFF7E4FE204648
:100A9000FFF798FC10BD00005C0300201027000049
:100AA000000C002070B5054600240821002009F044
:100AB0000CFE280604D50B21002009F0EBFD03E015
:100AC0000B21002009F001FE0A21002009F0E2FDBF
:100AD000012001F08BFB0A21002009F0F6FD012026
:100AE00001F084FB6806050E641C082CE1D3082184
:100AF000002009F0CFFD70BD10B50446042101208F
:100B000009F0E3FDE0B2FFF7CDFF10BD10B50446DC
:100B10000421012009F0BEFDE0B2FFF7C3FF10BDC4
:100B200010B50C46B030FFF7E7FF20091230FFF791
:100B3000E3FF2007000FFFF7DFFF10BDF7B50E46FC
:100B4000002500F0D9F9002801D0771C10E0022020
:100B5000FEBD30460099FFF7E3FF002428460299C6
:100B60006D1C085CFFF7D2FF641C052CF6D3761CC5
:100B7000BE42EED30020FEBDF7B50E46002500F0C4
:100B8000BBF9002801D0B71C10E00220FEBD3046A2
:100B90000099FFF7C5FF0024284602996D1C085CE8
:100BA000FFF7B4FF641C052CF6D3761CBE42EED3CF
:100BB0000020FEBDF7B50E46002500F09DF9002887
:100BC00001D0B71C10E00220FEBD30460099FFF7AF
:100BD000A7FF0024284602996D1C085CFFF796FFCA
:100BE000641C0A2CF6D3761CBE42EED30020FEBD58
:100BF000F7B50E46002500F07FF9002801D0F71C5C
:100C000010E00220FEBD30460099FFF789FF002466
:100C1000284602996D1C085CFFF778FF641C0E2CB7
:100C2000F6D3761CBE42EED30020FEBDFFB581B0E8
:100C30000F461646002500F05FF9002812D1022069
:100C400005B0F0BD30460199FFF76AFF019C06E050
:100C500028460A996D1C085CFFF758FF641CBC42CB
:100C6000F6D3761C04988642ECD30020E8E7FFB563
:100C700081B00646174600240091002500F03CF99B
:100C8000002807D00498002813D0012822D0052876
:100C900034D130E00220D3E7385D2038810041189C
:100CA00017480A1830460099FFF748FFF61D6D1CDB
:100CB000641C785D0A28EFD120E0385D0A212038D5
:100CC00048431049421830460099FFF755FFF61D7A
:100CD0006D1C641C785D0A28EFD10FE0385D14218B
:100CE000203848430849421830460099FFF762FF10
:100CF0000A366D1C641C785D0A28EFD100209FE73E
:100D000076E700009DE80000EBEA000010B500283F
:100D10000ED001280BD1A120FFF7EEFEA820FFF78F
:100D2000EBFE2F20FFF7E8FEC820FFF7E5FE10BD21
:100D3000A020FFF7E1FEA820FFF7DEFE2F20FFF73F
:100D4000DBFEC020FFF7D8FE10BD10B5AE20FFF7C8
:100D5000D3FE0020FFF7D0FE1020FFF7CDFE40208D
:100D6000FFF7CAFEB020FFF7C7FE8120FFF7C4FEE1
:100D70008020FFF7C1FEA020FFF7BEFEA620FFF7F0
:100D8000BBFEA820FFF7B8FE2F20FFF7B5FEC0205E
:100D9000FFF7B2FED320FFF7AFFE0020FFF7ACFE57
:100DA000D520FFF7A9FE8020FFF7A6FED920FFF788
:100DB000A3FE2220FFF7A0FEDA20FFF79DFE1220FF
:100DC000FFF79AFEDB20FFF797FE3020FFF794FE37
:100DD0008D20FFF791FE9520FFF78EFEAF20FFF7E5
:100DE0008BFE10BD10B503242402204601F0FEF94D
:100DF0000521012009F069FC204601F0F7F90521E1
:100E0000012009F047FC204601F0F0F910BD10B5B3
:100E100001220521104609F013FC01220A210020BD
:100E200009F00EFC01220B21002009F009FC01222F
:100E30000821002009F004FC01220421104609F0D9
:100E4000FFFBFFF7CFFFFFF780FF2D4881690129E6
:100E500001D9002181618069C0B2FFF757FF10BD41
:100E600070B500252846B030FFF746FE1220FFF788
:100E700043FE0020FFF740FE00240020FFF746FE5F
:100E8000641C402CF9D36D1C062DEBD370BDFFB54F
:100E900081B007460E4615460CE039462846FFF756
:100EA0003FFE3C4603E00020FFF730FE641CB442E6
:100EB000F9D36D1C04988542EFD305B0F0BD10B591
:100EC000044608F0E2F9604364210BF04BFFC4B222
:100ED000642C00D964241E2C00D21E248120FFF72C
:100EE0000BFE2046FFF708FE10BD10B5FFF704FE0D
:100EF00010BD044908707047024800787047000030
:100F0000400B0020640100203EB5134C59202060A6
:100F100016202060882020602A2009F07DFC0F48E0
:100F2000009003206946087100254D718D71CD71C7
:100F300000200BF0A1FC0A4A012100200BF0A4FDC7
:100F400003220021022009F07BFB0021022009F08E
:100F5000A1FB25603EBD00000001005000C2010061
:100F6000650F000010B51422FB4900200BF0F7FDBF
:100F700010BDFA4908707047F84908717047F74882
:100F80000078704710B5FFF7FAFF002805D0012858
:100F90000ED00020FFF7EDFF10BD0021022009F068
:100FA00079FB0020FFF7E8FFED490020486010BD05
:100FB0000021022009F089FB10BDE84988707047C4
:100FC000F8B50024E74EE54F3546FF35F1354D20A5
:100FD0006102800209188022E24801F03CF9FE60BB
:100FE000F868C17B962907D0A84207D3FE60641C2D
:100FF0005A2CECD30020F8BD0120F8BD1030F86069
:10100000EEE7F0B58FB000200222D74BD24919602D
:101010000E91097800297ED00B020E99CE4C4978AA
:10102000E5780B43A1780D952D020D430C957D2598
:10103000ED004D430B95257B0A952579C84CCB4F88
:1010400080340994DE1B4034BB427ED027DCC84F7D
:10105000C14DDE1B2D7ABB4278D014DCC54A981AEC
:10106000934274D008DCC448181871D0C34A801861
:1010700025D001282AD12AE005286AD0062869D07F
:101080000728F7D14AE1B44BB61F9C7B33000BF025
:10109000F4FE09F61D1D1DF5F4F3F2F11D00F61F17
:1010A00033000BF0EAFE16FAF9F8F7F6F5F4F3F26E
:1010B000F1131313131313F0EF1313EEED13FF29B2
:1010C000D8D10322AE4900200BF07FFD4CE2FF2D6A
:1010D000FCD1A2480025457185710120FFF74CFF26
:1010E000A1489E4E0368303698783070D978717078
:1010F0008C461979B1708E465979F1709A793271AE
:10110000DB79737101266F463E707D700193029208
:101110000391049500E02BE271460591614606912A
:1011200098494018079008AF3D70694600200AF0C2
:1011300009FE002804D00322934900200BF045FD4E
:101140009248E1690170216A05E07BE1E8E069E02D
:1011500005E26FE0DBE04170616A81708C4FAB218A
:101160003868017013214170FF2181730C22874977
:1011700088480BF01FFE87490F22891E00200BF0C4
:1011800024FD032001F03AF809986421406A0BF02D
:10119000E9FD7E4E0C3E30707F480021406A08F029
:1011A0005BFF70702068B0700998006BF070099850
:1011B000406B30710998806B707109987749C06AEB
:1011C0000BF0D0FDB0717D21C900A06A0BF0CAFD03
:1011D000F0717D21C900A0690BF0C4FD3072A02020
:1011E0007072C820B072F5723968AB200870FFF7D2
:1011F000E7FE002803D039680C20487002E0386808
:101200000B2141703968FF20887360490C220C392A
:1012100060480BF0CFFD5F490F22891E00200BF0C4
:10122000D4FCA1E1FF29FCD10998C16A192000F082
:10123000B3FD99E14848C079FF28F2D1484901201F
:101240004860C860484D0C9808F026F82868427934
:101250000179120211430A225143099A80791060E0
:1012600000283FD0012819D04D4A022824D0032855
:1012700038D12CE0E4E0DDE0D3E0C0E09CE060E0C9
:1012800066E15EE156E14EE145E13DE135E12DE10A
:101290001CE113E10CE105E102E1EAE061637D227A
:1012A00092014048914200D960637D22616B5201F6
:1012B000914217D2606315E0A1633B4B3B489942D2
:1012C00000D9A063A16B91420CD2A0630AE0E16354
:1012D0002C48814200D9E263FF21E06BF53188425E
:1012E00000D2E26303F073FFFFF7BAFD0021112083
:1012F00000F052FD0021122000F04EFD00211320CD
:1013000000F04AFD0021142000F046FD2CE10D986C
:10131000FF2886D1216003F05AFF25E1FF2923E150
:101320000D98FF2885D10B98A061214A2149904250
:1013300000D9A161A069884200D2A16103F047FFF2
:1013400012E10D98FF28E1D1144841430998C16288
:1013500003F03DFF08E100007C0300207001002045
:10136000400B0020A40300206801002019AA0000FF
:101370000AAA000002AA0000FF77FFFF01DEFFFFBC
:101380002FF10000D00700002CF10000C007002062
:101390006C010020920300202C03002060EA000072
:1013A000DC050000701700007C150000AC0D00008B
:1013B000400D030000710200FF2C1FD1FD490123E5
:1013C0004B600023CB60FC4B11460E9C521C615CB1
:1013D0001954401C0C28F7D3FFF742FD00211120BF
:1013E00000F0DAFC0021122000F0D6FC00211320CE
:1013F00000F0D2FC0021142000F0CEFCB4E0FF2C61
:101400000ED1EC4901234B600023CB60EA4B0C3337
:1014100011460E9C521C615C1954401C0C28F7D3D9
:10142000A2E0FF2D05D1E549012048718871FFF741
:10143000C4FD99E0FF2D02D1E0490120887193E0BD
:10144000FF2D91E00A9AFF2A12D1DA4B01229A600D
:10145000D94A0A3A11700D995170052195700B46C1
:101460000E9C491CE35C1418E370401C0728F6D35B
:101470007AE00A9AFF2A77D1CE4B01229A60CE4AAF
:10148000143A11700D995170052195700B460E9C00
:10149000491CE35C1418E370401C0728F6D363E092
:1014A000FF2961E0FF2D5FD10C9805F068F85BE043
:1014B000FF2959D10020FFF75FFD55E00D98FF2867
:1014C00052D10B98A06203F082FE4DE0BC484079F7
:1014D000FF2849D10998016309990D984863099833
:1014E00085630020606003F072FE3DE00D98FF28E8
:1014F0003AD1616003F06BFE36E0FF2934D1012060
:10150000E06103F064FE2FE0FF292DD10020E061AF
:1015100003F05DFE28E00D98FF2825D1A548016164
:1015200003F055FE20E0FF291ED10120206203F0C8
:101530004EFE19E0FF2917D10020206203F047FE7C
:1015400012E0FF2910D10120606203F040FE0BE0A1
:10155000FF2909D10020606203F039FE04E0FF2971
:1015600002D10020FFF708FD142195480BF03BFC49
:1015700000200FB0F0BD914880787047F8B501F0B9
:101580008FF905284DD0FFF7F6FF4D25AD028D4EA2
:101590008A4C002810D00020FFF70FFD864801215B
:1015A000490218300BF01FFCA0698022400241194B
:1015B000304600F050FE26616079002861D0A079A5
:1015C0000027002853D0A7717F491A2000F0E4FBC0
:1015D00000F0F6FD2169C87B962825D076484C3866
:1015E000814241D32661606900280CD0A0690421A2
:1015F0004002401900F050FEA069802240024119CB
:10160000704800F007FEA069401CA0615A2822D350
:10161000A761677103226D4900200BF0D6FA002004
:10162000F8BD0020C043F8BD2069C7730120606188
:101630006748AB220068027008224270FF224274A1
:101640000F2264480BF0B6FB62491222891E00206B
:101650000BF0BBFA15E0400241198022594800F016
:10166000FAFD26616761B3E710312161B0E71A2006
:1016700000F096FB002804D16771032256490BF055
:10168000A4FA0020F8BD4D48407970474B480079D6
:101690007047F0B589B0074601F0D7F90024E4435C
:1016A000012806D003F008F9002804D0204609B02C
:1016B000F0BD2046FBE7FFF7E9FF002803D0FFF766
:1016C000E2FF002845D03B4E3C4C3046F16880306C
:1016D000012940D081690A0AA16A0A7082694A70A8
:1016E000F16AA56A090AA970F16AE970406A642181
:1016F0000BF038FB28710E2000F052FB37497D2596
:10170000081AED0029460BF02DFBA16A48713448F8
:101710000021406A08F0A0FCA16A88716946002097
:101720000AF01BFA0798D021411AA06AC1710699E4
:10173000017205994172039981720299C1720199EE
:1017400001739621C173F06F00280BD0012821D0BE
:1017500029E02046ABE7C1690A0AA16A0A70C2699A
:101760004A70BDE701F06EF9E121C90048432946FE
:101770000BF0F8FAA16A2030487301F063F9E12117
:10178000C900484329460BF0EDFA2030A16A000A4F
:10179000887308E001F056F9A16A487301F052F924
:1017A000A16A000A88734D25AD02002F1AD0012FBF
:1017B0004DD13FE0400B0020E007002070010020E9
:1017C0007C030020A4050020983A000020F10000CE
:1017D0006C0100209203002023F10000A82F0000DC
:1017E0002C0300201022A16AA0680BF0E3FAEF4955
:1017F000A06888421BD3EE48A060E06A0421400242
:10180000401900F049FDE06A802240024119E84891
:1018100000F000FD01214902E5480BF0E4FAE06A1E
:10182000401CE0625A2812D30020E0620FE0103022
:10183000A0600CE0E06A04214002401900F02CFD99
:10184000E06A802240024119D94800F0E3FC002000
:101850002DE7F0B589B001F0F8F80024E443012841
:1018600005D003F029F8002803D020461FE72046C2
:101870001DE701F015F8CF4C052803D0CE482062B3
:10188000002014E70E2000F08BFACC4F7D21381A8F
:10189000C9000BF067FA6062216A8142F0D02062D1
:1018A000C74D2846E968803001291CD081690A0AA1
:1018B000E1690A7082694A70E96AE669090AB170E9
:1018C000E96AF170406A64210BF04CFA30710E2025
:1018D00000F066FA7D26381AF600B0420AD2E169B5
:1018E000002048710FE0C1690A0AE1690A70C26903
:1018F0004A70E1E70E2000F053FA381A31460BF037
:1019000031FAE1694871AF480021406A08F0A4FB50
:10191000E1698871694600200AF01FF90798D02113
:10192000411AE069C17106990172059941720399E2
:1019300081720299C172019901730021C173E86F2C
:10194000002802D0012818D020E001F07BF8E12126
:10195000C900484331460BF005FAE169203048736D
:1019600001F070F8E121C900484331460BF0FAF963
:101970002030E169000A887308E001F063F8E1694A
:10198000487301F05FF8E169000A88738E48AB2163
:101990000068017001214170FF21417484490F22C8
:1019A00054398A480BF006FA88491222891E002011
:1019B0000BF00BF9606A002800D161E70020FFF707
:1019C00068FE5DE77B494870704770B5062804D90A
:1019D0000120FFF7F7FF002070BD7549744A2C39CC
:1019E0000D18E978223A09021418E07801430BD067
:1019F00000F059FFE978E27809021143884208D3E0
:101A00000120FFF7DFFF07E00020FFF7DBFF0020EA
:101A100070BD0020FFF7D6FF002070BD6849C031BF
:101A2000086370476648C030006BC0B27047F0B5BD
:101A300089B0694600200AF090F80698C6B2059869
:101A4000C4B2FFF7EFFF00275D4DA04206D020464D
:101A5000FFF7E4FF2F62002004F091FDA868002842
:101A600004D0012816D0AF60002020E6E8690028E5
:101A70000CD000F018FFE969884203D30120FFF77A
:101A8000A1FFF1E70020FFF79DFFEDE70020FFF742
:101A900099FFE9E7464D2C3D6978B14205D1A87818
:101AA000201AC0B2FFF791FFDEE71F201E220B00B5
:101AB0000BF0E3F90D08091030373E454C535A61DD
:101AC000686F0800D0E7A978401A0019C0B2FFF784
:101AD0007CFFC9E72E78B00705D1642130460BF0B2
:101AE00041F900290ED1FF21913130460BF03AF92E
:101AF000002907D0A8781C21081A0019C0B2FFF7E6
:101B000064FFB1E7A8781D21081A0019C0B2FFF7D9
:101B10005CFFA9E7A978401A0019C0B2FFF755FF8A
:101B2000A2E7A878101A0019C0B2FFF74EFF9BE792
:101B3000A978401A0019C0B2FFF747FF94E7A878C8
:101B4000101A0019C0B2FFF740FF8DE7A978401ABC
:101B50000019C0B2FFF739FF86E7A978401A0019CB
:101B6000C0B2FFF732FF7FE7A878101A0019C0B2A1
:101B7000FFF72BFF78E7A978401A0019C0B2FFF7EA
:101B800024FF71E7A878101A0019C0B2FFF71DFFF3
:101B90006AE7A978401A0019C0B2FFF716FF63E799
:101BA000002070470348407870470000E809002093
:101BB000F807002070010020FF0F0000A82F000090
:101BC000400B00202C0300206C0100209203002019
:101BD00010B556490878C043C0B20870002804D038
:101BE0000821012008F056FD10BD0821012008F051
:101BF0006CFD10BD10B500F0F1F8FEF731FE00F0FD
:101C00009DF8FFF704F907F062FB00F045F900F0DA
:101C100071F9FFF779F9FFF7C3FF00F093F900F0CE
:101C2000D3F900F00AFA00F041FAFEF7D7FA10BD36
:101C3000FFF7E0FF00F04DFB00F062FB06F05DFFF8
:101C400000F070FA06F09BFF08F048FA00F097FAEF
:101C50000020FFF78EF93649102000F09DF8FF2193
:101C60002D310120FEF707FE022000F099F8002830
:101C700005D10121022000F08FF8FEF772FB012050
:101C800000F08EF800280AD11421012000F084F819
:101C900007F071FD00F094FA26480121C16100208F
:101CA00000F07EF8002804D1022100F075F807F05A
:101CB00006F81B2000F074F8002805D132211B2003
:101CC00000F06AF8FFF79DF91D2000F069F8002880
:101CD00005D132211D2000F05FF8FFF7BAFD1C206E
:101CE00000F05EF8002805D132211C2000F054F8E5
:101CF000FFF744FC042000F053F8002806D17D21B2
:101D0000C900042000F048F8FFF791FE232000F0FE
:101D100047F8002806D10521232000F03DF80648A9
:101D2000FEF750FBFFF754FF9EE70000A6010020DE
:101D3000DC050000000C00205C03002010B50A4CFC
:101D4000592020601620206088202060012100207A
:101D500008F0BEFA054808F0EEFB054808F0ADFBB8
:101D60000020206010BD000000010050881300001A
:101D700080F0FA0210B517490878C043C0B2087065
:101D8000002804D00921002008F084FC10BD09219E
:101D9000002008F09AFC10BD0F4A800011507047D7
:101DA0000D4980000858704700210A4A5078401CAD
:101DB000C0B250700A280CD3002050700648026848
:101DC000002A01D0521E0260001D491C4529F6D38D
:101DD000D0E77047A7010020080A002010B5284C62
:101DE00059202060162020608820206001220421D4
:101DF000022008F025FC234881681022914381606D
:101E000001221146022008F01BFC0121022008F0EB
:101E10005CFC01220321022008F012FC03210220B5
:101E200008F053FC01220221104608F009FC0221AF
:101E3000012008F04AFC01220721022008F000FCE2
:101E40000721022008F041FC02210122084608F087
:101E5000F7FB0221084608F038FC03220921002084
:101E600008F0EEFB03220821012008F0E9FB032221
:101E70000821012008F0E4FB0020206010BD0000D4
:101E8000000100508040005010B5FFF78DFF13484F
:101E90000168491C016010BD10B5114C592020602B
:101EA00016202060882020600AF090F90721022087
:101EB00008F09AF901220B4900200AF08EF901235B
:101EC000094A022100200AF0FEFA00200AF08DFBE8
:101ED00000200AF0AFFB0020206010BD1C00002095
:101EE00000010050204E0000891E000010B5FEF7D2
:101EF0001FFA10BD10B5104C59202060162020602C
:101F0000882020600AF062F90721042008F06CF9AB
:101F100001220A4902200AF060F902210123084A3D
:101F200008460AF0D0FA02200AF05FFB02200AF00D
:101F300081FB0020206010BD00010050204E0000F9
:101F4000ED1E00007FB51E4C592020601620206039
:101F50008820206009F0A2F8342008F05DFC0221FE
:101F6000002009F0AAFC01206A461070642151701B
:101F700000259570D570134901910295039069462B
:101F8000002009F060F90121002009F050FC012136
:101F9000002009F0B1F825607FBD1FB55C2800D98D
:101FA0005C2001216A4611706422101A6A46507042
:101FB0000448019003916946002009F044F91FBDCF
:101FC00000010050400D03007FB5544C59202060A3
:101FD0001620206088202060362008F01DFC022199
:101FE000084609F06AFC01206A46107064215170AD
:101FF00000259570D5704A49019102950390694674
:10200000022009F020F90121022009F010FC012131
:10201000022009F071F825607FBD1FB501216A46D5
:1020200011706422101A6A4650703D480190039165
:102030006946022009F007F91FBD7FB5374C5920CA
:1020400020601620206088202060372008F0E4FB04
:102050000221032009F031FC01206A46107064213E
:10206000517000259570D5702D490191029503900E
:102070006946032009F0E7F80121032009F0D7FBA6
:102080000121032009F038F825607FBD1FB501212B
:102090006A4611706422101A6A46507020480190F6
:1020A00003916946032009F0CEF81FBD7FB51B4C94
:1020B000592020601620206088202060352008F0FC
:1020C000ABFB0221012009F0F8FB01206A461070E9
:1020D0006421517000259570D570114901910295C8
:1020E0000390694609F0AFF80121084609F09FFB0B
:1020F0000121084609F000F825607FBD1FB50121C8
:102100006A4611706422101A6A46507004480190A1
:1021100003916946012009F096F81FBD00010050A7
:10212000D007000010B58AB00B4C59202060162053
:1021300020608820206009F02AFC01A809F04EFCEC
:10214000002009F00CFF0548016B08229143016350
:10215000002020600AB010BD000100500080004047
:102160001F485921016016210160882101601D4925
:102170000A6808231A430A6000210160704710B5FD
:10218000174C5920206016202060882020600221F2
:10219000002008F029F807200AF0BCFA12480AF0DB
:1021A000D6FA002108460AF06AFA002102200AF055
:1021B00066FA002107200AF062FA0020206010BDB4
:1021C00010B5074C59202060162020608820206020
:1021D000002106200AF053FA0020206010BD000004
:1021E00000010050004000406121000003E0022196
:1021F000491E0029FCD1401EF9D27047044A03E071
:102200001146491E0029FCD1401EF9D2704700003A
:102210009D170000F8B505460F461646002472B615
:1022200059213548016016210160882101600AF0BA
:1022300071FD07E020468000641CC01929680AF07F
:10224000EBFC2D1D761EF5D20AF07AFD2A480021FE
:10225000016062B6F8BDF8B506460F461546002483
:1022600072B659212448016016210160882101605D
:102270000AF050FD07E020468000641CC01931467A
:102280000AF0F4FC361D6D1EF5D20AF059FD1A480D
:102290000021016062B6F8BDF8B506460D4600247F
:1022A00072B65920144F3860162038608820386084
:1022B0000AF030FD05E020468000641C80190AF019
:1022C00001FD6D1EF7D20AF03BFD0020386062B6BA
:1022D000F8BD10B5084C59202060162020608820D9
:1022E00020600AF033FD1321412209030348FFF760
:1022F000B2FF0020206010BD00010050400B002004
:10230000F8B5DE4B7D26986A7601B04200D29E6217
:10231000DB49986A884200D99E62DA4A186B90427B
:1023200000D21A63D848196B814200D91A63D86F5A
:102330000125012800D9DD67D048C82180304468D4
:10234000C82C00D241604B274468FF00BC4200D932
:1023500041608168642901D264218160FF24816821
:102360003C34A14201D9642181600168002900D177
:1023700005600168032900D90560C4680021012CAB
:1023800000D9C1605C68002C00D05960DC68022C68
:1023900000D9D960BD4C1F69A74201D903241C6133
:1023A000BB4CC76AA74200D3C462BA4CC76AA742F3
:1023B00001D8B74CC4629C69012C00D99961B34C17
:1023C000DF69A74200D9D961AC4B1B6A5B1C01D104
:1023D000AA4B1962A94CB04FC034A36ABB4201D2C8
:1023E000AE4BA362AE4FA36ABB4201D9AB4BA36213
:1023F000E36A012B00D9E162AA4B1F68012F00D9C3
:102400001960076BFF23FF2F00D90363476BFF2F72
:1024100000D94363876BFF2F00D98363C36B0F2BF6
:1024200000D9C1632368012B00D925606368032BA1
:1024300000D96160A3680F2B00D9A160E3680F2B5E
:1024400000D9E1608D4B9B6B102B01D38B4B9963B3
:10245000836A642B01D9642383628E4B07695B1EF8
:102460009F4200D3016187699F4200D38161C769A0
:102470009F4200D3C161E069012800D9E161206A6F
:10248000012800D92162606A012800D961627E4872
:10249000A3698549834200D9A161A069884200D21D
:1024A000A1617D23606B9B01984200D96263606BE0
:1024B000B04200D262637D4EA06B7D4BB04200D92A
:1024C000A3637C48A66B864200D2A3637D26E36BA0
:1024D0003601B34200D9E063FF26E36BF536B34221
:1024E00000D2E063654EF06B904202D3A36998423C
:1024F00001D96848F063306C904202D3A3699842D6
:1025000001D96D483064706C904202D3A36998423F
:1025100001D96A487064B06C904202D3A3699842B2
:1025200001D96748B064F06C904202D3A369984225
:1025300001D96448F064306D904202D3A369984297
:1025400001D956483065706D904202D3A369984214
:1025500001D95D487065B06D904202D3A36998427D
:1025600001D95A48B065F06D904202D3A3699842F0
:1025700001D95748F065306E904202D3A369984262
:1025800001D954483066706E904202D3A3699842D4
:1025900001D951487066B06E904202D3A369984247
:1025A00001D94E48B066F06E904202D3A3699842BA
:1025B00001D94B48F066306F904202D3A36998422C
:1025C00001D948483067706F904202D3A36998429E
:1025D00001D945487067B06F904202D3A26990421A
:1025E00000D9B167FF21153140480AF0FCFB1421E6
:1025F0003F480AF0F8FB14213E480AF0F4FB0020A3
:1026000002F0DBFD0020FFF7C8FC3B488168102288
:10261000914381600121022008F057F80321022034
:1026200008F053F80721022008F034F80221084688
:1026300008F04BF8002002F00FF9012001F02FFE06
:10264000082000F05BF8002001F0AEFE756206F095
:102650009FFE002811D006F069FE00280DD106F07B
:102660007EFE002809D11620A16AFFF795FB012004
:1026700000F044F80020FEF749FBF8BD400B0020B5
:10268000E02E000070170000400D0300FF0F000057
:10269000C027090010270000983A000060EA0000F7
:1026A00080A90300400C0020007102007C1500008E
:1026B000AC0D0000DC050000204E0000307500006D
:1026C000409C000050C300007011010080380100E0
:1026D000905F0100A0860100B0AD0100C0D40100F0
:1026E000D0FB0100E0220200F0490200080A0020AD
:1026F0007C0300209003002080400050FF49487078
:102700007047FE480078704770B50021084607F012
:10271000EAFF0021012007F0E6FF0021022007F078
:10272000E2FF0621022007F0B5FF0F21012007F08C
:10273000B1FF0321002007F0ADFFF14901204862FD
:102740000020FFF76AFC0020FFF7A0FC0020FFF745
:10275000D5FCFEF747FBFEF783FB0020FFF71DFCCF
:102760000121022007F0B1FF0321022007F0ADFF95
:102770000221012007F0A9FF0721022007F0A5FF91
:10278000E04CA0681026B043A0600221084607F084
:102790009CFF0021022007F07DFF0020FEF7ECFBEC
:1027A000D94D59202860162028608820286008F01C
:1027B000E2FA08F084FC00200AF031F928030AF05C
:1027C0002EF9012009F049FE032009F046FE002001
:1027D00008F022F800221146012007F031FF012104
:1027E0000022084607F02CFF002007F0A8FD00207B
:1027F0002860FFF7FFF90020FFF7CFFB012102203F
:1028000007F063FF0321022007F05FFF0221012090
:1028100007F05BFF0721022007F03CFFA068B043F0
:10282000A0600221084607F050FFB548C030816A19
:102830001620FFF7B1FAFF21F5312820FFF7ACFA97
:10284000FF2191310F20FFF7A7FAFFF75AFF012868
:1028500002D10720FFF752FF70BDA84948727047A8
:10286000A64988717047A5494871704700B5A74AC5
:10287000A749D068884203D90120FFF7F4FF02E09E
:102880000020FFF7F0FF1921D0680902884203D227
:102890000120FFF7E5FF00BD0020FFF7E1FF00BDCD
:1028A0009648407870479648C0300069704708B530
:1028B000934919228031496A0020120291420BD9B2
:1028C0007D20944BC000994206D2881A7D21C90010
:1028D000484391490AF046FA0A210AF043FA874A26
:1028E00020329179814200D99071062190790AF0C5
:1028F00039FA03000AF0C1FA1009121B242D363FE1
:1029000048515A636C757E879099844800900323E0
:10291000002240213820FEF789F908BD8048009048
:102920000323002240213820FEF780F908BD7D48AE
:1029300000900323002240213820FEF777F908BDDC
:10294000794800900323002240213820FEF76EF9D9
:1029500008BD764800900323002240213820FEF76E
:1029600065F908BD724800900323002240213820F9
:10297000FEF75CF908BD6F48009003230022402158
:102980003820FEF753F908BD6B480090032300225E
:1029900040213820FEF74AF908BD6848009003231B
:1029A000002240213820FEF741F908BD644800901C
:1029B0000323002240213820FEF738F908BD614882
:1029C00000900323002240213820FEF72FF908BD94
:1029D0005D4800900323002240213820FEF726F9AD
:1029E00008BD5A4800900323002240213820FEF7FA
:1029F0001DF908BD564800900323002240213820CD
:102A0000FEF714F908BD534800900323002240212B
:102A10003820FEF70BF908BD4F4800900323002231
:102A200040213820FEF702F908BD4C4800900323EE
:102A3000002240213820FEF7F9F808BD3048C030A8
:102A4000406970472D48006B70472D484069C0B2FF
:102A500070472B48C0300068C0B27047F0B585B0F1
:102A6000002001903D20FFF79BF9244D244E7D244A
:102A700000272035C036E400002879D028780028C7
:102A800002D02F70FEF7ECF94320FFF789F90028F8
:102A90006FD1FF21F5314320FFF77EF90120FEF7CA
:102AA00028FA3D20FFF77CF92D490AF05BF92D4DFE
:102AB000084629460AF056F92A2148432A4F01219F
:102AC000C2190E20FEF794F83D20FFF769F9294658
:102AD0000AF048F9084621460AF044F92A214843F9
:102AE000C21901211C20FEF783F82048009004231E
:102AF000032232212A20FEF799F83BE0AC010020A6
:102B0000400B002080400050000100502C030020AA
:102B1000282300003A2000003A070000C2DC000031
:102B2000AADC000092DC00007ADC000062DC00001D
:102B30004ADC000032DC00001ADC000002DC00008D
:102B4000EADB0000D2DB0000BADB0000A2DB000001
:102B50008ADB000072DB00005ADB000042DB000071
:102B6000A08601001027000073EF0000E2DC0000E7
:102B700022E01BE00123FFA204210A20FEF777F8E0
:102B800000211120FFF708F900211220FFF704F9B6
:102B900000211320FFF700F900211420FFF7FCF8B3
:102BA000AF20FEF7A2F90020FEF7A3F91620B16AC4
:102BB000FFF7F2F805B0F0BD2878002803D1012016
:102BC0002870FEF74DF93B20FFF7EAF8EC490028A2
:102BD0005FD0C87D002802D0CF75FEF741F90120F3
:102BE000FEF787F9E749C86800280BD0012826D0EE
:102BF000022841D0CF60AF20FEF777F90020FEF722
:102C000078F9D7E70523E0A201210D20FEF72FF880
:102C10000523DFA203210D20FEF729F8DE480090EE
:102C20000323012206210020FEF700F8DB48009074
:102C30000323012240213A20FDF7F8FFDBE70523BB
:102C4000D7A201210D20FEF712F80523D0A20321FF
:102C50000D20FEF70CF8D048009003230122062136
:102C60000020FDF7E3FFCD4800900323012240211F
:102C70003A20FDF7DBFFBEE70523CBA201210320AD
:102C8000FDF7F5FF03210523C9A20846FDF7EFFF75
:102C9000B1E7BB48C07D002804D1B9490120C875FF
:102CA000FEF7DEF83C20FFF77BF8002854D0B4484C
:102CB000017E002902D00776FEF7D2F80120FEF748
:102CC00018F90123BCA219460520FDF7D0FFAD4934
:102CD000086903000AF0D1F80627040B121920270F
:102CE0000523B8A203210720FDF7C1FF1DE005233E
:102CF000B6A203210D20FDF7BAFF16E00523B5A209
:102D000003210D20FDF7B3FF0FE00523B3A203213C
:102D10000D20FDF7ACFF08E00523B2A20321072038
:102D2000FDF7A5FF01E0032008619B480090052303
:102D3000032206210020FDF779FF98480090052323
:102D4000032240213A20FDF771FFAF20FEF7CDF8B6
:102D50000020FEF7CEF82DE78948007E002804D138
:102D6000874901200876FEF77BF81E20FFF718F848
:102D7000002841D08248417E002902D04776FEF7E4
:102D80006FF80120FEF7B5F8FEF7F9F8974C012827
:102D900004D0FEF7F4F8002814D026E00423002223
:102DA000302110200094FDF741FF002390A2042160
:102DB0000120FDF75CFF002390A205210420FDF710
:102DC00056FF12E004230022302110200094FDF76A
:102DD0002DFF002386A204210120FDF748FF0023D8
:102DE00089A205210120FDF742FFAF20FEF77DF803
:102DF0000020FEF77EF8DDE66148407E002804D121
:102E00005F4901204876FEF72BF82720FEF7C8FF20
:102E1000002842D05A48817E002902D08776FEF7EA
:102E20001FF80120FEF765F8FFF713FE012804D014
:102E3000FFF70FFE002815D028E076480090042305
:102E4000002230211020FDF7F1FE002372A20421A0
:102E50000120FDF70CFF0521002368A20846FDF7BD
:102E600006FF13E06F480090042300223021102059
:102E7000FDF7DCFE002368A204210120FDF7F7FE28
:102E8000002361A205210120FDF7F1FEAF20FEF72E
:102E90002CF80020FEF72DF88CE63948807E0028BB
:102EA00004D1374901208876FDF7DAFF3E20FEF78E
:102EB00077FF002830D03248C17E002902D0C77683
:102EC000FDF7CEFF0120FEF714F8F06A002809D0C4
:102ED000012814D0F762AF20FEF707F80020FEF7B4
:102EE00008F867E6002350A201210820FDF7BFFE85
:102EF000052350A203210720FDF7B9FEEBE70023CD
:102F000049A201210820FDF7B2FE05234BA20321AF
:102F10000220FDF7ACFEDEE71948C07E002804D190
:102F200017490120C876FDF79BFF3F20FEF738FFC9
:102F300000281DD01248017F002902D00777FDF735
:102F40008FFF0120FDF7D5FF00233EA21946022086
:102F5000FDF78DFE0B4F3E49386A3E4E3E4D88428E
:102F600007D3214609F0FEFE3C4909F0FBFE77E05D
:102F7000BEE2D1E04C4F41442E2E2E0A000000004C
:102F8000AC010020400B0020574154540A000000BF
:102F90004D4F44450A000000E4E00000F0E000006E
:102FA00054454D500A0000004D454D4F52590A00FE
:102FB000204D4F4445200A00535452454E47544833
:102FC0000A000000204D494E200A0000534F46548D
:102FD0000A0000004E4F524D0A0000004841524482
:102FE0000A000000204D4158200A000042D4000091
:102FF000424C5545544F4F54480A00002020204F62
:103000004E202020200A00002020204F464620206D
:10301000200A000042D500002020204C45442020FA
:10302000200A0000C2D50000535445414C54480AC0
:1030300000000000204F464620200A0020204F4E6E
:1030400020200A002020544F44415920200A00002B
:10305000809698005EE70000EBEA0000A086010081
:103060000846FF4909F07EFE1030142148434219FA
:1030700001210720FDF79EFD2146386A09F072FE06
:10308000F74909F06FFE0846214609F06BFE103043
:1030900014214843421901211120FDF78BFD2146DF
:1030A000386A09F05FFE214609F05CFE084664219B
:1030B00009F058FE103014214843421901211B2009
:1030C000FDF778FD2146386A09F04CFE642109F0CD
:1030D00049FE08460A2109F045FE103014214843F4
:1030E000421901212520FDF765FD2146386A09F0C6
:1030F00039FE0A2109F036FE1031142041434A19E5
:1031000001212F20FDF756FD032301224321392001
:103110000096FDF78BFDD1E0D24988424ED321467F
:1031200009F020FECE4909F01DFE0846214609F0AF
:1031300019FE103014214843421901210C20FDF7DB
:1031400039FD2146386A09F00DFE214609F00AFED4
:103150000846642109F006FE103014214843421944
:1031600001211620FDF726FD2146386A09F0FAFDF7
:10317000642109F0F7FD08460A2109F0F3FD10303B
:1031800014214843421901212020FDF713FD214657
:10319000386A09F0E7FD0A2109F0E4FD1031142036
:1031A00041434A1901212A20FDF704FD032301228E
:1031B0003E2134200096FDF739FD7FE0AA49884280
:1031C0003BD3214609F0CEFD214609F0CBFD084650
:1031D000642109F0C7FD1030142148434219012130
:1031E0001120FDF7E7FC2146386A09F0BBFD642198
:1031F00009F0B8FD08460A2109F0B4FD1030142189
:103200004843421901211B20FDF7D4FC2146386AAE
:1032100009F0A8FD0A2109F0A5FD10311420414351
:103220004A1901212520FDF7C5FC0323012239217C
:103230002F200096FDF7FAFC40E08949884228D308
:10324000214609F08FFD642109F08CFD08460A2112
:1032500009F088FD1030142148434219012116203D
:10326000FDF7A8FC2146386A09F07CFD0A2109F027
:1032700079FD1031142041434A1901212020FDF726
:1032800099FC0323012234212A200096FDF7CEFC6D
:1032900014E0214609F066FD0A2109F063FD1031B2
:1032A000142041434A1901211B20FDF783FC03230D
:1032B00001222F2125200096FDF7B8FC00236BA2E8
:1032C00003210220FDF7D3FCFFF7EDFA644EB04274
:1032D00051D3FFF7E8FA644909F044FD0846314646
:1032E00009F040FD10301421484342190421072001
:1032F000FDF760FCFFF7D7FA314609F033FD0846C9
:10330000214609F02FFD10301421484342190421B1
:103310001120FDF74FFCFFF7C6FA214609F022FD08
:103320000846642109F01EFD10301421484342195B
:1033300004211B20FDF73EFCFFF7B5FA642109F0DC
:1033400011FD08460A2109F00DFD103014214843F3
:10335000421904212520FDF72DFCFFF7A4FA0A21CC
:1033600009F000FD1031142041434A1904212F2097
:10337000FDF720FCB5E0FFF796FAA04240D3FFF737
:1033800092FA314609F0EEFC0846214609F0EAFCC3
:10339000103014214843421904210C20FDF70AFC87
:1033A000FFF781FA214609F0DDFC0846642109F0A7
:1033B000D9FC103014214843421904211620FDF78E
:1033C000F9FBFFF770FA642109F0CCFC08460A21EA
:1033D00009F0C8FC10301421484342190421202070
:1033E000FDF7E8FBFFF75FFA0A2109F0BBFC10319B
:1033F000142041434A1904212A20FDF7DBFB70E029
:10340000FFF751FA64283CD3FFF74DFA214609F043
:10341000A9FC0846642109F0A5FC1030142148439A
:10342000421904211120FDF7C5FBFFF73CFA642186
:1034300009F098FC08460A2109F094FC1030142188
:103440004843421904211B20FDF7B4FBFFF72BFA78
:103450000A2109F087FC1031142041434A190BE07E
:103460001027000040420F00A08601002020505588
:1034700046465320200A000004212520FDF79AFB30
:103480002FE0FFF710FA0A281ED3FFF70CFA642189
:1034900009F068FC08460A2109F064FC1030142188
:1034A0004843421904211620FDF784FBFFF7FBF97E
:1034B0000A2109F057FC1031142041434A19042114
:1034C0002020FDF777FB0CE0FFF7EDF90A2109F06A
:1034D00049FC1031142041434A1904211B20FDF7F7
:1034E00069FBAF20FDF701FD0020FDF702FD32E48E
:1034F000FF48007F002804D1FD4901200877FDF72F
:10350000AFFC3A20FEF74CFC00287ED0F848417F03
:10351000002902D04777FDF7A3FC0120FDF7E9FC65
:10352000F449002008F019FBF34D04230222202166
:103530001E200095FDF77AFB0423022231212F2063
:103540000095FDF773FBEB4DEC49E86909F00AFCC7
:1035500008462646314609F005FCE94C00010019F1
:1035600000900423022209210120FDF75FFB314670
:10357000E86909F0F7FB0846642109F0F3FB000154
:10358000001900900423022210210820FDF74EFBB1
:103590006421E86909F0E6FB08460A2109F0E2FB2C
:1035A0000001001900900423022217210F20FDF7CB
:1035B0003DFB0A21E86909F0D5FB080100190090DC
:1035C000042302221E211620FDF730FB6421A86986
:1035D00009F0C8FB08460A2109F0C4FB00010019E4
:1035E00000900423022228212020FDF71FFB0A213E
:1035F000A86909F0B7FB0801001900900423022212
:103600002F212720FDF712FB00E024E064216869E8
:1036100009F0A8FB08460A2109F0A4FB00010019E3
:1036200000900423022239213120FDF7FFFA0A21FC
:10363000686909F097FB0801001900900423022231
:1036400040213820FDF7F2FAAF20FDF74EFC0020B4
:10365000FDF74FFC20E4A648407F002804D1A44990
:1036600001204877FDF7FCFB3920FEF799FB002885
:103670005ED09F48817F002902D08777FDF7F0FB5D
:103680000120FDF736FC9B49002008F066FA994CB2
:103690006421E06809F066FB08460A2109F062FB34
:1036A00038214843974D05234019009001220E21EF
:1036B0000020FDF7BBFA0A21E06809F053FB38202F
:1036C000414348190090052301221C210E20FDF7DB
:1036D000ADFA8D4800900523012223211D20FDF71E
:1036E000A5FA6421A06809F03DFB08460A2109F00B
:1036F00039FB38214843401900900523012232212B
:103700002420FDF793FA0A21A06809F02BFB38204A
:103710004143481900900523012240213220FDF742
:1037200085FAAF20FDF7E1FB0020FDF7E2FBDEE6C6
:103730006F48807F002804D16D4901208877FDF70C
:103740008FFB0F20FEF72CFB00282CD06848C17F90
:10375000002902D0C777FDF783FB0120FDF7C9FBE5
:103760000423022209210020FDF791FB04230222F9
:1037700040213620FDF78BFB644800220090042393
:1037800040211046FDF752FA6148009006230422BA
:1037900040210020FDF74AFAAF20FDF7A6FB0020EC
:1037A000FDF7A7FBA3E65248C07F002804D150498B
:1037B0000120C877FDF754FB2D20FEF7F1FA002811
:1037C00038D02D20FEF7ECFAA04233D268780028DA
:1037D00012D06F70FDF744FB00211120FEF7DCFAD8
:1037E00000211220FEF7D8FA00211320FEF7D4FAA8
:1037F00000211420FEF7D0FA0120FDF77AFB45489E
:1038000000900423002238210820FDF70FFA00233E
:1038100041A204210520FDF72AFA002341A2052137
:103820000220FDF724FAAF20FDF75FFB0020FDF733
:1038300060FB5CE66878002803D101206870FDF722
:103840000FFB1720FEF7ACFA002833D02848417D43
:10385000002905D04775AE20FDF747FBFDF700FBBB
:10386000FFF7F3F8002810D10120FDF742FB3048A4
:1038700000900623002238210820FDF7D7F9AF2059
:10388000FDF733FB0020FDF734FBFFF7DEF80128DE
:1038900088D1FDF72EFB2748009006230022302117
:1038A0001020FDF7C3F9AF20FDF71FFB0020FDF747
:1038B00020FB1CE60E48407D002804D10C49012065
:1038C0004875FDF7CDFA1820FEF76AFA00283DD0BA
:1038D0000748817D002902D08775FDF7C1FA0120D4
:1038E000FDF707FB1348062300223021009023E058
:1038F000AC0100201C0B0020C7E0000010270000D6
:1039000057DD000097DE000012DD000032D000001D
:1039100032D1000014E10000202054454D502020F9
:10392000200A000050524F5445435445440A0000B9
:1039300032D2000052D300001020FDF777F9AF20FB
:10394000FDF7D3FA0020FDF7D4FAD0E5FF48807DDB
:10395000002804D1FD4901208875FDF781FA122065
:10396000FEF71EFAFA490391002819D1FF215F31B1
:103970001220FEF711FAF06A01280ED00120FDF79F
:10398000B8FAF3488038C06800280AD0F049803976
:10399000012853D002283ED050E0AE20FDF7A5FA12
:1039A000CDE1EB4980394868002802D0012804D0D5
:1039B00044E0E648096B816340E0FEF771FF0528AB
:1039C0000AD0E448E14A00780102E348007808435D
:1039D00064214843906331E00E20FEF7E1F9DF49AE
:1039E000081A214609F0BEF9DA49085C0102D748F5
:1039F00081630E20FEF7D4F9D849081A214609F050
:103A0000B1F9D549085CD149896B08436421484321
:103A1000CE49886312E04868002802D0012807D008
:103A20000CE0886B80004018C16BC848816305E0DA
:103A3000886B80004018C16BC4488163C4498039D9
:103A4000C868002803D001287ED002284BD1BF4887
:103A5000816BC348814247D3022300222F212A20B1
:103A6000FDF715FA0323022238213220FDF70FFA61
:103A7000B648BC49806B09F075F90846B84909F0A9
:103A800071F92A214843B849421800210846FDF738
:103A9000AFF8AE48B249806B09F064F90846B34903
:103AA00009F060F92A214843AF49421800210E204D
:103AB000FDF79EF8A548AD49806B09F053F908461B
:103AC000214609F04FF92A214843A749421800210D
:103AD0001C20FDF78DF8A648009003230222322116
:103AE0002A20FDF7A3F824E1032300221C211A2039
:103AF000FDF7CDF90323002221211F20FDF7C7F98F
:103B00009C480090032300221F211C20FDF78EF803
:103B10008E489649806B884206D2002203230E21EC
:103B20001046FDF7B4F90EE08D4909F01BF908467F
:103B30008E4909F017F92A2148438B494218002180
:103B40000846FDF755F800E02AE080488749806B79
:103B500009F008F90846214609F004F92A214843EA
:103B60008149421800210E20FDF742F8774821468E
:103B7000806B09F0F7F80846642109F0F3F82A2170
:103B800048437949421800212120FDF731F878484F
:103B900000900323022237212F20FDF747F8C8E0C9
:103BA0004868002802D001287ED0C2E0C86F0028F3
:103BB00002D0012840D0BCE0FEF772FE052837D0C5
:103BC0000398806802902146029809F0CBF80846D5
:103BD000642109F0C7F82A214843634942180021AB
:103BE0000846FDF705F86421029809F0BBF808467D
:103BF0000A2109F0B7F82A2148435B4942180021FD
:103C00000E20FCF7F5FF0A21029809F0ABF82A20F4
:103C1000414355480A1800211C20FCF7E9FF56488B
:103C200000900323022236212A20FCF7FFFF80E0C8
:103C3000FEF708FF0290C6E7FEF732FE052839D0EE
:103C40000398406802902146029809F08BF80846D4
:103C5000642109F087F82A2148434349421800218A
:103C60000846FCF7C5FF6421029809F07BF8084676
:103C70000A2109F077F82A2148433B4942180021DC
:103C80000E20FCF7B5FF0A21029809F06BF82A20F4
:103C9000414335480A1800211C20FCF7A9FF0323E3
:103CA00002223648362100E008E000902A20FCF786
:103CB000BDFF3EE0FEF7C6FE0290C4E7FEF7F0FD52
:103CC00005285DD0FEF7BAFE02902146029809F061
:103CD00049F80846642109F045F82A214843224959
:103CE000421800210846FCF783FF6421029809F07E
:103CF00039F808460A2109F035F82A2148431A49BB
:103D0000421800210E20FCF773FF0A21029809F0E7
:103D100029F82A20414314480A1800211C20FCF7E6
:103D200067FF164800900323022236212A20FCF761
:103D30007DFFAF20FDF7D9F80020FDF7DAF811205C
:103D4000FEF72EF800281FD0C6E00000AC010020CE
:103D5000C00B0020EC070020E0070020442F0000EB
:103D6000A086010040420F0073EF00001027000002
:103D7000DADC0000CBE00000F6DC0000EADC00004A
:103D8000FEF760FE0290A0E764211120FEF704F820
:103D9000F06A012816D00120FDF7ABF84220FDF7AC
:103DA000FFFF002858D0A878002806D0AF70052360
:103DB00003221D210020FDF76AF8FEF771FD05289A
:103DC00004D00AE0AE20FDF790F885E00E20FDF764
:103DD000E7FFFF49091AFF48C1630123FEA203213F
:103DE0000B20FCF744FFFB4DFC49E86B08F0BAFFE1
:103DF0000846FB4908F0B6FF10300A214843F94F46
:103E00000321C2190020FCF7B7FEF549E86B08F062
:103E1000A9FF0846214608F0A5FF10300A214843B3
:103E2000C21903210720FCF7A7FE2146E86B08F022
:103E300099FF0846642108F095FF10300A21484395
:103E4000C21903210F20FCF797FE0123E6A20321EC
:103E50001720FCF70CFF39E0E44801690B0009F07A
:103E60000CF80631040D161F2831E1480090052397
:103E700003221D210020FCF7D9FE25E0DD4800903B
:103E8000052303221D210020FCF7D0FE1CE0DA48A8
:103E90000090052303221D210020FCF7C7FE13E03C
:103EA000D6480090052303221D210020FCF7BEFE0A
:103EB0000AE0D3480090052303221D210020FCF7CF
:103EC000B5FE01E0032101610120A870AF20FDF7DC
:103ED0000CF80020FDF70DF81320FDF761FF002816
:103EE00022D1FF212D311320FDF756FFF06A012862
:103EF00017D00120FCF7FDFFFDF741F8012814D091
:103F00000223002236212E20FCF7C1FFFEF7CFFC52
:103F1000B64DE868002811D0012854D0022843D1BA
:103F200043E0AE20FCF7E1FFDEE0B648009002235C
:103F3000002236212E20FCF779FEE7E7FEF7B3FCDE
:103F4000214608F00FFF0846642108F00BFF1030EF
:103F50000A214843A34D032142192620FCF70CFEF9
:103F6000FEF7A1FC642108F0FDFE08460A2108F0D6
:103F7000F9FE10300A214843421903212D20FCF795
:103F8000FBFDFEF790FC0A2108F0ECFE10310A2040
:103F900041434A1903213420FCF7EEFD01239AA284
:103FA00003213B20FCF763FE98E0A86B2C21401C0A
:103FB00048439649052340180090032240212A20B7
:103FC000FCF734FE8AE0864F686BB84243D3012386
:103FD0008FA203212920FCF74AFE01237EA20321A0
:103FE0003020FCF744FE7D49686B08F0BBFE0846B4
:103FF000394608F0B7FE10300A214843794F0321B3
:10400000C2192520FCF7B8FD7549686B08F0AAFEB7
:104010000846214608F0A6FE10300A214843C2197E
:1040200003212C20FCF7A8FD2146686B08F09AFEBE
:104030000846642108F096FE10300A214843C21950
:1040400003213420FCF798FD012372A203213B20B9
:10405000FCF70DFE42E001235FA203212920FCF7BB
:1040600006FE01236AA203213020FCF700FE394638
:10407000686B08F077FE0846214608F073FE1030A2
:104080000A214843574F0321C2192520FCF774FD2C
:104090002146686B08F066FE0846642108F062FE5F
:1040A00010300A214843C21903212D20FCF764FD7A
:1040B0006421686B08F056FE08460A2108F052FE9B
:1040C00010300A214843C21903213420FCF754FD63
:1040D000012350A203213B20FCF7C9FDAF20FCF7D0
:1040E00004FF0020FCF705FF1420FDF759FE00280F
:1040F00000D02AE4FA211420FDF74EFEF06A0128D0
:104100000BD00120FCF7F5FE384DE868002808D0F8
:1041100001280AD002280FD103E0AE20FCF7E5FE0B
:1041200013E403988069019006E0FEF7B9FB0528C7
:104130004DD0039880690190002327A20521042017
:10414000FCF795FD264E0198314608F00BFE084617
:104150002746394608F006FE1030810040182E4CE4
:10416000052102190020FCF7E9FC3946019808F006
:10417000F9FD0846642108F0F5FD10308100401873
:10418000021905210820FCF7D9FC6421019808F0E8
:10419000E9FD08460A2108F0E5FD103081004018CD
:1041A000021905210F20FCF7C9FC1C4800900623CA
:1041B00005221D211620FCF739FDED6A002306A219
:1041C00005212920FCF753FD3146284628E062E00E
:1041D000442F0000AC0100202E0A0000A086010040
:1041E000102700009DE80000530A0000400B00204B
:1041F000C0E40000FAE4000034E500006EE50000D1
:10420000A8E5000002DD0000500A0000D4E1000033
:10421000200A0000570A000076E700003CDD00009D
:1042200008F0A0FD0846394608F09CFD10308100DA
:104230004018021905212520FCF780FC3946284644
:1042400008F090FD0846642108F08CFD10308100D4
:104250004018021905212D20FCF770FC6421284626
:1042600008F080FD08460A2108F07CFD103081002E
:104270004018021905213420FCF760FC0023FFA23E
:1042800005213B20FCF7F3FCAF20FCF72EFE0020BD
:10429000FCF72FFE44E70398C06901904CE7F8490A
:1042A000C8727047F648407A704770B50024FFF72F
:1042B000F9FF00285FD00221084606F0EBF9FBF772
:1042C000DEFFFBF7F3FF641C822CF8D3ED480A21D4
:1042D000C569406906462C1A204608F043FD014690
:1042E000E948704308F03EFD2D2801D92D3800E043
:1042F0000020E34A116F0B460F33984202D80F3962
:10430000884200D21067E148116F0161002E01D18F
:1043100000210161C82C02D3711BC82901D2DC49DC
:1043200001610020FEF799FA0221084606F0CDF956
:104330000920FDF75BFF1E211120FDF72DFD1E2139
:104340001220FDF729FD1E211320FDF725FD1E215A
:104350001420FDF721FD1E211F20FDF71DFD1E214C
:104360002020FDF719FD96212120FDF715FDC649F6
:104370002220FDF711FD70BD10B52F20FDF710FDB7
:10438000002810D1C0492F20FDF706FDFFF78DFF53
:10439000BE4AC04910693738884204D30120FFF76C
:1043A0007EFF0020906110BDB84980394861704798
:1043B000B34908707047B249C8627047B049086392
:1043C0007047AF48C06A7047F0B589B0AE4C2A203C
:1043D0002146FDF7E1FC21464220FDF7DDFCAB4D17
:1043E000A86968612E464036AB4AB169AB48914234
:1043F00000D9B061B169814200D2B061A34FA04C35
:10440000803FF868002807D001287ED002287DD0A0
:104410000020F86009B0F0BD0121022006F03AF951
:104420007868002810D0012811D00020786034204E
:10443000FDF7B6FC002854D03869030008F01DFDD4
:10444000064F232E5139444F386BA065EFE70E20FD
:10445000FDF7A6FC9249081A8B4908F083FC9149A4
:10446000085C0002A0650E20FDF79AFC8C49081A32
:10447000854908F077FC8C49085CA16D08436421EC
:104480004843A065D3E7A16D08910801401A642153
:1044900008F068FC0899081AA06522E0A26D0A20BD
:1044A00050436421079208F05DFC079A101AA0653A
:1044B00017E0A26D0A2050436421069208F052FCD6
:1044C000069A8018A0650CE0A16D05910801401ABC
:1044D000642108F047FC05994018A06501E003201D
:1044E0003861B069A16D884200D2A0656548406816
:1044F000F8624043696908F035FC7863A16D0A46AB
:10450000FF3A2D3A904207D201E015E02AE1626BB2
:104510005C2A01D2521C6263FF312D31884204D9DA
:10452000606B002801D0401E60632020FFF746FF2B
:10453000606BFDF732FD6DE70121022006F0AAF85D
:104540007868002816D0012829D0002078604D48CE
:104550004E4F4068803FF862E9694043049108F09B
:1045600001FC786339690B0008F087FC062E1F22D6
:1045700025282B2EF86F002809D00128E7D168687C
:10458000E0654B21C9008842E1D9E165DFE7A86811
:10459000E065FF213C318842D9D9E165D7E7FEF7D4
:1045A0004DFAE0650120F867D1E7404961660FE008
:1045B0003F4961660CE03F49616609E03E4961663A
:1045C00006E03E49616603E0304A0321803A11610A
:1045D000E968012906D12D49803940004863606EA1
:1045E000400060660498AF69B84201D2276601E0D6
:1045F00004982066286801281CD002281FD00328B0
:1046000022D001202860206E1F49C01B4843616DE5
:1046100008F0A8FB1C494843394608F0A3FB1930B1
:10462000FFF7C9FE194D803DE86F002811D0012821
:1046300013D01CE0706BFF30F5306065E3E7B06BC2
:10464000FF30F5306065DEE7F06BFF30F530606518
:10465000D9E7FFF7B6FEA06609E0FFF7B2FEE12159
:10466000C9004843084908F07DFB2030A066E26D90
:10467000A16E91422FD2686B636E21E0560A000052
:10468000AC0100202C030020E8030000C00B002038
:104690000F270000810B0000400D03000071020095
:1046A000442F0000EC070020E007002030750000D8
:1046B000409C000050C3000060EA0000701101003F
:1046C000984208D2606B5C2801D2401C6063606B2A
:1046D000082800D92065914225D92C20FDF760FBE0
:1046E000002813D1E16DA06E401A322804D90021B0
:1046F0002C20FDF751FB04E03221091A2C20FDF794
:104700004BFB206D082801D9401E2065216DE06C0F
:10471000884201D2401CE064E06C884201D9401E0E
:10472000E064E06C6063A16EE06D814211D9E16EDE
:10473000491CE166052911D9FFF740FE2D20FDF740
:104740002FFB00280AD17D2109012D20FDF724FB34
:1047500004E00846FFF732FE0020E066606BFDF7DC
:104760001CFC57E60121022005F094FF7868002820
:1047700010D0012814D0002078603420FDF710FB01
:10478000002841D03869030008F077FB063C101B75
:104790003E26313CB86B8000C019C06BA065ECE7C9
:1047A000B86B8000C019C06BA065E6E7A16D0391EE
:1047B0000801401A642108F0D5FA0399081AA06587
:1047C00022E0A26D0A2050436421029208F0CAFA46
:1047D000029A101AA06517E0A26D0A2050436421C6
:1047E000019208F0BFFA019A8018A0650CE0A16D53
:1047F00000910801401A642108F0B4FA00994018A9
:10480000A06501E003203861B069A16D884200D243
:10481000A065FF484068F8624043696908F0A2FA61
:104820007863A16D0A46FF3A2D3A904204D2626B3A
:104830005C2A01D2521C6263FF312D31884204D9B7
:10484000606B002801D0401E60632020FFF7B6FD9A
:10485000606BFDF7A2FBDDE5EE49C870704770B5EF
:10486000EB4D0A21E86A48436A2108F07BFA7D2172
:104870000446C90048430A2108F074FA6A680146F0
:10488000101B8722D200504308F06CFA0A2801D985
:104890000A3800E00020DF4A516F0B460F33984280
:1048A00002D80F39884200D25067DB48516FC1618E
:1048B00070BDD84880797047D648C0787047FEB53B
:1048C0000027D548D44C4030C069803C002804D132
:1048D000E068012801D10020E060FEF7B6F8CF4D76
:1048E000102601280ED0FFF7E7FF002817D0002080
:1048F000FDF753FBA868B043A8600121022005F032
:10490000E4FEFEBD0020FDF748FBA868B043A860A8
:104910000121022005F0D9FEFEF7A0F8FEBDFFF749
:10492000C8FF00282CD0A868B043A8600120FCF77D
:10493000E0FAFCF794F8FCF793FAB94800900323E7
:10494000012230211020FCF771F90023B5A20321C8
:104950000220FCF78CF90023B5A204210220FCF709
:1049600086F90322B549002008F02FF9AF20FCF7A3
:10497000BCFA0120FFF770FF0020FCF7FAFAFEBD39
:10498000A348C168AE48814231D2A249086C401C9C
:104990000864FF21F53188422CD9A868B043A8608B
:1049A0000120FCF7A6FAFCF75AF8FCF759FA9C48E4
:1049B00000900323012230211020FCF737F9002357
:1049C00098A203210220FCF752F9002398A20421A7
:1049D0000220FCF74CF903229A49002008F0F5F870
:1049E000AF20FCF782FA0120FFF736FFFEBD8949B0
:1049F0000020086486480021406A05F02DFB5528F8
:104A00002DD9A868B043A8600120FCF772FAFCF722
:104A100026F8FCF725FA8C480090042302223A215C
:104A20002220FCF703F9002388A202210820FCF7CA
:104A30001EF9002387A203210820FCF718F903229E
:104A40008649002008F0C1F8AF20FCF74EFA01209B
:104A5000FFF702FF82493D20FDF79EF9FEBDFDF7FD
:104A6000A1F8002829D0A868B043A8600120FCF76D
:104A700040FAFBF7F4FFFCF7F3F97A4800900523BE
:104A8000022214210020FCF7D1F80023764A0221EB
:104A90001C20FCF7ECF8002374A203211C20FCF777
:104AA000E6F803227349002008F08FF8AF20FCF7E6
:104AB0001CFA0120FFF7D0FEFEBDE068564C00282E
:104AC00001D0022835D12169642932D2A868B043C7
:104AD000A8600120FCF70DFAFBF7C1FF0120FFF7EA
:104AE000DEFB0020A0612062FCF7BAF9624800906A
:104AF0000223002230211020FCF798F8594800903A
:104B00000623032214210020FCF790F800235BA267
:104B100003211820FCF7ABF800235BA20421182026
:104B2000FCF7A5F8AF20FCF7E0F90120FFF794FEB1
:104B3000FEBD012835D12069372832D2A868B0439C
:104B4000A8600120FCF7D5F9FBF789FF0120FFF7EA
:104B5000A6FB0020A0612062FCF782F94648009085
:104B60000223002230211020FCF760F83D4800901D
:104B70000623032214210020FCF758F800233FA24B
:104B800003211820FCF773F800233FA2042118200A
:104B9000FCF76DF8AF20FCF7A8F90120FFF75CFEE9
:104BA000FEBD3B49206988427FD23A4A90427CD977
:104BB000A868B043A8600120FCF79BF9FBF74FFF02
:104BC0000120FFF76CFB0020A0612062FCF748F990
:104BD000294800900223002230211020FCF726F8FB
:104BE000204800900623032214210020FCF71EF821
:104BF000002322A203211820FCF739F8002326A263
:104C000004211820FCF733F8AF20FCF76EF948E0D8
:104C10002C030020AC010020C00B0020804000507D
:104C2000DEE600002020204C4F572020200A000004
:104C30002042415454455259200A000017F1000007
:104C4000881300001DF1000012D40000544F4F0AD9
:104C500000000000484F540A0000000029F1000045
:104C60003075000022E60000E42F00005055464653
:104C7000530A000026F100005EE600004F484D2078
:104C8000544F4F0A000000004C4F570A000000002C
:104C90000F270000B80B0000484947480A000000F1
:104CA00003E00120FFF7D8FDFEBD88422ED3A8689F
:104CB000B043A8600120FCF71CF9FBF7D0FE0120EF
:104CC000FFF7EDFA0020A0612062FCF7C9F800238D
:104CD000F7A203210820FBF7CAFF0023F7A2042153
:104CE0000520FBF7C4FFF848009002230022302182
:104CF0001020FBF79BFFAF20FCF7F7F80120FFF730
:104D0000ABFDFF209130FDF779FAFEBD1721383851
:104D1000C90188420BD2A069372808D2A868B043DD
:104D2000A8600120FFF7BBFA0020A061FEBDFFF7DD
:104D3000C0FD002835D1E5487D21C0684901884281
:104D40002CD2E349486C401C4864FF21F53188426D
:104D500027D9A868B043A8600120FCF7CAF8FBF780
:104D60007EFEFCF77DF8DB48009003230122302112
:104D70001020FBF75BFF0023D7A204210220FBF7E2
:104D800076FF0023D74A05210220FBF770FFAF20F2
:104D9000FCF7ABF80120FFF75FFDFEBDCC4900201A
:104DA00048642220FCF7FCFF002832D0C8490020CC
:104DB00088643320FCF7F4FF002871D0A868B04362
:104DC000A8600120FCF795F8FBF749FEFCF748F8CE
:104DD000C54800900423012240212C20FBF726FF28
:104DE0000023C2A202211846FBF741FF0023C1A203
:104DF00003211846FBF73BFF0023C0A204211846FD
:104E0000FBF735FFAF20FCF770F80120FFF724FD1A
:104E1000FEBDE069029032283DD9A16901910521CA
:104E2000019807F09FFF01994118029881422ED9FD
:104E3000B548C0680128BCD1A549886C401C88646D
:104E4000FF21F5318842B4D9A868B043A860012099
:104E5000FCF74FF8FBF703FEFCF702F80523ABA2C3
:104E600001210320FBF703FF03210523A94A08467C
:104E7000FBF7FDFEAF20FCF738F80120FFF7ECFC54
:104E80000720FDF73BFCA0490020C860FEBD90490B
:104E9000002088648DE78E490020886489E7FFE759
:104EA0002020FCF77DFF002840D19748C1680129E8
:104EB0003CD0406B9849884238D9FBF7E0F97F1C19
:104EC000052FFAD38148E1214069C90088422DD2DB
:104ED000A868B043A8600120FCF70BF8FBF7BFFD02
:104EE000FBF7BEFF8D4800900223002230211020E6
:104EF000FBF79CFE00238AA203210920FBF7B7FEE3
:104F000000236EA204210520FBF7B1FE032287498E
:104F1000002007F05AFEAF20FBF7E7FF0120FFF764
:104F20009BFC83493320FCF737FFFEBD2120FCF7B3
:104F300037FF002832D1FFF792FCE06932282DD2EA
:104F4000A868B043A8600120FBF7D3FFFBF787FDFB
:104F5000FBF786FF714800900223002230211020C9
:104F6000FBF764FE002373A203210920FBF77FFEF9
:104F7000002352A204210520FBF779FE03226B498E
:104F8000002007F022FEAF20FBF7AFFF0120FFF764
:104F900063FC67493320FCF7FFFEFEBDFFF714FA00
:104FA000FDF75CFDFEBD4A48C07A704710B5564A11
:104FB0006349803210693738884210D2FFF7F3FF17
:104FC00000280CD00020FFF76AF9116A10690B461F
:104FD0005033984204D8A03B984201D3916110BD50
:104FE00091690A461E32904202D81E398842F6D292
:104FF0000420FDF783FBFBF733FF354901200873DD
:1050000010BD33488078704738B531480024017BA3
:10501000002902D00473FBF723FF0120FBF769FF8F
:105020000021052347A20846FBF721FE052347A2DE
:1050300002210020FBF71BFE052346A204210A20C3
:10504000FBF715FE052344A204212C20FBF70FFEDD
:10505000424806230090042219460020FBF7E6FD93
:105060003F4800900623042240213A20FBF7DEFD52
:10507000FFF7C7FF3B4D002802D0012817D175E08C
:1050800004F0E5FF002812D0002004F091F9364822
:1050900000900623042240213A20FBF7C7FD284652
:1050A000FDF7ACF8FBF7DCFE0720FDF727FB7DE002
:1050B00020434845434B20200A00000041544F4DF7
:1050C000495A45520A0000005EE600002C03002009
:1050D000AC010020E2E500002020434845434B207E
:1050E000200A0000304C000022E60000444F4E270A
:1050F000540A000041425553450A000050524F5493
:1051000045435453210A0000400B002020574154CE
:1051100054200A00B02F000060EA00009EE6000064
:105120002D53484F52542D200A0000001AF1000060
:10513000881300002053484F525420200A000000DA
:10514000810B00004953204E45570A00434F494CFC
:105150003F200A00590A00004E0A0000E4E0000067
:10516000F0E00000DC05000008E1000004F06FFF43
:1051700000281BD0002004F01BF9FA490869886157
:10518000F94A904200D38C6188690862F748062387
:105190000090042219460020FBF748FD2846FDF741
:1051A0002DF8FBF75DFE0720FDF7A8FAAF20FBF70F
:1051B0009CFE0020FBF79DFE38BDEA49803908605F
:1051C0007047EB4988727047E948807A704710B59C
:1051D0001324240304212046FDF75EF8E148412210
:1051E00021468038FDF716F810BDE14988707047F8
:1051F00010B58AB0DE48002444738473C473047409
:1052000044740120FBF775FEFBF72AFED5484030B9
:10521000816A1620FCF7C0FDD6490D20FCF7BCFDC5
:10522000002004F09CFA002004F09CFA0020FFF714
:10523000C4FF0020FFF7D9FFFBF7A3FBFFF7C7FF71
:10524000AE20FBF752FE0720FDF758FAFFF7BCFF30
:10525000002820D00020FFF7B4FF01206946087124
:105260004C71C5484169029101690391C16804917B
:10527000059481680691416807910068089008A923
:105280000C7101A9002006F05DFD002803D001A9E2
:10529000002006F057FD0AB010BDF8B504460D46D3
:1052A00016461F463520FCF77BFD64280BD90120EC
:1052B000FBF71FFEB14800903B4632462946204688
:1052C000FBF7B4FCF8BD0120FBF713FEAC480090DF
:1052D0003B46324629462046FBF7A8FCF8BDF8B508
:1052E00004460D4616461F463620FCF759FD642835
:1052F0000BD90120FBF7FDFD9C4800903B46324650
:1053000029462046FBF792FCF8BD0120FBF7F1FD92
:105310009C4800903B46324629462046FBF786FCD7
:10532000F8BD38B504F047F8002809D004F043F878
:1053300001282CD0FFF75CFFAF20FBF7D6FD38BD6E
:1053400004F07CFE0028F7D0002004F02EF80120A5
:10535000FBF7CFFDFBF784FD8B4800900423002270
:1053600030211020FBF762FC002388A205210A20CF
:10537000FBF77DFC002386A205210F20FBF777FCBD
:10538000002384A205211420FBF771FCD4E704F06C
:1053900058FE002833D0002004F010F80120FBF75D
:1053A000A8FD1924640121460720FCF7F5FC2146DD
:1053B0000820FCF7F1FCFF242D34204603F0F2FF17
:1053C000204603F0ECFF04F03FFE664C0025803CD5
:1053D000002803D104F03BFE00280AD0002004F08E
:1053E000C7F9002003F0E4FF606A012814D001200F
:1053F0006062606A002811D0012822D0656205230E
:10540000032206210020FFF76AFF05230322402123
:105410003A20FFF742FF8FE76562EAE7062303229F
:105420003A211846FBF733FD05235AA20121072034
:10543000FBF71DFC052359A203210720FBF717FCEE
:10544000DDE7062303223A211846FBF720FD05235A
:1054500050A201210720FBF70AFC052351A20321DA
:105460000220FBF704FCCAE770B50C4611461A4649
:10547000049B092814D00A2812D0632810D064286D
:105480000ED04A4DA8420BD06D1CA84208D0364D14
:10549000A84205D06D1CA84202D0454DA84202D1B9
:1054A0002046FBF7F4FC70BDF8B504F0CDFD0026F6
:1054B0002F4D002809D0002004F05AF9687C401CC8
:1054C000C0B26874042800D96E7404F0C0FD2A4C80
:1054D00000281AD0002003F06BFFFFF792FD002890
:1054E00002D001287FD129E00120FFF76AFE687C05
:1054F000030007F0C2FC05040B11171D78002D49AD
:10550000206888426FD2401C20606CE060680C28E4
:1055100069D2401C606066E0A0681F2863D2401C0E
:10552000A06060E0E06817285DD2401CE0605AE0AF
:1055300020693B2857D2401C206154E00120FFF72E
:1055400040FE687C030007F098FC0504373D4349A2
:105550004E007D2120680901884244D9401E206008
:1055600041E00000C00B00200F270000FCE000001D
:10557000AC010020442F0000440C002008E1000092
:10558000F0E00000E4E00000C2DA0000360A0000AB
:105590002E0A0000504F5745520A0000204F464641
:1055A000200A000020204F4E200A0000E7030000E0
:1055B0009F860100330800006068012813D9401E4F
:1055C000606010E0A06801280DD9401EA0600AE0CC
:1055D000E068002807D0401EE06004E02069012850
:1055E00001D9401E206104F02CFD00287ED000204F
:1055F00003F0E4FE6661F74E0323012220211E2002
:105600000096FBF713FB0323012231212F20009684
:10561000FBF70CFBF049206807F0A4FB7D27084648
:10562000FF00394607F09EFBEC4E00018019012275
:105630000090032309211046FBF7F8FA3946206849
:1056400007F090FB0846642107F08CFB00018019ED
:1056500000900323012210210820FBF7E7FA6421C0
:10566000206807F07FFB08460A2107F07BFB00015A
:10567000801900900323012217210F20FBF7D6FA8F
:105680000A21206807F06EFB0801801900900323AF
:1056900001221E211620FBF7C9FA6421606807F079
:1056A00061FB08460A2107F05DFB000180190090AC
:1056B0000323012228212020FBF7B8FA0A21606881
:1056C00007F050FB080180190090032301222F21CD
:1056D0002720FBF7ABFA6421A06807F043FB0846DC
:1056E0000A2107F03FFB0001801900E07EE00090F6
:1056F0000323012239213120FBF798FA0A21A068FF
:1057000007F030FB0801801900900323012240219B
:105710003820FBF78BFA6421E06807F023FB08468A
:105720000A2107F01FFB00018019009005230322C6
:1057300015210D20FBF77AFA0A21E06807F012FB29
:10574000080180190090052303221D211520FBF775
:105750006DFAA34800900523032225211D20FBF7A5
:1057600065FA6421206907F0FDFA08460A2107F06E
:10577000F9FA000180190090052303222D2125202C
:10578000FBF754FA0A21206907F0ECFA08018019A6
:1057900000900523032235212D20FBF747FA687C72
:1057A000904D030007F069FB05042342618022004D
:1057B0006421206807F0D6FA08460A2107F0D2FAD9
:1057C0000001401900900323012217210F20FBF74D
:1057D0002DFA0A21206807F0C5FA08014019009047
:1057E000032301221E211620FBF720FAF8BD6421B5
:1057F000606807F0B7FA08460A2107F0B3FA00011B
:10580000401900900323012228212020FBF70EFAE3
:105810000A21606807F0A6FA0801401900900323E6
:1058200001222F212720FBF701FAF8BD6421A0688F
:1058300007F098FA08460A2107F094FA0001401987
:1058400000900323012239213120FBF7EFF90A21CF
:10585000A06807F087FA080140190090032301228D
:1058600040213820FBF7E2F9F8BD6421E06807F039
:1058700079FA08460A2107F075FA000140190090EC
:105880000523032215210D20FBF7D0F90A21E0683A
:1058900007F068FA080140190090052303221D2132
:1058A0001520FBF7C3F9F8BD6421206907F05AFA07
:1058B00008460A2107F056FA000140190090052316
:1058C00003222D212520FBF7B1F90A21206907F0D9
:1058D00049FA0801401900900523032235212D20A3
:1058E000FBF7A4F9F8BDF0B58BB003F064FD00261A
:1058F0003D4C002814D003F05EFD012838D003F0A1
:105900005AFD3A4F3A4D022863D003F054FD032864
:105910007CD0FFF76DFCAF20FBF7E7FA0BB0F0BDD2
:1059200004F08CFB002821D0002003F03EFD012074
:10593000FBF7DFFAFBF794FA2E48009004230022CD
:1059400030211020FBF772F900232BA20521032040
:10595000FBF78DF9002329A205210820FBF787F921
:10596000002327A205210D20FBF781F9A673D2E7BA
:10597000FFF747FB002802D001284AD115E004F0C8
:1059800063FB002803D104F062FB002841D0002013
:1059900003F0EEFE002003F00BFDA07B062802D2F0
:1059A000401CA07335E0A67333E004F04DFB0028E3
:1059B00003D104F04CFB00282BD0002003F0D8FECC
:1059C000002003F0F5FCA07B002820D0401EA0732F
:1059D0001FE014E1C7E000001027000057DD0000C1
:1059E000D4E00000F7DD0000AC010020EBEA00008D
:1059F000000C002042D70000350A00002E0A0000EB
:105A000053455454494E470A00000000FEE3062067
:105A1000A07304F016FB0028A9D0002003F0CEFCF0
:105A20000120FBF766FAFBF71BFA19256D012946E1
:105A30000720FCF7B1F929460820FCF7ADF9FF254E
:105A40002D35284603F0AEFC284603F0A8FCA07BC9
:105A5000030007F012FA0706213C57729EB90500B1
:105A600059E7FF4800900423002230211020FBF763
:105A7000DDF80023FBA205211846FBF7F8F8052105
:105A80000023F9A20846FBF7F2F80023F7A205214C
:105A90000A20FBF7ECF83EE7F748009004230022C9
:105AA00030211020FBF7C2F80023F4A2052118468C
:105AB000FBF7DDF805210023EBA20846FBF7D7F83A
:105AC0000023EFA205210A20FBF7D1F823E7EF48D6
:105AD00000900423002230211020FBF7A7F80023B8
