:020000040000FA
:10000000200F0020D5000000DD000000DF00000010
:1000100000000000000000000000000000000000E0
:10002000000000000000000000000000E1000000EF
:100030000000000000000000E3000000E5000000F8
:10004000B5BE000089F30000C1C40000D9C400009F
:1000500063C4000091C4000011D1000061D200000F
:10006000A3EA000033EB0000C3EB000053EC0000F8
:1000700041F500006DF50000E7000000E70000001A
:10008000E7000000E7000000E7000000E7000000D4
:10009000E70000000000000000000000E700000092
:1000A000E7000000E7000000E7000000E7000000B4
:1000B000D1C00000DDCF000000000000C1DF000063
:1000C000034885460FF088FE00480047BD26000023
:1000D000200F00200448804704480047FEE7FEE761
:1000E000FEE7FEE7FEE7FEE773010000C100000047
:1000F00070B5204800694607760F052E00D9042602
:10010000022E03D0B0001C490D581EE01948006AA9
:100110000004840F012C00D9641E164A126A1203CF
:10012000D20F01D0154A00E0154A124B1B6ADB05BD
:10013000DB0D9B1C104658430E4A126A9204D20EE5
:10014000911C0FF0E7FDE04005460A488069000772
:10015000000F411C28460FF0DDFD0A4908600A49DE
:10016000084800684A1080180FF0D4FD074908605D
:1001700070BD70470002005008000020008051014F
:10018000001BB7000000002040420F0004000020C8
:10019000FFB581B007460C46154664260121B940DB
:1001A000C8B20CF0E5FE01200CF0FDFE00200CF0C2
:1001B000E7FE0CF057FF06E03046761E002802D11D
:1001C000401E05B0F0BD0CF05CFF0028F4D0F8B282
:1001D0000CF05FFF0646049886420ED90A98002864
:1001E00001D13046EDE720682968401A8019206067
:1001F0002068000928602868E3E70020C043E0E7A2
:1002000008B559206F4908601620086088200860EA
:1002100017200CF089FA18200CF086FA19200CF03F
:1002200083FA1B200CF080FA1D200CF07DFA1020C0
:10023000022300220121009010460CF003FE002052
:100240006049086008BD38B50024012000235E4ADB
:100250005E4900900620FFF79BFF0446601C0DD00E
:100260005B480460014609684B225201514308462D
:100270007D21C9000FF04EFD5549486038BD38B5A5
:10028000002401200023534A534900900420FFF723
:100290007FFF0446601C0CD04D488460014689688D
:1002A0004E4A514308467D21C9000FF033FD4849AD
:1002B000C86038BD38B5002401200023484A4949A8
:1002C00000900220FFF764FF0446601C0DD04048F8
:1002D000046101460969414A1432514308467D21AF
:1002E000C9000FF017FD3A49486138BD38B5002400
:1002F000012000233C4A3D4900901846FFF748FF83
:100300000446601C0CD03248846101468969384A31
:10031000514308467D21C9000FF0FCFC2C49C861FF
:1003200038BD38B5002401200023324A32490090FC
:10033000FFF72EFF0446601C0DD0254804620146DD
:10034000096A2B4A5A32514308467D21C9000FF0F1
:10035000E1FC1F49486238BD10B528480178007893
:10036000401C264A1070002902D0012909D102E060
:10037000FFF769FF09E0FFF7D4FF00201F4908706D
:1003800003E000201D49087000BF00BF10BD10B57C
:100390001B4801780078401C194A1070002902D0CF
:1003A000012909D102E0FFF76AFF09E0FFF79EFF8C
:1003B00000201349087003E000201149087000BFB5
:1003C00000BF10BD000100502400002020000020CC
:1003D000380300202C000020280000207E090000A7
:1003E00034000020300000203C00002038000020B5
:1003F00025030000440000204000002048000020A9
:1004000049000020FF4800687047FF4800687047B7
:10041000FE4800687047FB4908607047FA49086069
:100420007047FA4908607047F8B504460025F84E51
:10043000206803000FF00DFD08FE054650B6FDFCD8
:10044000FBFA232002F0FAF900283AD12320616850
:1004500002F0F0F900BF0FF087FCFC2100900FF0D4
:1004600059FC0F46032138460FF054FC0546E94875
:100470000078A842EFD0E7490D70E54E68002818D3
:10048000305C64214843C117090E09180812FFF7B0
:10049000C8FF680028188019407864214843C117B4
:1004A000090E09180812FFF7B9FF6800281880190B
:1004B000807864214843C117090E09180812FFF714
:1004C000AAFF67E26069FFF7ACFFA069FFF7A6FF2C
:1004D000E069FFF7A0FF5DE2CF480068002804D084
:1004E000012819D0022851D133E00020FFF799FFED
:1004F0000020FFF793FF0020FFF78DFF23206168A6
:1005000002F098F92420A16802F094F9C24800682A
:10051000401CC149086043E0232002F08FF9002805
:1005200009D06069FFF77DFFA069FFF777FFE069F9
:10053000FFF771FF0CE02320616802F07BF92420B3
:10054000A16802F077F9B4480068401CB24908601D
:1005500026E0242002F072F9002809D00020FFF7DD
:1005600060FF0020FFF75AFF0020FFF754FF0CE068
:100570002320616802F05EF92420A16802F05AF994
:10058000A5480068401CA449086009E0E06801280B
:1005900005D9E068401EE06000209F49086000BF68
:1005A00000BFF7E19C48006803000FF052FC05040F
:1005B000132F516D7C000020FFF733FF0020FFF761
:1005C0002DFF0020FFF727FF93480068401C924949
:1005D000086072E0232002F031F900280CD00020DE
:1005E000FFF71FFF0020FFF719FF0020FFF713FFA1
:1005F0006320FFF716FF08E02320616802F01AF974
:1006000085480068401C8449086056E0232002F0B9
:1006100015F9002812D00020FFF703FF0020FFF794
:10062000FDFE0020FFF7F7FE632004E0B1E188E063
:1006300045E0C8E0A0E1FFF7F1FE08E02320616893
:1006400002F0F8F874480068401C7349086034E010
:10065000232002F0F3F800280CD00020FFF7E1FE81
:100660000020FFF7DBFE0020FFF7D5FE6320FFF739
:10067000D2FE08E02320616802F0DCF866480068DA
:10068000401C6549086018E00020FFF7CAFE002002
:10069000FFF7C4FE0020FFF7BEFE5F480068401C65
:1006A0005D49086009E0E068012805D9E068401E5E
:1006B000E06000205849086000BF00BF6AE156486A
:1006C0000068002831D1232002F0B8F800282BD18F
:1006D0002069632823D22320616802F0ABF82069E7
:1006E000401C0546206161696943084664210FF09A
:1006F00011FB0746FFF795FEA1696943084664218F
:100700000FF008FB0746FFF789FEE16969430846D9
:1007100064210FF0FFFA0746FFF77DFE04E03E4834
:100720000068401C3C49086009E0E068012805D9E0
:10073000E068401EE06000203749086000BF00BF4D
:1007400028E135480068002831D1232002F076F8EE
:1007500000282BD12069002823D02320616802F0D3
:1007600069F82069401E05462061616969430846B1
:1007700064210FF0CFFA0746FFF753FEA1696943E2
:10078000084664210FF0C6FA0746FFF747FEE16905
:100790006943084664210FF0BDFA0746FFF73BFEA8
:1007A00004E01D480068401C1B49086009E0E0683F
:1007B000012805D9E068401EE06000201649086065
:1007C00000BF00BFE6E01448006803000FF041FBE3
:1007D000060432506E8CAAC82069632822D22320D6
:1007E00002F02CF8002824D12320616802F022F8BE
:1007F0002169491C08462161FFF713FE0020FFF71D
:100800000DFE0BE0500100204C01002048010020AB
:100810004C00002058010020540100206320FFF705
:10082000FAFD06E0632020616B480068401C6A49BD
:1008300008609FE02069002812D0232001F0FEFF0D
:10084000002814D12320616801F0F4FF6320FFF732
:10085000E8FD2169491E08462161FFF7DCFD06E03D
:10086000002020615C480068401C5B49086081E012
:100870002069632812D2232001F0E0FF002814D160
:100880002320616801F0D6FF6320FFF7CAFD2169CC
:10089000491C08462161FFF7C1FD06E06320206185
:1008A0004D480068401C4C49086063E020690028FE
:1008B00012D0232001F0C2FF002814D12320616848
:1008C00001F0B8FF2169491E08462161FFF7A9FD23
:1008D0006320FFF7A3FD06E0002020613E4800688A
:1008E000401C3D49086045E02069632812D223205E
:1008F00001F0A4FF002814D12320616801F09AFFC1
:100900006320FFF78BFD2169491C08462161FFF731
:1009100082FD06E0632020612F480068401C2E49BC
:10092000086027E02069002812D0232001F086FF0C
:10093000002814D12320616801F07CFF2169491E41
:1009400008462161FFF76AFD6320FFF764FD06E0BA
:100950000020206120480068401C1F49086009E011
:10096000E068012805D9E068401EE06000201A49CF
:10097000086000BF00BF0DE000202061164908603C
:10098000FFF74FFD0020FFF749FD0020FFF743FD73
:1009900000E000BF00BF02F0B1FF01280FD1FFF758
:1009A00037FD074602F02AF9FFF72FFD074602F050
:1009B00058F9FFF727FD074602F093F908E00020F9
:1009C00002F01CF9002002F04CF9002002F089F935
:1009D000F8BD0149086070475401002010B500209F
:1009E00002F00CF9002002F03CF9002002F079F945
:1009F00010BD70B505460C460420B949086008468C
:100A000044608460C560632048618861C8610846AD
:100A10004168232001F00EFFB1488168242001F0D5
:100A200009FF0020FFF7D5FFAD48FFF7FDFC70BDC3
:100A300010B504460520AA49086008464460846051
:100A4000A848C8600021232001F0F4FE00212420E2
:100A500001F0F0FE0020FFF7BCFFA148FFF7E4FC27
:100A600010BD10B5044601209D4908600846446049
:100A700084609C48C8600021232001F0DBFE002137
:100A8000242001F0D7FE0020FFF7A3FF9448FFF7D2
:100A9000CBFC10BDF8B505460E4617461C46062091
:100AA0008F4908600846446084600120C860642162
:100AB00069430846C917090E09180912884A516185
:100AC000642171430846C917090E0918091291617A
:100AD000642179430846C917090E09180912D16122
:100AE00010464168232001F0A5FE7D48816824203E
:100AF00001F0A0FE0020FFF76CFF7948FFF794FC9F
:100B0000F8BD70B50446002C04D0012C13D0022C83
:100B100021D11AE0744DED6B6E00AD196B1C724D56
:100B2000AD6BEAB2704D6D6BE9B26F4D2D6BE8B2F3
:100B3000FFF7B0FF10E06C4940318968491C78220A
:100B400051430846FFF78DFF06E067494031C8680A
:100B5000FFF76EFF00E000BF00BF70BD10B50020C2
:100B60005F49086048618861C86108464168232080
:100B700001F060FE5A488168242001F05BFE0020ED
:100B8000FFF727FF5648FFF74FFC10BDF8B50546A5
:100B90000E4617461C460720514908606008486009
:100BA000600888600120C860642169430846C9174D
:100BB000090E091809124A4A516164217143084615
:100BC000C917090E09180912916164217943084671
:100BD000C917090E09180912D1611046416823206E
:100BE00001F028FE3E488168242001F023FE002009
:100BF000FFF7EFFE3A48FFF717FCF8BD70B5044663
:100C0000002C04D0012C11D0022C13D10FE0364D52
:100C1000ED6BEB1C344DAD6BEAB2334D6D6BE9B24D
:100C2000314D2D6BE8B2FFF7B1FF04E000BFFFF7D5
:100C300095FF00E000BF00BF70BD70B504460D46D3
:100C400016460220264908600120C86064216143DD
:100C50000846C917090E09180912214A5161642171
:100C600069430846C917090E0918091291616421E0
:100C700071430846C917090E09180912D1611046B7
:100C80004168232001F0D6FD15488168242001F039
:100C9000D1FD0020FFF79DFE1148FFF7C5FB70BD99
:100CA00010B503200E490860FA20486088600F20C4
:100CB000C8606320486100208861C86108464168B7
:100CC000232001F0B7FD06488168242001F0B2FD21
:100CD0000020FFF77EFE0248FFF7A6FB10BD0000D4
:100CE0006003002010270000D00B002070B50446E0
:100CF000002500BF1BE08020044204D00A21002010
:100D00000BF02DFC03E00A2100200BF04BFCFF4808
:100D10008068012149020843FC49886008468068D0
:100D2000FB498843F94988606006040E6D1C082D54
:100D3000E1D3F6488068F6490843F44988600846DC
:100D40008068F3498843F149886070BD10B5044656
:100D5000EE488068EF490843EC498860084680689F
:100D6000EB490843E949886008468068E9498843B7
:100D7000E649886008468068E5498843E349886019
:100D80007820FFF7B3FF0020FFF7B0FFE0B2FFF7D6
:100D9000ADFFDE488068DF498843DC49886008464B
:100DA0008068DB490843D949886008468068D9498A
:100DB0000843D649886008468068D5498843D349A6
:100DC000886010BD10B50446D0488068D1490843FA
:100DD000CE49886008468068CD490843CB49886081
:100DE00008468068CB498843C849886008468068BF
:100DF000C7498843C54988607820FFF777FF4020BE
:100E0000FFF774FFE0B2FFF771FFC0488068C14987
:100E10008843BE49886008468068BD490843BB498D
:100E2000886008468068BB490843B849886008461E
:100E30008068B7498843B549886010BD70B50546DC
:100E40000C462846B030FFF781FF210908461230D2
:100E5000FFF77CFF2007000FFFF778FF70BDFEB59E
:100E600006460C461746002500200190009000F031
:100E7000A5FA002801D10220FEBD254613E0314627
:100E80002846FFF7DBFF0020019008E000994A1C8C
:100E90000092785CFFF796FF0198401C0190019842
:100EA0000528F3D36D1C601C8542E8D30020E3E7DE
:100EB000FEB506460C46174600250020019000901E
:100EC00000F07CFA002801D10220FEBD254613E087
:100ED00031462846FFF7B2FF0020019008E0009954
:100EE0004A1C0092785CFFF76DFF0198401C01904E
:100EF00001980528F3D36D1CA01C8542E8D300207F
:100F0000E3E7FEB506460C46174600250020019093
:100F1000009000F053FA002801D10220FEBD2546C2
:100F200013E031462846FFF789FF0020019008E0D2
:100F300000994A1C0092785CFFF744FF0198401C1E
:100F4000019001980828F3D36D1CA01C8542E8D3BA
:100F50000020E3E7FEB506460C46174600250020B4
:100F60000190009000F02AFA002801D10220FEBD75
:100F7000254613E031462846FFF760FF0020019028
:100F800008E000994A1C0092785CFFF71BFF01986B
:100F9000401C019001980828F3D36D1CE01C854289
:100FA000E8D30020E3E7FEB506460C4617460025C9
:100FB00000200190009000F001FA002801D10220E9
:100FC000FEBD254613E031462846FFF737FF0020D7
:100FD000019008E000994A1C0092785CFFF7F2FE4D
:100FE0000198401C019001980A28F3D36D1CA01CA5
:100FF0008542E8D30020E3E7FFB583B004460E4600
:101000001746002500200290019000F0D7F9002833
:1010100002D1022007B0F0BD3D4613E0214628462C
:10102000FFF70CFF029409E001994A1C01920C9A07
:10103000505CFFF7C7FE0298401C02900298B04235
:10104000F2D36D1C06988542E8D30020E2E7FFB595
:1010500081B014460025019F02980090002600F000
:10106000ADF9002802D1022005B0F0BD04980300BC
:101070000EF0EFFE05041628395A6C000CE0605D96
:101080002038810040182449421838460099FFF75B
:10109000E6FEFF1D761C6D1CA05D0A28EFD156E010
:1010A0000CE0605D20380A2148431C49421838464C
:1010B0000099FFF7FDFEFF1D761C6D1CA05D0A2840
:1010C000EFD144E00BE0605D203800011449421884
:1010D00038460099FFF715FF0837761C6D1CA05D98
:1010E0000A28F0D133E00CE0605D20381821484335
:1010F0000C49421838460099FFF72CFF0837761C38
:101100006D1CA05D0A28EFD121E0000000400050D6
:101110000002000000040000481901006F1A0100DD
:10112000BD1C01005D2001000CE0605D2038142131
:1011300048430849421838460099FFF734FF0A37F8
:10114000761C6D1CA05D0A28EFD100E000BF00BF37
:10115000002089E7CD22010010B50446002C02D002
:10116000012C7ED14BE0AE20FFF7F0FD0020FFF711
:10117000EDFD1020FFF7EAFD4020FFF7E7FDB0206E
:10118000FFF7E4FD8120FFF7E1FD8020FFF7DEFDA2
:10119000A020FFF7DBFDA620FFF7D8FDA820FFF772
:1011A000D5FD2F20FFF7D2FDC020FFF7CFFDD320C4
:1011B000FFF7CCFD0020FFF7C9FDD520FFF7C6FDE6
:1011C0008020FFF7C3FDD920FFF7C0FD2220FFF7E5
:1011D000BDFDDA20FFF7BAFD1220FFF7B7FDDB20D7
:1011E000FFF7B4FD3020FFF7B1FD8D20FFF7AEFD16
:1011F0009520FFF7ABFDAF20FFF7A8FD4EE0AE2036
:10120000FFF7A4FD0020FFF7A1FD1020FFF79EFDD2
:101210004020FFF79BFDB020FFF798FD8120FFF7EE
:1012200095FD8020FFF792FDA120FFF78FFDA620FE
:10123000FFF78CFDA820FFF789FD1F20FFF786FD33
:10124000C820FFF783FDD320FFF780FD0020FFF7C4
:101250007DFDD520FFF77AFD8020FFF777FDD920AF
:1012600000E01AE0FFF772FD2220FFF76FFDDA20A1
:10127000FFF76CFD1220FFF769FDDB20FFF766FD2D
:101280003020FFF763FD8D20FFF760FD9520FFF70D
:101290005DFDAF20FFF75AFD00E000BF00BF10BDAD
:1012A00010B50320000201F09FFD46488068FF2131
:1012B0000131884343498860434801F095FD414826
:1012C0008068FF21013108433E4988603E4801F0B3
:1012D0008BFD10BD10B50122082100200BF008F98C
:1012E0000122092100200BF003F901220A2100202C
:1012F0000BF0FEF8FFF7D4FF34488069012802D9CB
:1013000000203249886131498969C8B2FFF724FF5A
:1013100010BD70B50024002500BF0CE00021204660
:10132000FFF78CFD002503E00020FFF74BFD6D1C4F
:10133000402DF9D3641C062CF0D370BDFFB581B0ED
:1013400004460E4617460025002000903D460FE05B
:1013500021462846FFF772FD009405E00020FFF7C4
:1013600031FD0098401C00900098B042F6D36D1CEF
:1013700004988542ECD305B0F0BD70B50546002455
:1013800009F0C8FB6843064664210EF0C3FCC4B2F2
:10139000642C00DD64241E2C00DA1E248120FFF75B
:1013A000D5FC2046FFF7D2FC70BD10B504462046A0
:1013B000FFF7CCFC10BD0649087070470448007860
:1013C000704700000040005000030000500B002058
:1013D000590100200EB559201349086016200860F5
:1013E000882008602A200BF09FF910480090032104
:1013F00068460171002141718171C1716946002007
:101400000EF045F90A4A012100200EF0C1FA03222C
:10141000002102200BF06CF8002102200BF09FF855
:101420000020014908600EBD0001005000C201000B
:101430003514000010B504461422FF4900200EF0B8
:101440001EFB10BDFD4908707047FD4908707047CC
:10145000FA480078704710B5FFF7FAFF002802D06D
:1014600001280DD107E0002102200BF078F80020C0
:10147000FFF7EBFF08E0002102200BF093F803E0F8
:101480000020FFF7DFFF00BF00BF10BDED4A107066
:10149000704710B5002428E060024D2292028118A6
:1014A0008022E94801F0DFFCE748E849086014E0E1
:1014B000E6480068C07B962801D1012010BDE448B1
:1014C000E2490968884203D8DF48E049086005E03E
:1014D000DE4800681030DD490860E9E700BF641CA1
:1014E0005A2C02D300240020E8E7D5E7F0B589B0F4
:1014F00000260024002500270224CF48D549086093
:1015000008460068007800287ED008460068007809
:101510000002096849780843CF4A811A904274D082
:101520002BDCCE4A811A904270D014DCCC4A811A4E
:1015300090426CD008DCCB49401869D0CA494018A9
:1015400039D001287ED142E005297CD006297BD004
:101550000729F7D105E2881F0A2873D243007B448C
:101560009B885B009F4425026E006E006E00370270
:101570006A02A302B102BB02C2021729EDD24B00DC
:101580007B449B885B009F445D000B0312032A038E
:10159000340346036A037903A703B2035D005D00C9
:1015A0005D005D005D005D00C303CE035D005D0076
:1015B000D903E403EF03A0481D38C07FFF2800D003
:1015C000EDE30322A94900200EF075FAE7E39A48FB
:1015D0001738C07FFF2800D0E1E30020A44908703D
:1015E000A44908700120FFF730FF2046641C994988
:1015F0000968085CA04908702046641C9549096880
:10160000085C9D49487004E0CFE39CE2B0E1CCE087
:10161000BBE32046641C8F490968085C96498870C2
:101620002046641C8B490968085C9349C8702046B1
:10163000641C88490968085C8F4908712046641C4D
:10164000844902E0AAE3BDE07CE10968085C8A49BC
:101650004871012168460170002141708648407937
:1016600001908548007902908348C078039000205B
:1016700004908148807805907F48407806907E48A5
:1016800000787D21090140180790002108A8017009
:10169000694600200CF07EFF0746002F04D003228D
:1016A000764900200EF007FA7548C0697549087040
:1016B0007348006A48707248406A8870AB2072496B
:1016C000096808701320704909684870FF216E4846
:1016D000006881730C226B496C480EF057FB0F2297
:1016E0006A49891E00200EF0E6F9032001F089FB0B
:1016F00063494039486A64210EF00CFB6449087064
:101700006449C86900210AF08DF9614948705C4854
:10171000006888705A484038006BC8705848403894
:10172000406B087156484038806B487154494039C5
:10173000C86A59490EF0EEFA554988715049886ACD
:101740007D21C9000EF0E6FA5149C8714C498869FB
:101750007D21C9000EF0DEFA4D4908724B20487217
:10176000502088720020C872AB2047490968087071
:10177000FFF78FFE002804D00C2043490968487009
:1017800003E00B20404909684870FF213E4800688B
:1017900081730C223E493D480EF0F8FA0F223B4976
:1017A000891E00200EF087F9F9E223481D38C07F1A
:1017B000FF2800D0F3E232484038C16A192001F016
:1017C00039F8ECE21C481838C07FFF2800D0E6E268
:1017D00001202B49C0394860C8602146641C1D4A5D
:1017E0001268515C2246641C1A4B1B689A5C1202F8
:1017F0001143084609F098F92046641C1549096808
:10180000085C2146641C134A1268515C09020843B3
:101810000A21484306462046641C0E490968095CB3
:101820001748403801600068002839D0012838D0B6
:1018300002284AD0032831E0800300206401002000
:101840006801002066010020A8030020700100202C
:10185000980500205C01002020AA00000AAA0000D0
:1018600002AA0000FF77FFFF01DEFFFF73270100E0
:10187000690100206A010020940100207027010006
:10188000100C0020D40700206001002096030020E7
:10189000C80700203803002060EA00003BD126E0A2
:1018A0003AE0F9484663406B7D218901884202D9BC
:1018B000F649F5484163F448406B7D21490188426F
:1018C00002D2F249F048416326E0EF488663806B1C
:1018D000EF49884202D9EF49EB488163EA48806BBF
:1018E000ED49884202D2EB49E748816314E0E648BB
:1018F000C663C06B7D210901884202D9E749E248ED
:10190000C163E148C06BFF21F531884202D2E3494F
:10191000DD48C16300E000BF00BF04F097FEFFF7A1
:10192000F8FC0021112000F085FF0021122000F0BA
:1019300081FF0021132000F07DFF0021142000F022
:1019400079FF2CE2D648C07FFF2800D027E220464E
:10195000641CD4490968095CCB48016004F076FE38
:101960001DE2CF48401EC07FFF2800D017E216E2DC
:10197000CB48C07FFF2800D011E22046641CC94933
:101980000968085C7D21C9004843BF498861084651
:101990008069C549884202D9C449BB488161BA48B7
:1019A0008069C249884201D2B748816104F04EFE85
:1019B000F5E1BB48C07FFF2800D0F0E12046641C61
:1019C000B8490968085CBA494843AF494039C86218
:1019D00004F03CFEE3E1B2480B30C07FFF2800D0AA
:1019E000DDE10120A849C03948600020C860FFF748
:1019F00090FC002507E02046641CAA490968085CA1
:101A0000AC4948556D1C0C2DF5D39F484030002142
:101A1000016041608160C16001614161112000F09D
:101A200009FF0021122000F005FF0021132000F023
:101A300001FF0021142000F0FDFEB0E198480B30BA
:101A4000C07FFF2800D0AAE101208F49C03948603B
:101A50000020C860002507E02046641C9149096801
:101A6000085C954948556D1C0C2DF5D30C22914905
:101A7000854840300EF08AF90C228F4982484C305C
:101A80000EF084F904F0E2FDFFF743FC0021112081
:101A900000F0D0FE0021122000F0CCFE0021132027
:101AA00000F0C8FE0021142000F0C4FE77E17C485D
:101AB000401DC07FFF2800D071E101207F490870E0
:101AC0007F490870FFF7E2FC69E17548401DC07F5F
:101AD000FF2800D063E10120794908705FE1704878
:101AE000401DC07FFF2800D059E158E16C48093003
:101AF000C07FFF2800D052E101206349C0398860CF
:101B00002046641C67490968085C6E4908702046D5
:101B1000641C64490968085C6A4948702046641C72
:101B200060490968085C67498870002508E020461C
:101B3000641C5C490968095C6248C01C41556D1C05
:101B4000072DF4D32BE156480930C07FFF2800D081
:101B500025E101204C49C03988602046641C514968
:101B60000968085C584908702046641C4D4909689A
:101B7000085C554948702046641C4A490968085C5D
:101B800051498870002508E02046641C45490968D1
:101B9000095C4D48C01C41556D1C072DF4D3FEE077
:101BA0003F48401EC07FFF2800D0F8E0F7E03C48E7
:101BB000401CC07FFF2800D0F1E02146641C394A58
:101BC0001268515C2246641C364B1B689A5C1202F8
:101BD0001143084605F01DFF04F038FDDFE03048F2
:101BE000401EC07FFF2800D0D9E00020FFF72DFC69
:101BF000D5E02B48C07FFF2800D0D0E02046641CF1
:101C000028490968085C7D21C90048431E4988624B
:101C100004F01CFDC3E02248801CC07FFF2800D0D8
:101C2000BDE02046641C1F490968095C164840381D
:101C300001632046641C1B490968095C124840384E
:101C400041632046641C17490968095C0E48403806
:101C5000816300214030416004F0F8FC9FE01048AF
:101C6000C07FFF2800D09AE02046641C0D49096817
:101C7000095C0548416004F0E9FC90E00848401E1A
:101C8000C07FFF2822D08AE0100C002070170000CF
:101C90007C150000AC0D0000DC0500001A040000FB
:101CA000640300205C01002080380100F82401005A
:101CB00060EA0000000800200C08002069010020F4
:101CC0006A010020EA070020E00700200121F8480F
:101CD000C16104F0BBFC62E0F648C07FFF2800D081
:101CE0005DE00021F248C16104F0B0FC57E0F1482A
:101CF000401CC07FFF2800D051E02046641CEE4904
:101D00000968085CEA49C039086104F09FFC46E0B4
:101D1000E848C07FFF2800D041E00121E44801628B
:101D200004F094FC3BE0E348C07FFF2800D036E09D
:101D30000021DF48016204F089FC30E0DD48C07F0B
:101D4000FF2800D02BE00121D948416204F07EFC3D
:101D500025E0D848C07FFF2800D020E00021D448EB
:101D6000416204F073FC1AE0D248401CC07FFF2897
:101D700000D014E02046641CCF490968085CCC49B7
:101D8000C039C86704F062FC09E0CA48C07FFF2878
:101D900000D004E00020FFF758FB00E000BF00BFC8
:101DA0001421C4481D300EF00AF8002009B0F0BD1F
:101DB000C2480078704710B501F0C0FC052801D179
:101DC000801F10BDFFF7F4FF002814D00020FFF79C
:101DD0005DFB01214902BA480DF0F1FFB9480068E6
:101DE00040024D22920281188022B74801F03BF850
:101DF000B548B6490860B6480078002875D0B5489F
:101E0000007800287AD00020B2490870B2491A2020
:101E100000F010FD70E000F0D1FFAC480068C07B1E
:101E200096281FD10020A9490968C8730120AB4931
:101E30000860AB20AA49096808700820A849096809
:101E40004870FF21A648006841740F229F4801682E
:101E5000A4480DF09BFF1222A249891E00200DF01C
:101E60002AFE4AE0A0489949096888423FD8964826
:101E70009649086099480068002812D0914909687D
:101E800049024D2292028818042101F00FF88D4872
:101E9000006840024D229202811880228A4800F098
:101EA000BFFF88480068401C8649086008460068F3
:101EB0005A2809D3002008608549087003228B49FD
:101EC0000DF0F9FD00207CE77E48006840024D22BD
:101ED0009202811880227C4800F0C5FF7A487B4935
:101EE000086000207D49086006E012E006E07748BF
:101EF00000681030754908608DE70AE01A2000F08C
:101F00009DFC002805D172490870032278490DF024
:101F1000D2FD002055E76E4800787047754800787C
:101F2000704730B589B0044601F0E0FC012802D1C9
:101F3000801E09B030BD03F07BFE002802D00020D7
:101F4000C043F6E7FFF7EAFF002805D0FFF7E3FFFD
:101F5000002801D1401EECE75548C038C068012870
:101F60000ED153484038C0690004000E6249096828
:101F700008704F484038C0695F49096848700DE0F3
:101F80004B48403880690004000E5B4909680870BE
:101F90004748403880695849096848704448C03803
:101FA000C06A0004000E5449096888704048C0386F
:101FB000C06A51490968C8703D494039486A64217E
:101FC0000DF0A8FE4C49096808710E2000F036FC9F
:101FD0004A49081A054664357D21C90028460DF096
:101FE00099FE4549096848714549C869002109F0C9
:101FF00019FD414909688871694600200CF063F9B0
:10200000D0210798401A3C490968C8713A49069896
:102010000968087238490598096848723649039872
:1020200009688872344902980968C872324901986F
:1020300009680873962030490968C8731C48C0387D
:10204000C06F01281ED101F04EFCE121C9004843B8
:1020500005467D21C9000DF05DFE20302649096846
:10206000487301F040FCE121C900484305467D2149
:10207000C9000DF04FFE20300004000E1E49096813
:10208000887310E00A48C038C06F00280BD101F0F7
:102090002AFC19490968487301F025FC0004000E68
:1020A000154909688873002C2CD0012C79D163E084
:1020B000100C0020630300205C010020660100205A
:1020C000180800207C010020A805002074010020D1
:1020D000690100206A010020983A00007801002080
:1020E0006001002096030020980700205E27010071
:1020F00061270100680100208C010020442F0000AE
:10210000380300201022FF480168FF4800680DF0E6
:102110003DFEFE48FC490968884227D8FF38F1385F
:10212000F9490860FA49096849024D229202881863
:10213000042100F0BBFEF648006840024D229202E6
:1021400081188022F34800F06BFE01214902F1481A
:102150000DF035FEEE480068401CED490860084669
:1021600000685A2807D30020086004E0E6480068A9
:102170001030E549086015E0E549096849024D223B
:1021800092028818042100F091FEE14800684002A4
:102190004D22920281188022DE4800F041FE01E0CB
:1021A000FFE700BF00BF0020C3E610B58AB001F012
:1021B0009DFB012802D1801E0AB010BD03F038FD3E
:1021C000002802D00020C043F6E701F0B7FA052846
:1021D0007ED10E2000F032FBCF49081A0446643449
:1021E0007D21C90020460DF095FDCC490860CC4802
:1021F0000068096888426CD0C8480068C84908600F
:10220000C848C06801280ED1C6488030C0690004A3
:10221000000EC54909680870C2488030C069C249CB
:10222000096848700DE0BF48803080690004000EE6
:10223000BD4909680870BB4880308069BA4909689F
:102240004870B848C06A0004000EB7490968887031
:10225000B448C06AB4490968C870B2498031486A54
:1022600064210DF057FDB049096808710E2000F097
:10227000E5FAA949081A64307D21C900884204D2D0
:102280000020A949096848710EE00E2000F0D6FA36
:10229000A149081A044664347D21C90020460DF086
:1022A00039FDA14909684871A049C869002109F0B0
:1022B000B9FB9D490968887101A900200CF003F859
:1022C000D0210898401A98490968C871964901E0D8
:1022D00069E067E0079809680872934906980968F9
:1022E000487291490498096888728F49039809686F
:1022F000C8728D4902980968087300208A490968E4
:10230000C8738848C06F01281ED101F0ECFAE121A2
:10231000C900484304467D21C9000DF0FBFC203074
:1023200081490968487301F0DEFAE121C900484398
:1023300004467D21C9000DF0EDFC20300004000EA4
:102340007949096888730FE07648C06F00280BD17F
:1023500001F0C9FA74490968487301F0C4FA00042D
:10236000000E714909688873AB20714909680870CB
:1023700001206F4909684870FF216D480068417469
:102380000F226C496C480DF001FD12226A49891E2A
:1023900000200DF090FB61480068002806D0002066
:1023A000FFF7BFFD02E065485D490860002003E7D4
:1023B00063490870704710B50446062C04DD0120FF
:1023C000FFF7F6FF002010BD5E48005D00025E4989
:1023D000095D084303D1FFF7EBFF0020F3E701F0AD
:1023E00089FA5849095D0902574A125D114388422A
:1023F00003D30120FFF7DCFF02E00020FFF7D8FF46
:102400000020E0E74749C031086370474548C030C5
:10241000006BC0B27047F0B589B0694600200BF080
:1024200052FFD0210798401AC7B20698C6B2059845
:10243000C4B2FFF7EBFFA04207D02046FFF7E2FF50
:1024400000203849086205F0E4FA36488068002820
:1024500015D13448C06900280DD001F04BFA31493C
:10246000C969884203D30120FFF7A2FFE2E0002000
:10247000FFF79EFFDEE00020FFF79AFFDAE0294831
:102480008068012876D12F48C01E4078B04207D11D
:102490002C49C91E8978611AC8B2FFF78CFFC9E0C0
:1024A0002848C01E407803000DF0D3FC0DBF081271
:1024B000656E778089929BA4ADB6BF002149C91E85
:1024C00089781F22511A0919C8B2FFF774FFADE0CD
:1024D0001C48C01E0578E817800F40198010800046
:1024E000281A07D11749C91E087864210DF028FC65
:1024F00000292DD11349C91E0878FF2191310DF013
:102500001FFC23E08C0100206C010020080A002041
:102510009001002018080020442F000088010020AE
:1025200084010020500B002080010020380300208F
:1025300060010020A807002096030020FF0F000084
:1025400065010020E3070020ED070020002908D1E5
:102550003C4989781D22511A0919C8B2FFF72BFF8F
:1025600007E0384989781C22511A0919C8B2FFF7C7
:1025700022FF5BE05BE0334989781F22511A091979
:10258000C8B2FFF718FF51E02E4989781E22511A70
:102590000919C8B2FFF70FFF48E02A4989781F22BE
:1025A000511A0919C8B2FFF706FF3FE0254989789B
:1025B0001E22511A0919C8B2FFF7FDFE36E0214963
:1025C00089781F22511A0919C8B2FFF7F4FE2DE0CD
:1025D0001C4989781F22511A0919C8B2FFF7EBFE6E
:1025E00024E0184989781E22511A0919C8B2FFF748
:1025F000E2FE1BE0134989781F22511A0919C8B25B
:10260000FFF7D9FE12E00F4989781E22511A0919E5
:10261000C8B2FFF7D0FE09E00A4989781F22511A93
:102620000919C8B2FFF7C7FE00E000BF02E00020B2
:1026300005498860002009B0F0BD002070470348BC
:1026400000787047E0070020500B00206501002053
:1026500010B55C480078C0435A49087008460078B5
:10266000002804D00221084609F079FF03E0022186
:10267000084609F097FF10BD10B500F009F9FEF704
:10268000ADF900F0A7F808F05AFA09F075FA00F071
:1026900071F900F0BEF900F0F4F9FEF79BFEFFF7C8
:1026A000CCFF00F017FA00F059FA00F099FA00F0A8
:1026B000ABFA00F0E9FAFDF7A3FD10BD00BFFFF78C
:1026C000DBFF00F013FCFEF705FE00F027FC07F02F
:1026D0008FFD00F01FFB07F0D2FD09F0EDF900F0CF
:1026E0004BFB0020FEF7AEFEFF212D310120FEF74F
:1026F00080F93549102000F09DF861E0022000F0DB
:102700009DF8002805D10121022000F093F8FDF783
:102710003EFE012000F092F800280CD10A21012091
:1027200000F088F801212948C1610162416208F086
:1027300015FC00F043FB002000F080F8002804D1D5
:10274000022100F077F807F03EFE1B2000F076F83B
:10275000002805D132211B2000F06CF8FEF7C6FEE0
:102760001D2000F06BF8002805D132211D2000F05B
:1027700061F8FFF71AFD1C2000F060F8002805D171
:1027800032211C2000F056F8FFF715FB042000F062
:1027900055F8002806D17D21C900042000F04AF830
:1027A000FFF739FE222000F049F8002806D1052164
:1027B000222000F03FF80648FDF736FEFFF748FFFD
:1027C0009CE700009A010020DC050000100C0020AE
:1027D0006003002010B559200949086016200860E0
:1027E000882008600121002009F037FC054809F025
:1027F000DEFD054809F08DFD00200149086010BD8F
:10280000000100508813000080F0FA0210B51D4846
:102810000078C0431B49087008460078002804D09F
:102820000B21002009F09BFE03E00B21002009F0A2
:10283000B9FE10BD8200144B9950704701468800C4
:10284000114A1058704770B5002400250F480078D1
:10285000401C0E490870084600780A2810DB00204A
:102860000870094C00BF07E02068002802D02068EB
:10287000401E2060241D6D1C452DF5D3FFF7C6FFBB
:1028800070BD00009B010020180A00209C01002060
:1028900010B559203149086016200860882008606A
:1028A00001220421104609F023FE0421012009F031
:1028B00079FE01220521104609F01AFE05210120AA
:1028C00009F070FE01220321104609F011FE0321D8
:1028D000012009F067FE01220321022009F008FE11
:1028E0000321022009F05EFE01220221104609F0B8
:1028F000FFFD0221012009F032FE01220721022002
:1029000009F0F6FD0721022009F029FE0122052128
:10291000002009F0EDFD0521002009F043FE012211
:102920000321002009F0E4FD0321002009F03AFE14
:1029300003220B21002009F0DBFD0B21002009F010
:1029400031FE03220221084609F0D2FD0221084689
:1029500009F028FE00200149086010BD0001005068
:1029600010B50446FFF76FFF14480068401C134978
:10297000086010BD10B55920114908601620086084
:10298000882008600CF0ADF90721022009F0B9FA9F
:1029900001220C4900200CF0AEF901230A4A022161
:1029A00000200CF090FB00200CF0AAFC00200CF0A2
:1029B000CFFC00200249086010BD00001C00002070
:1029C00000010050204E00006129000024490978D0
:1029D000642903DB0021224A117004E020490978B0
:1029E000491C1F4A11701E4909781E4A12789142EB
:1029F00007DB1D498968FF22013291431A4A916021
:102A000006E019498968FF2201321143164A916094
:102A1000704710B5592015490860162008608820B5
:102A200008600CF05EF90721032009F06AFA012220
:102A30000F4910460CF05FF901230E4A0221184697
:102A40000CF041FB01200CF05BFC01200CF080FC41
:102A500000200649086010BD024A1070704700004F
:102A60009E0100209F0100204040005000010050C6
:102A7000204E0000CD29000010B50446FDF76CFC87
:102A800010BD10B559201049086016200860882034
:102A900008600CF026F90721042009F032FA01221F
:102AA0000A4902200CF027F90123094A02210846AD
:102AB0000CF009FB02200CF023FC02200CF048FC77
:102AC00000200149086010BD00010050204E0000A8
:102AD000792A00001FB559203F4908601620086078
:102AE000882008600AF064FC342009F01DFE0221F1
:102AF00000200BF013FA0121684601706421417037
:102B000000218170C17035480190002002900120A1
:102B10000390694600200AF0A4FD012100200BF07B
:102B20009CF9012100200AF078FC00202A49086065
:102B30001FBD1FB50446462C00D946240121684616
:102B400001706420001BC1B26846417023480190A7
:102B50000020039069460AF084FD1FBD1FB559206F
:102B60001D4908601620086088200860352009F09B
:102B7000DBFD022101200BF0D1F901216846017033
:102B80006421417000218170C170144801900020BF
:102B900002900120039069460AF063FD0121084676
:102BA0000BF05BF9012108460AF037FC00200A49C6
:102BB00008601FBD1FB50446642C00D964240121A0
:102BC00068460170447005480190002003906946F2
:102BD00001200AF046FD1FBD00010050400D03001A
:102BE00010B501220821104609F082FC4648806891
:102BF000FF21013188434449886010BD10B5044667
:102C00002046FFF729FF10BD1FB559203F49086036
:102C10001620086088200860372009F085FD022111
:102C200003200BF07BF9012168460170642141709B
:102C300000218170C170364801900020029001206F
:102C40000390694603200AF00CFD012103200BF0DC
:102C500004F9012103200AF0E0FB00202B49086061
:102C60001FBD1FB504460121684601706420001B8A
:102C7000C1B2684641702648019001200390694620
:102C800003200AF0EEFC1FBD1FB559201F49086044
:102C90001620086088200860362009F045FD0221D2
:102CA00008460BF03BF90121684601706421417030
:102CB00000218170C170164801900020029001200F
:102CC0000390694602200AF0CCFC012102200BF09F
:102CD000C4F8012102200AF0A0FB00200B49086083
:102CE0001FBD1FB504460121684601706420001B0A
:102CF000C1B26846417006480190012003906946C0
:102D000002200AF0AEFC1FBD404000500001005000
:102D1000D007000000B589B059200C490860162082
:102D20000860882008600BF09CF968460BF0D4F925
:102D300000200BF0D0FD0648006B082188430449B1
:102D4000086300200149086009B000BD000100507F
:102D50000080004059202149086016200860882022
:102D600008601F4800680821884308301C49086033
:102D700000201A490860704710B5592017490860AB
:102D800016200860882008600221002009F0B9F8A8
:102D900007200CF07BFB13480CF09BFB002108463E
:102DA0000CF007FB002102200CF003FB00210720A0
:102DB0000CF0FFFA00200949086010BD10B5592039
:102DC0000649086016200860882008600021062057
:102DD0000CF0EFFA00200149086010BD000100501E
:102DE00000400040552D00000146002004E0022074
:102DF00000E0401E0028FCD10A46491E002AF6D1F8
:102E000070470146002004E0044800E0401E00280E
:102E1000FCD10A46491E002AF6D170479D170000D2
:102E2000F8B504460D461646002772B659203949B2
:102E3000086016200860882008600CF034FF07E066
:102E40003A467F1C9200501921680CF06FFE241D39
:102E50003046761E0028F3D10CF044FF00202D49A7
:102E6000086062B6F8BDF8B504460D461646002760
:102E700072B659202749086016200860882008602B
:102E80000CF011FF07E039467F1C890048192146E4
:102E90000CF08BFE241D3046761E0028F3D10CF07A
:102EA00021FF00201B49086062B6F8BD70B50446DA
:102EB0000D46002672B65920164908601620086093
:102EC000882008600CF0EFFE05E03146761C890092
:102ED00008190CF0ABFE28466D1E0028F5D10CF049
:102EE00001FF00200B49086062B670BD10B5592083
:102EF0000849086016200860882008600CF0F9FE78
:102F00004622132109030448FFF7ADFF00200149C1
:102F1000086010BD00010050500B002010B5FF48A4
:102F2000806A7D214901884202D20846FB498862B5
:102F3000FA48806AFA49884202D9FA48F749886211
:102F4000F648006B7D21C900884202D20846F34949
:102F50000863F248006BF449884202D9F348EF490C
:102F60000863EE48C06F002802D00020EB49C86714
:102F7000EA4880304068C82803D2C821E74880303A
:102F80004160E648803040684B21C900884203D93F
:102F9000C821E24880304160E04880308068642881
:102FA00003D26421DD4880308160DC488030806855
:102FB000FF213C31884203D96421D84880308160A8
:102FC000D64880300068002803D10121D3488030E2
:102FD0000160D24880300068032803D90121CF481E
:102FE00080300160CD488030C068012803D90021BD
:102FF000CA488030C160C9484068012802D9002011
:10300000C6494860C548C068012802D90020C349A4
:10301000C860C2480069052802D90320BF49086179
:10302000BE488030C06AC249884202D3BB48803063
:10303000C162BA488030C06AB949491C884203D885
:10304000BB49B6488030C162B4488069012802D9C2
:103050000020B2498861B148C069B2495F318842F5
:1030600002D90020AD49C861AC48006A401C01D1BA
:10307000AA490862A948C030806AAE49884203D292
:103080008900A648C0308162A448C030806AAA493D
:10309000884203D98910A148C03081629F48C0305E
:1030A000C06A012803D900219C48C030C1629B48F6
:1030B0008030006BFF2803D9FF21984880300163DE
:1030C00096488030406BFF2803D9FF219348803019
:1030D000416392488030806BFF2803D9FF218F48DD
:1030E000803081638D488030C06B0F2803D9002168
:1030F0008A488030C1638948C0300068012803D9FC
:1031000001218648C03001608448C03040680328EF
:1031100003D900218148C03041608048C0308068B8
:103120000F2803D900217D48C03081607B48C03022
:10313000C0680F2803D900217848C030C1607748A3
:10314000806B102802D30020744988637348803054
:10315000806A642803D964217048803081626F4896
:10316000803000696E49884203D300216B4880306B
:1031700001616A48803080696949884203D300212F
:1031800066488030816165488030C0696449884202
:1031900003D3002161488030C1616048C030C069FC
:1031A000012803D900215D48C030C1615B48C030AF
:1031B000006A012803D900215848C03001625748ED
:1031C000C030406A012803D900215448C030416210
:1031D0005248C03080695449884203D957494F4802
:1031E000C03081614D48C03080695449884202D264
:1031F0004A48C03081614948C030406B7D21890117
:10320000884203D94E494548C03041634348C030E5
:10321000406B4449884203D249494048C030416329
:103220003E48C030806B4749884203D946493B48F5
:10323000C03081633948C030806B4449884203D232
:1032400041493648C03081633448C030C06B7D216D
:103250000901884204D9354932313048C030C16350
:103260002E48C030C06BFF21F531884204D22F496F
:1032700032312A48C030C1632848C06B2B4988428C
:1032800005D32648C16BC0308069814202D93048DD
:103290002249C8632148006C2449884205D31F484D
:1032A000016CC0308069814202D92A491B480164FF
:1032B0001A48406C1D49884205D31848416CC030FB
:1032C0008069814202D92449144841641348806CC2
:1032D0001649884205D31148816CC030806981420B
:1032E00002D91E490D4881640C48C06C0F498842C0
:1032F00005D30A48C16CC0308069814202D918499F
:103300000648C1640548006D0849884205D3034852
:10331000016DC0308069814227D923E0500B002025
:103320000F270000A00F000080380100E803000014
:10333000C0270900983A000080A90300F824010082
:10334000701700007C150000AC0D0000DC050000CB
:1033500010270000204E000030750000409C000047
:1033600050C300006F49704801656F48406D7D2172
:10337000C900884205D36C48416DC03080698142E4
:1033800002D96A49684841656748806D7D21C90056
:10339000884205D36448816DC0308069814202D97A
:1033A0006349614881656048C06D7D21C9008842DC
:1033B00005D35D48C16DC0308069814202D95D4945
:1033C0005948C1655848006E7D21C900884205D31F
:1033D0005548016EC0308069814202D95649524831
:1033E00001665148406E7D21C900884205D34E4890
:1033F000416EC0308069814202D950494A484166D5
:103400004948806E7D21C900884205D34648816EB7
:10341000C0308069814202D94949434881664248A7
:10342000C06E7D21C900884205D33F48C16EC030BF
:103430008069814202D943493B48C1663A48006FDE
:103440007D21C900884205D33748016FC0308069AB
:10345000814202D93C49344801673348406F7D219D
:10346000C900884205D33048416FC030806981422D
:1034700002D936492C4841672B48806F7D21C9000D
:10348000884205D32848816FC0308069814202D9C3
:103490002F4925488167FF2115312E480CF08FFCFC
:1034A00014212D480CF08BFC14212C480CF087FCC7
:1034B000002003F0C1F80421012009F073F8052170
:1034C000012009F06FF80020FFF733FB0020FFF721
:1034D00071FB002002F0A6FB012001F06BFF082029
:1034E00000F03EF8002007F01BFB01200E49486267
:1034F00007F093FB002813D007F057FB00280FD1EB
:1035000007F06FFB00280BD10748C030816A1620F6
:10351000FFF790F9012000F023F80020FDF71CFED2
:1035200010BD000060EA0000500B00207011010087
:1035300080380100905F0100A0860100B0AD01005D
:10354000C0D40100D0FB0100E0220200F0490200DB
:1035500000710200180A002080030020940300205C
:10356000FF4908707047FF480078704710B5FE4863
:103570008068FF2101318843FB49886000210120D8
:1035800009F022F80021022009F01EF8062102208D
:1035900008F0E5FF0F21012008F0E1FF01210220E2
:1035A00008F0DDFF0120F14948620020FFF726FB0B
:1035B0000020FFF756FB0020FFF793FBFDF770FE9E
:1035C000FDF7A7FE0321012008F0ECFF03210220F4
:1035D00008F0E8FF0221012008F0E4FF07210220A3
:1035E00008F0E0FF0521002008F0B9FF03210020CA
:1035F00008F0D8FF0421012008F0D4FF05210120A4
:1036000008F0D0FF0020FFF794FA0020FFF7D2FA6D
:103610000021022008F0A3FF0020FDF716FF59202B
:10362000D3490860162008608820086009F070FC03
:1036300009F0D2FE00200CF049F9012000050CF041
:1036400045F903200BF0EAFC002009F06DF8002298
:103650001146012008F04CFF00220121084608F025
:1036600047FF002008F044FD0020C1490860FFF733
:1036700003F8FDF72FFE0321012008F070FF03215E
:10368000022008F06CFF0221012008F068FF0721EA
:10369000022008F064FF0521002008F083FF0321C9
:1036A000002008F07FFF0421012008F07BFF0521A6
:1036B000012008F077FF0020FFF73BFA0020FFF71A
:1036C00079FA012008F074FAA848C030816A1620FF
:1036D000FFF7B0F8FF21F5312720FFF7ABF8B42151
:1036E0000F20FFF7A7F8FFF73EFF012802D10720C0
:1036F000FFF736FF10BD9F49087070479E4908705C
:1037000070479E490870704700B59D48C0689D4944
:10371000884203D90120FFF7F4FF02E00020FFF701
:10372000F0FF9748C0689849884203D20120FFF70C
:10373000E5FF02E00020FFF7E1FF00BD88480078C8
:10374000704738B5002489488030406A8E498842E5
:1037500015D986488030406A8C4988420CD283490A
:103760008031496A884A891A7D22D200514308462D
:1037700087490CF0CFFA03E07D20C00000E0002074
:1037800005460A210CF0C6FA044682480078A04299
:1037900001D980490C70072120460CF0BBFA0300C8
:1037A0000CF057FB0E08111A242E38424C56606A52
:1037B000747E8791784803230022402100903820AE
:1037C000FDF71AFC89E07448032300224021009091
:1037D0003820FDF711FC80E06F48183003230022E9
:1037E000402100903820FDF707FC76E06A48303031
:1037F00003230022402100903820FDF7FDFB6CE000
:103800006548483003230022402100903820FDF70E
:10381000F3FB62E060486030032300224021009007
:103820003820FDF7E9FB58E05B487830032300229D
:10383000402100903820FDF7DFFB4EE056489030E5
:1038400003230022402100903820FDF7D5FB44E0FF
:103850005148A83003230022402100903820FDF772
:10386000CBFB3AE04C48C0300323002240210090BB
:103870003820FDF7C1FB30E04748D8300323002251
:10388000402100903820FDF7B7FB26E04248F03099
:1038900003230022402100903820FDF7ADFB1CE0FF
:1038A0003E4803230022402100903820FDF7A4FB6E
:1038B00013E03A48183003230022402100903820BA
:1038C000FDF79AFB09E03548303003230022402100
:1038D00000903820FDF790FB00BF00BF38BD2348A3
:1038E000C030406970472E48006870471F484069E3
:1038F000C0B270471D48C030006970471B48C030D7
:103900000068C0B2704700B587B0002006900590EF
:1039100004903C20FEF792FF00287ED021480078DA
:10392000002804D000201F490870FDF7F2FC422057
:10393000FEF784FF00287ED1FF21F5314220FEF7FB
:1039400079FF0120FDF737FD1748032301222021CD
:1039500000900020FDF750FB3C20FEF76FFF25E0B4
:10396000A5010020A401002040400050500B002081
:1039700000010050B5010020B2010020B10100207B
:103980003803002088130000160D0000041000000A
:10399000EE020000120200201C0A0100240B0100AC
:1039A000AC010020DB01002025170100FF49019038
:1039B0000CF0B0F90291FE4902980CF0ABF910300E
:1039C0000001FC4940180246012103902420FDF724
:1039D00098FA3C20FEF732FFF54901900CF09AF975
:1039E00002917D21C90002980CF094F91030000179
:1039F000F04940180246012103902E20FDF781FA7C
:103A00000023EDA202213920FDF721FB0021122025
:103A1000FEF710FF0021132001E015E00BE0FEF798
:103A200009FF00211420FEF705FFAF20FDF7BDFCC4
:103A30000020FDF7C0FCE148806A01460390162093
:103A4000FEF7F8FE07B000BDDD480078002804D17D
:103A50000120DB490870FDF75CFC3A20FEF7EEFE22
:103A600000284AD0D7480078002804D00020D54943
:103A70000870FDF74EFC0120FDF79DFCCF48C038D3
:103A8000C068002802D001281AD10CE00423CEA27D
:103A900000210D20FDF7DBFA0423CDA202210D2029
:103AA000FDF7D5FA11E00423C7A200210D20FDF790
:103AB000CEFA0423C8A202210D20FDF7C8FA04E0C3
:103AC0000020BE49C039C86000BF00BFC4480423FD
:103AD0000222062100900020FDF78EFAC14804233F
:103AE0000222402100903A20FDF786FAAF20FDF730
:103AF0005CFC0020FDF75FFCA4E7B24800780028DA
:103B000004D10120AF490870FDF703FC3B20FEF70C
:103B100095FE00285BD0B4480078002804D000202F
:103B2000B1490870FDF7F5FB0120FDF744FC0123C6
:103B3000AEA200210520FDF78AFAA048C03800692E
:103B400003000CF086F90627040B12192027042322
:103B5000A9A202210720FDF77AFA20E00423A8A2F7
:103B600002210D20FDF773FA19E00423A6A2022119
:103B70000D20FDF76CFA12E00423A5A202210D200E
:103B8000FDF765FA0BE00423A3A202210720FDF74D
:103B90005EFA04E003208949C039086100BF00BF14
:103BA0008F4804230222062100900020FDF724FA0A
:103BB0008C4804230222402100903A20FDF71CFA91
:103BC000AF20FDF7F2FB0020FDF7F5FB3AE7864852
:103BD0000078002804D1012083490870FDF799FB83
:103BE0001E20FEF72BFE002833D08D4800780028D9
:103BF00004D000208A490870FDF78BFB0120FDF7F7
:103C0000DAFBFDF725FC01280CD1012385A2002158
:103C10001846FDF71CFA042385A202210846FDF789
:103C200016FA0FE0FDF714FC00280BD101237DA24A
:103C300000211846FDF70BFA04237FA2022107207A
:103C4000FDF705FAAF20FDF7B0FB0020FDF7B3FB51
:103C5000F8E673480078002804D101207049087004
:103C6000FDF757FB2620FEF7E9FD00282BD074480E
:103C70000078002804D0002071490870FDF749FB46
:103C80000120FDF798FBFFF739FE012808D16D48A8
:103C900004230022302100901020FDF7ADF90BE045
:103CA000FFF72CFE002807D16748042300223021AB
:103CB00000901020FDF7A0F9AF20FDF776FB002063
:103CC000FDF779FBBEE65E480078002804D10120AC
:103CD0005B490870FDF71DFB3D20FEF7AFFD002896
:103CE00038D05A480078002804D00020574908707E
:103CF000FDF70FFB0120FDF75EFB3048C06A00288E
:103D000002D001281AD10CE0012351A20021082081
:103D1000FDF79DF9042348A202210720FDF797F93A
:103D200010E001234AA200210820FDF790F90423A6
:103D30003FA202210846FDF78AF903E000211F484F
:103D4000C16200BF00BFAF20FDF72FFB0020FDF7D1
:103D500032FB77E63D480078002804D101203B493A
:103D60000870FDF7D6FA3E20FEF768FD00287DD0EA
:103D70003A480078002804D0002038490870FDF740
:103D8000C8FA0120FDF717FB002335A219460120D0
:103D9000FDF75DF90948C038006A7D21C90003902C
:103DA0000BF0B8FF024988427ED360E0A086010094
:103DB00010270000BD1C0100530A0000100C002059
:103DC000DB010020D20100204D4F44450A000000D5
:103DD000574154540A00000054454D500A00000059
:103DE000BD160100C9160100D301002053545245ED
:103DF0004E4754480A000000204D494E200A00005A
:103E0000534F46540A0000004E4F524D0A00000026
:103E1000484152440A000000204D4158200A000049
:103E2000D4010020424C5545544F4F54480A0000DD
:103E300020204F4E20200A00204F464620200A0016
:103E4000D50100209C0401001C050100D6010020C2
:103E5000535445414C54480A00000000D70100204B
:103E60002020544F44415920200A00002CE3FF48F1
:103E7000006A7D21C90000900BF04CFFFC490190C5
:103E80000BF048FF0291FB4902980BF043FF103002
:103E900081004018F84940180246012103900B2088
:103EA000FCF7DDFFF14800E06EE0006A7D21C9000B
:103EB00000900BF02FFFEF4901900BF02BFF0291C8
:103EC0007D21C90002980BF025FF103081004018B9
:103ED000E94940180246012103901220FCF7BFFF78
:103EE000E248006A7D21C90000900BF013FF7D219C
:103EF000C90001900BF00EFF0291642102980BF0B3
:103F000009FF103081004018DB49401802460121AA
:103F100003901920FCF7A3FFD448006A7D21C90053
:103F200000900BF0F7FE642101900BF0F3FE02917C
:103F30000A2102980BF0EEFE103081004018CE49A5
:103F400040180246012103902020FCF788FFC74853
:103F5000006A7D21C90001900BF0DCFE0A2102906D
:103F60000BF0D8FE103188000818C34940180246EB
:103F7000012103902720FCF772FF0023BFA201213B
:103F80002E20FDF764F832E1B848006A7D21C900AF
:103F900003900BF0BFFE7D21C90088426DD3B3486A
:103FA000006A00900BF0B6FEB24901900BF0B2FE31
:103FB00002917D21C90002980BF0ACFE1030810007
:103FC0004018AD4940180246012103900F20FCF72C
:103FD00046FFA648006A7D21C90000900BF09AFEBA
:103FE0007D21C90001900BF095FE02916421029899
:103FF0000BF090FE1030810040189F494018024697
:10400000012103901620FCF72AFF9848006A7D21C1
:10401000C90000900BF07EFE642101900BF07AFE47
:1040200002910A2102980BF075FE103081004018B1
:10403000914940180246012103901D20FCF70FFF13
:104040008A48006A7D21C90001900BF063FE0A21B5
:1040500002900BF05FFE1031880008188649401866
:104060000246012103902420FCF7F9FE002383A2DD
:1040700001212B20FCF7EBFFB9E07C48006A7D2191
:10408000C90003900BF046FE642853D37748006ABA
:104090007D21C90000900BF03DFE7D21C9000190FB
:1040A0000BF038FE0291642102980BF033FE1030C1
:1040B00081004018704940180246012103901220E7
:1040C000FCF7CDFE6948006A7D21C90000900BF025
:1040D00021FE642101900BF01DFE02910A2102983D
:1040E0000BF018FE1030810040186349401802465A
:1040F000012103901920FCF7B2FE5C48006A7D2183
:10410000C90001900BF006FE0A2102900BF002FE9E
:1041100010318800081858494018024601210390C0
:104120002020FCF79CFE002354A201212720FCF74D
:104130008EFF5CE04D48006A7D21C90003900BF0C2
:10414000E9FD0A2837D34948006A7D21C90000905B
:104150000BF0E0FD642101900BF0DCFD02910A21DF
:1041600002980BF0D7FD10308100401842494018EA
:104170000246012103901620FCF771FE3B48006ABD
:104180007D21C90001900BF0C5FD0A2102900BF0C2
:10419000C1FD103188000818374940180246012136
:1041A00003901D20FCF75BFE002334A20121242094
:1041B000FCF74DFF1BE02D48006A7D21C9000190EE
:1041C0000BF0A8FD0A2102900BF0A4FD103188002D
:1041D0000818294940180246012103901920FCF7CC
:1041E0003EFE002325A201212020FCF730FF002302
:1041F00023A202210120FCF72AFFFFF77BFB1D49C8
:1042000088427ED3FFF776FB194901900BF082FDBF
:104210000291184902980BF07DFD10308100401882
:10422000154940180246032103900F20FCF717FEA2
:10423000FFF760FB0F4901900BF06CFD02917D21AF
:10424000C90002980BF066FD1030810040180A4941
:1042500040180246032103901620FCF700FEFFF7EA
:1042600049FB7D21C900019010E00000500B0020A7
:10427000A08601001027000048190100530A000021
:104280002020505546465320200A00000BF042FDE6
:104290000291642102980BF03DFD1030810040181E
:1042A000FF4940180246032103901D20FCF7D7FD6B
:1042B000FFF720FB642101900BF02CFD02910A21F5
:1042C00002980BF027FD103081004018F449401887
:1042D0000246032103902420FCF7C1FDFFF70AFBEF
:1042E0000A2102900BF016FD103188000818EC49E5
:1042F00040180246032103902B20FCF7B0FDDCE0C0
:10430000FFE7FFF7F7FA7D21C900884255D3FFF791
:10431000F1FAE44901900BF0FDFC02917D21C90006
:1043200002980BF0F7FC103081004018DC4940186F
:104330000246032103901220FCF791FDFFF7DAFA01
:104340007D21C90001900BF0E5FC029164210298E7
:104350000BF0E0FC103081004018D14940180246B3
:10436000032103901920FCF77AFDFFF7C3FA6421BB
:1043700001900BF0CFFC02910A2102980BF0CAFCCD
:10438000103081004018C6494018024603210390AE
:104390002020FCF764FDFFF7ADFA0A2102900BF034
:1043A000B9FC103188000818BD49401802460321A5
:1043B00003902720FCF753FD7FE0FFF79BFA64286A
:1043C0003ED3FFF797FA7D21C90001900BF0A2FCC4
:1043D0000291642102980BF09DFC1030810040187E
:1043E000AF4940180246032103901620FCF737FD21
:1043F000FFF780FA642101900BF08CFC02910A21F6
:1044000002980BF087FC103081004018A449401836
:104410000246032103901D20FCF721FDFFF76AFAF5
:104420000A2102900BF076FC1031880008189C4994
:1044300040180246032103902420FCF710FD3CE0C5
:10444000FFF758FA0A2827D3FFF754FA642101909E
:104450000BF060FC02910A2102980BF05BFC10301B
:10446000810040188E49401802460321039019200C
:10447000FCF7F5FCFFF73EFA0A2102900BF04AFC2C
:10448000103188000818864940180246032103901D
:104490002020FCF7E4FC10E0FFF72CFA0A21029040
:1044A0000BF038FC1031880008187D49401802468E
:1044B000032103901D20FCF7D2FCAF20FCF775FF11
:1044C0000020FCF778FF44E477480078002804D106
:1044D000012075490870FCF71CFF3920FEF7AEF982
:1044E00000287ED071480078002804D000206F4951
:1044F0000870FCF70EFF0120FCF75DFF6C490020FF
:1045000009F0E1FE6B4803230122202100901E20C8
:10451000FCF772FD674803230122312100902F2010
:10452000FCF76AFD6248C0695E4901900BF0F2FB3E
:1045300002917D21C90002980BF0ECFB00015E495D
:104540004018039003230122092100901046FCF734
:1045500053FD5748C0697D21C90001900BF0DAFB7B
:104560000291642102980BF0D5FB000152494018DA
:10457000039003230122102100900820FCF73CFD4A
:104580004B48C069642101900BF0C4FB02910A21E1
:1045900002980BF0BFFB000147494018039003232A
:1045A0000122172100900F20FCF726FD4048C0692A
:1045B0000A2102900BF0AEFB08013F49401803901E
:1045C000032301221E2100901620FCF715FD384818
:1045D0008069642101900BF09DFB02910A210298F1
:1045E00000E04BE00BF096FB0001334940180390CC
:1045F00003230122282100902020FCF7FDFC2C48F9
:1046000080690A2102900BF085FB08012A494018B5
:104610000390032301222F2100902720FCF7ECFCBC
:1046200023484069642101900BF074FB02910A2138
:1046300002980BF06FFB00011F4940180390032301
:104640000122392100903120FCF7D6FC184840693E
:104650000A2102900BF05EFB0801174940180390F5
:1046600003230122402100903820FCF7C5FCAF2035
:10467000FCF79BFE0020FCF79EFE24E70B48007829
:10468000002804D1012009490870FCF742FE3820B7
:10469000FEF7D4F800287ED00848007800280FE004
:1046A0004819010010270000D7010020D801002080
:1046B0002C0B0020E5170100FD0C0100D9010020A2
:1046C00004D00020FF490870FCF723FE0120FCF70E
:1046D00072FEFD49002009F0F6FDFB48C068642128
:1046E00001900BF017FB02910A2102980BF012FBCC
:1046F00038214843F54940180390042300220E2135
:1047000000901046FCF778FCEF48C0680A21029040
:104710000BF000FB38204143EC48081803900423B9
:1047200000221C2100900E20FCF766FCE8480423C0
:104730000022232100901D20FCF75EFCE2488068E7
:10474000642101900BF0E6FA02910A2102980BF025
:10475000E1FA38214843DD49401803900423002240
:10476000322100902420FCF747FCD74880680A21BA
:1047700002900BF0CFFA38204143D4480818039038
:1047800004230022402100903220FCF735FCAF20AA
:10479000FCF70BFE00E003E00020FCF70CFE92E6C5
:1047A000C8480078002804D10120C6490870FCF7E9
:1047B000B0FD0F20FEF742F8002826D0C54800784B
:1047C000002804D00020C3490870FCF7A2FD012096
:1047D000FCF7F1FD0423022209210020FCF7AEFDC5
:1047E0000423022240213620FCF7A8FDBA48042306
:1047F0000022402100901046FCF7FEFBAF20FCF7A2
:10480000D4FD0020FCF7D7FD5DE6B2480078002813
:1048100004D10120AF490870FCF77BFD2C20FEF786
:104820000DF800283DD02C20FEF708F87D21C900A6
:10483000884236D2A9480078002831D00020A74904
:104840000870FCF766FD00211120FDF7F3FF002141
:104850001220FDF7EFFF00211320FDF7EBFF0021F1
:104860001420FDF7E7FF0120FCF7A5FD9C48042379
:104870000022382100900820FCF7BEFB002399A2FB
:1048800004210520FCF7E3FB002399A20521022067
:10489000FCF7DDFBAF20FCF788FD0020FCF78BFD6B
:1048A00011E68E480078002804D101208B49087059
:1048B000FCF72FFD1720FDF7C1FF002835D08F48EA
:1048C0000078002807D000208C490870AE20FCF743
:1048D0006CFDFCF71EFDFFF709F8002810D1012040
:1048E000FCF769FD86480423002230210090102047
:1048F000FCF782FBAF20FCF758FD0020FCF75BFDC6
:10490000FEF7F4FF01280FD1FCF755FD7D48042385
:1049100000222C2100901420FCF76EFBAF20FCF746
:1049200044FD0020FCF747FDCDE5744800780028E1
:1049300004D1012071490870FCF7EBFC1820FDF749
:104940007DFF00281AD070480078002804D000208D
:104950006D490870FCF7DDFC0120FCF72CFD69486F
:10496000042300222C2100901420FCF745FBAF20EB
:10497000FCF71BFD0020FCF71EFDA4E56248007853
:10498000002804D1012060490870FCF7C2FC122005
:10499000FDF754FF00280AD1FA211220FDF74AFF43
:1049A0005A48C06A012803D1AE20FCF7FEFC54E24D
:1049B0000120FCF700FD5548C038C068002850D1E0
:1049C0005248C0384068002805D15048C038006BB4
:1049D0004F49086046E04D48C0384068012841D141
:1049E000FEF7ACFE052828D10E20FDF727FF494928
:1049F000081A7D21C90003900BF08CF943494C3112
:104A0000085C0002424908600E20FDF717FF41498B
:104A1000081A7D21C90003900BF07CF93B49403115
:104A2000085C3B4909680843394908600846006842
:104A3000642148433649086014E034484030007B24
:104A40000002334908603148403000780968084363
:104A50002F49086008460068642148432C490860D3
:104A600000E000BF2948C038C068002802D00128F3
:104A70007ED10EE1FEF762FE05287AD16421122074
:104A8000FDF7D8FE0E20FDF7D9FE2249081A22496B
:104A9000884206D2032315A200210846FCF7D7FA64
:104AA00047E00E20FDF7CAFE1A49081A1B4901907B
:104AB0000BF030F90291184902980BF02BF91030E5
:104AC00018212DE0D90100202C0B00203D0E010003
:104AD000D30C0100DA0100200C000100DC010020F1
:104AE0006D100100202054454D502020200A000068
:104AF00050524F5445435445440A0000D001002011
:104B00004C020100CC020100D1010020100C002059
:104B1000CC010020442F000010270000A0860100D7
:104B20004843FE4940180246002103900846FCF71E
:104B300011FA0E20FDF782FEF949081AF949019091
:104B40000BF0E8F802917D21C90002980BF0E2F821
:104B5000103018214843F1494018024600210390C3
:104B60000A20FCF7F7F90323EFA20021122001E04D
:104B70006BE12AE0FCF76BFA0E20FDF75FFEE849D7
:104B8000081A7D21C90001900BF0C4F8029164213C
:104B900002980BF0BFF8103018214843DF49401845
:104BA0000246002103901920FCF7D4F901230022CA
:104BB0002D212320FCF7C2FBDC48032301222D21F9
:104BC00000902320FCF718FA62E0D9480068D54924
:104BD000884206D20323D7A200210846FCF737FA01
:104BE00014E0D549D24800680BF094F80291CD4901
:104BF00002980BF08FF8103018214843C74940182D
:104C00000246002103900846FCF7A4F9C549C848AC
:104C100000680BF07FF802917D21C90002980BF02B
:104C200079F8103018214843BC4940180246002149
:104C300003900A20FCF78EF9C048032300221721B5
:104C400000901420FCF7D8F97D21C900B84800680D
:104C50000BF060F80291642102980BF05BF81030C1
:104C600018214843AD4940180246002103901920FD
:104C7000FCF770F9012300222D212320FCF75EFBB5
:104C8000AF48032301222D2100902320FCF7B4F923
:104C9000DCE0AC484068002821D1AA48C06F012858
:104CA0000CD1FEF74BFD052803D1FEF71CFE059045
:104CB00041E0A4488030806805903CE0A148C06F86
:104CC000002838D1FEF73AFD052803D1FEF70BFE88
:104CD000059030E09B488030406805902BE0994873
:104CE0004068012827D19748C06F012814D1FEF7EA
:104CF00025FD052803D1FEF7F6FD05901BE0FEF724
:104D0000EEFD20387D21C9004843E121C900039010
:104D10000BF000F805900EE08A48C06F00280AD119
:104D2000FEF70CFD052803D1FEF7DDFD059002E03E
:104D3000FEF7D5FD05908348C06F012840D17D2145
:104D4000C90005980AF0E6FF0291642102980AF072
:104D5000E1FF1030182148437049401802460021F5
:104D600003900846FCF7F6F8642105980AF0D2FF94
:104D700002910A2102980AF0CDFF10301821484311
:104D8000664940180246002103900A20FCF7E2F829
:104D90000A2105980AF0BEFF1031182041435F48F0
:104DA00008180246002103901420FCF7D3F8664847
:104DB000032300222C2100901E20FCF71DF943E064
:104DC0006048C06F00283FD17D21C90005980AF0D6
:104DD000A1FF0291642102980AF09CFF1030182173
:104DE00048434E4940180246002103900846FCF70C
:104DF000B1F8642105980AF08DFF02910A2102980A
:104E00000AF088FF103018214843444940180246F0
:104E1000002103900A20FCF79DF80A2105980AF06A
:104E200079FF1031182041433C4808180246002100
:104E300003901420FCF78EF84448032300222C2111
:104E400000901E20FCF7D8F800E000BF00BFAF20A4
:104E5000FCF7ABFA0020FCF7AEFA1320FDF7EEFCEE
:104E600000282BD1FF212D311320FDF7E3FC35481D
:104E7000C030C06A012803D1AE20FCF796FA1DE0CD
:104E80000120FCF798FAFCF7E3FA012808D1304832
:104E900002230022362100902E20FCF7ADF805E019
:104EA0000223002236212E20FCF748FAFEF749FCA7
:104EB000AF20FCF77AFA0020FCF77DFA1420FDF70A
:104EC000BDFC00280CD1FF215F311420FDF7B2FC9E
:104ED0001C48C030C06A012803D1AE20FCF765FA37
:104EE00065E20120FCF767FA1648C068002802D086
:104EF000012833D104E013488030806904902EE00B
:104F00001048803080690490FEF718FC052821D1F4
:104F10000C488030C06904901FE000005D20010053
:104F2000442F0000102700002E0A00000019010085
:104F3000CC010020200A0000A08601002F190100EA
:104F400080180100500B0020561801002C18010099
:104F5000C30C0100F8488069049000E000BF00BF66
:104F60000023F6A203210420FCF771F8F449049809
:104F70000AF0D0FE02917D21C90002980AF0CAFE13
:104F8000103081004018EF49401802460321039079
:104F90000020FBF764FF7D21C90004980AF0BAFEE7
:104FA0000291642102980AF0B5FE10308100401889
:104FB000E44940180246032103900820FBF74FFF05
:104FC000642104980AF0A6FE02910A2102980AF0D0
:104FD000A1FE103081004018DA4940180246032132
:104FE00003900F20FBF73BFFD748042303221D212A
:104FF00000901620FCF700F8FEF7A0FB05287ED1F4
:10500000CD488038C068002802D0012878D1B8E0A7
:10501000C9488038C06A0690C9490698884256D265
:105020000023C6A203212820FCF711F8C4490698E2
:105030000AF070FE02917D21C90002980AF06AFE12
:10504000103081004018BF494018024603210390E8
:105050002420FBF704FF7D21C90006980AF05AFEC0
:105060000291642102980AF055FE10308100401828
:10507000B44940180246032103902C20FBF7EFFEB1
:10508000642106980AF046FE02910A2102980AF06D
:1050900041FE103081004018AA4940180246032101
:1050A00003903320FBF7DBFE0023A8A203213A2064
:1050B000FBF7CDFF0423032233213120FCF73EF917
:1050C000042303223A213820FCF738F958E0002362
:1050D0009AA203212F20FBF7BAFF9D4906980AF0F8
:1050E00019FE0291964902980AF014FE10308100D0
:1050F00040189449401802460321039001E008E15A
:1051000005E12420FBF7ABFE8D4906980AF002FE6C
:1051100002917D21C90002980AF0FCFD1030810047
:105120004018884940180246032103902B20FBF7C2
:1051300096FE7D21C90006980AF0ECFD02916421DB
:1051400002980AF0E7FD1030810040187D494018B0
:105150000246032103903320FBF781FE00237BA24C
:1051600003213A20FBF773FF042303222B2129207C
:10517000FCF7E4F8042303223A213820FCF7DEF898
:10518000C6E06D488038406B6D4988425FD200238D
:105190006AA203212820FBF75AFF67488038406B3A
:1051A000674901900AF0B6FD02917D21C90002987D
:1051B0000AF0B0FD103081004018624940180246E4
:1051C000032103902420FBF74AFE5B488038406BA4
:1051D0007D21C90001900AF09DFD02916421029891
:1051E0000AF098FD103081004018564940180246D8
:1051F000032103902C20FBF732FE4F488038406B90
:10520000642101900AF086FD02910A2102980AF0B9
:1052100081FD1030810040184A49401802460321A0
:1052200003903320FBF71BFE00234AA203213A2000
:10523000FBF70DFF0423032233213120FCF77EF816
:10524000042303223A213820FCF778F85EE000239B
:105250003AA203212F20FBF7FAFE37488038406B33
:105260003B4901900AF056FD0291354902980AF037
:1052700051FD103081004018324940180246032188
:1052800003902420FBF7EBFD2B488038406B2C4922
:1052900001900AF03FFD02917D21C90002980AF0B9
:1052A00039FD10308100401826494018024603217C
:1052B00003902B20FBF7D3FD1F488038406B7D21E6
:1052C000C90001900AF026FD0291642102980AF0BB
:1052D00021FD1030810040181A4940180246032170
:1052E00003903320FBF7BBFD00231AA203213A20D1
:1052F000FBF7ADFE042303222B212920FCF71EF827
:10530000042303223A213820FCF718F800E000BFFC
:105310004DE009488038006903000AF09AFD064311
:10532000041F28313A430C48042303223F210090F4
:105330002420FBF761FE39E0D00B00202E0A00008C
:10534000102700004819010014190100560A000036
:10535000A0860100570A00002C0C0100F848042325
:1053600003223F2100902420FBF746FE1EE0F54873
:10537000042303223F2100902420FBF73DFE15E08B
:10538000F148042303223F2100902420FBF734FE40
:105390000CE0EE48042303223F2100902420FBF779
:1053A0002BFE03E00320EA49086100BF00BF00BFF5
:1053B000FEF748FBE74908707047E74800787047F8
:1053C00070B5002600240025FFF7F7FF002871D0F4
:1053D0000321002007F0C3F800BF04E0FAF733FF11
:1053E000FAF768FF6D1C822DF8D3DC494969DB4A66
:1053F0005268881A0A210AF08DFC0646D749496886
:10540000D74A5143084631460AF084FC04465F2CD3
:1054100001D95F3C00E00024D24800680F3084428C
:1054200004D8D04800680F38A04201D9CD480460A4
:10543000CC480168C64880300161C84840680028EF
:1054400003D10021C24880300161C4484069C3498A
:105450004968401AC82806D3C0484068BF4949690E
:10546000401AC82803D2C049B948803001610020E1
:10547000FEF741F90321002007F094F80920FDF719
:10548000B3FC32211220FDF7D5F932211320FDF7AC
:10549000D1F932211420FDF7CDF978211F20FDF735
:1054A000C9F9FF21F5312020FDF7C4F9AC492120CD
:1054B000FDF7C0F970BD10B52E20FDF7BFF900282B
:1054C00017D1A7492E20FDF7B5F9FFF779FFA048BE
:1054D00080300069372805D39D4880300069A34992
:1054E000884206D30120FFF765FF002198488030ED
:1054F000816110BD9E49087070479E4908607047E1
:105500009D49086070479B480068704770B59B498B
:105510002920FDF78FF992494120FDF78BF98C483E
:10552000803081694161403080699549884203D962
:1055300094498748C03081618548C030806991496D
:10554000884202D28248C03081618148C068002808
:1055500002D0012872D134E17D484068002804D18E
:105560007B48006B884908602CE079484068012836
:1055700025D10E20FDF762F984490C1A784920469E
:105580000AF0C8FB8249085C00027F4908600E20CF
:10559000FDF754F97D490C1A714920460AF0BAFB0F
:1055A0007B490C39085C78490968084376490860EA
:1055B00008460068642148437349086002E00020FF
:1055C000634948603320FDF739F9002849D0604825
:1055D000006903000AF03DFC064004111F2433401B
:1055E000694909680A01501A64210AF093FB664967
:1055F0000968081A6449086032E0634909680A22A8
:105600005143084664210AF085FB5F490968081A7E
:105610005D49086024E05C4800685B4908601FE061
:10562000594909680A225143084664210AF072FB6D
:105630005549096840185449086011E093E25249FD
:1056400009680A01501A64210AF064FB4E4909688E
:1056500040184D49086003E003203D49086100BF40
:1056600000BF4B484C38806947490968884204D2DA
:1056700047484C3880694449086038484068344994
:10568000C862364A5268524310460A46803251690F
:105690000AF040FB2E4948630846416B3A480068CF
:1056A000FF382D38814213D22C4840682E49884259
:1056B00005D938480068401E3649086008E035487A
:1056C0000068AA2804D233480068401C31490860A9
:1056D0001F48416B2C480068FF302D30814208D9AB
:1056E0002C480068002804D02A480068401E294938
:1056F00008602848006800280DD1FDF71AFA00203C
:10570000FDF758FA0421012006F04CFF0521012085
:1057100006F048FF51E01F48006864283CD2002092
:10572000FDF707FA1B480068FDF744FA0421012041
:1057300006F015FF0521012006F011FF3DE00000F5
:10574000470C0100620C01007D0C0100980C010067
:10575000500B0020B7010020B501002038030020C5
:10576000E8030000080200200F270000B80B00002B
:10577000A4010020A8010020AC010020DC050000ED
:1057800080380100F8240100F0010020442F0000BF
:105790005C0C0020BC010020FF4909680846643801
:1057A000FDF7C7F90020FDF705FA0421012006F0F6
:1057B000D6FE0521012006F0D2FE2020FFF7A0FE34
:1057C000D5E1F6484068002825D1F448C06F01288B
:1057D0000ED1F24880308068F149086008460068C0
:1057E000FF213C3188424AD90846ED49086046E02D
:1057F000EA48C06F002842D1E84880304068E84954
:105800000860084600684B21C900884237D908461D
:10581000E349086033E0E148406801282CD1DF48C3
:10582000C06F012816D1FEF75AF820387D21C90033
:1058300048430446E121C9000AF06CFAD8490860DF
:1058400008460068FF213C31884218D90846D449EF
:10585000086014E0D148C06F002810D1FEF73FF86F
:10586000CF490860084600684B21C900884206D924
:105870000846CB49086002E00020C8494860C94892
:105880004068C649C862C74A5268524310460A4631
:105890008032D1690AF03EFAC0494863084600697F
:1058A00003000AF0D6FA061804080C101418BE48B3
:1058B000BE49086013E0BE48BC4908600FE0BD481F
:1058C000BA4908600BE0BC48B849086007E0BB482B
:1058D000B649086003E00320B049086100BF00BF7B
:1058E000AE488030006801280ED1AC488030C068D6
:1058F000012809D1A948406B4000A8494863AB483A
:1059000000684000A9490860A4488030C1698069E6
:10591000814205D2A14880308069A949086004E02D
:105920009E488030C069A64908609C488030006865
:10593000012804D0022808D0032814D10BE097488E
:10594000C030406B9F49086012E09448C030806BC3
:105950009C4908600CE09148C030C06BFF30C330F8
:105960009849086004E001218C488030016000BF44
:1059700000BF8A4980318969914A1268511A7D2293
:10598000D200514308468F4909680AF0C3F97D21C6
:10599000C9004843054681488030816928460AF09D
:1059A000B9F9044619342046FFF7A7FD7B48C06FBC
:1059B000012804D1FFF7A7FD8349086010E077486C
:1059C000C06F00280CD1FFF79EFDE121C9004843BC
:1059D00004467D21C9000AF09DF920307A4908600B
:1059E0006F48006878490968884234D92B20FCF751
:1059F00025FF00282FD16A48006873490968401ABA
:105A0000322804D900212B20FCF714FF09E0644858
:105A100000686D4A1268801A3222111A2B20FCF796
:105A200009FF5E48406B61490968884213D25D48AE
:105A300040686649884205D957480068401E564963
:105A4000086008E054480068AA2804D25248006858
:105A5000401C514908605C48016851480068814217
:105A600023D92B20FCF7EAFE00281ED156480068F7
:105A70004B490968401A642804D900212B20FCF7FF
:105A8000D9FE09E050480068454A1268801A64222D
:105A9000111A2B20FCF7CEFE3F4800681E2804D9BF
:105AA0003D480068401E3C490860474800683C4942
:105AB0000968884217D946480068401C4449086074
:105AC00008460068052815D935480068FFF718FD15
:105AD0002C20FCF7B3FE00280CD17D2109012C20DD
